S01800005A335377697463682D4D4732342D4B49542E733337A1
S315080000000010002011F9000859520208E1E500081D
S31508000010E1E500086152020869520208E1E50008B4
S31508000020E1E50008E1E50008E1E50008E1E500088A
S315080000306D520208E1E50008E1E50008E1E500087F
S31508000040E1E50008E1E50008E1E50008E1E500086A
S31508000050E1E50008E1E50008E1E50008E1E500085A
S31508000060E1E50008E1E50008E1E5000815050108F5
S31508000070AB040108E1E50008E1E50008E1E5000850
S31508000080E1E50008E1E50008E1E50008E1E500082A
S31508000090E1E50008B1E70008E1E50008E1E5000848
S315080000A0E1E50008F5E60008D1E60008E1E5000804
S315080000B0E1E50008F1A902089DB4020855D2020834
S315080000C051D202082DAC02086BD2020859D2020896
S315080000D06DB402085DD20208DDB4020845B502080F
S315080000E0E1E50008E1E50008E1E50008E1E50008CA
S315080000F0B5330008E1E50008E1E50008E1E5000898
S31508000100E1E50008E1E50008E1E50008E1E50008A9
S31508000110E1E50008E1E50008E1E50008E1E5000899
S31508000120E1E50008E1E50008E1E50008E1E5000889
S31508000130E1E50008E1E50008E1E50008E1E5000879
S31508000140E1E50008E1E50008E1E5000889DC0208C8
S3150800015041980208E1E5000841D2020847D20208A0
S31508000160E1E50008E1E50008E1E50008E1E5000849
S31508000170F0B5114A114C124E00F00105E3695F070C
S3150800018013D40DB9334213D103EA00078F4207D1BE
S315080001900B4A1A40002A0CBF00206FF00100F0BD80
S315080001A0013AEBD16FF00200F9E74FF0FF30F6E7BE
S315080001B06FF00100F3E700BF809698000000035037
S315080001C0020001002DE9F84F16464FF48032274BFE
S315080001D0274D9A66EB69074603EA020841F671332A
S315080001E00122EB63234BDFF89490DA600EB93046B0
S315080001F029E007F5005404EA09046F61E41BEB697A
S31508000200B44228BF34465B072DD48B465BF8043BC3
S3150800021001EB040AAB61D3450ED10423002121204A
S315080002202B61FFF7A5FF70B92120FFF7A1FF50B991
S3150800023059462744361BD9E708210846FFF798FF91
S3150800024068B104232B6101220B4BDA60B8F1000F69
S3150800025003D00022A3F50053DA63BDE8F88F5BF8F4
S31508000260043BAB61D7E74FF0FF30ECE70090005056
S3150800027000000350001003500020035000E0FFFF69
S315080002802DE98048C04CC9B003F02AFEBF4904F5E1
S31508000290A46024F011FBBE4904F5A46024F00CFB0D
S315080002A004F5A460BB4924F007FBB5A3D3E90023F2
S315080002B0CDE90023D4F85C032CF0B0FB03F06EFA0A
S315080002C0B14C0A90D4F8D00724F0E0FD94F8A06564
S315080002D0002E40F0D580012384F8A03594F8A8357F
S315080002E033B1D4F8A415AC4884F8A8650FF046FCD9
S315080002F04FF0FF37A94DD4F8D407431C16D0C4F8DD
S31508000300D47710F0FF01F6D028460FF0FBFE0590D3
S315080003100028F0D0012384F8A83594F82035002B5E
S3150800032000F0A1809D4D05F1AC071FE013F0FBFB23
S31508000330411CE6D1D4F8AC35D4F8B425013B9A4231
S31508000340C0F29A80964997480FF018FC94E0284620
S315080003500EF017FF34AAC4F8CC0724A928460EF0D5
S315080003602DFD0022249B234483F8CC258021284692
S3150800037010F0D1F84FF4007180468B4810F0CBF896
S3150800038008F10108081A8045E1D884482DF094F848
S31508000390054685482DF090F80135421C82497819A2
S315080003A02DF054F87D482DF087F87C49024601F176
S315080003B0AC002DF03EF879482DF07EF80A2320444B
S315080003C080F8CC350023C4F8CC37D4F8C035002BD8
S315080003D040F05E8214AF3A4670480DA90EF0E5FE6D
S315080003E00546002840F04C8214998DF8D0000E90EE
S315080003F08DF832008DF8310031B16C480EF0F1F805
S3150800040010B90123059E0E93D4F8BC450020A046DA
S315080004100DF131090DF1320AB8F1000F40F096805E
S3150800042016B101238DF831309DF83120002A00F0ED
S31508000430C9809DF83230002800F0C180002B00F0FA
S315080004409A800FF0BDFB504C0021D4F8AC2504F57A
S31508000450A4602CF0E6FF0023C4F8B035C4F8B43520
S3150800046094F8A83543B1484C4B48D4F8A4150FF076
S3150800047085FB002384F8A8350022434B83F8A02582
S315080004800A9824F003FD2FF04BF8FA23B0FBF3F09B
S3150800049014253D4CB4F8DE2794F8DC37A4F8DE07BB
S315080004A09B1A13FA80F39BB2B3FBF5F105FB1133E4
S315080004B084F8DC3794F8E037CAB29A422EBF002394
S315080004C09B1ADBB2032A84F8E0378FBF0023D4F8DF
S315080004D0E437D200D340C4F8E437EFF3118730236A
S315080004E083F31188B4F8E837DA0506D594F8EA37BD
S315080004F0002B40F0D28114F097FD2D4D00202EF0F0
S31508000500A1FD95F85030FF2B00F0D58195F85030B5
S3150800051003F0FF00002B00F0C68195F85030012B40
S315080005204FF0FF0314BF33204C2085F850300023CA
S3150800053084F8EA3787F31188BFF36F8F14F0D0FD7C
S31508000540EFF31187302383F31188B4E1D8F8080054
S3150800055070B10EABCDE9007300210DABCDE902A950
S3150800056034AA0EF0E3FB9DF8D030002B7FF458AF89
S31508000570D8F8008050E70FF01BFC64E7AFF3008063
S31508000580000D00542600020000100020A845002097
S31508000590B4450020C0450020E915030820150020B1
S315080005A084F902083A160308CC1500207FF90208D8
S315080005B07C450020A06808B10FF0FAFB2468002CDF
S315080005C0F8D140E728B92D25A94B03EB8503596EC9
S315080005D05AE1436808930D9B07930E9B0993099963
S315080005E0079B8B42C0F24A811146089B0B335E7803
S315080005F0581CFF2E0BD108981B1A09980B3B03446D
S3150800060099B1079A013B9A4214DA2B25DCE7172E93
S3150800061005D8059B0F2E88BF1A460346E7E7059BB4
S31508000620203E012E98BF1946F7E7002AE9D1079A16
S315080006309A42EAD100221446089B0DF1D0090C33E0
S3150800064006930492079BAB420EDC8A4B0FA80F93C6
S315080006500D9B109334AB11930E9B1293069B139329
S31508000660089B1B689847EEE6099BAB420CDD002AFF
S3150800067040F0FC8006263B68C9F8003000220135A8
S31508000680043709F10409DDE7069B04995B5C202B16
S315080006901ED1069B0B445B78FF2BB6D102BBD7F85D
S315080006A00080072E00F2C58001A353F826F000BF8C
S315080006B00D0700083B0700085D0700087D070008CE
S315080006C09D070008BD07000875060008D30700083F
S315080006D0212B0AD1069B049A13445B78FF2B94D1ED
S315080006E03B68059AC9F80030C9E7A3F11006072E3A
S315080006F004D904991E4601310491CFE7069B049953
S315080007000B445B78FF2B80D1F6B2C7E7002241463F
S3150800071008200FF0CFF9002800F08B8000223868F7
S3150800072011462BF0CDFF24AB03EB8402C0B243F88D
S315080007302400C9F800200134A0E700224146102011
S315080007400FF0B8F9002874D00022386811462BF04B
S31508000750B7FF24AB03EB840280B2E8E700224146E8
S3150800076020200FF0A7F9002863D000223868114628
S315080007702BF0A6FF24AB03EB8402D8E741460820FA
S315080007800FF0F4F9002854D00022386811462BF0EF
S315080007901BFF24AB03EB840240B2C8E74146102096
S315080007A00FF0E4F9002844D00022386811462BF0EF
S315080007B00BFF24AB03EB840200B2B8E741462020C6
S315080007C00FF0D4F9A8B30022386811462BF0FCFEC6
S315080007D0D0E798F800307B2B2BD1434640460222BF
S315080007E04FF0000ADFF890C010F8011F7D2915D1D7
S315080007F018F80220EAB91AF0010A1AD1D3468DF878
S315080008003EA013F8012F7D2A15D188F800B04FEACB
S315080008101B2B88F801B0C9F800802FE71CF801E007
S315080008201EF0440F03D00AF1010A0132DCE7202941
S31508000830FBD02625C8E6202AE3D00AF001010AF1F2
S31508000840010A11B98DF83C20DBE78DF83D2000211F
S3150800085010220FA80B932BF0B7FE08EB0B020BF137
S31508000860010B0B9B90701FFA8BFBCAE7062637E72E
S3150800087038FC020820150020892E04082125A3E645
S315080008802D287FF6A1AE294929480FF077F9DAE530
S31508000890D4F8C41527489847D5E500214FF4807049
S315080008A02DF0E2FD29E6FF2385F8503094F8EA3763
S315080008B0052B3FF43CAE94F8EA37062B0BD195F896
S315080008C05130FF2B07D095F85130022B07D1002164
S315080008D019482DF057FFFF2385F8513021E095F888
S315080008E051301BB195F85130012B31D12DF02EFE28
S315080008F00646114895F8518015F098FBFF235FFAD4
S3150800090088F885F85130002E00F0B081B8F1010F53
S3150800091014D16421084884F8EA872DF033FF14F0CF
S315080009204DFB87F31188BFF36F8F11E071F9020849
S315080009303A16030820150020D0450020002384F825
S31508000940EA3787F31188BFF36F8F3F2014F0C8FB8F
S31508000950B4F8E8371B060DD5002180202DF084FD5C
S31508000960D4F85C032CF0E9FCC70703D5D4F85C037C
S315080009702CF0E6FCEFF31185302383F31188BF488A
S3150800098020F03FFD85F31188BFF36F8FA4F8EE07BB
S3150800099018B394F8EA67012E40F09A812DF010FEFC
S315080009A00546002800F07A81B0F8013003F4406368
S315080009B0B3F5006F40F07281042231462EF0B4FD83
S315080009C04FF6FF732A5A9A4240F06881B4F8EE0748
S315080009D021F02CFD0023A4F8EE37B4F8F037F3B174
S315080009E0A74820F00EFD0546C8B12DF0E9FD037AAB
S315080009F0284684F8F2372DF0E3FD437A284684F832
S31508000A00F3372DF0DDFD837A284684F8F4372DF088
S31508000A10D7FDC3682846C4F8F83718F0B1FAB4F811
S31508000A20FC37002B00F09880964820F0EAFC054633
S31508000A30002800F09180014604201AF069FB00287E
S31508000A4000F08A802846ADF832502DF0B9FDBDF881
S31508000A503260B0F81280054630461CF072FA01463C
S31508000A6030461BF057FBAB8A00F00307A4F8FE37A5
S31508000A7015F0C0FF404506D04FF6F773984502D8E3
S31508000A806B7CDE074ED58049BDF832001DF07CFC34
S31508000A907E49BDF832001CF02CFB00287B4B08BFB2
S31508000AA00023BDF83200C4F80C382DF089FD037A0E
S31508000AB0BDF8320084F8F2372DF082FD437ABDF88E
S31508000AC0320084F8F3372DF07BFDC368C4F8F83795
S31508000AD000238DF83130B4F80638980640F10981BC
S31508000AE0D4F81038990700F10281012F14BF0823A2
S31508000AF018230DF13102009200220DF13200114641
S31508000B001CF05CFB002800F0F480012F0AD194F851
S31508000B101438112B06D11AF0D3FC18B940F61D4328
S31508000B20C4F82C3815F066FF594DB5F8FE378342E0
S31508000B300FD1BDF8324020461CF003FA0146204684
S31508000B401BF0E8FA10F00C0103D1BDF832001EF0D4
S31508000B5015F80023C5F80C384D4C16F005FE04F5BB
S31508000B60226015F079F894F8303A043B022B15D830
S31508000B70484DD5F884308BB115F0CAFE10280DD132
S31508000B802EF0C9FCB4F8323AC01A80B2B0F5807FAC
S31508000B9004D9002105F174002DF0F4FDEFF311835B
S31508000BA0302282F311880122002584F8342AB4F809
S31508000BB0EC27D4F8389AADF89020A4F8EC5783F3CC
S31508000BC01188BFF36F8F24A814F023FB324AEBB2C7
S31508000BD002EB8303D3F81C310135002B40F0F18575
S31508000BE000264FF0010AD4F83C7AB94500F2EC85A4
S31508000BF0002E40F0EB85BAF1000FF1D0D4F83C8A0C
S31508000C00C24647464546A94500F21E86022324A841
S31508000C1084F8343A002514F0FCFA1F4AEBB202EBCA
S31508000C208303D3F81C310135002B40F03386D4F802
S31508000C303C5AA846D04580F04F86B8F804002DF0F7
S31508000C40B3FC20B10388C3F30E03A8F80430B8F840
S31508000C5006002DF0A9FC20B10388C3F30E03A8F8FB
S31508000C600630404614F0C0FA8046E3E784F8EA679F
S31508000C7087F31188BFF36F8F304667E6EC170020BD
S31508000C80F0170020FC17002000180020F814002098
S31508000C90001000207C45002038FC0208B44815F0F6
S31508000CA0C5F9002084F8EA0721F084F994F8EA37B0
S31508000CB0D3B1B4F8EE0721F0B9FB0023A4F8EE3758
S31508000CC094F8EA37002B7FF488AE21F06BF984E6B6
S31508000CD0002E7FF47DAE14F0A7F9B4F8EE0721F0E4
S31508000CE0A5FBA4F8EE6778E614F09EF9E1E7082379
S31508000CF0FFE64FF6F7736A8A9A4200F24381022F9B
S31508000D0000F0C182B4F90638002B80F2F280012F78
S31508000D1040F03E8115F06EFEB4F8FE3783423FF48C
S31508000D2001AF0520BDF832101AF0F2F900283FF499
S31508000D30F9AEB4F806385A0608D5002300930A20F7
S31508000D40FF238C4AB4F8FE1721F018FF00218A4BBE
S31508000D50BDF832501F2235A8B3F8FE6734919DF8C6
S31508000D6031902CF05EFB28461CF0EBF8014628462D
S31508000D701BF0D0F9824628462DF022FC90F8118007
S31508000D801AF0200F0746C8F34008284618BF48F04F
S31508000D9002081CF0C9F9824628462DF02FFC0022CD
S31508000DA0A0EB0A03DBB2232B28BF23230092294694
S31508000DB0524634A82EF010FC00287FF4B3AE94F8FF
S31508000DC0163A9DF8D0A09DF8D1B0002B00F0E98224
S31508000DD0D4F8103813F4801F0CBF4FF4F0734FF497
S31508000DE0D07323FA0AF3DB0740F1DB8218F0020F0F
S31508000DF040F0D782BAF1080F3FF494AEBAF1050F66
S31508000E007FF490AEBBF1050F3FF68CAE284614F082
S31508000E10CCFA01239DF8D1A0B7F812B003FA0AF369
S31508000E2013F06203D4F81058049300F0FF82AE035F
S31508000E3040F1FC8218F0020F3FF474AE0022102134
S31508000E400DF1D20015F0F0FC81469DF8E230BAF1BA
S31508000E50030F059340F004830DF1E30515F0CAFD71
S31508000E6083453FF45FAE0026049B002B40F01183B8
S31508000E704FF6FF7428460DA9ADF8344015F0C0FDAD
S31508000E80F0B114A82A4621462EF048F814A82EF0E8
S31508000E9093F8002800F017842DF092FB034624AA45
S31508000EA000F11007144618685968083303C4BB4292
S31508000EB02246F7D118682060BDF89810ADF83410AE
S31508000EC04FF6FF73BDF8348098453FF42BAEB9F161
S31508000ED0000F0CBF4FF004094FF01509002E40F023
S31508000EE0F5830FA81AF0E9F900283FF41BAE0FAFF7
S31508000EF0EDE3BDF832002DF081FB4FF0FF32A0F193
S31508000F00100100201D4EC9B20F35C3B2994218D838
S31508000F1000231B4951F8040B82423FF403AE013308
S31508000F20052BF7D194F87C1A481CB0FBF3F303EBB6
S31508000F308303C01A04EB810184F87C0AC1F83428BB
S31508000F40E5E615F8013F4FEA122C53400822DBB2BA
S31508000F5003F0010E5B08BEF1000F00D07340013AA2
S31508000F6012F0FF02F4D18CEA03020130CDE700BF8C
S31508000F70D045002000180020001000202083B8ED7E
S31508000F8034180020012F3FF4C5AE022F00F07B81F4
S31508000F90002F7FF4C7ADBDF8326030462DF010FB48
S31508000FA0804630461BF0CDFF014630461BF0B2F8AE
S31508000FB098F81150B8F81290059015F01BFD05F039
S31508000FC00105B4F8FE87B4F802A80490002D7FF452
S31508000FD0A9AD4FF6F77399453A46414600F2C180E6
S31508000FE008202DF001F930461BF0ABFFB4F90628AE
S31508000FF0B4F80638002A80F2BB80B4F80038002B13
S3150800100040F0928094F805B8BBF1000F40F08C8050
S315080010100FA930461CF024FC411E89B2BDF83C00DD
S315080010201BF078F848F20203B4F802289A424ED127
S315080010304922594635A8B4F8FE77CDF8D0B02CF039
S31508001040F0F994F84838012B41D1002F3FD114A963
S3150800105030461CF005FC0690BDF850002DF0CEFA7F
S31508001060069ABDF85010A0EB020B5FFA8BFB5B46A5
S31508001070009734A82EF0B0FA384624A915F01EFDBC
S3150800108028BBBBF1000F22D09DF8D110F9B9BDF8E5
S31508001090DB3003F47E43B3F5285F70D3BB4CB3F55E
S315080010A0385F28BFD4F8103824A824BF43F40003B7
S315080010B0C4F81038012384F849381CF007FB41F2BC
S315080010C08831B3482DF05EFB022384F84838AF4FC9
S315080010D01AF4004FB7F8FE4700F0978014A9304677
S315080010E01CF0BEFB4FF0000BBDF850900746484673
S315080010F0CDE934BBCDF8D7B02DF080FAC31BDBB2EF
S315080011000B2B28BF0B233A464946CDF800B034A826
S315080011102EF062FA48F21F039A455CD038D88AF452
S31508001120004ABAF1010F3AD9059B984C03F00C070F
S315080011300C2F40F09580B4F8087838461FF007FB66
S31508001140FF287DD104F5A0631A88BA4202D19A789D
S31508001150002A75D10135EDB2082D03F10403F3D148
S31508001160E0E406202DF040F830461BF0EAFE44E79E
S315080011705A067FF542AF504622F0F1FE3DE784F865
S3150800118048181AF0AFF91E2124A80CF0F7FB9EE7C1
S3150800119048F23A039A45C7D115F02CFCC4E79DF8E6
S315080011A0D030002BC0D1BDF8D970DDF8D100DDF8FC
S315080011B0D51024AB03C3384624A908F0E3F8012266
S315080011C0384624A91AF016FDA742ADD0012124A855
S315080011D021F086FCA8E79DF8D040002CA4D1A246B1
S315080011E09DF8D1B00237E2B25A459DD2D200D2B2AA
S315080011F03A4408234946CDF800A092B224A8CDE97E
S3150800120024AA01342EF0E8F9EDE7022387F86C38B2
S315080012104FF6F773994594BF00230123324600938E
S315080012202046002307F500611CF02FFBBAF1130FC7
S315080012303FF47AAFB7F806385B047FF573AC73E70B
S31508001240049BB4F80808434514BF022503251FF07C
S315080012507EFA84F86D08294630461FF09BFA61E449
S31508001260002294F804381146009394F80538B4F827
S31508001270FE071AF025FC082FEBD1049B434514BF43
S3150800128004250525E5E7BDF83290B4F906B800252A
S3150800129094F8153AAB427FF645AC3E4B03EB051680
S315080012A0B08800B9708834A91DF06EF894F80A2839
S315080012B09DF8DA309A4271D1BBF1000F0EDA94F834
S315080012C008189DF8D820B4F80838914206D88A42FA
S315080012D064DC1B0A521A1341DF075FD548461BF028
S315080012E023FFBDF8D6308246980604D5B4F80638EA
S315080012F099067FF517ACF37903F00C03042B2ED16E
S31508001300002194F8108994F8117972881F4B08EB1C
S31508001310070CCDB2654522DA03EB051EBEF814E9C3
S31508001320013196454FEA0510F3D16A1CACEB02026F
S31508001330DFF864C000F110011201614460442CF02A
S3150800134085F8AF42114B8BBF07F1FF3708F1FF381D
S3150800135083F8117983F810890DB984F8145A002195
S3150800136030461DF009F91AF0C9F848462DF046F935
S31508001370824506D2337A0121484684F86D381FF033
S3150800138009FABBF1000F82DBFFF7CCBB0010002087
S315080013904C18002070180020141900200135EDB2F1
S315080013A076E7BAF1100F29D1B9F1000F3FF4BAABBD
S315080013B094F81438022B40F0FF81002E7FF4B2AB6C
S315080013C024A819F07AFF00283FF4ACAB9DF8D13079
S315080013D084F81C6A002B94F8483814BF64256525E0
S315080013E0032B05D1314630461AF07CF884F8486854
S315080013F0294624A80CF0C2FAFFF794BB16F006FE9D
S3150800140000287FF4FBACAAF1050ABAF1040F3FF6EF
S3150800141089AB01A353F82AF0050E0008250B00082E
S3150800142093170008250B0008AF17000816F0EEFD05
S3150800143018B9B8F1000F3FF475AB002210210DF171
S31508001440D20015F0F1F9049B8146002B7FF4FDAC20
S31508001450049BBAF1030F059330D10DF1E205FDE4C3
S31508001460A80741D5FF2208210DF1EB0015F0DCF99C
S315080014700746C8BB034601460DF1EB02022019F0E8
S31508001480CDFE15F0B7FA58450DF1EB060DF1E3055B
S315080014904ED04FF6F7739B457FF6EAAC002208213B
S315080014A0284615F0C1F900283FF4E2AC0022059958
S315080014B00DF1D2001AF0AEF8FFF734BB0DF1EA06CB
S315080014C00DF1E20524A819F0F8FE074688B10822AE
S315080014D0314624A82BF095FFE0B915F08BFA58454C
S315080014E07FF4C2AC002723E00DF1EB060DF1E3050E
S315080014F0E8E7FF220821304615F096F9034620B1A1
S315080015000621384619F0D6FEE7E73246014619F0B5
S3150800151085FEE2E794F81438432B7FF403ABBAF15F
S31508001520010F7FF4FFAA15F065FA83457FF49CAC9A
S31508001530284615F09DFB00283FF496ACBAF1010F3A
S3150800154048D0BAF1040F7FF4EDAA19F0B9FF18B123
S31508001550B8F1030F7FF4E6AAB9F1000F7FF4E2AA07
S315080015600323062230460DF1D20184F8483808F0E4
S315080015705FFC94F81C3AC4F8189A6BB11CF020F971
S3150800158094F84838022B07D1012341F28831C34821
S3150800159084F849382DF0F6F894F81438022B0DD152
S315080015A0032130460CF0EAF994F8481800297FF42C
S315080015B0B9AA084619F096FFFFF7B4BA412B7FF48B
S315080015C0B1AAD4F8103859057FF5ACAA16F0D0FEA2
S315080015D0FFF7A8BA94F81438022B2AD094F81438CE
S315080015E0412B3FF49FAA16F011FD0246B9F1000FF0
S315080015F004D105990DF1D2001AF00CF816F006FD83
S3150800160000283FF48FAA19F05BFFA54D00283DD0AE
S31508001610D4F810381A0503D494F81428432A35D177
S3150800162018F0020F0ED140F61A43C5F82C38FFF70A
S3150800163079BA19F045FF0028D0D018F0020FCDD19D
S31508001640FFF770BA95F81428112A2AD1580528D513
S3150800165000201CF03BF8044600287FF463AA15F026
S315080016601FFD40F61C4321462046C5F82C3819F0C4
S3150800167039FF95F81438112B03D0D72189482CF057
S315080016803DF8412385F81438FFF74CBA94F8142826
S31508001690D4F81038112A01D15905D9D418F0020FF7
S315080016A006D013F0300F03D02021302019F002FEA7
S315080016B0002F8BD00023324619461846C5F8183A2B
S315080016C019F0ACFD82E72146FFF7F8BB3746002143
S315080016D023202CF0EBFFADF8380000283FF422AAAF
S315080016E02CF06EFF0523044619F0100F00F8023B94
S315080016F084F801A02DD0112200212BF092FE04F1CE
S31508001700130BBAF1030F4FF0080238D02946584692
S315080017102BF09CFE01230BF10802121BBDF83810B2
S3150800172000933846082392B22DF056FF0BF11001AC
S31508001730091B89B20EA81AF051FB00287FF4F2A9FA
S315080017404B4629464046BDF838201BF027FFFFF7D1
S31508001750E9B910220DF1D2012BF078FE049B13B9DA
S3150800176004F1120BCDE724A807F06AFE14A822F0AC
S3150800177091FD9DF8523004F1130BA374C1E731466D
S3150800178058462BF063FE00230BF109018BF808304D
S31508001790CEE70DF1D10015F06BFA00283FF4C2A987
S315080017A002223146002016F0B9FFFFF7BBB95846AA
S315080017B022F098FDFFF7B6B9043B012B3FF6B2A914
S315080017C0FBE59847FFF702BA002E37D0013EF6B27E
S315080017D048AB03EB860353F8505CB5F902206B88D7
S315080017E0002ABFF602AA5A043FF5FFA9A84643F401
S315080017F0804228F8022F063538F8020F2CF0D4FE5E
S315080018008346B8B1B0F902104288002912DB6FEAA4
S3150800181042426FEA5242428013F0FAFC0F2E8FBF03
S315080018204FF0000A48AB03EB860201369CBF42F82C
S3150800183050BCF6B2A845DFD1FFF7D7B9384613F042
S31508001840D3FC3D460746C8E7B5F800B0B5F902200F
S315080018502BF4FF4B002A2BF07F0B11DAC7B1A7EB4D
S31508001860080A4FEA6A0A0AF1010A1FFA8AFA28469A
S3150800187013F0B2FC4BEA0A0B07EB400705EB400AEC
S315080018802846A5F800B013F0AFFC0546FFF7BBB92C
S31508001890BA46ECE79847FFF7C0B900BF4C180020D6
S315080018A00010002099F90208284613F09DFC81468D
S315080018B08DB1B5F90230B5F80280002B0BDA28880D
S315080018C0C0F30E002CF070FE854283462CD1C8F377
S315080018D00D08A5F802804D465545E5D34FF030086A
S315080018E0DFF89091EFF3118588F3118848461FF0C9
S315080018F088FD2CF059FE8246002873D1BDF8903039
S31508001900C4F8387AA4F8EC3784F8340A85F31188D1
S31508001910BFF36F8F002E00F08280544814F09CF9B4
S315080019202CF076FAFEF7CABC1CD9284613F054FCEC
S31508001930C8F30D08420029465846A5F8028092B217
S315080019402BF084FDC7E7484613F04EFCC84682458F
S3150800195003D9B0F90230002B01DA814603E013F00F
S3150800196043FCF4E7A846D14507D2B9F80000C0F30E
S315080019700E002CF019FE8145E5D3B8F1000F2FD0E3
S31508001980B8F80000C0F30E002CF00EFE834670B1C6
S31508001990404613F021FCB8F802304200C3F30D03A9
S315080019A041465846A8F8023092B22BF04FFD2B4616
S315080019B0C346984503D845458DD0D846DDE7184631
S315080019C0049313F011FC049B9B46824503D9B0F996
S315080019D00230002B01DA0346EBE713F005FCF4E7C7
S315080019E0C346EAE785F31188BFF36F8FAFB1D4F822
S315080019F03C5A7D1B6D100135ADB2504613F0ECFB19
S31508001A004FEA400B5A46514638462BF01FFD2946E9
S31508001A1024A82DF007FE5F4464E73D46EDE7D4F8B9
S31508001A20403A002B3FF479AF1B78022B7FF675AF4F
S31508001A3006F043FE022815D1D4F8445A06F0A4FF4E
S31508001A408542C4F8440A05D0D4F8441A084820F058
S31508001A504EFB62E7064820F023FB0369002B7FF460
S31508001A605CAFF1E7024820F03BFB56E76C1A002012
S31508001A704C1A0020EC17002000280CDB012206492E
S31508001A80430900F01F008240203341F82320BFF3AA
S31508001A904F8FBFF36F8F704700E100E0D0F8A43096
S31508001AA01B689A6C5206FCD5002059647047D0F81A
S31508001AB0A4301B689A6C120643BFDB6B00200B70C0
S31508001AC01B207047D0F8A43001221B6819B103F512
S31508001AD080531A65704703F500531A65DA64704730
S31508001AE04FF06042D2F8803E1B02FBD4704780F864
S31508001AF09910704790F89900704790F896007047CB
S31508001B004BF6EF6283B2002B08BF1346044A000C5B
S31508001B1013804FF6CE2308BF18465080704700BF83
S31508001B20844600207047D0E9023253F822301A88DA
S31508001B30014B9A80704700BF84460020C3688268BC
S31508001B40013BDBB252F823305B78652B03D10022C8
S31508001B50064B1A7470476E2B02D10122034BF8E725
S31508001B60662BF7D10222014BF3E700BF302600208F
S31508001B70C3688268013BDBB252F823305B78A3F175
S31508001B80660253425341014A9371704784460020C6
S31508001B90704770477047034A537C43F001035374F8
S31508001BA0704700BF30260020D0E9023253F82230B1
S31508001BB0034A1B78003B18BF0123DB009374704768
S31508001BC030260020D0E9023253F82230034A1B7827
S31508001BD0003B18BF0123D374704700BF302600208E
S31508001BE07047D0E9023253F82230034A1B78003B8B
S31508001BF018BF0123D3717047844600207047704789
S31508001C0070472DE9F0470F4615460024DFF8709017
S31508001C1002F1040899F8146002F1090A5FFA88F8D3
S31508001C20A24505D8013689F814600020BDE8F0877A
S31508001C30052C11D8DFE804F01D08030A0C0ED12084
S31508001C4020F0B0FD0134EBE74046F9E70220F7E75C
S31508001C500020F5E73046F3E7AB1D9C420BD0EB1DA1
S31508001C609C4208D005F108039C4206D0BB1F185DAC
S31508001C70E6E75B20E4E75A20E2E75D20E0E700BFFD
S31508001C8030260020024A537C23F001035374704720
S31508001C9030260020012910B502D902290DD010BD21
S31508001CA0104B1C68B83C14F1B80FF8D0D4F8A8004B
S31508001CB02DF0DEFCD4F8B840F4E70A4B1C68B83CB3
S31508001CC014F1B80FEBD094F8973043B994F89530DF
S31508001CD003F0FF011BB9D4F8A8002DF0CBFAD4F80D
S31508001CE0B840ECE75C1B002070B5044608B9012033
S31508001CF070BD057D28460EF09BFC30236B4303F12F
S31508001D00A04303F580232846DE6E0EF0B3FC0A4B8B
S31508001D109E421CBF042384F8A13094F8953094F8A9
S31508001D20A1002BB1022803D1012384F8A130DFE7F3
S31508001D300428DCD1F8E700BFB51300202DE9F743E6
S31508001D40D0E9043404F17C07D0F80C900646013B30
S31508001D50102200213846D4F874809DB22BF061FB1E
S31508001D600B4BC5F30A0543EA0513C4E91F390123DA
S31508001D7094F8780084F88C30C4F884803A46054B89
S31508001D80009604F1640123F073F903B0BDE8F0830B
S31508001D9000001030991D0008536910B5144600223A
S31508001DA0D3F8900083F88C2028B10168C3F8901006
S31508001DB00260FFF7C3FF63681BB100212046A268D3
S31508001DC09847002010BD034693F89420084610B59E
S31508001DD0FAB10A69B2F5006F1DD8EFF31184302203
S31508001DE082F3118893F88C204B617AB103F1900243
S31508001DF0D3F890303BB90360106084F31188BFF3C1
S31508001E006F8F002010BD1A461B68F3E7FFF796FF91
S31508001E10F3E70E20F6E72120F4E713B504460DF1A3
S31508001E200701007D2DF02EFB9DF8073043B1236D89
S31508001E30D4E912020244934218BF184602B010BDF4
S31508001E403022237D534303F1A04303F58023DB6E41
S31508001E50EEE7D0E9023253F8223000201A88024B06
S31508001E6002491A8109F062B884460020B8FE0208C1
S31508001E707FB50023CDE90333CDE901334FF4FA6387
S31508001E800093012304481A460449C08A09F04EF80B
S31508001E9007B05DF804FB00BF3026002006FF0208E5
S31508001EA00B6810B5DA7B6AB9DC7C5CB92046064952
S31508001EB009F03CF8054B9B691B6858791EF0D9FF59
S31508001EC0204610BD8120FCE729FF020830260020A5
S31508001ED05422002101482BF0A4BA00BF4C2600204A
S31508001EE0F6E710B5074C5422FF2104F170002BF0D9
S31508001EF098FA04F1C4005422BDE81040FF212BF0E3
S31508001F0090BA00BF30260020EBE707B5D0E90232C9
S31508001F1053F822301A78292A10D80A490A4B01EBB5
S31508001F204201B1F8181153F82230009107490020F0
S31508001F30002B08BF0B46064908F0F8FF03B05DF80A
S31508001F4004FB00BF30260020F86B03084CFF02088C
S31508001F5050FF020838B5D0E9023253F8221003EBD5
S31508001F6082035B680D78002005491C8808F0DEFFAF
S31508001F70044B03EB4503A3F87040A3F8C44038BDEF
S31508001F805BFF0208302600202DE9F34100240C4EA1
S31508001F900C4DDFF838800C4F56F8043B35F8022B09
S31508001FA0002B08BF434600923946224600200134DA
S31508001FB008F0BCFF2A2CEFD102B0BDE8F08100BFC3
S31508001FC0F86B0308F426002050FF02084CFF0208AD
S31508001FD02DE9F34100240C4E0C4DDFF838800C4FE8
S31508001FE056F8043B35F8022B002B08BF43460092EF
S31508001FF0394622460020013408F098FF2A2CEFD1F2
S3150800200002B0BDE8F08100BFF86B0308482700203E
S3150800201050FF02084CFF020838B5542508482A46DE
S3150800202000F11C04214600F58C702BF002FA2A46B2
S31508002030204600212BF0F5F9BDE83840C8E700BF77
S315080020403026002008B50548542200F11C0100F589
S315080020508C702BF0EEF9BDE80840B9E73026002071
S3150800206008B5C368806803F18043023B50F8230033
S31508002070022206492BF0C5F9054B10B983F86C0105
S3150800208008BD002283F86D21FAE700BFE8040308BB
S31508002090302600201DF010BDD0E9023253F8223058
S315080020A0002118780AF0B4BE064B1A6822B9586897
S315080020B0012803D013F0BCBD002070474FF0FF3055
S315080020C0704700BF6C1A002008B5D0E9023253F8F1
S315080020D0220003EB82035968FF22038809684FF63A
S315080020E0FF701AF053FDBDE808400246014900207A
S315080020F00BF0BCB975FF020821F056BF2DE9FF4168
S31508002100D0E9023253F8221003EB82035B680E888B
S31508002110B3F80080224B9C8807F014F8054630B9BE
S31508002120204A214904B0BDE8F04108F0FFBE4FF649
S31508002130FB739C420AD94FF6FD739C4204D00020DB
S31508002140184A1A4908F0F2FE4FF6FD7400270122D4
S3150800215031460DF10E032046CDE90077ADF80E8025
S315080021601DF048FC124A034692F86E6138B13846AB
S315080021700C4A104904B0BDE8F04108F0D7BE434602
S31508002180084A0D4906F07F0608F0D0FE06232146C8
S3150800219028460A4A00960AF0FBFF04B0BDE8F0811B
S315080021A08446002096FF0208A1FF0208CBFF02081A
S315080021B03026002000000308290003087964000877
S315080021C070B5D0E902328EB053F8223003AD2A46F4
S315080021D001211E7804461DF05BFC012305AA022195
S315080021E000932046102307F02FF809A807F028F9CE
S315080021F095E8030004238DF824300AAB83E803002E
S3150800220005A909A88DF8256007F0DAFC01460448F7
S315080022100BF004FB0020034908F088FE0EB070BDE1
S315080022205100030821F8020837B5044606F045FAB6
S31508002230014638B100200E4A0E4903B0BDE83040C9
S3150800224008F074BEE368A268013BDBB252F823309B
S3150800225009481D780123A0F110026C2D18BF02460B
S3150800226000932046102306F0EFFF03B030BD00BFF1
S315080022705E000308660003089E46002008B5D0E9FC
S31508002280023253F822301B787BB1094B1B892BB1DC
S315080022904FF47A71074859432CF074FA064A00201D
S315080022A0BDE80840054908F041BE054AF7E700BF02
S315080022B084460020A02700207C0003088A00030823
S315080022C08100030813B583689A681278672A22D1B1
S315080022D0684618F03BFF0446A8B92849BDF800200F
S315080022E008F024FEBDF80030D9070AD413F0020F0F
S315080022F0234B244A18BF1A462349002008F016FE25
S3150800230038E0224AF8E702462149002008F00EFE86
S3150800231022462049F1E7C26853F8221003EB8203EC
S3150800232000225B6809681B88ADF804201A4AADF8D4
S315080023300030914220D1DA0701D52324E8E79B072C
S3150800234048BF4FF47F430DF1060248BFADF804308D
S315080023507F21022343F2602022F064FE4FF6FF73CA
S31508002360BDF806209A42E8D1022243F2602001A96C
S3150800237022F020FA02B010BD2124C9E7ED000308B7
S31508002380DB000308E80003080E010308CB00030876
S31508002390200103084C0103081FD1BACA00232DE9FE
S315080023A0F04F99B0DFF8D481049398F8B0219DF8DE
S315080023B010309A4202D819B0BDE8F08F1A0108EB1E
S315080023C0031300205D49059293F8902108F0AEFDAD
S315080023D000205B4908F0AAFD4FF0000A059B5FFA4A
S315080023E08AF44344D3F898311A79A24202D8049B56
S315080023F00133D7E714224FF000091B6802FB0434A7
S3150800240022891FFA89F39A4202D80AF1010AE5E7F6
S315080024100C231FFA89F75F43D4F804B049490BEB3C
S3150800242007052B79228813F0400F3BF807304FF049
S3150800243000000093444B18BF0B4644490BF016F8AE
S315080024402946204606F0B4F9064600283ED14049FA
S315080024500BF00CF82979DFF828C111F0010F3D4877
S3150800246008BF604611F0020FAA78EB7834D1DFF87E
S3150800247014C111F0100F384918BF6146CDE90001A3
S31508002480002036490AF0F2FF059B3BF8072008EBC7
S3150800249003002B794FF0000B13F0400F4FF0410368
S315080024A007AF2188CDE9023BCDE900670CBF402381
S315080024B0802390F890010AF079FD86280ED12849E4
S315080024C0002008F033FD09F1010999E7024625497C
S315080024D000200AF0CBFFBDE72349CFE7AB78A3F18D
S315080024E04102012A1ED89DF81C20FF2A08BF002297
S315080024F00132D2B21D4B394600200BF0ADF93146F8
S31508002500208806F03DFE4FF6FF73984208D0184B18
S31508002510184903EBC003D3F8B020002008F006FDE5
S315080025201549CDE7433B012B05D8384606F048FB4D
S31508002530821C92B2DEE7EA78DCE700BF8301030873
S31508002540910103085B01030860010308D101030830
S31508002550E5010308680103087B010308EA0103088B
S315080025600602030884B203086B010308EAC30308DA
S31508002570F86B0308AFB1030821F8020830260020DB
S31508002580650103087301030800B5D0E9023289B072
S3150800259053F82230ADF81E10187800220123CDE931
S315080025A00332212302930DF11E03CDE900230321F3
S315080025B040231EF0C1FA09B05DF804FBC2688368BF
S315080025C0013253F822301988002908BF3C21DBE77D
S315080025D00021D9E730B589B0002103AA1DF058FAC1
S315080025E006F0B0FD054628B9144A154908F09EFCC0
S315080025F009B030BD0024134B134ACDE905434FF605
S31508002600FD7003ABCDE9004405A9ADF81C401AF0EE
S31508002610E9F80E4B93F8B121034628B12046074A3C
S315080026200B4908F083FCE3E742F0800200924FF67C
S31508002630FC712846074A0AF0ABFDD9E796FF02085F
S31508002640A1FF020801000004120203083026002038
S315080026501602030879640008D0E9023253F82230DA
S31508002660014918880AF0BEBD796400081FB5D0E98B
S31508002670023253F8221003EB82035B6808881B7842
S3150800268040228DF80D3002233121009303AB06F06A
S3150800269025FE02460020034905B05DF804EB0AF062
S315080026A0E5BE00BF430203081FB5D0E9023253F85E
S315080026B0221003EB82035B6808881B7840228DF89A
S315080026C00D3002233321009303AB06F007FE0246C2
S315080026D00020034905B05DF804EB0AF0C7BE00BF49
S315080026E05D02030808B5D0E9023253F82230052105
S315080026F04022188806F004FEBDE808400246024952
S3150800270000200AF0B3BE00BF7B0203080028ACBF56
S3150800271000F16040064B4FEA0111C9B2ABBF00F5A4
S31508002720614000F00F0080F800131954704700BF8D
S3150800273014ED00E0002808DB01224309034900F0F4
S315080027401F008240603341F82320704700E100E013
S31508002750002807DB01234109034A00F01F008340D4
S3150800276042F82130704700BF00E100E0302337B55A
S31508002770007D0DF10701434303F1A04303F58023D0
S31508002780DD6E1C6F2CF07EFE9DF8070040B9054BE8
S315080027909D4203D184F00204C4F3400003B030BD67
S315080027A00120FBE7B51300203021037D02464B4389
S315080027B003F1A04303F58023D86E07491B6F8842AF
S315080027C008D113F0020006D0106A136D1B1A58427E
S315080027D05841704700207047B51300202DE9FF4780
S315080027E00446007D04F138060DF022FF1022002170
S315080027F030462AF016FE4FF0300A4FF44473207D17
S31508002800DFF810913F4F63870AFB0093C4E90F77FF
S31508002810DB6EBB4204D104B0BDE8F0470DF02ABF19
S315080028200DF10F012CF02EFE9DF80F70002F62D1CE
S315080028302046FFF7F2FA344A80461278237DEAB139
S31508002840072B1BD8314A02EB0312127BB2B1EFF306
S3150800285011818AF31188D9F834000AFB0399D9F84B
S31508002860642081F31188BFF36F8F012101FA03F306
S31508002870034204BFC2F30A135F183D4604F1180762
S31508002880102200213846D4F810902AF0CAFD3022CA
S31508002890237D013D5343C5F30A052D0145F04075D7
S315080028A0C4E9065903F1A043C4F8208003F5802340
S315080028B01A6F94F82410520862F3410184F8241020
S315080028C0196F94F8242027F0030761F3000284F8AF
S315080028D024201B6F626A9B0863F39F0247F0020776
S315080028E0626267640094207D32462146084B22F0D6
S315080028F0BFFB207D8FE794F844306FF3410384F8DB
S315080029004430EFE7B5130020B41300206811002007
S31508002910492B0008000004502DE9F04F9B46002380
S31508002920044689B005910392CBF80030DBF80050D5
S31508002930039B5E1B00F0A180059B5D1900F09D803E
S31508002940207D0DF075FE2046FFF72EFF8146207D7F
S315080029500DF090FEB9F1000F40F08F802046FFF78A
S315080029605CFA216D94F89A8088429CBFD4E91203D8
S31508002970C018401A864228BF0646B8F1000F00F074
S31508002980AC80EFF311830493302383F31188374621
S31508002990D4F850A02046FFF7E9FE0AEB0602924556
S315080029A0D4F89C1072D1D4E912231344994208BF73
S315080029B0C4F89C20049B83F31188BFF36F8F80466D
S315080029C0207D0DF035FE207D0DF11F012CF05AFDFE
S315080029D02046FFF722FAD4F850A08146504540F227
S315080029E08A80A36CB5B29A457DD1236910220493D7
S315080029F004F12803002118462AF013FD3021049A11
S31508002A00013DC4E90B2A227DC5F30A054A432D0177
S31508002A1020F0030302F1A04245F0407543F002039B
S31508002A2002F58022A5621367236DD4E91212334496
S31508002A300A44934208BF0B464B45236505D101233B
S31508002A40204684F85430FFF7C9FE207D0DF012FEAB
S31508002A5094F89A303BB1B8F1000F04D0236E1121D7
S31508002A6020465B689847DBF8003037B1039A3B4449
S31508002A709342CBF80030FFF459AFDBF80030002B57
S31508002A8014BF00201B2009B0BDE8F08F0AF1010A27
S31508002A900AF1FF33994210D1C4F89CA01AF8013CF8
S31508002AA0112B01D0132B14D1013FA3F111014B4275
S31508002AB04B41C14684F8A03071E71AF8013C03F08F
S31508002AC0FD01112906D1013FB9F1000F3FF467AFA7
S31508002AD0EBE7C14605F8013B61E7324628462AF08E
S31508002AE0A8FC37466CE7238DC3F30A12154465F331
S31508002AF00E13238598E79DF81F30207D93B9302360
S31508002B00434303F1A04303F58023596E5A6EC1F37C
S31508002B100A1122F4FF42314422F0700242EA0112FD
S31508002B205A6681E7CDE900644A46236921681DF0A3
S31508002B307BF93022237D534303F1A04303F5802319
S31508002B405A6E22F48012EBE792F8543037B51446E1
S31508002B5033B1936D0BB1D06D9847002384F8543088
S31508002B6094F89A301BB32046FFF700FEF8B1236E9F
S31508002B70132120465B6898471025236E20461B685C
S31508002B800DF10701984778B99DF8073003F0FD0263
S31508002B90112A05D1A3F111025342534184F8A030FA
S31508002BA0013D15F0FF05E8D12046FFF717FE002086
S31508002BB084F8540003B030BD302383F311884FF2F4
S31508002BC00F02094B18805A80BFF35F8FBFF34F8FF0
S31508002BD00649074BCA6802F4E0621343CB60BFF3A9
S31508002BE04F8F00BFFDE700BFC043002000ED00E0A7
S31508002BF00400FA0540F2016008B5FFF7DDFF022878
S31508002C0001D12CF08DBC704710B504468069C20707
S31508002C1000F002030AD4CBB9E3690BB3204613F0DC
S31508002C2005FA2046E369BDE810401847002BF3D0A3
S31508002C30A5210E482AF062FDE36963B1204613F028
S31508002C40F5F9E369607EBDE810401847C0F3072030
S31508002C5006F042FAF0E7AD2104482AF04FFDEDE709
S31508002C60AD2102482AF04AFDD8E700BF160303083B
S31508002C706E4A2DE9F0416E4B55686E4C9D65516A5A
S31508002C80D9656D49D1F800021866D1F8040258666C
S31508002C90D1F80812986B9966916A10F0040FD966F4
S31508002CA0D16A4FF000001967116B5967516B996724
S31508002CB0D26B1865DA67D3E90F1218BF11465F4A57
S31508002CC091425A655DD301F12000A04259D888691E
S31508002CD0C5F308055864CE69062D9E6455D1584D2E
S31508002CE0A84252D3574DA8424FD205884DF64260A6
S31508002CF085424AD15868C3F898009868C3F89C007A
S31508002D0040F20170A242154604D22E680432B6F18A
S31508002D10CD3FF7D00022C3E92022C3E92222C3E926
S31508002D202422641BDFF818C1424DDFF818E1DC6481
S31508002D308D422DD8D3E920C7D3E92265D3E92441AA
S31508002D404FF0000E013AD2B2FF2A3CD1BEF1000F75
S31508002D5005D0C3E920C7C3E92265C3E92441B3F80E
S31508002D605830C3F308030C2B3BD8022B54D9DA1E70
S31508002D70092A51D8DFE802F03157404350505050E5
S31508002D80504D0021C3E911112C494FF42060B9E7D1
S31508002D9055F8044D6445CBD37445C9D2E607C7D563
S31508002DA00026294F57F8048FA045C1D00136062EB4
S31508002DB0F8D132B1013AD2B203EB8206C6F88040A6
S31508002DC0B6E70522F8E7E0464FF0010EBC4637465F
S31508002DD02E4625460C464146B4E740F60120BDE896
S31508002DE0F0813A2B18D1194B9B6913F0020F40F268
S31508002DF0025318BF1846F2E740F60320EFE740F201
S31508002E00017240F60423B0F5206F14BF1046184629
S31508002E10E5E740F60520E2E740F60722013B5A2B94
S31508002E2098BF1046DBE740F60220D8E700ED00E041
S31508002E30C04300200010002000E100E00000002050
S31508002E4080020008A0F602083C4400200040005B0F
S31508002E500B4AB2F900301088002BB8BF80F0620028
S31508002E60B2F902104300138053880029BCBF83F4CB
S31508002E70805383F00B03590051805840704700BFB8
S31508002E80844600202DE9F74F002800F0E8807549B0
S31508002E90D1E9744EEFF3118B302383F3118810F8C0
S31508002EA0086C30F806CCF30702D5BCF1000F07D141
S31508002EB08BF31188BFF36F8F012003B0BDE8F08F45
S31508002EC0D1F8C431D1F8CC91A3EBCC0330F8048CFB
S31508002ED00093C1F8C43109F10103A0F108050CF10A
S31508002EE00102C1F8CC31B8F1000F3BD0A5EBC803FD
S31508002EF0DF88B3F802A001971F7806F00206FF07DD
S31508002F0025D42EBB019EA6EB0A06012E2AD1009EC9
S31508002F100CF10202A6F108075244C1F8CC91C1F897
S31508002F20C47130F8028CB8F1000F1DD110F8085C96
S31508002F3020F8068C68F3000500F8085C013A5A8008
S31508002F401A7868F300021A700022DA803FE04EB160
S31508002F5010F8086C42446FF3410600F8086C002626
S31508002F609E80DEE72B46DCE705EBC809D1E96F67EB
S31508002F703744B9450ED310F8085C013A6FF30005DB
S31508002F8000F8085C002520F8065C5A801A7865F374
S31508002F900002D8E715F838504E4615F0010530D02E
S31508002FA010F8085C013A6FF3000500F8085C002584
S31508002FB092B220F8065C5A801A7865F300021A70F5
S31508002FC0C3F107023244C2F3CF02DA80B280002C82
S31508002FD043D09C4241D86288002A08BF1C46BEF1ED
S31508002FE0000F06D09E4504D3BEF80220002A18BF5B
S31508002FF07346C1E974438BF31188BFF36F8F0020C2
S315080030005BE7A8EB0C08B8F1010FC9D1B9F8027053
S31508003010A9F802501744B9F80620E2B109EBC2062E
S315080030200025D1F8CC21013AC1F8CC21D1F8C42128
S31508003030083AC1F8C42110F8082C20F8065C6FF38A
S31508003040000200F8082C1A785F8065F300021A70EF
S31508003050002EB5D178E71646E2E71C46BFE72220E0
S315080030602BE700BF30260020002313B5019369B172
S3150800307060B101FB00F401A920461EF072FC01466E
S3150800308020B9019810B122462AF0CBF9019802B06E
S3150800309010BDFEE7002307B5084601A901931EF0F7
S315080030A060FC019803B05DF804FB0846EAE60846AA
S315080030B01146D9E7002303604360704730B5D0E96D
S315080030C0054553B394420FD0E2B9046974B903694C
S315080030D083B3002918BF0D462B78DB0714D5AB88B8
S315080030E043B3A5EBC305F7E704698CB141B9046896
S315080030F02378DB070CD5E3884BB104EBC304F7E769
S315080031000C46F5E79542E2D0C0E9054530BD1C46B8
S315080031109542DCD0002ADAD0F6E7944208D08C42F1
S3150800312028BF0C46954207D08D4238BF0D46EBE7BF
S315080031300C46F7E71D46E7E70D46E5E700232DE9C8
S31508003140F3478B4E0193D6F8C0310C469A42104687
S3150800315004D239B912B101A91EF003FC019802B0D4
S31508003160BDE8F0871AB90846FFF78CFEF6E7EFF3D5
S315080031701187302383F3118834F8063C07304FEA69
S31508003180C30820F00705A845A1F108017ED234F846
S31508003190020C002868D0C21A012A65D101EBC002C8
S315080031A011F83000C0075FD4B2F802C0A8EB0509D1
S315080031B019EBCC0958D4B9F11F0F38DDC5F3CF0385
S315080031C0611924F8063C0133084624F8023CFFF747
S315080031D071FF34F8020C4FEAD9038880D0884B80F7
S315080031E010B3B2F802C0A0EB0C0C1CFA83F39BB226
S315080031F002EBC000CB80838000235E48FFF75EFFAA
S315080032001046FFF757FFD6F8C431D6F8C8212B4425
S31508003210A3EB080393420194C6F8C43133D887F365
S315080032201188BFF36F8F99E70023CB80E4E7D6F8C0
S31508003230CC0101330138C6F8CC01D088634424F8A0
S31508003240063C68B1B2F802C0A0EB0C0C1CFA83F37A
S315080032509BB202EBC00024F8023C83800123CCE732
S31508003260002324F8023CF9E7284601A91EF079FB59
S315080032700028D4D14246214601982AF0DAF8204699
S31508003280FFF700FECBE7C6F8C831C8E76ED934F8B1
S31508003290020CA8EB050900F1FF3AAAEB030A00287D
S315080032A039D011F8303001EBC002DB0734D4BAF15B
S315080032B0000F31D1C5F3CF03611924F8063C013359
S315080032C0084624F8023CFFF7F5FE508800EBD903C0
S315080032D034F8020C4B808880D088D0B1B2F802C08E
S315080032E0A0EB0C0C1CFA83F39BB202EBC000CB805C
S315080032F0838020480023FFF7E1FE1046FFF7DAFE39
S31508003300D6F8C43101941D44A5EB0805C6F8C45186
S3150800331085E7C880EDE70246B9F1270FF0D9C5F36E
S31508003320CF03611924F8063C0133084624F8023C09
S31508003330FFF7C0FE34F8020C09F1FF33DB084B80B7
S3150800334088808AB10AF1010A1AFA83F39BB2CB8004
S315080033509380D6F8CC3107480133C6F8CC31002320
S315080033601A46FFF7ABFECBE7CA80F2E7019456E7A9
S3150800337030260020EC27002010B50A4C94F8F831C6
S3150800338073B194F8F9315BB12AF062FA002384F834
S31508003390F93184F8FA31012384F8FB3184F8FC31D9
S315080033A010BD00BF302600200122014B1A7070475D
S315080033B030260020454A70B5156F15F004032AD04B
S315080033C04349444C0B6708238B62926D12F0010F38
S315080033D013D1D4F8B421B2F57A7F0ED93E4E326CA9
S315080033E012070AD53D4A13642BF0DCFD736D23B131
S315080033F0C4F80032012384F8043294F8F83113B182
S31508003400012384F8F931FFF7B7FF0123042284F872
S315080034100532324B1A6415F001062BD001222C4BCB
S315080034202C4C1A6794F8043213B32AF06FFAD4F8BE
S315080034300032C01AC4F80802D4F808320BB1D4F81E
S3150800344008624FF41671C4F80862D4F80832D4F842
S31508003450B431D4F808224B43214903F5742303F207
S315080034603F23B3FBF1F3934210D2002384F80432CE
S31508003470FFF782FF15F000521CBF154B1A67002D87
S31508003480BEBF4FF00042124B1A6770BD94F80C325B
S31508003490D4F8081204EB8300D0F814220133511A29
S315080034A0D4F81022DBB2521AD4F80812C4F8102243
S315080034B0C0F814120A210932B2FBF1F26260B3FBBA
S315080034C0F1F201FB123384F80C32CEE70040005AC1
S315080034D00060005A3026002000800A5000A00A50DA
S315080034E040420F0020282DE9F743054604D82C460C
S315080034F0204603B0BDE8F083002427460B4EDFF8CC
S315080035003080DFF83090002348461A461946CDE940
S3150800351000870DF0A5FC8442E9D2212CE7D056F8A5
S31508003520043BAB42E4D00134EDE700BF006D03086D
S31508003530FFFF0F009014002073B515461A464BF28C
S3150800354034637F2D08BF00259942044619D16A467F
S315080035507F2141F20200082321F064FD0822684613
S31508003560274929F04EFF30B908236A467F2141F2E0
S31508003570F01021F057FD6B4603CB2060616002B066
S3150800358070BD41F2F01399421ED11E4B986CD96C4E
S31508003590002AF4D01346651E161F013BB34205F8F0
S315080035A0010F4FEA10200CD1002BE8D00423D8B223
S315080035B00728E1544FEA1121E1D001339A42F6D1A6
S315080035C0DDE7002BE9D1DAE701F47043B3F5805F54
S315080035D00AD1C1F30B0404F17E6402FB054102B073
S315080035E0BDE8704029F025BF01F46043B3F5005FDC
S315080035F0C5D1C1F30B0404F1016404F5FC24ECE71E
S31508003600846D03080080E00F73B50D46910730D42A
S3150800361083072ED1034622F0030281188B4217D165
S315080036204FF48031174BAC18996641F6713103F5A2
S315080036301C33D963012103F50053D960461BA54203
S3150800364005EB060009D102B0BDE870400FF07ABB61
S315080036501C6801340DD10433E0E7042255F8043B15
S315080036600DEB020101932CF02BF80028E7D00FF0A0
S3150800367069FB4FF49C71044802B0BDE870402AF01B
S315080036803DB800BF009000508903030830B54FF4D9
S315080036908A54194B93F8A452A3F84612B3F8501259
S315080036A0003D18BF01250029A3F84A4214BF01248A
S315080036B000244FEA840444EA051440EA040083F827
S315080036C0520214BF032001200C4C1EBF83F853126C
S315080036D0090A83F8541294F82A100131C9B284F8F9
S315080036E02A101C1801F07F01023084F8521284F85F
S315080036F05322A3F8A60230BD3026002084460020B7
S31508003700044AB2F8A632D118013381F85202A2F857
S31508003710A63270473026002010B50446C0B2FFF71F
S31508003720EFFF200ABDE81040EAE738B5D1E90232D2
S315080037300C46054653F82230024619880B4B987CEE
S31508003740FFF7A4FFE368A268013352F8233018880C
S31508003750FFF7E2FF45B1E368A268023352F8233067
S315080037601878BDE83840CBE738BD00BF30260020C2
S3150800377010B5044610F0D0FB162C04D1BDE8104055
S3150800378005480CF043BF152C04D1BDE8104002488B
S315080037900CF02ABF10BD00BF8445002010B5EFF31A
S315080037A0108072B6034BD3F8A8422BF08EFE204643
S315080037B010BD00BF3026002007B58DF8071030B9B8
S315080037C0FFF7ECFF18B9232003B05DF804FB436844
S315080037D0002BF8D001220DF1070100689847F3E79E
S315080037E00B4601461846E7E7F8B504460D46EFF3DB
S315080037F01186302383F3118890F89630A1B173B9F6
S3150800380090F898305BB1EFF3108572B601202BF073
S315080038104DFD28462BF059FE012384F8963086F391
S315080038201188BFF36F8FF8BD002BF8D0EFF3108720
S3150800383072B608462BF03AFD38462BF046FE84F859
S315080038409650ECE790F894302DE9F74F04460D466C
S315080038501646002B40F0928090F89970EFF3118885
S31508003860302282F3118890F895206AB190F8982052
S3150800387052B180F89530EFF3108972B601202BF01B
S3150800388015FD48462BF021FE88F31188BFF36F8F8C
S315080038904FF030082E44AE4205D1236E0121204652
S315080038A09B68984757E094F89A30002B41D0207DC2
S315080038B00CF0BEFE2046FEF777FF8146207D0CF011
S315080038C0D9FEB9F1000F34D1EFF3118988F31188C5
S315080038D0207D0CF0ADFE2046FEF79FFAD4F848B0DE
S315080038E000F1FF3ADA4538BFE36C207D3CBF03F1AF
S315080038F0FF330BEB030A94F8543001930CF0BAFE2D
S31508003900019B93B95346D4F89C1099420BD013F8EF
S315080039100129112A01D0132A21D1A2F111035A42F1
S315080039205A4184F8A020C4F89CA089F31188BFF3F3
S315080039306F8F94F8A030002BADD0236EA9462A7855
S315080039405B689FB9236E20465B6899F800100135BD
S31508003950984700289FD0002003B0BDE8F08F9B450C
S3150800396082BFE36C03F1FF335B44CEE70A2AE9D151
S315080039700D21204698470028E4D0ECE70E20EBE717
S3150800398003464160EFF3108072B6044AD2F8E41198
S315080039901960C2F8E4312BF098BD00BF302600202C
S315080039A038B50F4CD4F8AC327BB901234FF06042DE
S315080039B0C4F8AC32D2F8003E0A4943F48073C2F820
S315080039C0003E04F52C70FFF7DBFF0025064B074881
S315080039D0C4F8BC32C4F8C45221F058FA284638BD97
S315080039E030260020B0460020031C0008E8280020E6
S315080039F00146EFF3108072B6084AD2F8E43102F5B0
S31508003A00F2722BB1994205D10B68136000230B6043
S31508003A102BF05BBD1A461B68F3E700BF3026002073
S31508003A2038B50446D0F8A4301D68AB6C5906FCD5E9
S31508003A30002394F8AD101A4694F8AC000FF0AEF8CF
S31508003A40002394F8AF101A4694F8AE000FF0A6F8C3
S31508003A5094F8B430DA0707D5002394F8B1101A465B
S31508003A6094F8B0000FF09AF894F8B4309B0707D58D
S31508003A70002394F8B3101A4694F8B2000FF08EF8A3
S31508003A80012205F500531A65042228461A650FF027
S31508003A904FF80021D4F8A8002BF0ECFB0B4B04F1EF
S31508003AA0B80019461A683AB190420CD1D4F8B82031
S31508003AB01A600023C4F8B8300B6813B90448FFF736
S31508003AC097FF002038BD13461268ECE75C1B002000
S31508003AD0601B00200246EFF3108072B60E4991F87B
S31508003AE0C932FF2B02D1A2B12BF0EFBC1BB9002AB9
S31508003AF0FAD0012203E0002A0CBFFF220122134458
S31508003B00DBB281F8C932B3FA83F35B0981F8CA32AA
S31508003B10EAE71A46F3E700BF30260020F8B52F4D2E
S31508003B2095F8D132002B4BD12D4BDB7973B12D4B48
S31508003B301A79FF2A04D12C4A127802F00F021A7158
S31508003B401B79022B02D0043B012B39D800242746C7
S31508003B50264EB0681EF0A4FA12F06AF818B9B379BE
S31508003B609F4238BF1F4603340C2C06F10C06F0D1D1
S31508003B70022F25D0FEF798FA0428044620D995F88E
S31508003B80D2325BB1EFF3108672B600202BF08EFBB3
S31508003B9030462BF09AFC002385F8D232D5F8D43279
S31508003BA021469C4228BF1946B1B1114A11482BF04B
S31508003BB03DFC18B18E21104829F0A0FD0120F8BD62
S31508003BC095F8D23223B92BF056FD012385F8D23267
S31508003BD0FEF76AFA0446E1E70846F0E730260020D1
S31508003BE084460020681B002014180020BC460020CC
S31508003BF0E11B0008082900200004030870B512F02C
S31508003C0087FE10F0070F244D1BD095F8F83223B91C
S31508003C10012385F8F8322BF02EFD12F0DBFD044661
S31508003C20D5F8D412A14228BF214691B31B4A1C4895
S31508003C302BF0FCFB18B18C211A4829F05FFD0120F6
S31508003C4070BD194B1B7803F00F03022BDDD1174CFF
S31508003C502378032BD9D912F05BFE10B92378032BEE
S31508003C6014D812F0B7FD04460028CED095F8F832DD
S31508003C70002BD5D0002085F8F802EFF3108672B62F
S31508003C802BF014FB30462BF020FCC9E74FF0FF342D
S31508003C90ECE70846D4E700BF30260020FF1B0008E3
S31508003CA02C2900207604030814180020301A002056
S31508003CB02DE9F0410468054694F89460002E62D117
S31508003CC0EFF31183302282F31188C4E9166683F371
S31508003CD01188BFF36F8FFFF761FD854202D1304629
S31508003CE021F0D4F8236E294F93F910603046FEF779
S31508003CF021FD3046FDF7C0FE236E93F9116030466C
S31508003D00FEF718FD3046FDF7B7FE3B78207D43B138
S31508003D10072806D81E4B03EB00131B7B0BB10EF0CE
S31508003D20C9FF207D20F0ECFEEFF31188302383F3E2
S31508003D3011880023164A167BAEB90133082B02F107
S31508003D401002F8D11520FDF797FEFF22114B3146D8
S31508003D505E6520209A625E600EF066FB3146212081
S31508003D600EF062FB3E7088F31188BFF36F8F002355
S31508003D70C5E90033C5E90533EB60236E2046BDE887
S31508003D80F041DB6818470F20BDE8F081B413002026
S31508003D9068110020000004502DE9F843EFF311875D
S31508003DA0302383F31188384C94F84563002E64D188
S31508003DB03648C4F84062E660C4F8B8612BF058FC8F
S31508003DC0BFF34F8F324D0FF00BF96B68012B39D0CB
S31508003DD0EE602BF0E7F800260F2201252D4BDFF8C1
S31508003DE0B080DFF8BC90C8F848605A641A640FF0CF
S31508003DF0F7F8C9F80450C8F8105029F0EBFB082268
S31508003E00254BC8F818604320C3F88821FEF7A0FCA4
S31508003E10C9F84450EFF31188302383F311884FF41F
S31508003E20E0600EF01BFB024688F31188BFF36F8F24
S31508003E30C4F8B401B8B987F31188BFF36F8F23208C
S31508003E40BDE8F883D5F80480B8F1010F02D00FF069
S31508003E50C7F8BDE76B6829F0BDFB02232B610D4B44
S31508003E60C3F80480F3E7334640F2E7310B4827F0FE
S31508003E70EDFC84F84553C4F8D40287F31188BFF3E0
S31508003E806F8F0020DCE700BF302600208C6D03080A
S31508003E9000800A5000A00A5000E100E018FCFFFF6D
S31508003EA000900A500CB44FF48A73C340DB0713B56D
S31508003EB00C460CD5084B9B6E184208D005A90498E9
S31508003EC0019110F0B5FF14B1044810F0A1FF02B03B
S31508003ED0BDE8104002B0704784460020E404030899
S31508003EE000232DE9F04FB248B24AB34C121AC4E97E
S31508003EF06F02013AA9B0D20884F8D831C4F8E03183
S31508003F00C4E97400FFF7D6F8428008230122C4E901
S31508003F107133C4F8CC21EFF31183302181F3118872
S31508003F2094F84613002940F0CD8384F8462383F39A
S31508003F301188BFF36F8F6FF0040210460132052116
S31508003F4052B2FEF7E3FB4C2AF7D14FF0004907229D
S31508003F504AF6CD37DFF88482984D994BC8F86490B5
S31508003F606E6C0B202F64DA630EF0B0FD6B68954912
S31508003F7023F4F87343F480736B6040F20913AB6063
S31508003F8040F203132B610023C8F864906A6C06F0AC
S31508003F90010602F001022F64286B070740F1998396
S31508003FA08B4240F09483854B002A40F0A5830EB1DE
S31508003FB0854A1A644FF00042844B804D5E6E03F5C5
S31508003FC080535A664AF6CD336F6C80202B640EF008
S31508003FD07DFD2B6AF90723F00F0343F00C032B62D0
S31508003FE048BF794B7A4848BF2B64002EA2BF4FF0D2
S31508003FF00042784B5A662BF03BFB774AD2F84C3195
S3150800400013F4802300F07B834FF07E6292F89C3095
S3150800401092F99C20002AB8BF25234FF400016F4A65
S31508004020022051664FF4D15102F5B83251626C49FB
S315080040304F2B486028BF4F23012001F58051DBB282
S315080040404860116911F48031FBD143F480735361E0
S3150800405040F201439360604B5160D3F84C21120340
S3150800406040F15083A3F5FE431D88B5F5807F28BF30
S3150800407064255C4BDFF89C8193F900605A4B2E440B
S31508004080C8F80030514B86F308061B6F03F0070388
S31508004090032B01D129F08AFA1BF068FE03284BD0BE
S315080040A04FF480124D4B4FF0A0615A6645F60E0349
S315080040B04E4AC2F880304E4B99624FF4803103F570
S315080040C080539962936DDB03FCD4936D5F00FCD437
S315080040D0484B1361936903F0004343EA064343EAF6
S315080040E0052343F0407343F03C039361136A23F0BE
S315080040F00F031362916A404B0B4043F4803393627B
S315080041003E493A4A936D31EA0303FBD14FF0807179
S3150800411037488162136923F4700343F4401313612B
S315080041204FF000434FF480328361354B99629A62AF
S315080041302E4A936D5800FCD44FF4C022264BD3F870
S315080041409850264B5A6603F598335A68012A00F0A8
S31508004150DD821BF00BFE05280CD1002129480EF044
S3150800416089FC1A4A136F43F4806313674FF480324D
S315080041701A4B1A67244F254B3E6825F040759E4218
S3150800418002D820481BF03CFE214BDA6812F0060FD5
S31508004190FBD19A689D6099684D4015F4F81F0DBFCC
S315080041A0184D9A6035463D601BF0E0FD052833E062
S315080041B0C04A002000000420302600200040095094
S315080041C00040005040420F003254FFFF008000506C
S315080041D08C6D030800A000500080E00F009000508E
S315080041E00010025088450020C01753020040005AAC
S315080041F00050005A2008C00BC7FFFEFE030001004E
S315080042000060005A00B4C4047C450020FFB3C4040F
S3150800421000000150804500201DD129F0C7F9074646
S315080042200EF0F6F80128D4BF0121002138460EF019
S3150800423021FC4FF4C0700EF011F9C749C74A8842ED
S3150800424094BF00200120136F23F4806343EA802380
S3150800425013670EF0FFFBB54202D800201BF0D0FD15
S315080042604FF40022BE4DBF4BBF48D3F8C0306A6634
S315080042704FF0B44223F0407393602BF0F9F94FF4F2
S31508004280800302226B66B94B5A609A6812F4803230
S315080042900492FAD15A62049AB04D5A6002201BF071
S315080042A07BFD2E6F0499C6F38026731CB04884F8EC
S315080042B047330EF0DFFB4FF480322B6F43F48063F5
S315080042C02B67A74B1A672B6F23F0070343F00303EB
S315080042D02B6729F06BF907460EF09AF80128D4BF28
S315080042E00121049938460EF0C5FB00201BF088FD15
S315080042F02B6F23F4806343EA86232B670EF0AAFB11
S315080043002B6F9C4A23F474432B67D2F8FC1094480D
S3150800431011F0807140F00082D5F8803023F0030355
S3150800432043F00103C5F88030C0F880108B4B4FF47A
S315080043308031D3F82021904822F0070242F0020289
S31508004340C3F82021D3F8282122F0070242F00202FE
S31508004350C3F82821D3F8802122F0030242F0010293
S31508004360C3F88021D3F8402122F0030242F002026A
S31508004370C3F84021D3F8602122F0030242F002027A
S31508004380C3F86021D3F8402222F0030242F0020269
S31508004390C3F84022D3F8002222F0070242F00202B4
S315080043A0C3F80022D3F8082222F0070242F00202DC
S315080043B0C3F80822D3F8702222F0030242F0010261
S315080043C0C3F87022D3F8202222F0070242F0010235
S315080043D0C3F82022624A5D6E5166426A22F00102E3
S315080043E04262EA035CBF654A51664FF0E0210A69FA
S315080043F042F004020A61D3F8602222F0070242F072
S315080044000102C3F86022D3F8942222F0070242F090
S315080044100102C3F89422EFF3108772B658482BF0BE
S3150800442027F994F84833574D002B40F0AC81FFF735
S31508004430B3FC0646002800F0878138462BF045F87D
S31508004440FFF7AAFC2A6F4FF40031501C04BF4E4BED
S31508004450D3F894204FF0502308BF2A671967D1076D
S3150800446000F1618201210C46084604FA00F3134064
S3150800447001F1010100F05982444B03EB4003B3F804
S315080044809C324349062B0A884888424C40F054829D
S315080044904FF20F03984240F04C82B2F5406F28BFA6
S315080044A04FF4C0624CF23C33A4F852234B80314A95
S315080044B0536A43F470235362EFF308834FF0CD3108
S315080044C0354A043B934280F0478202222E4B1A67F4
S315080044D0FFF762FC18B16B21304829F00FF91EF07E
S315080044E04FF94FF4805028F0BDF94FF48053C4F8C3
S315080044F05403C4F85833002800F03182D4F85433F2
S315080045001BB9DE21264829F0F9F8D4F85423254B9F
S315080045101A60D4F8583323F001031344C4F85C3303
S31508004520214B1A60002A40F02582F8211C4829F000
S31508004530E5F813482BF09CF84FF4801204274FF443
S31508004540805903212C20FEF7E1F8054B174E5A66D1
S31508004550DFF85C802EE000BF80F0FA020080005091
S31508004560009000500080E00F8C6E03080040025057
S3150800457000B4C40400ED00E000C0075000A00050DD
S3150800458058FC02088446002000400050F86B0308D7
S31508004590C04300203026002000000020AF02030898
S315080045A0650503083C1A0020381A00200060005AE6
S315080045B0010000A0A64BC6F874802C207767C6F8C1
S315080045C070803767C3F88491FEF7C2F84FF000721F
S315080045D0A04BA148C3F874805F67B262C3F82890FD
S315080045E02BF046F89D499E480DF0D6FC0EF0F4F8DF
S315080045F0FFF7D2FB064630BB9A482BF039F89A4BA0
S315080046009A4A1A620222C3F824214FF4167203F555
S31508004610E2239E64D4F8B4315343954A03F57423D0
S3150800462003F23F23B3FBF2F3924A6360D4F81032E5
S315080046306168013642F8041BF6B261680A2E0B441B
S31508004640F6D1C4F8103294F8611394F8603302294D
S3150800465001D1072B19D0DA0703D443F0010384F8F4
S31508004660603394F860339E075FBF012243F002036C
S3150800467084F8603384F8682994F8602311B9D00760
S3150800468001F11380510741F11880FFF789F97A493A
S315080046907A48FFF775F90FF05AFA95F8842095F8D5
S315080046A09430022A00F26C81002A40F06F81022BB6
S315080046B000F28081002B00F08081D5F88C30C4F898
S315080046C074337AE183F31188BFF36F8F3DE40133C6
S315080046D062E48B423FF467AC2021694B9962012161
S315080046E0A3F580535960674B6749886A80063FF58A
S315080046F05AAC013BF9D156E4644A1A6457E4D2F835
S3150800470050218AE4D3F85051EDB2B2E460494A60C8
S315080047105A689107FCD41CE5D2F8FC3023F0807364
S31508004720C2F8FC30D5F8803023F0030343F00103C8
S31508004730C5F880300023C0F88030D2F8FC3043F04A
S315080047408073C2F8FC30F1E546482AF091FF464BE3
S31508004750504ADA610122C3F82C214FF4807203F51E
S31508004760E2239A64D4F8B431C4F8CC62C4F84C3362
S31508004770494BC4F8E4615A6F42F001025A67DA6E8F
S3150800478022F03002DA664FF00009484684F8509362
S315080047901BF036FB95F86C30D4F84C638BB13E4968
S315080047A0A2684B6F23F440734B67B301304903F596
S315080047B0742303F23F23B3FBF1F31344A36085F894
S315080047C06C904FF48011354BD3F80021344A51666A
S315080047D04FF4003151661A6F324902F00702C4F8E5
S315080047E0EC218969032A01F00200C1F3400184F82B
S315080047F0E9110BD0D3F8202102F00702022A05D0CE
S31508004800D3F8282102F00702022A4DD1012323708A
S31508004810002858D1D4F84C331549C3EB431202F596
S31508004820742202F23F22B2FBF1F2A0680244A260AF
S315080048304FF4C872534303F5742303F23F23B3FBC3
S31508004840F1F3C4F82033012384F84833F5E500BFB3
S3150800485000E100E00050005A58FC02088C45002090
S3150800486090140020906E030800800350010E0C007F
S3150800487040420F0044280020F84600209C290020CA
S315080048800060095041420F00004009503254FFFFB2
S3150800489000E00150010D0C0000400050008000505F
S315080048A00090005000C00150002222700028B1D0AC
S315080048B0D3F8003103F0030303F1FF3CDCF10003F6
S315080048C043EB0C032370364BD3F8003103F0030394
S315080048D0022B23D0032B24D0012B9BD1D8F8002000
S315080048E0002A97D02F4BDFF8C880DB68501EC3F329
S315080048F00B0C002319460CF1010C0CEB8C0CECFB91
S31508004900080126F0A3FF704300F5742000F23F204B
S31508004910B0FBF8F0A3681844A0607BE74FF40042A8
S31508004920E0E7214ADEE70020A6E510297FF49CADE2
S31508004930A7E54FF4C062B5E540F20726B34208D1B1
S315080049404FF20F06B04204D19A4204BF4CF23C32F1
S315080049504A80A4F85233AAE543F80419B2E540F2AE
S315080049609D11124828F0CAFED4F85833002B3FF49C
S31508004970C8ADC3E510F016FC64287FF6D6ADD8E5B9
S31508004980032A04BFEA6FC4F8742390E6E96F022B82
S31508004990C4F8741311D883B1022A0ED08DE600BF6D
S315080049A00080005000C0015080D54302FA04030875
S315080049B040420F00032B3FF480AEBE4E4FF42F72D9
S315080049C000213046D4F8748328F02BFD8023012774
S315080049D0C6F8B0824FF0FF38C6F88C30B64BB749E8
S315080049E03046C6F8843086F888701FF065FFC6F82A
S315080049F0B4821DF0C5FE3846022728F06AF821F071
S31508004A0097F8AF4BDFF818C3CDE916734FF000736C
S31508004A10CDE918C30723AB4E16A940461A9328F0CA
S31508004A20A0F8D6F8FC311020C3F307430C9311F015
S31508004A306FFE030640F15286002011F069FE020659
S31508004A400CD50C9B802B40F03E86336A13F0020F80
S31508004A5000F05986F3699E0740F155869A4F9B48A0
S31508004A6027F012FF39469A480DF096FA064618B30B
S31508004A70D7E90001BB6900261B689847BB6916A8D9
S31508004A809B689847BB690220DB68984717987B683C
S31508004A90F1B2B3FBF0F38B42BA6906F1010600F2F4
S31508004AA03786D36800209847BB695B68984786496C
S31508004AB087480DF071FA06464FF0000A854FDFF871
S31508004AC0108207F50E7307F5DA7B0593FEB9824B5C
S31508004AD01AF80330002B00F07086D7F8009040468D
S31508004AE049460DAB11AA0CF017FB2D2807D070B953
S31508004AF0119B012B0BD0494640460CF041FFDBF8D1
S31508004B000030494640461A680CF0F6FE0646059BF4
S31508004B100AF1010A0133BAF1210F07F104070BF173
S31508004B20040B0593D2D1B6FA86F35B0984F86C397F
S31508004B30674B1B7C1BB1DB21684828F0DFFD002E84
S31508004B4040F0E18508237F214BF23460644A20F067
S31508004B5069FA0123B046634F84F878697B60624B33
S31508004B603E600136082EC3F80480A3F8048043F893
S31508004B70088FF6D1482200215C4828F052FC4FF6EF
S31508004B80FE73A4F8E0396FF4803380220021584878
S31508004B90C4F8D43928F045FC564B84F8BC89C4F8C7
S31508004BA0C089C4F8C48984F8C889C4F8CC89C4F80B
S31508004BB0183AC4F81C8A84F8208AFEF749F9FF23B4
S31508004BC0002184F8A40A2C2216A884F8A53A28F00D
S31508004BD028FC64234FF002301B93CDE918030B23FE
S31508004BE00121DFF840818DF88030B8F800308DF863
S31508004BF05C1013EA010940F00C81084629F034FCE0
S31508004C000A223D4B3D4E1A704FF42873ADF85E30BC
S31508004C104FF0FF3333603A4B30461B88394AA5F8C4
S31508004C20B830394B39491B68A5F8BE90C5F8C0306D
S31508004C30374BC5F8C8901B88A5F8BA30354B1B68A2
S31508004C40C5F8C43026F03CFD20B140F26721324851
S31508004C5028F054FD0521306827F064FE20B14FF492
S31508004C601E712D4828F04AFD306820F0E1FD2B49D9
S31508004C70306827F017FF4FF00C0929F0DBFB09FB1A
S31508004C8000F01C9029F0D6FB09FB00F016A91A9033
S31508004C90306820F09FFD20B14FF424711E4828F09B
S31508004CA02DFD00220E49306827F076FF002840D0F7
S31508004CB03AE000BF20150020C0F80208204700206F
S31508004CC0006A18000080E00F8C450020690345EC57
S31508004CD090140020006D0308596F0308790503082E
S31508004CE09D2F0020201A0020A82F00200030002029
S31508004CF0543000200000FFFFEA1700205C13002054
S31508004D00C2EE0308F1E40208C8EE03082C470020A7
S31508004D10C0EE0308C4EE0308EA050308BC6F0308DF
S31508004D2000020600E817002040F29221CC4828F03D
S31508004D30E5FC40F20353DFF8B093A9F800300523E9
S31508004D4089F8023010F0F2F989F8030029F072FBAD
S31508004D5000EB80008000A9F8040029F06BFB002313
S31508004D60C0004FF0FF31A9F80600C9F808304FF027
S31508004D70FF30B9A3D3E9002329F030FBB9493068DD
S31508004D8027F0C1FE306811A928F0E4FA20B140F2F4
S31508004D90CB21B34828F0B2FC042230680DA927F0CD
S31508004DA056FE042804D040F2D221AD4828F0A6FCCD
S31508004DB00DA81CF0D6FEFCF7A3FEEFF311893023ED
S31508004DC083F31188012385F8CC30B8F80030DA0768
S31508004DD003D50021306828F00DFB89F31188BFF34D
S31508004DE06F8FB8F80030DB0711D5002241F20D01AC
S31508004DF09D48002329F0F2FA08223068114627F068
S31508004E0011FE20B140F63171954828F077FC10F074
S31508004E100BF91DF0C7F8954BDFF8D0B2D3F8CA23C3
S31508004E200021C4F8A62AD3F8CE23B3F8D233CBF898
S31508004E300420ABF808300523342216A884F8E63A8D
S31508004E4028F0EFFA0B238DF858306FF48033179358
S31508004E504FF6FE73ADF8683003236FF49C708DF837
S31508004E607530834BDFF888A21E93824BDFF8849255
S31508004E702693814BDFF8808227930BEB0003596852
S31508004E80D4F86D097D4E18AACDF87CA0CDF88C9083
S31508004E90CDF89080259603C216A900201DF0B4F916
S31508004EA016A901201DF0B0F90422002016A927F042
S31508004EB0CEFD042803D0D821714828F01FFC4FF0F6
S31508004EC0000B1698FCF71CFE03201FF0F5FF16F0E2
S31508004ED02FFE9022FF216B4828F0A3FA6A4B6B4AF3
S31508004EE01F605A606A4AC3F808B0C3E9032B694BC6
S31508004EF06949C4F8AC3B694BC4E95F2BC4F8CC3BA1
S31508004F00674BC4F8B42BC4E95D3B664BC4F8D42B95
S31508004F10C3E9011B6449C3E9032B1F60C4F8E2B95E
S31508004F20C4F8A87BC1F804B0C4F8B0BBC4F8B8BBD1
S31508004F30C4F8C87BC4F8D0BBC4F8D8BBC4F8707131
S31508004F40FDF786FF84F8E80BFDF782FF0522574B2D
S31508004F5055491A7084F8E90B4822123916A828F020
S31508004F6068FA534B58462093524B16A92193414B46
S31508004F70CDE92486CDE9223926933F4BCDF87CA08E
S31508004F80279301261DF040F93020EFF3118180F3B5
S31508004F9011883A68002A40F0378481F31188BFF3F4
S31508004FA06F8F0023D7F80480B8F1010F40F03F84D3
S31508004FB00026C7F8048012F007F811F0EBFE16F089
S31508004FC06CF895F8CD300B2243F0040340463A4975
S31508004FD0A4F8EC3B022384F8EA6B84F8EB6B11F037
S31508004FE064FB12F041F832223146344884F8F06BFB
S31508004FF084F8F16B28F015FA314811F017F816F015
S31508005000F6F8304B1422FF212F48C4F8243C28F028
S3150800501008FA002601224FF481702C4F2C49C7E963
S3150800502000622C4ADFF8D480C2E906612A49166173
S3150800503091601760C2F80480D6602849284AC4F8E7
S31508005040386CC2E90661C2E9007816619660D660D6
S31508005050244AC4F8287C53E00A0020FF42030000D3
S31508005060EA050308A1E30208400D0300F86B0308EC
S315080050701D570108615E01087944010855F90108C0
S31508005080AF02030818310020142200209D71010880
S3150800509021F80208117A010895F60108DDBE010813
S315080050A0DD6501084C18002012300020161A002071
S315080050B0754701086F7A00081E3200202232002048
S315080050C054470020CC6F0308341800206C1A0020BF
S315080050D021EE00086C1300209D440108E1EE00084B
S315080050E03813002025EF000860130020D630002072
S315080050F0255601082D800108A5580108092C000825
S31508005100C4F8442CCA4AC4F82C8CC4F8642CC4F8D5
S31508005110306CC4F8406CC4F8346CC4F8586CC4F8E5
S31508005120487CC4F84C8CC4F8506CC4F8546CC4F869
S31508005130600CC4F8786CC4F8687CC4F86C8CC4F845
S31508005140A42C40F20222BB49DFF87893DFF878A353
S31508005150C4F8706CC4F8841CC4F8746CC4F8800C69
S31508005160C4F8986CC4F8887CC4F88C8CC4F8906C25
S31508005170C4F8946CC4F8A02CC4F8B86CC4F8A87C1D
S31508005180C4F8AC8CC4F8B06CC4F8C41CC4F8B46CCD
S31508005190C4F8C02C4846514601361BF0ADFA042E19
S315080051A009F12009F6D10026A349A4481BF0A4FA60
S315080051B0A349A4481BF0A0FAA34B0120C4F8843DD8
S315080051C0C4F8786DC4F8687DC4F86C8DC4F8706D41
S315080051D0C4F8806DC4F8746D06F062F89B499C4863
S315080051E01BF08AFA9B499C481BF086FA9B499C4807
S315080051F01BF082FA9B4BC4F8B86DC4F8C43DC4F8DA
S31508005200A87DC4F8AC8DC4F8B06DC4F8C06DC4F8F8
S31508005210B46DFCF75DFEFCF764FE1823C4F8CC3DBC
S3150800522094F8D43DC4F8C86D13B98F4BC4F8D03D73
S315080052308E4E96F8D83D1BB94FF47A73A6F8D63D2C
S3150800524040F6B8330120A4F8DA3D002384F8E00DCF
S31508005250A4F8DC3D84F8DE3D06F022F8B4F85233B3
S3150800526083491A0AB3F5406F824B4FF0000038BFE6
S3150800527003EB820305F05AFE7F4B804A80491A6089
S3150800528000231A4601330A2B8A8041F8082BF9D1E4
S3150800529040F20123ADF824307A4B4FF0000B1193FE
S315080052A0794B4FF00109169340F20113ADF82830F7
S315080052B04FF48073ADF82C300223DFF810A284F87F
S315080052C0B031724BADF834200DF124080DF1440EBF
S315080052D00DF1580C0AAF0BA80DA918F8012B83F885
S315080052E00D901A703EF8022B103323F80E2C3CF85A
S315080052F0022B23F80C2C17F8012B03F80A2C10F8AC
S31508005300012B0AEBC20243F8082C11F8012B03F80B
S31508005310042CBBF1000F00F091820223052284F8C9
S31508005320343E84F8353E85F8F030594B00271A701C
S3150800533041F202034FF05208A5F8F230554B3946B0
S31508005340186884F8367EA5F8F480A5F8F68027F064
S315080053502EFC514951481FF0AFFAFF201BF089FD7A
S31508005360012194F8B0214E4828F05BF84D4B4E4A7F
S3150800537003F1550113604D4AA4F88C8E11604C4A0E
S3150800538003F15701B8461160A3F6A94796F8B0216C
S315080053905FFA88F39A4200F25482012386F89C3E0B
S315080053A0444BC6F8A03E444BC6F8A43E07F046FC5C
S315080053B04FF6FF72414B304E1A805A809A803368F6
S315080053C0B3B1002116A812F013FA88B933681A780F
S315080053D09DF858309A420BD0D91E032908D9D11EF8
S315080053E0012905D9012A40F0A180022B40F09E80B0
S315080053F0334B1B78002B40F0998029F0C9F80646F4
S31508005400002840F09380012316A918460D2211F0B2
S315080054104CF99DF85830314685F8043103230DA818
S31508005420A4F8A83E12F0E4F900287FD150E000BFA6
S31508005430C5D00008DDE50008BDAF000878330020B8
S31508005440F5B100084C1A002045D200081DCF000807
S31508005450981B002029840008B833002049BB00089F
S31508005460741B0020D1C50008E093040030260020F4
S3150800547004060308906D0308401A0020D66F030837
S31508005480143400200401040104011008C027002078
S31508005490161A00205C1300207C47002020150020E7
S315080054A067340020693400203013002034130020AC
S315080054B02C130020008810020070EF05681B0020DE
S315080054C014180020F8320020F9D30008D86F030812
S315080054D011A811F0EBFF119BBDF84A0016A9189305
S315080054E011F02CFF064608BBB74D9DF8340011F0A5
S315080054F061FE2B78033B012B00F2BF81304612F088
