:1000000000100020B1170000D1570000D5570000A4
:100010008B3B0300D9570000E15700008B3B0300E6
:100020008B3B03008B3B03008B3B03008B3B0300AC
:10003000E55700008B3B03008B3B03008B3B030029
:100040008B3B03008B3B03008B3B03008B3B03008C
:100050008B3B03008B3B03008B3B03008B3B03007C
:100060008B3B03008B3B03009170000011110000DB
:10007000733603008B3B03008B3B03008B3B030079
:100080008B3B03008B3B03008B3B03008B3B03004C
:100090008B3B0300291F00008B3B03008B3B0300BD
:1000A0008B3B0300DD200000BD2000008B3B0300E4
:1000B0008B3B03008B3B03008B3B030039D60100D5
:1000C000A59F0300A19F0300CDCD0100B19F0300B8
:1000D000A99F0300FDD50100AD9F0300F9BA0100FF
:1000E00079D601008B3B03008B3B03008B3B030065
:1000F0008B3B03008B3B03008B3B03008B3B0300DC
:100100008B3B03008B3B03008B3B03008B3B0300CB
:100110008B3B03008B3B03008B3B03008B3B0300BB
:100120008B3B03008B3B03008B3B03008B3B0300AB
:040130008B3B030002
:10013400F0B5114A114C124E00F00105E3695F0756
:1001440013D40DB9334213D103EA00078F4207D108
:100154000B4A1A40002A0CBF00206FF00100F0BDCA
:10016400013AEBD16FF00200F9E74FF0FF30F6E708
:100174006FF00100F3E700BF809698000000035081
:10018400020001000B4B70B5D96911F480310DD117
:1001940001244FF48072084E084DF46020462C640C
:1001A4001A61FFF7C5FF3464EC6070BD6FF00100A5
:1001B400FBE700BF00000350001003500020035071
:1001C40038B541F6713301220C4C0021E569E36333
:1001D4000B4B05F48035DA60022360612120236132
:1001E400FFF7A6FF10B92120FFF7A2FF0122054B5C
:1001F400DA600DB10023E36338BD00BF0000035093
:10020400001003500020035070B5134C6061E36983
:100214005B071ED40E4656F8043B8D18A361AE420C
:100224000BD10423002121202361FFF781FF58B95A
:10023400BDE870402120FFF77BBF08210846FFF787
:1002440077FF10B10423236170BD56F8043BA3610A
:10025400E5E74FF0FF30F7E7000003502DE9F843DE
:10026400154641F67132164B8946DF69DA6301227D
:10027400064603F58053DFF8508007F48037DA60D0
:1002840055B9284601220F4BDA601FB10022A3F5AD
:100294000053DA63BDE8F88306F5005404EA080461
:1002A400A41BAC4228BF2C46494622463046FFF7E1
:1002B400ABFF0028E6D12644A1442D1BE0E700BF94
:0C02C400000003500020035000E0FFFF8A
:1002D0002DE9F04F4FF0FD0BC9B09A460DF11B0907
:1002E0009DF8503108AFCDF80C90CDF808B00197CB
:1002F000059303890446009383790E46904641880E
:100300008288407812F052FF054650B10090A388D1
:10031000002062883A4913F071FA284649B0BDE8D6
:10032000F08F99F8000036F09DFC38B12846A3887C
:100330006288344913F062FA8D25EEE75A46394651
:1003400099F8000036F05DFC8346002851D0529B9E
:100350001BB1BDF84C3198424BD8002399F800905E
:100360000793A9F14102012A5FFA8BF123D838469D
:100370000139254ADFF898C05FFA81FE734513DB27
:10038000059B04210792C3B907AF18221F489FEDB0
:100390001A7B02FB060420460A460830394684EDE3
:1003A000027B3CF0C6FE11E010F8011F0133514002
:1003B0000CFB01F2E2E7059B33B123464A4638467F
:1003C00000960EF039F8A8E70829DED9B8F1000F39
:1003D00001D088F80090BAF1000F01D0AAF800B05F
:1003E000529B002B99D05A46184608A93CF0A1FE12
:1003F00093E7012591E700BF000000000000000026
:100400002B8404005C840400C59D1C81E81000203E
:1004100093010001000000002DE9F04F93B0CDE9F9
:100420000A32DDE91C530E9353EC102BCDE9080181
:10043000104619468DED060B1E9E32F0E3FC80B18E
:10044000DDE906014FF0FF32C54B32F003FD40B944
:10045000DDE906014FF0FF326FF4801332F0DCFC6F
:1004600070B1DDE908019DED060B0E9B1E96CDE9EE
:100470001C53DDE90A3213B0BDE8F04F00F088B933
:100480000022DDE90601002332F0C6FC002800F05E
:100490003381DDE906A303F1004BCBF30A5016F4D8
:1004A0008063A0F2FF3008BF06250F9332F0D8F921
:1004B0009BA3D3E9002332F03DFA9BA3D3E90023A9
:1004C00032F082F8CBF31304894644F07F51804622
:1004D0000022A44B504641F4401132F073F894A32B
:1004E000D3E9002332F026FA02460B46404649463D
:1004F00032F06AF832F0B8FC044632F0B1F98EA35B
:10050000D3E900238046894632F014FA0022964B44
:1005100032F05AF832F0A8FC89A3D3E90023074649
:100520004946404632F006FA80463846894632F05F
:1005300097F985A3D3E9002332F0FCF902460B4674
:100540004046494632F03EF802460B46CDE90C23C0
:1005500032F0F0F9DDE90C23804689461046194651
:1005600032F032F80022CDE91001804B4046494676
:1005700032F00AFB00227E4B32F026F802460B4690
:100580004046494632F000FB00227A4B32F01CF81C
:1005900002460B464046494632F0F6FADDE90C23A6
:1005A0008046894600204FF0804132F00BF8024629
:1005B0000B464046494632F007F802460B46DDE955
:1005C000100132F0E1FA07F2FF3700226A4B31F0F6
:1005D000FBFF00223B0532F0ADF952465B468046F8
:1005E000894632F037FC002840F08980CDE90C893B
:1005F00004F16303C72B34BF0427052731051BD53E
:1006000053A3D3E900235046594632F019FC002881
:100610007FD051A3D3E900235046594632F0FCFB6A
:10062000002876D00027A542C6BF2C1B04F1FF3559
:1006300000253C4646F480660E9B9F422CBF4FF03F
:100640000008A3EB070816F0020903D0002F18BF1B
:100650004FF000083CB1DDE90C235046594632F01A
:1006600093FA82468B46DDE906010022002332F030
:10067000D3FB10B10BF100439B46DDE9080126F4E2
:100680000063CDE90183DDE90A324BEC10AB009544
:1006900000F07EF802465FB3DDE9091316F0200F83
:1006A00000F10105089E0CBF65204520B047DDE93B
:1006B00008010523002205930A23002CCDE902320C
:1006C00007F1FF374FEAD473B8BF64422A4601935B
:1006D00004970A9B009438F0AFFA0246B9F1000F74
:1006E00006D00B9BC41A0B9B1A190E9BA34245D82C
:1006F000104613B0BDE8F08FDDE906ABCDE6002271
:10070000404649461A4B32F03FFA013CCDE90C0114
:100710006EE7002D90D00F9B002B8DD0013D8BE715
:10072000FB799F501344D33FB3C8608B288AC63FE0
:1007300061436F63A787D23F71A379094F930A4042
:100740001655B5BBB16B0240EF39FAFE422EE63FBB
:100750002D431CEBE2361A3F0000000080842E413E
:10076000FFFFEF7F0000F83F0000E03F00002C405B
:1007700000002440000018400000F03F2020DDE988
:100780000913089DA8470134ADE700BF0000000031
:100790002DE9F04F5BEC10AB97B0CDE90501DDE939
:1007A0002057CDE90723504652465B465946229EC4
:1007B00032F028FB70B90323CDE902760193B04BE8
:1007C0000093DDE90501DDE9072338F055F917B09D
:1007D000BDE8F08F4FF0FF326FF48013504659465A
:1007E00032F01AFB28B10423CDE902760193A54B20
:1007F000E6E74FF0FF3250465946A34B32F02AFB52
:1008000068B1A24A06F00403002B08BF0322A04BE4
:100810001CBF13460422CDE902760192D0E7504670
:1008200093A3D3E90023594632F014FB38B992A3BD
:10083000D3E900235046594632F0EEFA68B1DDE9BB
:100840000723DDE905014BEC10ABCDE921762095BE
:1008500017B0BDE8F04FFFF7DFBD00220023504680
:10086000594632F0D9FA002800F09A805B46524689
:100870000020002131F0A6FE012382468B46099319
:1008800016F4806400F08E80092D40F28E800024E2
:1008900030210EABA5F109020134202C03F8011B15
:1008A000A5EB040901D09442F6D15946504632F0E6
:1008B000DBFA784B054603EBC90393ED007B8DED26
:1008C0000A7B31F0CDFF02460B465046594631F0C7
:1008D00079FEDDE90A2332F02DF802460B46CDE918
:1008E0000C2332F0E9FA804631F0AAFF02460B46AB
:1008F000DDE90C0131F066FE02460B46CDE90C2322
:100900000022654B32F0A6FA002851D008F1010808
:10091000404631F095FF02460B46DDE90A0132F010
:1009200085FA10B14FF000080135B9F1000F50D130
:10093000284631F095FF02460B465046594631F0A5
:1009400041FE0022544B8046894632F065FA30B1B0
:10095000002240464946504B32F07CFA10B1E8077D
:1009600000D501350A210EAB1A19202C0AD095FBAF
:10097000F1F001FB1055303502F8015B01340546FA
:100980000028F2D106F00302012A57D1002F55D0DA
:10099000099A12B916F00C0F00D0013F302245E041
:1009A00009906DE74FF006097FE7A94600247CE730
:1009B0000022DDE90C01384B32F02EFA0028B4D1C8
:1009C000B8F1000F02D018F0010FAED008F1010805
:1009D000ABE70A210EAB2344202C0ED0B8FBF1F07C
:1009E00001FB1082B8F1090F02F1300209F1FF3961
:1009F00004F1010403F8012B11D83021A1440EAAFF
:100A0000202CAFD0A14504F101030AD11C4609F105
:100A100058030DEB03092E2309F8203CA2E780467A
:100A2000DAE7A1541C46EBE71A550134A74205D971
:100A3000202CF9D1CDE902760194C1E6202CF9D021
:100A4000099A3AB12D2104F158026A4402F8201C97
:100A50000134EFE7710704D504F158022B216A44F1
:100A6000F4E73207E6D504F1580220216A44EDE7A5
:100A70000000000065CDCD410000000065CDCDC176
:100A800097B204009BB20400FFFFEF7F8EB2040018
:100A900093B20400A0B204000000E03F0000000098
:100AA00070B58EB02C22002103A83CF01EFB6423FD
:100AB0004FF002320893CDE905230B2301218DF875
:100AC0003430534B8DF810101B88D80700F19880F4
:100AD00008461CF099FE0A224E4B4F491A704FF4FB
:100AE00028734E48ADF812301CF03CFE4C4C206090
:100AF00020B940F259214B4804F066FD05212068D9
:100B000038F015FE20B140F26921464804F05CFD42
:100B1000206800F009FB444B2068196838F08DFE0E
:100B20000C251DF04FFD684309901DF04BFD6843F7
:100B30000DEB05010790206817F09EF820B140F2F8
:100B40007E21384804F040FD256820F049F8002255
:100B50000146284638F0FCFE20B14FF420713148A0
:100B600004F032FD40F20353304D314E2B8005230B
:100B700096F90000AB707F2801D11CF0A9FF3378F3
:100B8000EB701DF01FFD00EB80008000A8801DF0C1
:100B900019FD0023C0004FF0FF31E880AB604FF03B
:100BA000FF3019A3D3E900231CF0F0FF214920688E
:100BB00039F0A5FA206802A938F0A4FE20B140F26D
:100BC000B921184804F000FD042220680DEB020151
:100BD00038F021FE042804D04FF42F71114804F09E
:100BE000F3FC01A9012037F027FF04F035FE0120B6
:100BF0001DF086FF33F0E8F91DF0ACFF1CF088FE15
:100C00000EB070BDAFF300800A0020FF4203000069
:100C1000423900209244002031D80100E4480020ED
:100C20001C2F002028D5040020470020102F002072
:100C30007E4C0020DDD901000348044B834202D0E2
:100C4000034B03B118477047B84C0020B84C002044
:100C500000000000064B0749C91A891048BF01313E
:100C6000491003D0044B0BB101481847704700BF2F
:100C7000B84C0020B84C00200000000010B5064C15
:100C8000237843B9FFF7D8FF044B13B10448AFF3FF
:100C900000800123237010BD303A002000000000C6
:100CA0002CD9040008B5054B1BB105490548AFF325
:100CB0000080BDE80840FFF7CDBF00BF0000000086
:100CC000181500202CD90400A3F5803A704700BF06
:100CD000174B002B08BF134B9D46FFF7F5FF002174
:100CE0008B460F461348144A121A3CF0FEF90E4B7D
:100CF000002B00D098470D4B002B00D098470020C8
:100D0000002104000D000D48002802D00C48AFF36C
:100D1000008032F043FC2000290032F06FFC32F0FA
:100D20007BFA00BF00000800000000000000000087
:100D30000010002098100020144500200000000042
:100D40000000000010B535F029FF02280ED1FF2168
:100D5000074834F0EBFB01200AF07EF9BDE81040B3
:100D6000034601210420034A0AF012B910BD00BF56
:100D700030150020A8D103001FB535F00FFF022861
:100D800019D100900DF10E0300220321012036F04D
:100D900048FBBDF80E300E4853B132F0DBFF4FF484
:100DA0007A62FF210B4834F0B0FB05B05DF804FB1C
:100DB00032F0CAFFF9E70CF099FC074B0190009361
:100DC00001210420054B064A0AF0E2F8EDE700BFD6
:100DD000CC2F0400501500200CD60300C9D103000D
:100DE000CED103001FB501230022009306210DF18F
:100DF0000F0336F016FB28B99DF80F30044823B1D5
:100E000032F0A2FF05B05DF804FB32F0A0FFF9E775
:100E1000CC2F0400162808B504D1BDE808400748C7
:100E200032F095BF152808D1044832F08DFFBDE897
:100E30000840FF21024834F071BB08BDCC2F0400EC
:100E40003015002037B5FF24094D23462846094AAE
:100E50000021009408F0FAFC0749084808F07AFDE0
:100E60002146284603B0BDE8304034F057BB00BFF0
:100E700050150020790D0000450D000030150020B0
:100E800010B504460346012104200C4A0AF080F8FC
:100E90009CB10FF027FE034620B101210420084A2F
:100EA0000AF076F800200BF023FEBDE81040034660
:100EB00001210420034A0AF06BB810BDE2D10300FF
:100EC000FED103002AD20300002301210420014A9D
:100ED0000AF05EB843D2030008B532F0BFFE28B96D
:100EE000BDE80840FF21024834F018BB08BD00BF30
:100EF0003015002030B50A4C0A4B22680A4D1A60A2
:100F00000A4B85B02B600A4B019303F061FE2B68FE
:100F1000029001A92068039333F0D6FA05B030BDE2
:100F2000BC460020402300203C230020B046002087
:100F3000C92E0400014B186833F0DABABC46002011
:100F400038B503F045FE0446064D2B68D3F8B002D1
:100F500003F032FE286833F0DEFA2046BDE8384060
:100F600003F02ABEBC46002007B501A801F088FFA7
:100F70009DF80530012B27D11F4A936DDB0313D455
:100F8000536B23F4FF0323F4FE4343F4BC1343F4F5
:100F9000A0635363136B23F4704343F44043136320
:100FA000136B43F4E06313639DF8043063B94FF0AF
:100FB00000531B68114B1B68114B1B68114B1B68BE
:100FC000114B1B68114B1B68114AD2F8803043F05B
:100FD0000303C2F8803003F06FFD33F04BFE33F0B3
:100FE000FAFD04F03FFE04F079F801F087F803B051
:100FF0005DF804EB05F040B900C00050004000204F
:101000000080002000C000200000012000400120DE
:101010000080005030B5194D95B00DAC0FCD0FC408
:1010200095E80700164B84E80700164A0021CDE931
:10103000032306230E220DF12600CDE905313CF0F5
:1010400054F84FF48021104B0DAACDE907130B2360
:101050008DF824300C238DF825300C4B07A90A930A
:1010600020230B9301238DF83030094B094800935E
:1010700003AB03F057FF15B030BD00BF982F04003D
:10108000210005000080055024800550313A0020E1
:101090002C1800207C180020831E012B10B512D8BC
:1010A000012922D8114B04221B6905210020C3F31A
:1010B000401301F015FD0E4B1B681868A8B1BDE880
:1010C0001040436A18478B1E012B0CD801280CD8FE
:1010D000BDE810400022054B05211B691046C3F3F3
:1010E000401301F0FDBC0129E5D910BD00C003503B
:1010F000C046002008B50449044805F077F9BDE86A
:101100000840FFF787BF00BFC4460020A01800209A
:10111000014833F064BF00BF7C180020014B1A6AFD
:10112000186810477C18002008B516F0D3FD00227F
:10113000014B1A7008BD00BF513A0020014832F03F
:1011400088BD00BFB42F0400014832F0FABD00BFD3
:10115000CC2F04001FB5084903460868097902AA84
:1011600002908DF80C10009205210022012007F05A
:1011700003FD05B05DF804FBE42F04001FB50A4A27
:101180000346106802A9029090889279ADF80C008D
:101190008DF80E20009144224FF44071012007F099
:1011A000EBFC05B05DF804FBEA2F04001FB508490D
:1011B00003460868097902AA02908DF80C10009283
:1011C00005214222012007F0D7FC05B05DF804FBA1
:1011D000F22F04001FB5084903460868097902AADE
:1011E00002908DF80C10009205214022012007F09A
:1011F000C3FC05B05DF804FBE42F04001FB5074AEB
:101200000346039203AA00924FF440714122012049
:1012100007F0B2FC05B05DF804FB00BF010221211C
:101220001FB5094903460868097902AA02908DF89A
:101230000C1000924FF440714022012007F09CFCFA
:1012400005B05DF804FB00BFF82F04001FB5094985
:1012500003460868097902AA02908DF80C100092E2
:101260004FF440714322012007F086FC05B05DF881
:1012700004FB00BFF82F04001FB5094903460868A6
:10128000097902AA02908DF80C1000924FF4407177
:101290004222012007F070FC05B05DF804FB00BF9E
:1012A000EC2F04001FB5064A0346039203AA0092DE
:1012B00001220821104607F05FFC05B05DF804FB31
:1012C000010121211FB5074A0346039203AA009298
:1012D0004FF440710822012007F04EFC05B05DF884
:1012E00004FB00BF121221211FB5094A03461068F2
:1012F00092880290ADF80C2002AA00924FF440713F
:101300004B22012007F038FC05B05DF804FB00BF5C
:10131000FE2F04001FB5074A0346039203AA00925A
:1013200001224FF44071104607F026FC05B05DF82D
:1013300004FB00BF010121211FB5074A03460392A8
:1013400003AA00924FF440710422012007F014FC1C
:1013500005B05DF804FB00BF010121211FB509495B
:1013600003460868097902AA02908DF80C100092D1
:101370004FF440710722012007F0FEFB05B05DF835
:1013800004FB00BFFF2F04001FB5074A034603926A
:1013900003AA00924FF440710A22012007F0ECFBEF
:1013A00005B05DF804FB00BF020221211FB5094909
:1013B00003460868097902AA02908DF80C10009281
:1013C0004FF440710022012007F0D6FB05B05DF814
:1013D00004FB00BF053004001FB509490346086837
:1013E000097902AA02908DF80C1000924FF4407116
:1013F0000622012007F0C0FB05B05DF804FB00BF2A
:10140000053004001FB5064A0346039203AA009262
:1014100008210022012007F0AFFB05B05DF804FBB6
:10142000010221211FB5074A0346039203AA009235
:101430004FF440710322012007F09EFB05B05DF8D8
:1014400004FB00BF010221211FB50949034608889A
:10145000897803AAADF80C008DF80E1000920621D1
:101460004222012007F088FB05B05DF804FB00BFB5
:101470000B3004001FB503AA00920522074903465A
:1014800008888978ADF80C008DF80E1001201146FF
:1014900007F072FB05B05DF804FB00BF0F300400DD
:1014A0001FB5084903460868097902AA02908DF819
:1014B0000C10009208210222012007F05DFB05B00C
:1014C0005DF804FB053004001FB5094903460868B0
:1014D000097902AA02908DF80C1000924FF4407125
:1014E0000922012007F048FB05B05DF804FB00BFAE
:1014F000133004001FB50A4A0346106802A902907F
:1015000090889279ADF80C008DF80E2000914C2255
:101510004FF44071012007F02FFB05B05DF804FB8C
:10152000193004001FB5094903460868097902AA61
:1015300002908DF80C1000924FF4407102220120AD
:1015400007F01AFB05B05DF804FB00BF2130040072
:101550001FB5094903460868097902AA02908DF867
:101560000C1000924FF440710522012007F004FB9B
:1015700005B05DF804FB00BF213004001FB5094928
:1015800003460888897803AAADF80C008DF80E1080
:10159000009208210622012007F0EEFA05B05DF85E
:1015A00004FB00BF273004000A46014932F047BA65
:1015B0007B4904000A46014932F041BA70490400EF
:1015C0000A46014932F03BBA6B4904000A46014918
:1015D00032F035BA664904000A46014932F02FBAA2
:1015E000614904000A46014932F029BA544904000D
:1015F0000A46014932F023BA454904000A46014926
:1016000032F01DBA404904000A46014932F017BAC7
:10161000374904000A46014932F011BA2E49040044
:101620000A46014932F00BBA254904000A4601492D
:1016300032F005BA1E4904000A46014932F0FFB9EA
:10164000134904000A46014932F0F9B90849040077
:101650000A46014932F0F3B9FD4804000A4601493F
:1016600032F0EDB9F44804000A46014932F0E7B916
:10167000E94804000A46014932F0E1B9E6480400AD
:101680000A46014932F0DBB9E34804000A46014941
:1016900032F0D5B9E04804000A46014932F0CFB92A
:1016A000DD4804000A46014932F0C9B9DA480400AD
:1016B0000A46014932F0C3B9D54804000A46014937
:1016C00032F0BDB9D04804000A46014932F0B7B93A
:1016D000C74804000A46014932F0B1B9BC480400C9
:1016E0000A46014932F0ABB9B74804000A4601493D
:1016F00032F0A5B9B24804000A46014932F09FB958
:10170000AD4804000A46014932F099B9A8480400DE
:101710000A46014932F093B99D4804000A4601493E
:1017200032F08DB9924804000A46014932F087B977
:101730008B4804000A46014932F081B98848040008
:101740000A46014932F07BB9854804000A4601493E
:1017500032F075B97A4804000A46014932F06FB98F
:10176000754804000A46014932F069B96C48040022
:101770000A46014932F063B9634804000A46014948
:1017800032F05DB95E4804000A46014932F057B9AB
:10179000534804000348044A0449121A921032F0D4
:1017A000F5B900BF34010000D0020000144500204C
:1017B00008B500F02FF8FFF7EDFF124B12498B42EE
:1017C00012D30020114B12498B4218D3FFF780FA35
:1017D000186850F82240586840F822400132986852
:1017E0008242F5D30C33EAE70022F8E71C6844F89C
:1017F000220001325C68A242F8D30833E4E70022F9
:10180000F8E700BF34D9040040D9040040D90400EF
:1018100040D90400124B134A70B59A60D3F888205F
:10182000114D42F47002C3F888206FF0010205F5F3
:101830000054226641F2FF7262660222C3F8D02091
:10184000BFF34F8FBFF36F8F4FF44036032003F089
:1018500091F90320E66003F071F92E6170BD00BFBD
:1018600000ED00E00000000000800044014B18681B
:10187000704700BFEC460020014B1860704700BF66
:10188000EC460020084B1B6F03F00703022B04D02B
:10189000032B05D0012B05D0FEE7044B18687047D9
:1018A000034BFBE70348704700800050EC460020E4
:1018B000F4460020002D310108B5FFF7E3FF054B8A
:1018C0001B6FC3F301330133B0FBF3F0024B18601D
:1018D00008BD00BF00800050E84600200048704767
:1018E00000B4C404014B1868704700BFF4460020E0
:1018F00000487047002D3101174B9868C0F3044031
:101900000C280AD8DFE800F00B09090909090721AA
:1019100019091B1D1F0011487047002070479B6864
:1019200003F04073B3F1807F11D0B3F1007F10D08A
:101930000B4A002B08BF104670470A4870470A48F8
:1019400070470A4870470A4870470A4870470A4873
:1019500070470A48704700BF0040015A405DC6000A
:1019600000093D00C0EA210180BA8C010048E8016D
:10197000005A62020024F40080841E0040420F00DE
:10198000014B1868704700BFF0460020034B5868B1
:10199000C0F30800003818BF0120704700ED00E0D8
:1019A00070B5D0B1C9B10E4E431E013913F8014FC5
:1019B0002046325D02F00302012A11F8012F08BF10
:1019C00004F12000B55C05F00305012D08BF2032AD
:1019D000801A01D1002CE9D170BD0120FCE700BFC5
:1019E00029D80400F7B504680546264833F0FAF80C
:1019F000002301226179207901F072F8142330214B
:101A0000227911FB023101F1A04101F57031096821
:101A10006379D940C943A37901F00101022B2170F8
:101A200017D132F0D6F9184A2B466179207900F0A7
:101A3000E3FAFF28024660790ED12A46124900F0E7
:101A40000BFB0123024661792079CDE9003301F0D7
:101A500001F8002003B0F0BD0126277900230146DC
:101A60000096384601F0A4F82A460749607900F04C
:101A7000F3FA0023617902462079009301963346F8
:101A8000E5E700BF9C4C0400673C030010B504462A
:101A9000064833F0A7F8A3782078B3FA83F304223A
:101AA00061785B0901F01CF8002010BD9C4C04001B
:101AB00010B5012243780178847830209A40054B94
:101AC00000FB01331CB942F210015A5010BD41F223
:101AD0001001FAE700C0035010B5012243780178E5
:101AE000847830209A40054B00FB01331CB941F249
:101AF00010015A5010BD42F21001FAE700C0035025
:101B00002DE9F04F9A46564B85B01B7806460F4696
:101B10001546DDF83C909DF844B0DDF85080002B70
:101B200000F09780072A00F296800E9B002B00F0B1
:101B30009280B9F1000F00F08E80129BB3F5006F18
:101B400000F38980012803D1109B002B00F08380D3
:101B5000444B03EB05131B7B002B7ED0424C102221
:101B6000002168463BF0C1FA04EB45141022A7BBE4
:101B7000394620463BF0B9FA43F210036380BBF1CB
:101B8000000F03D1E37843F00303E370364A0E9B62
:101B900002EB451CCCE90193129B6901581E9DF88C
:101BA0004C30C0F30A0003F003039B0643EA001E17
:101BB00053582E48012E00EA03004EEA0003CDF8E8
:101BC00000A0535017D0B8F1000F2ED19CF802306E
:101BD00068F304138CF8023027E0002120463BF024
:101BE00084FA4FF444736380BBF1000FCED1E378E5
:101BF00043F03003C9E713230CF1100ECCF80C307E
:101C00009CE80F008EE80F006FF00301DCF81C2049
:101C1000109B61F39F02012FCCF81C20CCF81430EC
:101C200003D1CCF81890CCF8043000270D4A2901D4
:101C300002EB051342F80180159A28465A6069465E
:101C400022469F605E7301F015F8384605B0BDE886
:101C5000F08F0748FAE70748F8E70748F6E700BFBC
:101C6000523A0020A8190020A81800200F80FFF386
:101C7000028000F0018000F0078000F038B5124BC0
:101C800005461B78DBB1E0B131F09FFF0F4A00231E
:101C90001146147B54B92B6001251A0101EB031383
:101CA0001D738C5031F097FF204638BD0133082B4F
:101CB00002F11002EDD131F08EFF0548F5E705483D
:101CC000F3E70548F1E700BF523A0020A8190020C9
:101CD000048000F0028000F0018000F038B531F09F
:101CE00074FF002305460B4A147B6CB90133082BA3
:101CF00002F11002F8D100F079FF074B28461C7062
:101D000031F069FF204603E0284631F064FF0348C4
:101D100038BD00BFA8190020523A0020058000F00D
:101D20000D4B10B51B78044693B1072812D831F03B
:101D30004CFF0A4B03EB04131A7B2AB100241C73DB
:101D400031F049FF204610BD31F045FF0448FAE765
:101D50000448F8E70448F6E7523A0020A8190020A2
:101D6000068000F0028000F0018000F0154B13B5F2
:101D70001868002301908DF8043031F026FF124BD3
:101D80001C7824B131F027FF104802B010BD0122A9
:101D90001A7031F020FF0E4B01A81C731C7783F8DA
:101DA0002C4083F83C4083F84C4083F85C4083F837
:101DB0006C4083F87C4008238DF8073000F032FF38
:101DC0002046E2E782490400523A0020038000F0F6
:101DD000A81900200A4A08B512785AB107280BD86A
:101DE000084A02EB00131B7B43B1002100F00CFFFB
:101DF000002008BD0448FCE70448FAE70448F8E777
:101E0000523A0020A8190020028000F0018000F062
:101E1000078000F00A4A08B512785AB107280BD893
:101E2000084A02EB00131B7B43B1012100F0ECFEDA
:101E3000002008BD0448FCE70448FAE70448F8E736
:101E4000523A0020A8190020028000F0018000F022
:101E5000078000F00A4A08B5127852B107280AD85C
:101E6000084A02EB00131B7B3BB100F04FFF002040
:101E700008BD0548FCE70548FAE70548F8E700BF54
:101E8000523A0020A8190020028000F0018000F0E2
:101E9000078000F00D4B1B7893B1072812D889B149
:101EA0000B4B03EB00131B7B73B10A4B1A6D012321
:101EB0008340134214BF0123002300200B7070479E
:101EC000054870470548704705487047523A00205A
:101ED000A819002000000450028000F0018000F0EA
:101EE000078000F00B4A10B512780C4662B1072843
:101EF0000CD859B1084A02EB00131B7B43B100F028
:101F000017FF2070002010BD0448FCE70448FAE7E2
:101F10000448F8E7523A0020A8190020028000F097
:101F2000018000F0078000F0184B2DE9F0411F6D93
:101F30005B6D1F4000D5FEE701260025144CDFF83D
:101F40005880374218D02368C8F85060A3B1A16800
:101F5000284601316268A1609847637B012B0BD151
:101F600050B90C4B03EB45131A7B60F341021A7313
:101F70001A7F60F341021A770135082D4FEA4606B1
:101F800004F11004DDD1BDE8F08100BF0000045071
:101F9000A8190020A81800200020045070B504469D
:101FA00001250B4E04B970BD94FAA4F0B0FA80F08C
:101FB00005FA00F306EB001224EA03045368002B31
:101FC000F0D0117B11B191689847EBE79847E9E7AA
:101FD000281A002038B505460C4631F0F6FD0022DF
:101FE000044B03EB05135C601A73BDE8384031F015
:101FF000F2BD00BF281A0020F8B504460D4617466A
:102000001E4631F0E2FD1CB9052D13D0FF241AE065
:10201000012C03D1012DF9D103240BE0022C04D1B2
:10202000ADB1052DF2D1072404E0032CEED1022D31
:10203000ECD10924074904F1100301EB031101233A
:10204000C1E901760B7331F0C6FD2046F8BD0624C8
:10205000F0E700BF281A0020F8B505460E461746DF
:1020600031F0B3FD134B2C46D3F8242405F0FC01CA
:1020700022FA05F3DB0712D500230133DBB2042B70
:1020800004D1FF2431F0A7FD2046F8BDEC1804F080
:1020900003040C4422FA04FC1CF0010FEDD1FF2CC8
:1020A000F0D00122044B03EB0413C3E901671A7358
:1020B000E8E700BF00C00350281A0020064BD3F801
:1020C0002404D3F8202403F50053104000F05530C9
:1020D000C3F82004FFF762BF00C00350064BD3F8DB
:1020E0002404D3F8202403F50053104000F0AA3054
:1020F000C3F82004FFF752BF00C00350024B196819
:10210000024B186814F0FCBEF84600201847002067
:1021100070B59400224605460E463BF03DF8431C40
:102120000AD058B92246314628463AF0B4FF002872
:10213000034808BF002070BD0248FCE70248FAE7E8
:1021400010E000F021E000F024E000F010B50446BB
:102150003BF026F8431C10D088B900F09FFE2346C0
:1021600020F003002044984201D1002010BD53F814
:10217000042B0132F7D00348F8E70348F6E7034899
:10218000F4E700BF0EE000F021E000F024E000F0F2
:1021900008B531F00FFD014B186008BD1823002071
:1021A000014B186831F00ABD1823002041F6713345
:1021B000124A30B5D469124DD3639368A84204F42F
:1021C000803423F4401306D893600E4AD2F81832B4
:1021D00023F002030AE043F4801393600A4B984211
:1021E000F3D9084AD2F8183243F00203C2F8183281
:1021F00014B10022014BDA6330BD00BF0000035070
:10220000005A620200C0075080F0FA022E4B98423A
:102210004AD022D82D4B984240D014D82C4B98420B
:1022200039D00AD82B4B984232D02B4B98422FD022
:102230002A4B98422CD000207047294B9842FAD163
:10224000284B186F7047284B98422AD0274B98424A
:10225000F1D1244BD3F880007047254B98422BD006
:1022600009D8244B984223D0234B9842E3D11D4BED
:10227000D3F88C007047214B984221D003F57403AA
:1022800003F510539842D6D1164BD3F898007047F7
:10229000144B986D7047134B586E7047114B586F25
:1022A0007047104B986F70470E4BD3F884007047FF
:1022B0000C4BD3F8880070470A4BD3F89000704756
:1022C000084BD3F8940070470048E8010024F4005C
:1022D000C0CF6A0080841E0000093D0040420F000C
:1022E000405DC6000080E00FC0EA210180BA8C0189
:1022F000007E560380D54302006CDC020090D003C0
:1023000038B5134B0546D3F820010C4600F0070002
:1023100004281AD8DFE800F003090D111500012385
:1023200005B1286004B1236038BDFFF79FFA04238C
:10233000F6E7FFF7D7FA0323F2E7FFF7DDFA052305
:10234000EEE7FFF7D5FA0223EAE700231846E7E7AE
:102350000080005037B50C460021114B0191D3F895
:102360008031054603F00303022B0ED0032B11D05E
:10237000012B03D101A8FFF7C3FF0D210DB1019B74
:102380002B6004B1216003B030BDFFF7B5FA052121
:102390000190F3E7FFF7ACFA02210190EEE700BFEE
:1023A0000080005038B5104B0546D3F840310C463C
:1023B00003F00303022B0BD0032B0DD0012B0FD105
:1023C00031F0F2FB082305B1286004B1236038BD69
:1023D000FFF7D6FA0723F6E731F0E9FB0923F2E726
:1023E00001230020EFE700BF0080005038B5104BFC
:1023F0000546D3F860310C4603F00303022B0BD0E3
:10240000032B0DD0012B0FD131F0CEFB082305B1EA
:10241000286004B1236038BDFFF7B2FA0723F6E75E
:1024200031F0C5FB0923F2E701230020EFE700BFED
:102430000080005038B5144B0546D3F800020C4616
:1024400000F0070004281BD8DFE800F003090D1195
:102450001500012305B1286004B1236038BD31F0B7
:10246000A3FB0823F6E7FFF78BFA0723F2E731F027
:102470009EFB0923EEE7FFF71FFA0C23800AE9E72A
:1024800000231846E6E700BF0080005038B5144B23
:102490000546D3F808020C4600F0070004281BD8B4
:1024A000DFE800F003090D111500012305B12860D4
:1024B00004B1236038BD31F077FB0823F6E7FFF75E
:1024C0005FFA0723F2E731F072FB0923EEE7FFF72B
:1024D000F3F90C23800AE9E700231846E6E700BF7A
:1024E0000080005038B5104B0546D3F840320C46FA
:1024F00003F00303022B0BD0032B0DD0012B0FD1C4
:1025000031F052FB082305B1286004B1236038BDC7
:10251000FFF736FA0723F6E731F049FB0923F2E724
:1025200000231846EFE700BF0080005038B5104B7D
:102530000546D3F800310C4603F00303022B0BD001
:10254000032B0DD0012B0FD1FFF7CCF9032305B1DD
:10255000286004B1236038BDFFF712FA0723F6E7BD
:1025600031F020FB0623F2E701230020EFE700BF54
:1025700000800050032814D005D8012805D0022877
:1025800009D0002005E00F28FBD1084B186FC0F3DD
:10259000013001307047054BD3F89000C0F3046060
:1025A000F7E7024B186FC0F38020F2E7008000507D
:1025B0001FB500230193252817D8DFE800F0131A70
:1025C0001D272C363B51565B60656A78161A4016FB
:1025D00016561A272C27361A5127783B3B3B3B27A8
:1025E00027275B60FFF74EF90190019805B05DF871
:1025F00004FBFFF761F9F7E7FFF744F90246022011
:10260000FFF7B8FFB2FBF0F20192EEE7FFF754F9E3
:1026100002460320F4E7FFF74FF902460320FFF7D5
:10262000A9FFB2FBF0F25208EEE7002101A8FFF784
:1026300091FEDAE7002101A8FFF762FED5E70293D9
:102640004FF0E0231B695B0705D5FFF735F90290D2
:10265000029B0193C9E703A902A8FFF7A3FEF7E7CE
:10266000002101A8FFF79EFEBFE7002101A8FFF7A8
:10267000BDFEBAE7002101A8FFF7DCFEB5E70021A7
:1026800001A8FFF703FFB0E7002101A8FFF74EFF05
:10269000ABE7094BD3F8803003F00303022BA8D03B
:1026A000032B01D000209FE7FFF726F99CE70021CC
:1026B00001A8FFF717FF98E70080005008B5012038
:1026C000FFF776FFBDE808400349884294BF012127
:1026D0000221032000F002B880F0FA02032810B5AE
:1026E0000C4627D004D8012804D0022817D010BDEA
:1026F0000F28FCD131F0B6FB31F0BCFB124A013C93
:10270000136F23F4405343EA04331367FFF7D4F8FD
:102710000021FFF74BFDBDE81040FFF7CFBF0A4A8D
:102720004C1ED2F8903023F0F85343EA0463C2F809
:102730009030DCE7044A4C1E136F23F4806343EAB5
:1027400084231367D3E700BF008000501FB5002328
:102750000193252821D8DFE800F013202020202A2B
:102760002F454A4F54595E7120203420204A2020A2
:1027700020202A204520712F2F2F2F2020204F543A
:10278000314B1B6F03F00703013B032B05D8DFE838
:1027900003F00C02080A04230193019805B05DF8C8
:1027A00004FB0323F8E70623F6E70223F4E70020FF
:1027B00001A9FFF7CFFDF0E7002001A9FFF7A0FD79
:1027C000EBE702934FF0E0231B695B0705D5FFF7AA
:1027D00073F80B230393039BDEE703A902A8FFF71B
:1027E000E1FDF8E7002001A9FFF7DCFDD5E70020B7
:1027F00001A9FFF7FBFDD0E7002001A9FFF71AFEB2
:10280000CBE7002001A9FFF741FEC6E7002001A9A0
:10281000FFF78CFEC1E70C4BD3F8803003F00303C5
:10282000022B03D0032B05D00023B5E7FFF744F8B4
:102830000B23B1E7FFF760F80523ADE7002001A9FE
:10284000FFF750FEA9E700BF00800050024A536A1C
:1028500023F001035362704700C0075038B50546A6
:10286000FFF7D4FC204B04465A68012A04D11F49C3
:102870004A609A699207FCD10020FFF767FF04289D
:1028800003D131F0EFFA31F0F5FA194A24F0407330
:1028900095421FD0174A95421FD0174AD16811F0B0
:1028A000060FFBD19068936091684B4013F4F81FBA
:1028B00016D12846FEF7E0FF0020FFF747FF042867
:1028C00010D1FEF7F9FF0021FFF770FCBDE838409A
:1028D000FFF7F4BE43F00073DFE743F08073DCE7FB
:1028E0009060E9E738BD00BF00C0015000E0015032
:1028F00040420F0080841E0000000150284B984287
:1029000042D01AD8A3F5B703A3F55863984237D03D
:102910000CD8244B984225D0234B98422AD0234BE5
:10292000984217D00023224A93607047214B984267
:10293000F8D1214BD3F8BC301FE0204B984227D070
:102940001F4B984228D01F4B9842EBD11A4BD3F81B
:10295000C83012E0184BD3F8A03023F0407343F096
:102960000073E0E7144BD3F8A03023F0407343F03A
:102970008073D8E7104BD3F8A03023F04073D2E730
:102980000D4BD3F8B830F8E70B4BD3F8C030F4E771
:10299000094BD3F8CC30F0E7074BD3F8D030ECE755
:1029A000C0EA210180841E0000093D0040420F0062
:1029B0000040015A0024F4000080E00F0048E801C4
:1029C000005A620280BA8C010C4A10B513690446A1
:1029D00043F00403136103F0D7FE31F063FA084BB0
:1029E000084AC3F8202430BF31F05DFA03F0EEFE50
:1029F0001CB9BDE81040FEF75FBF10BD00ED00E060
:102A000000E003500000FFFF0A4A10B513690446B6
:102A100043F004031361084B084AC3F8202403F071
:102A2000B3FE30BF03F0D2FE1CB9BDE81040FEF784
:102A300043BF10BD00ED00E000E003500000FFFFC9
:102A4000034A0179D36E23F030030B43D3667047FA
:102A500000400050072A2DE9F0410D4614469846E3
:102A60000FD803269700BE4000FA07F231461548FA
:102A700031F01CFA05F0030231461348BA4031F038
:102A800015FA124B12499DF81800B8F1000F18BF43
:102A90001946012303FA04F40C600E4B0E4900287A
:102AA00018BF0B461C600D4B9DF81C00C3F820445A
:102AB000103103F22443002818BF0B461C60BDE808
:102AC000F08100BF00C4035008C4035010D4035069
:102AD00010E4035014E4035014D4035000E00350F6
:102AE000F8B504460D461F4616464AB101238B40F1
:102AF0003021184A01FB0022F7B141F21001535076
:102B000004EB4403072D4FF00F014FEA031316D8CF
:102B1000A80006FA00F281400F48184431F0C6F9C7
:102B20004EB9012330210B4AAB4001FB042277B19F
:102B300041F210015350F8BD42F21001DFE7A5F158
:102B40000800800006FA00F281400448E5E742F2FE
:102B50001001EFE700C0035004C003500CC0035045
:102B6000104B0140D3F8302422EA0002C3F830248D
:102B7000D3F830241143C3F83014D3F82C24024383
:102B8000C3F82C24084AD36E03F03003202B1FBF58
:102B9000D36E23F0300343F01003D366034BC3F826
:102BA0002004704700C003500040005000E0035074
:102BB00038B514461D46032283F00103FFF790FF4A
:102BC000012004F11001884005FA01F1FFF7C8FF68
:102BD0009DF81010034B044A002918BF13461860D3
:102BE00038BD00BF24E4035024D4035008B5152099
:102BF00001F092FF0022FF21024B5A6599625A6050
:102C000008BD00BF00000450044A054B002908BF5E
:102C10001346012282401A60704700BF40100450E2
:102C20004020045010B50446417802780120104B32
:102C3000120658609A60A278152042EA01429A6111
:102C4000FF229A6200229A631A644FF000425A658A
:102C50004FF0FF3203F500531A6501F08BFF15208A
:102C6000E17801F095FFBDE81040152001F066BF46
:102C700000000450F8B50125C3B2DFF88CC0D1F8CC
:102C800000E09D408F7ACB7A0C46097BCCF85050FF
:102C90000CF5005C4CF820E04FF0300E184E1B0590
:102CA0000EFB006094F80DC043EA074343EA41532A
:102CB00022F00302C0F860C0C365026730F085FFF0
:102CC000104B5D65237A13B1336C2B433364637A05
:102CD00013B1B36B2B43B3632279A37943EA024365
:102CE000094A93616179E37943EA014305498B61BC
:102CF000034B55639D64BDE8F84030F06CBF00BFE6
:102D000000000450001004500020045010B50124AD
:102D1000C0B2844030F059FF044B5A6D22EA0402DD
:102D20005A659C62BDE8104030F055BF0000045069
:102D300010B50124C0B2844030F047FF074BDA6A77
:102D4000224208D15B6B9C430CBF0124002430F06D
:102D500042FF204610BD0024F9E700BF00000450E8
:102D600041F67132034BDA63012203F50053DA6056
:102D7000704700BF0000035041F671320121044B3F
:102D8000DA6303F50052D1600022DA63704700BFB6
:102D900000000350044B1868421C02BF034AD2F8DB
:102DA00094001860704700BF1C470020004000508E
:102DB000CB784A7810B55B010C7843EA82030A7934
:102DC000234343EA02130C22424302F1B04213634D
:102DD000012C02BF8A78024B43F8202010BD00BFAF
:102DE000D080035008B54FF0B0435A686AB958B163
:102DF0005B680BB131F06FF801210D4B596031F078
:102E00006AF84FF0B043D96008BD5B680BB131F090
:102E100062F80028F0D131F05EF84FF0B0430222A2
:102E2000DA6031F058F80122024B5A60ECE700BF3B
:102E300000100058002000584FF0B0414B6810B50A
:102E40000BB131F048F801220B4BC4785A608378FB
:102E5000934043EA840344782343047943EA041308
:102E6000447943EAC4038B60044B5A600378C3F18E
:102E70000203CB6010BD00BF0020005800100058B6
:102E8000054B5B69C3F38512827003F03F021B0B95
:102E900042700370704700BF00C007500120034B11
:102EA0009B680A3303F01F03984070470080E00FCF
:102EB0000D4B984208D1A3F50033C3F88411C36DBC
:102EC00043F08003C3657047084B984204D1A3F5D3
:102ED0001033C3F89411F2E7054B984204BFA3F5F1
:102EE0002033C3F8A411EAE70080055000C0055064
:102EF0000000065070B5054616461C4619B9032059
:102F0000FFF756FB0146402C1BD003D8DCB1202C28
:102F10001BD070BD602CFCD1042303FB06F25308C8
:102F200003EB4113B3FBF2F3094A203B02EAC3036C
:102F3000AA6822F06002AA60AA681443AC60EB6140
:102F4000E7E70623E9E71023E7E70823E5E700BF03
:102F5000F8FF7F00012200F580535A6040F6AA6313
:102F600041F20502436100230D498360C365C260DD
:102F700000F500520361C361C3649164094983652C
:102F8000884203D103650023436506E00649884271
:102F9000F8D001F580418842F4D001235360704796
:102FA000FFFF01000080055000C0055070B50D46C0
:102FB000FFF7D0FF012300F580567360AB7C044619
:102FC0001BB1836843F080438360EB7C1BB12046D8
:102FD000297DFFF76DFF2A8A6B7B20461343EA8920
:102FE0001343E3602B7BD5E90112FFF783FF6B7D71
:102FF0001BB1A36843F48033A360AB7D1BB1A3680E
:1030000043F40043A360EB7D2A7E1B07120502F404
:10301000E00203F0E0431343A365697E1F4A8B1E61
:10302000012B1F4B1DD8944217D002F580429442C9
:1030300015D002F5804294420CBF02224FF0FF32BD
:1030400003EB4213022041F2AC520329985020D1E5
:103050000423F3652B78636170BD0022F0E7012241
:10306000EEE7944211D00F4A944210D002F580420C
:1030700094420CBF02224FF0FF3203EB42130220B6
:1030800042F2AC5201299850E1E70022F5E7012213
:10309000F3E7042204F50053DA65DBE7008005500E
:1030A00000C0035000C0055038B50446054D36F049
:1030B000D5FB0FCC0FC594E80F0085E80F0000206A
:1030C00038BD00BF1C23002047F6FF739A42F0B5BD
:1030D00072D0022972D83A4B5B5C022B6ED8394D04
:1030E000DF0005EBC304A17815F83330012938BFA0
:1030F0000121012B13D10025E078401AA84202D803
:103100000844C0B2F0BD431B6668A0EB530336F918
:1031100013609642D4BF1D4603F1FF30EEE76068AE
:103120000028EFD0B0F90040944204DBB0F902402F
:103130009442B8BF144683883D44FF2B19BFC82270
:103140004FF0280CB0F90620B0F908C0A2EB040338
:103150000CBF0126002693FBFCF333446E781BB2B0
:103160009E4201DD002B01DA731E1BB24FF47A7C04
:1031700001339BB2071D5D1E2DB24FEAC50E00EB59
:10318000C505EA88AD689E4214FB025222EAE2724B
:1031900002F15C02B2FBFCF204DD37F8335001337C
:1031A0009542E8D200EB0E039888904228BF104663
:1031B000884238BF0846A4E7FF20A3E70020A1E724
:1031C000A94904001C2300200229F0B560D8314B26
:1031D000595C02295CD8304B13F83100012816D114
:1031E00003EBC1039C78D878012C214638BF01211C
:1031F000904294BFC1EB0001C1EB0201001BCAB2B7
:103200008242C8BF00225B6833F91200F0BD002A79
:103210003CD003EBC1035968002939D0987890421B
:1032200002D3B1F90200F1E7DC78B1F90000944271
:10323000ECD95C788B88013CA3F1FF06734201F165
:103240000405E4B2734101F10C07DEB2B44216D8B2
:1032500005EBC3034FF47A756A43B3F902405B6828
:10326000D21A04EBD47302EB630292FBF4F29042A5
:10327000CCDBB1F902009042C8DC10B2C6E737F8E7
:1032800033C05E1C9445E3D33346DEE70348BDE715
:103290000348BBE7A94904001C2300200CFEFFFFE4
:1032A0000080FFFF08B50448FFF7FEFEBDE80840B8
:1032B000012036F0F8BA00BFAC4904007FB51422F3
:1032C000002101A839F011FF084B01A90293032343
:1032D0008DF80D308DF8133001234FF0FF308DF84D
:1032E000143036F01CFB07B05DF804FB006A1800D0
:1032F0002DE9F0418CB08846DDE912761D46044682
:10330000002847D0002945D0002F43D0002E41D0BF
:1033100013F00F033ED120482049A360002A08BFC4
:103320000146E361C4E90013404609A930F009FFF2
:1033300068BB2046099930F0F5FF2946204630F059
:10334000F1FF6946404630F0AAFF00BB69462046BF
:1033500030F0D4FF404603A930F0ACFFB8B92046A6
:1033600003A930F0CBFF06970127204645F0005512
:1033700006A90797089530F0C1FF204609A90996CC
:103380000A970B9530F0C4FF204630F068FE0CB071
:10339000BDE8F0812120FAE70001000400010104EA
:1033A0002DE9F04F97B0894690461F460546DDF857
:1033B00080A0002800F0BB80002900F0B8803AB15E
:1033C000229B002B00F0B380239B002B00F0AF80EA
:1033D000BAF1000F00F0AB80219B002B00F0A7801A
:1033E00067B13C680026229B43440293464507D3BD
:1033F00007B13C60002017B0BDE8F08F3C46F1E714
:103400005CB1229B219A9B5D125D01345340239A4B
:1034100004F00F0493550136E8E7A8EB060BBBF167
:103420000F0F58D9434B4846C5E90034AC60EC61F6
:1034300013A930F086FE0028DDD1284613992BF021
:103440000F0B30F06FFF5946284630F06BFF4846AF
:1034500004A930F024FF0028CDD1284604A930F07B
:103460004DFF484607A930F025FF0028C3D1284664
:1034700007A930F043FF012322992F4ACDF828A055
:103480000B930C928A190D9228464BF000520AA910
:103490000E9303920F9230F031FF28460DA930F0C1
:1034A0002DFF239B039A99190123109111931292D6
:1034B000214A284610A9CDF84CA01493159230F05B
:1034C00027FF284613A930F023FF284630F0C7FD18
:1034D0005E4400288FD1229B03EB060B239B1E44E6
:1034E000029B5B4501D1464680E7ACB9219B224651
:1034F000CDE900A3494610232846FFF7F9FE00282E
:103500007FF479AF0AF1100212F8013D0133DBB20A
:1035100013700BB95245F7D1219A1BF8013B125D8C
:103520000134534006F8013B04F00F04D8E7212092
:1035300061E700BF03030004100000202DE9F04FF5
:1035400097B0894615469A460446209FDDF8888044
:10355000DDF890B0269E002800F09D80002900F044
:103560009A80002E40F08A80002B00F09480B8F101
:10357000000F0AD0219B002B00F08D80002A40F024
:103580009F80F10700F1878002E0002A40F08580EB
:10359000FB1F062B7FD8524B0BEB05029A427AD8C1
:1035A0000023504A4846C4E90023A360E36113A9FD
:1035B00030F0C7FD00285ED12046139930F0B2FEEE
:1035C000204646EA074130F0ADFE4146204630F045
:1035D000A9FE2946204630F0A5FE484601A930F054
:1035E0005EFE002847D1204601A930F087FE4846FC
:1035F00004A930F05FFE00283DD14FF001092046BC
:1036000004A930F07BFE239B45F000550793219BD6
:10361000CDF82090204609950DA90A9347F0005750
:1036200048F00053CDF82C900C93CDF834A0CDF891
:1036300038900F9730F062FE20460AA930F05EFE07
:10364000204607A930F05AFE259B204610A946F0D7
:103650000056CDF840B0CDF8449012951393CDF8B4
:103660005090159630F054FE204613A930F050FECD
:10367000204630F0F4FC17B0BDE8F08F259B53B125
:10368000BAF1000F07D0B8F1000F01D0219B13B1A0
:10369000B5B9022E20D12120EDE7239B002BFAD0D3
:1036A000BBF1000FF7D0C7F10F03DBB2032B3FF6DE
:1036B00068AF0122DB0002FA03F3AB42EBD9E8E783
:1036C000239B002BE7D0BBF1000FE4D0C7F10F0321
:1036D000DBB2032BDDD8ECE7102E7FF652AFDAE732
:1036E00000000120000005042DE9F04F99B0884644
:1036F00015469B460446229FDDF89890289E60B1AF
:1037000059B1279B4BB1BBF1000F06D0249B0BB1E5
:10371000239B13B11DB9022E13D121239AE0259BBF
:10372000002BFAD0B9F1000FF7D0C7F10F03DBB2CD
:10373000032BF0D80122DB0002FA03F3AB42ECD9F1
:10374000E9E7731E0F2BE8D816F0010AE5D1FB1F3D
:10375000062BE2D8414B09EB05029A42DDD8404BDB
:103760004046C4E9003AC4F808A0C4F81CA015A952
:1037700030F0E7FC034600286CD12046159930F064
:10378000D1FD204646EA074130F0CCFD2046249981
:1037900030F0C8FD2946204630F0C4FD404603A95C
:1037A00030F07DFD0346002854D1204603A930F0B7
:1037B000A5FD404606A930F07DFD0346002849D10D
:1037C0004FF00108204606A930F098FD259B2046C1
:1037D000099345F00053CDF8288001930B93239B68
:1037E0000FA90C93249B47F0005743F00052CDF8EB
:1037F00034800E92CDF83CB0CDF84080119730F077
:103800007DFD20460CA930F079FD204609A930F055
:1038100075FD019B204612A9CDF84890CDF84C804B
:10382000149330F075FD279B204615A946F00056ED
:103830001593CDF85880179630F060FD204630F093
:103840000EFC034630B101902A465146484639F0F5
:103850004CFC019B184619B0BDE8F08F0000012018
:10386000000006047FB50E461D460446F0B102B9BD
:10387000E3B901230192029345F00053039300231F
:103880000B4AA360C4E90023E361204601A930F09C
:1038900035FD3146204630F045FD2046294630F0C2
:1038A00041FD204630F0DBFB04B070BD2120FBE77A
:1038B0000000094330B5048804F4E043B3F5005F29
:1038C0002ED1C4F30223042B2AD181F0AA6383F4FE
:1038D000807333F47E132AD081F0AA6383F40073DB
:1038E00033F47E1323D00023144D21F47E11A9421A
:1038F0001AD1B4F5105F17D1418821F0400080281B
:1039000002D0B1F5807F15D1191F0C2912D8DB0721
:1039100010D4073A072A34BF00206FF0860030BD6C
:1039200042F204039C42DED16FF08500F7E7C1F359
:103930000543D9E76FF08600F1E700BF00014005BD
:103940002DE9F04F9BB08146DDE928761D468B4678
:10395000DDF8A880DDF8BCA0099241B138B1249B04
:103960002BB1269B0BB9279B0BB91FB94EB16FF03A
:1039700086047FE02EB1B8F1000FF8D02B9B002B0E
:10398000F5D02C9B002BF2D0BAF1000FEFD02E9B7C
:10399000002BECD02D9B002BE9D0B9F8003003F4BC
:1039A000E042B2F5005F69D1C3F30222042A65D177
:1039B00085F0AA6383F4807333F47E1306D085F018
:1039C000AA6383F4007333F47E1360D1C5F3054317
:1039D00029464846259ACAF80030FFF76BFF04468F
:1039E000002847D1014620220AA839F07EFB202278
:1039F000214612A839F079FB0AA830F043FB0028D1
:103A000055D159464846099A12AB30F0F6FC0446A7
:103A100000282FD12B9B9E424CD8DAF800302E9AEA
:103A2000934247D8474508D2BB19984505D2394635
:103A30003246404639F03FFB4746204B25F47E1581
:103A40009D4226D1DAF80030324606932D9B03972B
:103A5000CDE90483279B12A90293269B0AA8019310
:103A6000259B0093249BFFF769FD212819D0D8B925
:103A70002C9B1E6020461BB0BDE8F08F42F2040272
:103A8000934204D185F0052383F480139BE7002340
:103A90009EE76FF0880400232C9A1360CAF8003068
:103AA000E8E76FF08604F6E76FF09204F3E76FF053
:103AB0009204DFE76FF08904DCE700BF00014005F6
:103AC0002DE9F04F99B08A46DDE926659346984680
:103AD00081462A9F28B96FF08604204619B0BDE8B8
:103AE000F08F0029F7D0229B002BF4D0249B13B930
:103AF000259B002BEFD10EB9002DECD117B92B9BD4
:103B0000002BE8D12C9B002BE5D0289B002BE2D08A
:103B100041464846239AFFF7CDFE04460028DCD1F3
:103B2000202201460DEB020039F0DFFA2022214667
:103B300010A839F0DAFA08A830F0A4FA10B16FF042
:103B40009204CAE75A465146484610AB30F055FC3D
:103B500004460028C1D12B9B9D422AD8BE4208D2E0
:103B600073199F4205D231462A46384639F0A3FAE6
:103B70003E46144B28F47E1898451DD1299B2A46B1
:103B80000693289B0396CDE90473259B10A9029305
:103B9000249B08A80193239B0093229BFFF7A4FD7D
:103BA000212898D02C280AD00028C8D12C9B1D6031
:103BB00093E76FF0890490E76FF088048DE76FF06A
:103BC00094048AE700014005084B984202D0084B54
:103BD000984207D10B88B3F5105F0CBF00206FF03F
:103BE000850070476FF08500704700BF00444004B7
:103BF0000013C0042DE9F04F99460023A3B093466B
:103C0000DDE92E74DDE93068CDE90633CDE908330E
:103C1000CDE90A33CDE90C33DDF8C8A00490059155
:103C200029B96FF08605284623B0BDE8F08F002A39
:103C3000F7D00FB9002CF4D12C9B13B92D9B002B7E
:103C4000EFD116B9B8F1000FEBD1BAF1000FE8D0FF
:103C500048460499FFF7B8FF05460028E3D101461E
:103C6000202212A839F041FA202229461AA839F058
:103C70003CFA12A830F006FA002878D1DDE90401F8
:103C80005A461AAB30F0B9FB05460028CBD11A983A
:103C900030F070FB05460028C5D114B9CAF8000001
:103CA000C1E7B7420AD23B199E4207D24445B8D871
:103CB00039462246304639F0FEF937464E4B994593
:103CC00058D003F54073994515D04C4B994540F0B9
:103CD0008C804445A5D814F00F02A2D12346CDE92B
:103CE00000761AA912A8FFF703FB0746002834D173
:103CF000CAF8004097E700234445CDE90E33CDE9EB
:103D000010338ED82D9B0D2B8BD101238DF838309D
:103D10002C9B0DF1390203F10C0153F8040B8B427B
:103D200042F8040BF9D11B78137001238DF847304A
:103D300014F00F0933D10F2CDAD906AB01930EAB77
:103D4000CDE90276009324F00F0200231AA912A8ED
:103D5000FFF726FB0746002843D0424600213046A5
:103D600039F0C3F90023012FCAF8003040D06FF0BA
:103D7000920558E744453FF654AF2D9B102B7FF436
:103D800050AF2C9B0DF1380C03F1100E62461868F1
:103D90005968083303C273459446F7D1C8E724F045
:103DA0000F033B440DF1280C03F1100E6246186816
:103DB0005968083303C273459446F7D10F2CBCD819
:103DC00024F00F03334403930AAB029306AB019331
:103DD0000EAB00934A4600231AA912A8FFF7E0FA97
:103DE00083E7B9F1000F83D0EAE76FF085051AE7A2
:103DF0006FF08B0517E700BF0010C00400444004BB
:103E00002DE9F04F994600239FB09346DDE92865E0
:103E1000DDE92A788A46CDE90633CDE90833CDE9D4
:103E20000A33CDE90C33059029B96FF0860420469A
:103E30001FB0BDE8F08F002AF7D00EB9002DF4D1E5
:103E400017B9B8F1000FF0D12C9B002BEDD04846EC
:103E50000599FFF7B9FE04460028E8D10146202263
:103E60000EA839F042F92022214616A839F03DF972
:103E70000EA830F007F9002844D15A46514605985B
:103E800016AB30F0BAFA04460028D0D1169830F0BC
:103E900071FA04460028CAD115B92C9B1860C6E7F0
:103EA000BE420AD273199F4207D24545BDD831465A
:103EB0002A46384639F0FFF83E46344B994549D0FA
:103EC00003F54073994520D0314B994554D1454570
:103ED00055D82B07A9D12B460122CDE9006716A999
:103EE0000EA8FFF705FA2C9B06461D6000289ED001
:103EF00042460021384639F0F8F800232C9A012E6A
:103F000013603FD06FF0920491E70D3D454536D8E0
:103F100001238DF8283033460DF1290206F10C01FA
:103F200053F8040B8B4242F8040BF9D11B780D3681
:103F300013704FF48073ADF8363006AB01930AABC3
:103F400000932A460023CDE9026716A90EA8FFF7C1
:103F500027FAC8E7103D454511D833460DF1280C26
:103F600006F1100E624618685968083303C273459B
:103F70009446F7D11036E0E76FF0850457E76FF00D
:103F8000890454E76FF08B0451E700BF0010C004B0
:103F90000044400410B54FF42F720021044639F05C
:103FA000A4F88023C4F88C30054B04F19C00C4F8BD
:103FB0008430012384F88830BDE810402FF00EBE15
:103FC000984A040010B5D0F8A0400A4684B930F0F1
:103FD0002AFC044610B90024204610BD2D2896BFA7
:103FE000064B074953F82010064830F062FDF3E70E
:103FF000D0F8A4101046A047EDE700BF584B0400CE
:10400000A14A040026710400F8B590F880600446C7
:1040100016B100263046F8BD30F038FA0028F8D145
:10402000012384F8803094F8883033B1D4F88410B8
:104030001E4884F8886030F03CFD4FF0FF37D4F81C
:10404000B402421C1FD0C4F8B47210F0FF052BD08C
:10405000204630F018FA2946204600F0BDFB002823
:10406000EDD0204630F01DFA94F888303BB1D4F8FA
:1040700084100E4830F01DFD002384F888300023A2
:1040800084F88030C6E730F0F9FC431CDDD1D4F869
:104090008C30D4F89420013B9A4203DB0449054854
:1040A00030F007FD0126EAE70126C8E7E06B0400CF
:1040B000AF4A040026710400F8B50B780446302B93
:1040C0000D46164604D14B7803F0DF03582B11D070
:1040D000284F6A1E12F8011F002934D128460A22EF
:1040E0002FF04CFA202C03460D4631D1B1FA81F065
:1040F00040091AE04A1C1F4912F8013F8BB92846B3
:1041000039F024F81C4B02382340032B12D1013420
:10411000A41084420AD1A87837288CBF002001203F
:1041200003E0CB5C13F04400E6D1F8BDCCBF012026
:104130000020FAE7002CB8BF0334B0EBA40FD4BFC3
:1041400001200020F1E77B5C13F00400C2D1ECE712
:1041500026B1084302D0013B61F100050122A240D3
:10416000013A1A40002D08BF9A420CBF01200020DE
:10417000DBE700BF29D8040003000080F0B5037816
:1041800001467B2B17D10646022400220B4F16F85E
:10419000015F7D2D05D10B5D6BB9D24302F00100AB
:1041A00008E07B5D13F0440002D001320134EEE7F9
:1041B000202DFBD0F0BD0020FCE700BF29D8040073
:1041C00070B506460D4638F0C1FF0446304630F063
:1041D00070FC044EAC4200D370BD304630F069FC38
:1041E0000134F7E7FC6204002DE9F84F0446022190
:1041F0006048FFF7E5FF1E212068FFF7E1FF6368D5
:10420000586830F056FC5C4830F053FC67683B7BE4
:10421000FD2B12D8D7F808804FF0FF34404638F015
:1042200095FF0646DFF84C91DFF8A8A1DFF864B1EE
:104230000C3717F8013BFF2B01D1BDE8F88F212B7C
:1042400014D8212B14D8DFE803F0178C8884807CE5
:1042500078741313131313131313706C6864605C76
:1042600058541313131313131313504CFE2B34D041
:1042700006B10134414D02E006B10134404D022146
:104280004846FFF79DFF1E214846FFF799FF50461D
:1042900030F00FFC5946284638F041FF39490028D4
:1042A00018BF2946384830F004FC3B78202B02D157
:1042B0002B2030F0F2FB354830F0FBFB4EB118F804
:1042C00004301F2B05D018F804001F2801D0B44279
:1042D0004BDB294830F0EDFBABE706B101342C4D48
:1042E000CDE706B101342B4DC9E7002EA1D0013432
:1042F0009FE706B10134284DC1E706B10134274DCF
:10430000BDE706B10134264DB9E706B10134254DAC
:10431000B5E706B10134244DB1E706B10134234DB0
:10432000ADE706B10134224DA9E706B10134214DB4
:10433000A5E706B10134204DA1E706B101341F4DB8
:104340009DE706B101341E4D99E706B101341D4DBC
:1043500095E706B101341C4D91E706B101341B4DC0
:104360008DE706B101341A4D89E730F096FB013430
:10437000A9E700BF57A104008B5004001D4C0400A6
:10438000174C04006E4C0400E06B0400905D0400C8
:104390009D850400254C04002E4C0400354C04007F
:1043A000404C04004A4C0400544C04003F4C0400B0
:1043B000494C0400534C04005C4C0400604C040065
:1043C000684C0400114C0400184C0400674C0400B5
:1043D000104C0400F17404002DE9F04F9BB0054629
:1043E0008B4600240092049338F0B0FE249F049B77
:1043F00005901C6028463C600AAA09A930F07AFBA7
:10440000064658B90A9838F0A1FE3446B146049BD6
:104410001860D5F89C300393039B1BB920461BB052
:10442000BDE8F08F039B9B680193002B69D02E445D
:1044300016F8013B202B12D000260C237343019A5F
:1044400002EB030AD3580293002B55D0DDF82480E9
:10445000C84551DB9AF808302BB1721C35E03B6837
:1044600001333B60E4E73B68D5F894200299D21A07
:10447000049B1A601AAB03EB890353F8403C1846BF
:10448000069338F03AFE07900028E6D1029838F0FB
:104490005DFEDAF804100346087BD7F800A0FE287A
:1044A000079A16D108F1FF38C8452ED00B68069838
:1044B0000292019338F04AFE0AF10103029A034482
:1044C000E95C21B13B6009F101091646B5E701330A
:1044D000F6E7D5F89420A2EB0A029A42BDDC5846D2
:1044E000069338F033FE069B03447B2B1DD95846B8
:1044F0001E4A00992FF099FB2B46059A2A449A42AE
:104500002AD1039B1B68039386E7D5F89420A2EB7E
:104510000A029A42E3DDD1F8008058F80C2B82B9E8
:10452000059B3B60049B1A60E6E75846029A009997
:104530002FF07BFB58460E4A009901342FF075FB93
:104540008BE7584600992FF070FB5846084A0099AF
:104550002FF06BFB0134E0E713F8011B0029CED1EB
:104560004FF0200103F8011CC9E700BF704C0400A4
:10457000FC6204002DE9F047002486B01C60DDE9F0
:104580000EA8064689468AF800401168154888F842
:10459000004017461D468DF81740FDF701FA18B97F
:1045A00001242B6801332B600020D6F89C6036B9BB
:1045B00014B1012388F8003006B0BDE8F087B06878
:1045C00068B14B460021CDE902A8CDE900750DF197
:1045D000170230F0C7F89DF81730002BE8D1366885
:1045E000E5E700BF754C04002DE9F04300260446C2
:1045F000ADF5457D7C22314605A802AF049638F022
:1046000074FD80222046009703AB04A9FFF7E4FE67
:1046100001283ED104A838F099FD03993B68A0EB2E
:1046200001080B44234428EAE878054604A801441D
:104630004246184638F07DFD00F80860D4F89060D6
:10464000039B3968D4F890201944B14212DCD4F8A5
:104650009410E81A0244C4F89020014404AAC4F853
:104660009410D41825182B1B002B0DDC0DF5457D5F
:10467000BDE8F083A05C30F010FAD4F89030013639
:104680000133C4F89030DBE714F8010B30F005FA81
:10469000E9E7EBDD24AD80223146284638F025FDE0
:1046A00044AB4FF400723146184638F01EFD0DF150
:1046B000100903464A464FF00108314612F8016BD3
:1046C000002E49D104A843F8281038F03FFD2946B0
:1046D000334619F8016B0DF5887C5CF8042B824297
:1046E00043D10133984501F8016BF2DAD4F89060B8
:1046F000039BB34242DC2346354A04A9354830F0D7
:10470000D8F9284638F022FD0646039B3F68F61A82
:104710001F44E0191D4426EAE67204F19803174489
:10472000984204EB07014ED204F1900399424AD912
:104730006A1E81190B1A002B39DD12F8013F00F8AF
:10474000013BD4F890300133C4F89030D4F8943061
:104750000133C4F89430EDE7202E01F1010104BFCC
:1047600043F8281008F10108A8E70DF1100E724473
:10477000D25CB242B1D00022EA54B7E7D4F890300C
:104780000136E05C30F089F9D4F890300133C4F898
:104790009030ADE7D4F89020013B0132C4F890206E
:1047A000D4F894200132C4F89420002BF2DC0023CA
:1047B0002E44E355731B002B7FF758AF15F8010B00
:1047C00030F06BF9F6E7294638F0B3FC3346ECE7F6
:1047D000984A04007A4C04002DE9F843D0E92456A5
:1047E00004460F46002294F89830012B07D10A2F77
:1047F00007D1002384F898300020BDE8F88300F248
:104800009F801B2F01D10223F4E70D2F0DD101232F
:1048100084F898300D2030F040F90A2030F03DF94E
:1048200000230120C4E92433E7E74FF00008082FF4
:1048300084F8988034D1454530DDB5420FD13846F3
:1048400030F02BF9202030F028F9013D384630F0C7
:1048500024F9013E04F80580C4E92456CCE7FBDACC
:1048600005F1FF39384630F018F904EB0903A6EBDF
:1048700009026119184638F01EFC04F8068001464A
:10488000013E484830F015F935464D4501DC4D46AE
:10489000E2E7082030F001F9013DF6E7ACD0DBE7B4
:1048A0007F2F1CD1002EA7DDB542A5DA6319691C44
:1048B00021441846721B38F0FEFB04F806800146BE
:1048C000394830F0F6F80820013E30F0E6F8B542FD
:1048D000F9D1D4F89430013BC4F894308CE70A2F16
:1048E00098D0092F03D12046FFF77EFE84E7D4F845
:1048F0008C30013BB3427FF77FAFB54204EB050834
:1049000005F101090CDB384688F80070D4F89430C2
:10491000C4F890900133C4F8943030F0BEF86BE7DF
:104920004146721B04EB090038F0C5FB404630F0ED
:10493000C0F80820013E30F0B0F8B542F9DDE2E7FA
:10494000022B06D15B2F01D1032353E784F8982073
:1049500049E7032B7FF450AF413F84F89820032FA1
:104960003FF64AAFDFE807F002070A1601212046AA
:1049700030F044F840E74FF0FF31F8E7B542BFF6BA
:104980003BAF605D30F089F8D4F890300133C4F863
:10499000903031E7002D7FF72FAF013D0820C4F89C
:1049A0009050BAE7834C04007C5E040010B53E488A
:1049B0003E4CFDF753FF3E48FDF7A0FF2FF05EFA97
:1049C000236F002023F0070343F002032367236FC4
:1049D00023F4505343F4806323672FF056FA354B8A
:1049E000D3F8FC20D2014AD4D4F8803023F003035A
:1049F00043F00203C4F880302C4BD3F8202122F07E
:104A0000070242F00102C3F82021D3F8802122F0EE
:104A1000030242F00102C3F88021D3F8402122F0C2
:104A2000030242F00102C3F84021D3F8602122F0D2
:104A3000030242F00102C3F86021D3F8402222F0C1
:104A4000030242F00102C3F84022D3F8002222F010
:104A5000070242F00102C3F80022D3F8082222F034
:104A6000070242F00102C3F80822FDF7EFFE4FF003
:104A7000E0221369002063F00403136110BDD3F832
:104A8000FC2022F08072C3F8FC20D4F8802022F0B1
:104A9000030242F00202C4F88020D3F8FC2042F066
:104AA0008072C3F8FC20A7E700B4C4040080005063
:104AB000C0EA210100ED00E06FF00403502110B5C1
:104AC0000A480B4C13F0800F03F1010206D1234476
:104AD0003D2A83F800131346F4D110BD03F00F03F1
:104AE000043B034419761346ECE700BF00ED00E0F9
:104AF00000E100E0BFF34F8F0549064BCA6802F49E
:104B0000E0621343CB60BFF34F8F00BFFDE700BFF0
:104B100000ED00E00400FA0500280CDB0122064944
:104B2000430900F01F008240203341F82320BFF3E7
:104B30004F8FBFF36F8F704700E100E0002807DB65
:104B400001234109034A00F01F00834042F821304D
:104B5000704700BF00E100E0054B421153F82230DE
:104B600000F01F0023FA00F0C04300F0010070477E
:104B700000E100E0002808DB01224309034900F0BE
:104B80001F008240603341F82320704700E100E0BD
:104B90000028ACBF00F16040064B4FEA0111C9B2DA
:104BA000ABBF00F5614000F00F0080F8001319540E
:104BB000704700BF14ED00E010B504462EF0FAFF78
:104BC000024B1C602EF0FAFF002010BD4423002091
:104BD00010B52EF0EFFF034B1C682EF0EFFF2046C0
:104BE00010BD00BF4423002038B50C4615460146D1
:104BF00010B9FFF7EDFF01462B462246034811F09E
:104C000059F80028D4BF3720002038BDE14C0300FC
:104C100030B51446054687B0104630F093F8636906
:104C2000024683423CBFD4E903315B181B1A7BB1B7
:104C30000F49049403910021CDE901310123009330
:104C40002846D4E900132FF0AAF8002007B030BDA1
:104C50000122627694F82D20002AF6D084F83530AF
:104C60001321E369204698472046636A9847ECE79A
:104C7000114C00002DE9F04788B004460F46164657
:104C800098462EF0A2FF8146002E7AD0237E03F0B4
:104C9000FF02002B00F0A280204630F053F8656937
:104CA000A84205D1637ED4E9033213445D1B01E0C1
:104CB000F9D9451BB54228BF35462EF086FF94F83A
:104CC0002D308246002B6DD12A463846616938F076
:104CD00030FA63692E462B44636121E0037803F0C8
:104CE000FD0111295BD1216B814205D1A3F1110195
:104CF0004B424B4184F83430013E6369216B0132F1
:104D00008B4203F1010308BF23636361954260692D
:104D1000E4D1D4E90323216B1344994200D12263E7
:104D20000025D4E9032361691344994208BF6261F5
:104D3000207A6576FDF74EF8204630F003F8636977
:104D4000834232D1257694F82D30E568656103B150
:104D500025632046636A9847214B049403930023FC
:104D6000029323692A460193012300936368216813
:104D7000207A2FF014F8207AFDF74CF850462EF0E8
:104D80002AFF4846C8F800602EF025FFD8F800300A
:104D9000002B0CBF1B20002008B0BDE8F08707F8EF
:104DA000013BAAE72E460022B0E70123207A2376B2
:104DB0000DF11E01FDF796F89DF81E30002BDAD09C
:104DC0000DF11F01207AFDF765F89DF81F100029ED
:104DD000D1D12246207AFFF71BFFCCE71646D0E759
:104DE000114C00002DE9F0410C461546064686B0F0
:104DF0004022002120461F4638F077F995E803004D
:104E000000232A692376EB6884E80300C4E90423BD
:104E10002A7DE36084F82C20AA7D2363012384F893
:104E2000343084F835300C9B84F82D2023620D9BA0
:104E3000E76163620E9BA3622B7A84F836306B7A4B
:104E400084F837302D4B346073602D4BB3602D4B9D
:104E500033612D4B73612D4BF360FCF787FF38B145
:104E60002B4B984204D01024204606B0BDE8F081B8
:104E7000002104F10800FCF701FF07460028F2D1E9
:104E80004FF00108234B3362234B84F83C80B3611D
:104E9000224BF3619DF8403084F8390084F83B30B0
:104EA0009DF83C30204684F83A30697D84F838809B
:104EB0002FF085FF95F90900FFF75CFE95F90900D1
:104EC000FFF73CFE164B0494CDE902732369CDE94C
:104ED00000836368E2682168207A2EF060FF044650
:104EE0000028C0D195F90800FFF744FE95F90800A5
:104EF000FFF724FE3046FFF75FFEB5E70F4E0300D5
:104F0000754C0000334D0300394D0300654D03001F
:104F1000038000F00D4D0300BF4D03003F4D030023
:104F2000114C00002DE9F0414FF001081C46574B91
:104F300086B00293564B0C9D0193564B1746009337
:104F40000A46CDE903882946534BFFF74BFF064637
:104F5000002840F09280236804222B64237985F88E
:104F60004430A17985F84610607985F84500237AA8
:104F700085F84830E37985F84730A37A85F84A30D8
:104F8000637A85F84930237B85F84C30E37A85F8DD
:104F90004B304346FDF7A4FD43460222217AE079D7
:104FA000FDF79EFD3E7039462068FDF7FFFF142196
:104FB000A27B3A4B03EB4210C0F8AC1594F806C044
:104FC00061792E3203EB421341EA0C415960227A97
:104FD000E37943EA0243C0F8BC3585F84D607B7E37
:104FE000032B50D8DFE803F03A4D021D022385F869
:104FF0004D3000230422217BE07AFDF771FD41F260
:10500000AC520221A37B5B0103F1A04303F5703393
:105010009950217BE27A42EA014241F2B8515A505A
:105020001CE0012785F84D3002220023A17A607A26
:10503000FDF756FDA17A627AA37B42EA014241F272
:10504000B4515B0103F1A04303F570335A500422BD
:10505000236803F58053DA65002FCAD163792A6C7F
:1050600085F84530A379052185F84630D36C206852
:1050700043F00403D3642EF036FF304606B0BDE89B
:10508000F0810027CEE72326F7E700BF3D4F03005E
:10509000314F0300C14F0300B54F030000C0035060
:1050A00007B501F027FE6A4601F08AFE18B14521D6
:1050B000034800F089FADDE9000103B05DF804FB64
:1050C000A04C040008B501F047FD18B16D2102485D
:1050D00000F07AFA002008BDA04C040008B500F0EA
:1050E00015FA0D4A536A43F470235362EFF30883B1
:1050F0004FF0CD31094A043B93420AD230F07DF89B
:1051000000F0F6FBFFF7DEFFBDE808400448FDF7BE
:10511000CBBF43F80419EFE700ED00E000000020EA
:10512000AC49040007B5042200200DEB020134F065
:1051300072FB042803D0F621044800F045FA0198D8
:1051400000F08AFB03B05DF804FB00BFA04C040034
:10515000082310B50A0A41400648C9B201F001040B
:10516000490804B14140013B13F0FF03F6D181EA45
:10517000020010BD2083B8ED2DE9F8430025134C43
:10518000134EDFF85480134FDFF8509023780BB99B
:10519000BDE8F88322464146002056F8043B2FF034
:1051A000A8FD227823460134002AFAD15B7853B156
:1051B00005F00303032B0CBF3946494600202FF0AE
:1051C00098FD0135E2E73946F8E700BF34520400A4
:1051D000001000208A500400074D040004870400DA
:1051E00040F605226A4B2DE9F0411B8893420ED808
:1051F000B3F5206F0DD840F20252934218D040F21E
:105200000172934220D040F2015293420AD0BDE88D
:10521000F081A3F602235F4C032B1ED8DFE803F0D6
:10522000376396B25C490020BDE8F0412FF061BDC4
:1052300000205A492FF05DFD564B1A6C0020BDE846
:10524000F04157492FF055BD524A0020D2E924239E
:10525000BDE8F04153492FF04CBD002052492FF0DA
:1052600048FD94F868309E0703D500204F492FF081
:1052700040FD94F86B305D0603D500204C492FF0BB
:1052800038FD94F96B30002BC1DA4A49CBE7002096
:1052900049492FF02EFD94F86430980704D000207F
:1052A000226C3F492FF025FD94F96430002B04DA7D
:1052B0000020226F41492FF01CFD00250126404FA0
:1052C000DFF80881626E06FA05F3134207D057F83B
:1052D000252013781BB1414600202FF00AFD01352F
:1052E000082DEFD193E7374900202FF002FD2C491C
:1052F0000020226C2FF0FDFC94F86530590703D58F
:10530000002031492FF0F5FC94F96530002B04DAC8
:105310000020226F29492FF0ECFC0825284E2B4F46
:10532000636EEB40DA0707D556F8252013781BB1DA
:10533000394600202FF0DDFC0135102DF0D194F816
:10534000640000287FF463AF21496DE72149002004
:105350002FF0CFFC0020226C11492FF0CAFC102541
:10536000174E1A4F636EEB40DB0707D556F8252022
:1053700013781BB1394600202FF0BBFC01351A2DE4
:10538000F0D144E7002014492FF0B3FC226C55E71C
:105390008832002000100020114D04004F4D040001
:1053A000804D04009B4D0400B74D0400D04D040017
:1053B0000B4E04003F4E04007C4E0400A24E04003D
:1053C00084560400C94E0400E14E0400C04E04009F
:1053D000284F0400594F0400734F04002DE9F04F8B
:1053E0003D4C85B0D4E90D32580748BF0026D4E9BA
:1053F000121B48BFB046D4F83CA05FBFD4F8508021
:105400008B469246354E54BFDFF8F890DFF8F8909F
:1054100013F0080F324B334A18BF1A46B6EB080791
:105420001FBF64237D0803FB0B55B5FBF7F50CBFCD
:105430003D46ADB24B462C490020CDE9016ACDF87E
:105440000080BFB22FF055FC2B460020CDE900971D
:1054500026491FFA8BF22FF04CFCB24501D8C24509
:1054600004D24A46002022492FF043FCD4E9170316
:10547000184309D11F492FF03CFC00201E4905B0FC
:10548000BDE8F04F2FF035BC00201C492FF031FC57
:10549000002501261A4FE26D06FA05F3134204D0E7
:1054A0002A46394600202FF024FC0135202DF2D168
:1054B00000250126124F226E06FA05F3134205D08D
:1054C0003946002005F120022FF013FC0135202D74
:1054D000F1D100200849CEE7001000200010002084
:1054E0009A4F0400A14F0400A94F0400DB4F0400B1
:1054F00015500400345004008B5004004A5004003E
:10550000266E0400954F0400228D040010B5FDF7AF
:1055100041FC04462EF0D9FCE3071AD401231846B7
:10552000194600FA01F2224003F1010313D00E4B99
:105530000E4A33F81130062B12D0138040F201725C
:10554000934210D10A4B0B4A92E8030083E8030010
:1055500009E00021EBE7102BE2D1044B1A8002E0B6
:105560004FF4C063138010BD145204008832002031
:105570004823002090100020014B1888704700BF7E
:1055800088320020014B1888000A704788320020BA
:10559000044B05481B881A0AB3F5406F38BF00EB6F
:1055A0008200704788320020E4510400044B1888C0
:1055B000044B020A53F82230C0B203EB800070475C
:1055C00088320020B451040038B504460D460B461D
:1055D0000246074900202FF08CFB00F0B7F92EF0AF
:1055E000F0FA29462046BDE838402FF075BD00BFCF
:1055F0007A5004006D4A2DE9F0416D4B55686D4CB1
:105600005D65516A99656C49D1F80002D865D1F899
:105610000412586B1966916A10F0040F5966D16A2A
:105620004FF000009966116BD966516B1967D26B08
:10563000D8645A67D3E90E1218BF11465F4A9142E7
:105640001A655DD301F12000A04259D88869C5F3DD
:1056500008051864CE69062D5E6455D1584DA842E0
:1056600052D3584DA8424FD205884DF6426085422C
:105670004AD11868C3F890005868C3F8940040F203
:105680000170A242154604D22E680432B6F1CD3F15
:10569000F7D00022C3E91E22C3E92022C3E9222257
:1056A000641BDFF81CC1434DDFF818E19C648D4298
:1056B0002DD8D3E91EC7D3E92065D3E922414FF0A5
:1056C000000E013AD2B2FF2A3CD1BEF1000F05D044
:1056D000C3E91EC7C3E92065C3E92241B3F85430CA
:1056E000C3F308030C2B3BD8022B54D9DA1E092A2A
:1056F00051D8DFE802F03157404350505050504DE0
:105700000021C3E910112D494FF42060B9E755F885
:10571000044D6445CBD37445C9D2E607C7D50026EE
:10572000294F57F8048FA045C1D00136062EF8D175
:1057300032B1013AD2B202F11E0643F82640B6E772
:105740000522F8E7E0464FF0010EBC4637462E46EC
:1057500025460C464146B4E740F60120BDE8F081FD
:105760003B2B18D1194B9B6913F0020F40F20253E7
:1057700018BF1846F2E740F60320EFE740F2017247
:1057800040F60423B0F5206F14BF10461846E5E735
:1057900040F60520E2E740F60722013B4B2B98BF7D
:1057A0001046DBE740F60220D8E700BF00ED00E03E
:1057B000001000200010002000E100E000000020A8
:1057C000D002000080D10300741000200080015A34
:1057D00000F00CB800F00AB800F008B800F006B805
:1057E00000F004B800F002B800F000B872B61EF085
:1057F000080F09D01EF0040F0DD0DFF850E0AEE81E
:10580000FF1F6FF002000CE0DFF840E0AEE8FF1F82
:105810006FF00E0005E0DFF834E0AEE8FF1F6FF038
:1058200006006946EFF309828EE8070086460848BD
:10583000084C854501D3A54501D384F30888FFF7BB
:10584000D9FE84F308882FF049FC000000100020E6
:1058500040000020001000204BF6EF6283B2002BC6
:1058600008BF1346044A000C13804FF6CE2308BF2E
:105870001846024B18807047DA4B0020D84B0020A6
:105880000B4BB3F900201888002AB8BF80F06200E3
:1058900042001A80074AB2F9001013880029BCBFE1
:1058A00083F4805383F00B035900118058407047F4
:1058B000DA4B0020D84B002008B501F04FFC60B156
:1058C0000A4B0344072B0DD8072B0BD8DFE803F056
:1058D0000C060A080A0A0A045D2008BD5A20FCE7E3
:1058E0005B20FAE75C20F8E75920F6E7FF1FFF0F7F
:1058F00030B5144885B02FF075F90023CDF8093084
:10590000CDF80130CDF8053001238DF800300D239E
:105910008DF80930032302250B4C694620468DF88B
:105920000A302EF014FB2B20FFF724F904F5005366
:105930002B209D61FFF702F904F58054E56105B065
:1059400030BD00BF944C04000080015A01482EF085
:10595000EDBA00BF0080015A10B5054C20462EF06C
:105960002BFB2046BDE8104000212EF0D0BA00BF2E
:105970000080015A024B586800F00100704700BFD8
:105980000080015AF0B551B1002807DA2D23B0F19B
:10599000004F137000D04042012100E0002100259B
:1059A0002C460E4F002357F8046B01E06346801B22
:1059B000864203F1010CF9D913F0FF0300D125B1A0
:1059C0004D1C30335354E9B201250134E4B2092CA3
:1059D000E8D130305054481CC0B2F0BDF456040039
:1059E0002DE9F04F002495B02146029480461646DA
:1059F000A1464422274603A802AC9A46254637F022
:105A000074FB317859B9641BE4B222462946002060
:105A1000C047002840F090803819C0B28DE0252999
:105A200018D0B9F1000F19D104F8011B12AB9C4238
:105A3000C0F0D680641BE4B2294622460020C0474D
:105A40000146002878D13C4448222846E7B237F086
:105A50004CFBC4E0B9F1000F00D101363278622A64
:105A600048D022D8252A3FD004D8002ACBD04FF0E6
:105A70000009DBE7392A15D82F2AF8D9717801F007
:105A8000DF01582940F0DB80322A06F1010940F09D
:105A9000C380204604223AF8041B2FF046FB04463C
:105AA0004E46E4E7582A17D0E1E7632A6BD0A2F10B
:105AB000640C5FFA8CFCBCF1140FD8D80121614B47
:105AC00001FA0CF919EA030040F08C8019F410492E
:105AD00060D1BCF1140FA9D1204602221AF8041B90
