:020000040800F2
:1000000000080020610E0008C9D40108C9D4010805
:10001000A3F30108C9D40108C9D40108C9D401084F
:10002000C9D40108C9D40108C9D40108C9D4010838
:10003000C9D40108C9D40108C9D40108C9D4010828
:10004000C9D40108C9D40108C9D40108C9D4010818
:10005000C9D40108C9D40108C9D40108C9D4010808
:10006000C9D40108C9D40108C9D40108650C000825
:10007000550C0008C9D40108C9D40108C9D4010825
:10008000C9D40108C9D40108C9D40108C9D40108D8
:10009000C9D40108AD160008C9D40108C9D40108A3
:1000A000C9D40108B917000891170008C9D401087C
:1000B000C9D4010875A7010891B201084D150208BD
:1000C0004915020835AA01085915020851150208F8
:1000D00065B2010855150208D1B201083DB3010807
:1000E000C9D40108C9D40108C9D40108C9D4010878
:1000F000D9ED0108C9D40108C9D40108C9D401083F
:10010000C9D40108C9D40108C9D40108C9D4010857
:10011000C9D40108C9D40108C9D40108C9D4010847
:10012000C9D40108C9D40108C9D40108C9D4010837
:10013000C9D40108C9D40108C9D40108C9D4010827
:10014000C9D40108C9D40108C9D401080DF50108B2
:10015000E1900108C9D40108B3140208B9140208D7
:10016000C9D40108C9D40108C9D40108C9D40108F7
:100170002DE9F04F2DED028B93B082460C4693464D
:100180001D4657EC106B8DED080B32463B46304652
:1001900039461BF0A9FD002800F009814FF0FF321D
:1001A000B14B304639461BF0C7FD002840F0FF80B8
:1001B0004FF0FF326FF48013304639461BF09EFD3E
:1001C000002840F0F48000220023DDE90867304673
:1001D00039461BF093FD002840F0FC809DED087B24
:1001E0008DED067B209B13F48063119301D10623D0
:1001F0001E93DDE906010246C1F30A50C1F3130361
:10020000904643F07F5949F44019A0F2FF301BF0AB
:1002100099FA83A3D3E900231BF0FEFA82A3D3E962
:1002200000231BF043F906460F4600228F4B404641
:1002300049461BF039F97EA3D3E900231BF0ECFA01
:1002400002460B46304639461BF030F91BF07EFD66
:1002500006461BF077FA8046894677A3D3E9002348
:100260001BF0DAFA0022824B1BF020F91BF06EFD26
:10027000074673A3D3E90023404649461BF0CCFA56
:100280008046894638461BF05DFA6FA3D3E9002308
:100290001BF0C2FA02460B46404649461BF004F9E1
:1002A0008046894602460B461BF0B6FACDE90C01A2
:1002B00007F2FF3700210022CDE90A123B050B931C
:1002C00000230A9342464B46404649461BF0EEF84F
:1002D000CDE90E0142464B4600204FF080411BF015
:1002E000E3F8804689460022624BDDE90C011BF0F1
:1002F000BDFB0022604B1BF0D9F802460B46DDE93E
:100300000C011BF0B3FB00225C4B1BF0CFF8024644
:100310000B46DDE90C011BF0A9FB02460B464046EB
:1003200049461BF0C3F802460B46DDE90E011BF0FF
:100330009DFB0022524B1BF0B9F8DDE90A231BF0AC
:100340006BFA8046894649EC188BDDE906231BF0E1
:10035000F3FC40B1013E0022474B404649461BF0AA
:1003600085FB41EC180B06F16303C62B3BD8042731
:10037000209B13F4006F40D035A3D3E90023DDE9BF
:100380000689404649461BF0CDFC00283BD032A3ED
:10039000D3E90023404649461BF0B0FC002832D088
:1003A0001E9BB34221DD9E1B731E1E931FE0209BEC
:1003B00002931F9B01931E9B00939DED080B2B4600
:1003C0005A462146504600F0CBF813B0BDEC028BE4
:1003D000BDE8F08F9FED227B8DED067B069607F141
:1003E00000430793FEE60527C2E700231E93209BE8
:1003F00043F48063209300273E461F9B9F4241D2D7
:10040000A3EB070840E01E9B002BF6D0119B002BAE
:10041000F3D01E9B013B1E93EFE700BFAFF30080BC
:10042000FB799F501344D33FB3C8608B288AC63FE3
:1004300061436F63A787D23F71A379094F930A4045
:100440001655B5BBB16B0240EF39FAFE422EE63FBE
:100450002D431CEBE2361A3F0000000080842E4141
:100460000000000000000000FFFFEF7F0000F83FE9
:100470000000E03F00002C40000024400000184035
:100480000000F03F4FF00008209B13F0020902D05B
:100490000FB14FF000083EB153EC182BDDE9060117
:1004A0001BF0E4FACDE9060100220023DDE9080192
:1004B0001BF024FC00283BD1209B23F40063029313
:1004C000CDF804801E9B00939DED060B2B465A46EB
:1004D0002146504600F044F8002F3FF476AF209BB1
:1004E00013F0200F2CD04FF0450C00F101082B46E3
:1004F000024621466046D04786EAE672A2EBE672E3
:1005000005230593013F0497002303930A230293D5
:10051000F30F019300922B464246214650461FF0AE
:1005200001FAB9F1000F3FF450AF02461F9F10E0EF
:10053000DDE90601024601F10043CDE90623BBE7F0
:100540004FF0650CD1E7561C2B4621462020D047A2
:100550003246A2EB0B03BB42F5D3104635E700BF92
:100560002DE9F04F2DED028B93B005900891924646
:100570009B4659EC108B1E9D42464B4640464946D1
:100580001BF0B2FB002840D04FF0FF326FF4801315
:10059000404649461BF0B2FB002845D14FF0FF32E0
:1005A000B14B404649461BF0C7FB00284BD1AAA3DC
:1005B000D3E90023404649461BF0BEFB00285AD130
:1005C000A7A3D3E90023404649461BF097FB002828
:1005D00051D100220023404649461BF08FFB0028E2
:1005E00057D100230993209B13F4806F5CD0002423
:1005F0001F2C5BD8092D59D904F148036B443022D4
:1006000003F8202C013D0134F2E7209B03931F9B4C
:10061000029303230193954B00935B46524608993E
:1006200005981FF0A5F810E1209B03931F9B0293F0
:10063000042301938E4B00935B465246089905981C
:100640001FF096F801E1209B13F004030FD0894AB4
:100650007BB10423209903911F9902910193009289
:100660005B465246089905981FF082F8EDE0824AF1
:10067000EEE70323EEE7209B02931F9B0193009577
:1006800049EC108B5B46524608990598FFF770FDC0
:10069000DBE042464B46002000211AF005FF804671
:1006A0008946012309939EE70625A0E7404649466F
:1006B0001BF04CFB06461BF045F802460B46404635
:1006C00049461AF0F1FE6D4B03EBC50393ED008B29
:1006D00053EC182B1BF0A0F802460B46CDE906237D
:1006E0001BF05CFB07461BF01DF802460B46DDE9DC
:1006F00006011AF0D9FE02460B46CDE90623002278
:100700005F4B1BF019FB50B3013738461BF00AF85A
:1007100002460B4651EC180B1BF0FAFA08B10136F1
:10072000002755BB30461BF00DF802460B464046ED
:1007300049461AF0B9FE804689460022504B1BF00C
:10074000DDFA38B100224E4B404649461BF0F4FA20
:10075000002842D016F0010F3FD001363DE00022C4
:10076000474BDDE906011BF0C9FA0028D9D117B1C2
:1007700017F0010FD5D00137D3E71F2C17D8013D53
:10078000404BA3FB0723DB08194603EB8303A7EBCE
:100790004303621C303304F148000DEB000404F8FD
:1007A000203C092F02D90F461446E6E714461F2CB9
:1007B0000AD86B1E45B104F148026A44302102F8A0
:1007C000201C1D460134F2E71F2C06D804F1480313
:1007D0006B442E2203F8202C01341F2C17D82A4AF0
:1007E00082FB0632F317C3EBA2031A4603EB830323
:1007F000A6EB4303611C303304F148000DEB000409
:1008000004F8203C16460AB10C46E6E70C46209B4D
:1008100003F00303012B39D01F2C09D8099B002BAF
:1008200051D004F148036B442D2203F8202C0134ED
:10083000209B03931F9B029301940AAB00935B469A
:100840005246089905981EF093FF13B0BDEC028B39
:10085000BDE8F08FAFF300800000000065CDCD4112
:100860000000000065CDCDC1FFFFEF7F0C2D030818
:10087000102D0308002D0308082D0308182D030868
:100880000000E03FCDCCCCCC676666661F9BB3B161
:10089000099B1BB9209B13F00C0F12D01F9B013B2F
:1008A0001F93194606E004F148036B44302203F815
:1008B000202C01348C42AFD21F2CF4D9ACE71F9905
:1008C000F8E71F99F6E7209B13F0040F07D004F117
:1008D00048036B442B2203F8202C0134A8E7209B0B
:1008E00013F0080FA4D004F148036B44202203F84E
:1008F000202C01349CE700BF0348044B834202D004
:10090000034B03B1184770478067002080670020C1
:1009100000000000064B0749C91A891048BF013181
:10092000491003D0044B0BB101481847704700BF72
:1009300080670020806700200000000010B5064C92
:10094000237843B9FFF7D8FF044B13B10448AFF342
:1009500000800123237010BD106100200000000002
:100960006C78030808B5054B1BB105490548AFF382
:100970000080BDE80840FFF7CDBF00BF00000000C9
:10098000200B00206C780308A3F5803A704700BF65
:10099000174B002B08BF134B9D46FFF7F5FF0021B7
:1009A0008B460F461348144A121A20F076FE0E4B5F
:1009B000002B00D098470D4B002B00D0984700200B
:1009C000002104000D000D48002802D00C48AFF3B0
:1009D00000801CF0A7F8200029001CF09BFC1BF0F5
:1009E000DDFB00BF00000800000000000000000068
:1009F00000080020000800208061002000000000A6
:100A00000000000000B585B0094B1868094B18605C
:100A1000094B0A4A13600A4A01920A4A1268029272
:100A2000039301A91DF0BAFB05B05DF804FB00BFFC
:100A30009C6100200047002090610020FC460020BF
:100A40008CA60208A461002008B5024B18681DF0AE
:100A5000BDFB08BD9C61002038B50EF0ADFB04461F
:100A6000064D2B68D3F8B0020EF09AFB28681DF0F3
:100A7000CAFB20460EF094FB38BD00BF9C610020ED
:100A8000044B1B68834202D0034B1868704701482F
:100A9000704700BF181300203813002008B509481C
:100AA000094B1860094B1B6803600A23C360084B9D
:100AB0004361084B8360084B4360002303761EF0BC
:100AC000C4F808BD18130020381300209C610020D2
:100AD000180E0020A0A60208ACA6020808B501F076
:100AE000E9FA1CF0C1FF274A136F23F0070343F014
:100AF00003031367012001F043FD234B9B6A13F0AE
:100B0000807F03D1214B4FF480329A621D4BD3F882
:100B1000202122F0070242F00202C3F82021D3F87C
:100B2000282122F0070242F00202C3F82821D3F85C
:100B3000402122F0030242F00202C3F84021D3F820
:100B4000602122F0030242F00202C3F86021D3F8D0
:100B5000402222F0030242F00202C3F84022D3F8FE
:100B6000002222F0070242F00202C3F80022D3F86A
:100B7000082222F0070242F00202C3F808220020F5
:100B800008BD00BF008000500040005A0060005ABD
:100B9000022907D808B5044B1B68186808B1436AD6
:100BA000984708BD704700BFA061002030B591B0E4
:100BB0001E4C0DF1200CA646BEE80F00ACE80F005D
:100BC0009EE80F008CE80F0006AB203494E8030089
:100BD00083E80300EC4600240094CCF80440CCF8F1
:100BE0000840CCF80C40CCF81040CCF814408CE80D
:100BF00003000B238DF808300C238DF809300C4BC3
:100C000003932023049301238DF81430094B08AA81
:100C1000614609480EF086FB054621464FF4E13057
:100C20001CF043FC284611B030BD00BFBCA6020832
:100C30003C1300205C130020B413002008B50349C6
:100C400003480FF01DF8FFF7B1FF08BDA8610020B1
:100C5000D813002008B502481EF063F908BD00BF94
:100C6000B413002008B502481EF05BF908BD00BFB0
:100C7000B413002008B5024B1A6A1868904708BDE3
:100C8000B413002010B58AB000230693079308938D
:100C90000993254B0693254906A810F0A1FD244B86
:100CA000186030B10023059305A91FF0B4FA08B10C
:100CB000FEE7FEE71E4C1F4A1F4B1968206811F023
:100CC00035F8002120681DF021FA00B1FEE71B492C
:100CD000174B186811F0D8F800B1FEE7184A40F237
:100CE0003F23CDE900234FF0FF324FF0FF3310498F
:100CF00008681FF026F800B1FEE7124B1B88ADF81C
:100D00001030ADF80C3004A9094B18681EF0F6FF3E
:100D100000B1FEE703A9064B18681FF007F800B101
:100D2000FEE70AB010BD00BF53D4010837D4010854
:100D3000B06100203FD4010880610020070011004D
:100D4000EFFFF3FFE4A6020882B0054B019302AB6C
:100D500003EB800050F8043C186802B0704700BFF5
:100D6000B061002008B503481DF080FF1CF0E3FAD5
:100D700008BD00BF642C030808B502481DF076FFCB
:100D800008BD00BF642C03082DE9F04180460F46E2
:100D900001F109050026344604E05B21082000F03B
:100DA00017FA0134AC4233D2052C1BD801A353F8F7
:100DB00024F000BF9B0D0008CD0D0008010E0008B7
:100DC000D50D0008D90D0008DD0D0008FBB2043375
:100DD000D9B2E3E78021E1E70021DFE7731C314668
:100DE000DEB2DBE7BB1DA3420CD0FB1DA3420BD040
:100DF00007F10803A34209D0A31F18F80310CDE799
:100E0000D121CBE75A21C9E75A21C7E75D21C5E7C0
:100E10000020BDE8F08100BF00B583B002218DF84D
:100E20000010002205481CF02AFB019008216846AA
:100E3000FFF7AAFF03B05DF804FB00BF006A1800CB
:100E400008B50448044A121A921004491CF03DFBEC
:100E500008BD00BF7001000870010008806100201B
:100E600008B500F02FF8FFF7EBFF124A0AE0106810
:100E7000516850F8230041F82300013391688B42F8
:100E8000F5D30C320C4B9A4201D20023F6E70B4A01
:100E900008E01168002041F82300013351688B42BB
:100EA000F7D30832064B9A4201D20023F6E7FFF748
:100EB0006FFD00BF7478030880780308807803080A
:100EC0008078030870B5134B134A9A60D3F88820D2
:100ED00042F47002C3F88820104A4FF480419166B2
:100EE0000F4D05F500544FF0FF3222660D4A626641
:100EF0000222C3F8D020BFF34F8FBFF36F8F0020C3
:100F00000EF040F94FF44036E66000201DF06CFF13
:100F10002E6170BD00ED00E0000000080090005060
:100F200000800044F7FF3700014B1868704700BF8E
:100F3000B861002008B5094B1B6F03F00703022BB3
:100F400004D0032B05D0012B06D0FEE7FFF7ECFF02
:100F500003E0034B186800E0024808BD0080005021
:100F6000C0610020002D310108B5FFF7E3FF054BFC
:100F70001B6FC3F303330133B0FBF3F0024B186074
:100F800008BD00BF00800050B461002000487047D9
:100F900000B4C404014B1868704700BFC061002052
:100FA00008B5064B1860064B1B6F03F00703032BB5
:100FB00000D008BDFFF7D8FFFBE700BFC0610020ED
:100FC0000080005000487047002D31014FF0B443BD
:100FD0009868C0F304400C2808D8DFE800F009073F
:100FE0000707070722181A071C1E20000020704759
:100FF0004FF0B4439B6803F04073B3F1807F12D08D
:10100000B3F1007F11D003B1704709487047094818
:1010100070470948704709487047094870470948B0
:10102000704709487047094870470948ECE700BF16
:1010300000093D000024F400C0EA210180BA8C01BF
:101040000048E801005A6202405DC60080841E002C
:1010500040420F00014B1868704700BFBC61002080
:10106000F0B18446F1B110B409E004F120000FE0C2
:101070002033C01A18D1BCB10CF1010C01319CF81D
:1010800000400B4B1B5D03F00303012BEDD020460A
:101090000B78074AD25C02F00302012AE9D1E7E7A4
:1010A00001207047012070475DF8044B704700BF76
:1010B000FB76030810B582B0002401943B481DF074
:1010C000D5FD012304220321204601F0DDFE204648
:1010D0001CF041FD364B0122C3F84424A3F55033E4
:1010E0004FF400225A66334BD3F8FC2012F0807282
:1010F00006D01946D3F8FC3023F08073C1F8FC30D9
:101100002D49D1F8803023F0030343F00203C1F8E6
:10111000803032B1274AD2F8FC3043F08073C2F8F5
:10112000FC3001A905201DF09AFD00283BD1214B80
:10113000D3F8F02042F00102C3F8F020D3F8FC20ED
:1011400042F08072C3F8FC20A3F55D431B4A1A608D
:10115000019B03F5D52303F2FC43DB08184AA2FBED
:1011600003239B0A013B174A13610223C2F8F030A4
:101170004FF48073C2F804334FF06043124AC3F84F
:10118000B02F124AC3F8802ED3F8002E42F480729A
:10119000C3F8002EFF2283F82020D3F8002E22F47B
:1011A0008072C3F8002E02B010BD00BF642C03088B
:1011B00000D0035000ED00E000800050FF0300402D
:1011C00017916502000004E055CEACC5090001008E
:1011D0004FF06043D3F8803E13F0010F01D111208E
:1011E00070470E4AD2F8FC3043F08073C2F8FC30EE
:1011F0004FF06043D3F8002E4FF0010C0CFA00FCC6
:1012000042EA0C02C3F8002E53F82030002BE8D03D
:101210004FF0604303F820100020704700ED00E01D
:10122000F0B585B00C4694469DF83410664A1278A5
:10123000002A00F0BD800546BCF1070F00F2BA801D
:101240000A9A002A00F0B8800B9A002A00F0B680B3
:101250000E9AB2F5006F00F3B38001285BD05B4AB1
:1012600002EB0C12127B002A00F0AC8000220092EC
:10127000019202920392564A02EB4C1E002C4FD16F
:101280004FEA4C1600209051CEF80400CEF808002A
:10129000CEF80C009EF8020040F010008EF802001C
:1012A0009EF8030040F030008EF8030021B9C1B26F
:1012B00041F003018EF8031000930E9B013B444A5A
:1012C0004FEA4C1002EB4C11165A63F30E161652ED
:1012D0000A9B8B600B9B4B60CB789DF83C2062F3A4
:1012E0008303CB70012D36D0109B002B56D0374A8C
:1012F0004FEA0C1102EB0C1310985050119A5A60DF
:1013000000249C605D7372466946604601F060FE91
:10131000204605B0F0BD0C9A002AA0D12D48F8E770
:101320002B4F4FEA4C1607EB4C120020B85150607F
:101330009060D060907840F010009070D07840F0CD
:101340000300D0700029B7D107EB4C12C1B241F0B5
:101350003001D170B0E70E460A7B42F001020A73F9
:10136000D2B242F002020A73CA68042161F39F02FA
:10137000F26006F1100796E80F0087E80F00F269A7
:101380006FF0030161F39F02F2610C9B7361012C0A
:10139000AAD10B9AB2610C9A7260A5E7002DA6D172
:1013A0000B4B03EB4C139A786FF304129A709EE781
:1013B0000948AEE70748ACE70648AAE70548A8E7AA
:1013C0000448A6E70548A4E711610020E0140020C6
:1013D000E0130020018000F0028000F0078000F0A0
:1013E000134B1B78FBB110B50446F0B11CF088F824
:1013F0000023072B13D80F4A02EB0312127B0AB10A
:101400000133F6E723600B4A190102EB03130124B1
:101410001C73002454501CF079F8204602E01CF0A4
:1014200075F8054810BD054870470548FAE700BF44
:1014300011610020E0140020048000F0028000F020
:10144000018000F038B51CF05BF804460023072B40
:1014500006DC0C4A02EB0312127B12B90133F6E7E9
:10146000002222B120461CF051F8074838BD01F097
:101470005BFD0025054B1D7020461CF047F82846F3
:10148000F4E700BFE0140020058000F011610020A7
:101490000F4B1B78BBB110B50446072815D81CF0BC
:1014A0002FF80C4B03EB04131B7B1BB91CF02EF81D
:1014B00009480BE0074B03EB041300241C731CF0DA
:1014C00025F8204602E005487047054810BD00BFDA
:1014D00011610020E0140020068000F0028000F07E
:1014E000018000F000B583B0134B1B68019300230B
:1014F0008DF804301CF004F8104B1B7833B90F4BF7
:1015000001221A701CF002F8002309E01BF0FEFF14
:101510000B480EE00B4A02EB03120021117301335A
:10152000072BF7DD08238DF8073001A801F020FD17
:10153000002003B05DF804FBE8A60208116100205A
:10154000038000F0E014002008B50A4B1B785BB163
:1015500007280BD8084B03EB00131B7B43B100217A
:1015600001F0F8FC002008BD0448FCE70448FAE755
:101570000448F8E711610020E0140020028000F028
:10158000018000F0078000F008B50A4B1B785BB1C2
:1015900007280BD8084B03EB00131B7B43B1012139
:1015A00001F0D8FC002008BD0448FCE70448FAE735
:1015B0000448F8E711610020E0140020028000F0E8
:1015C000018000F0078000F008B50A4B1B7853B18A
:1015D00007280AD8084B03EB00131B7B3BB101F033
:1015E00047FD002008BD0548FCE70548FAE7054827
:1015F000F8E700BF11610020E0140020028000F035
:10160000018000F0078000F0104B1B78ABB1072879
:1016100015D8B1B10E4B03EB00131B7B9BB10D4BE7
:101620001B6D0122824013EA020003D001230B70DC
:101630000020704700230B70704707487047074829
:101640007047064870470648704700BF1161002088
:10165000E014002000000450028000F0018000F03F
:10166000078000F00C4B1B7873B110B50C460728AF
:101670000CD869B1094B03EB00131B7B53B101F08C
:1016800009FD2070002010BD054870470548FAE7A5
:101690000448F8E70448F6E711610020E014002050
:1016A000028000F0018000F0078000F0F8B5194BCF
:1016B0001F6D5B6D1F4002D40125002402E0FEE790
:1016C00001346D00072C24D83D42F9D0124B1D6522
:1016D0002301124AD358002BF2D002EB0416B16852
:1016E0000131B16072682046984780F00100C0B2B5
:1016F000737B012BE4D10028E2D0094B03EB4413A8
:101700001A7B6FF341021A731A7F6FF341021A7743
:10171000D6E7F8BD0000045000200450E01400207B
:10172000E013002010B5044602E0202007E09047B7
:10173000DCB194FAA4F00028F7D0B0FA80F00123CD
:10174000834024EA0304094B03EB00135A68002A80
:10175000EED0064B03EB00131B7B002BE7D0034BB3
:1017600003EB001399689047E2E710BD6015002075
:1017700038B505460C461BF0C3FE044B03EB0513BE
:101780005C6000221A731BF0C1FE38BD601500209A
:1017900008B5084BD3F82404D3F82024104000F0F7
:1017A000553020F0502003F50053C3F82004FFF714
:1017B000B9FF08BD00C0035008B5084BD3F8240496
:1017C000D3F82024104000F0AA3020F0A02003F528
:1017D0000053C3F82004FFF7A5FF08BD00C0035065
:1017E000024B4FF480321A67704700BF00900050E0
:1017F00038B505460C460F4BD3F8803003F0030391
:10180000022B0ED0032B10D0012B06D0002318463C
:1018100005B1286004B1236038BDFFF78BFB0E23B0
:10182000F6E7FFF7D3FB0723F2E7FFF77DFB06237D
:10183000EEE700BF0080005038B505460C46174B58
:10184000D3F8200100F00700062823D8DFE800F0D5
:10185000040A0E16121A1E00012305B1286004B1F5
:10186000236038BDFFF760FB0523F6E7FFF792FB27
:101870000323F2E7FFF7AAFB0723EEE7FFF7A2FB3C
:101880000223EAE7FFF750FB0623E6E7FFF782FBB8
:101890000423E2E700231846DFE700BF0080005082
:1018A00038B505460C46164BD3F8283103F007032C
:1018B000013B052B20D8DFE803F003131B0F0B17A8
:1018C000FFF732FB052305B1286004B1236038BD62
:1018D000FFF72AFB0623F6E7FFF778FB0723F2E77B
:1018E000FFF758FB0323EEE7FFF754FB0423EAE777
:1018F000FFF768FB0223E6E700231846E3E700BF93
:101900000080005070B582B006460D46002301935A
:10191000104BD3F8804104F00304022C16D0032CA2
:101920000FD0012C07D000240EB1019B336005B10C
:101930002C6002B070BD002101A8FFF77DFF1024CC
:10194000F2E7FFF743FB01900724EDE7FFF73AFBCF
:101950000190E9E70080005030B583B005460C46A1
:1019600000230193154BD3F8203203F00703042B17
:1019700021D8DFE803F0030B11161B0001230DB182
:10198000019A2A6004B1236003B030BD002101A890
:10199000FFF786FF1223F2E7FFF718FB01900723FA
:1019A000EDE71BF0A0FD01900A23E8E7FFF752FBEB
:1019B00001900923E3E70023E1E700BF0080005026
:1019C00038B505460C46104BD3F8400100F0030033
:1019D000032815D8DFE800F002080C10012305B138
:1019E000286004B1236038BD1BF07DFD0A23F6E7B3
:1019F000FFF730FB0923F2E71BF078FD0C23EEE73D
:101A000000231846EBE700BF0080005030B583B0DC
:101A100005460C4600230193144BD3F8603203F0C3
:101A20000703013B032B1FD8DFE803F0020E191454
:101A3000002101A8FFF700FF10230DB1019A2A60D1
:101A400004B1236003B030BD002101A8FFF7B8FF47
:101A50001123F2E7FFF7BAFA01900723EDE7FFF74A
:101A6000B1FA01900223E8E70023E6E70080005086
:101A700030B583B005460C4600230193144BD3F8D0
:101A8000943203F00703013B032B1FD8DFE803F078
:101A9000020E1914002101A8FFF7CEFE10230DB18C
:101AA000019A2A6004B1236003B030BD002101A86F
:101AB000FFF786FF1123F2E7FFF788FA019007236B
:101AC000EDE7FFF77FFA01900223E8E70023E6E75E
:101AD0000080005030B583B005460C4600230193CA
:101AE0000C4BD3F8703203F00303012B09D0022B07
:101AF0000DD115230DB1019A2A6004B1236003B002
:101B000030BD002101A8FFF75BFF1123F2E700239E
:101B1000F0E700BF0080005038B505460C46134B77
:101B2000D3F8000200F0070004281BD8DFE800F01B
:101B300003090D111500012305B1286004B12360CC
:101B400038BD1BF0D0FC0A23F6E7FFF783FA092320
:101B5000F2E71BF0CBFC0C23EEE7FFF705FA800A57
:101B60000F23E9E700231846E6E700BF0080005096
:101B700038B505460C46134BD3F8080200F00700B1
:101B800004281BD8DFE800F003090D11150001231C
:101B900005B1286004B1236038BD1BF0A4FC0A2302
:101BA000F6E7FFF757FA0923F2E71BF09FFC0C2337
:101BB000EEE7FFF7D9F9800A0F23E9E7002318467B
:101BC000E6E700BF0080005038B505460C46104BD4
:101BD000D3F8400200F00300032815D8DFE800F036
:101BE00002080C10012305B1286004B1236038BD40
:101BF0001BF079FC0A23F6E7FFF72CFA0923F2E73A
:101C00001BF074FC0C23EEE700231846EBE700BF43
:101C10000080005038B505460C46104BD3F86001E3
:101C200000F00300032815D8DFE800F002080C10CC
:101C3000012305B1286004B1236038BD1BF053FCBB
:101C40000A23F6E7FFF706FA0923F2E71BF04EFC3A
:101C50000C23EEE700231846EBE700BF008000509E
:101C600038B505460C46104BD3F8000100F00300D0
:101C7000032815D8DFE800F002080C10012305B195
:101C8000286004B1236038BDFFF784F90323F6E729
:101C9000FFF7E0F90923F2E71BF023FC0823EEE746
:101CA00000231846EBE700BF00800050B0F5207F0E
:101CB00020D00ED8B0F5007F16D020D810B1B0F5E6
:101CC000C07F04D10F4B186FC0F3033018E0002021
:101CD00016E0B0F5607F05D10A4BD3F88000C0F361
:101CE00001100DE000200BE0064BD3F89000C0F38C
:101CF000046005E0034B186FC0F3802000E0002073
:101D0000013070470080005038B505460C46174B2F
:101D10004FF480329A660020FFF7C8FF05FB00F001
:101D2000134BDA6902F4803241F67131D9635B6892
:101D300023F440136CB90F49884207D800210B43A4
:101D40000B494B600AB10022CA6338BD4FF48011C1
:101D5000F5E7002C07DD0849884201D80021EEE7AD
:101D60004FF48011EBE74FF44011E8E7009000508A
:101D700000000350005A6202002D3101430905D0D2
:101D8000012B0DD0022B0DD0002200E0002200F02C
:101D90001F0049B102F58052012383401360704750
:101DA000034AF4E7034AF2E702F50052F4E700BF02
:101DB000648000506880005008B580201BF07DFCD6
:101DC000034B984203D8034B4FF480321A6708BD87
:101DD000005A620200A0005000B583B000230193B6
:101DE000B0F5807F00F04A8118D9B0F5F06F00F0AF
:101DF0004A8140F2DB80B0F5206F00F0538140F261
:101E00000481B0F5406F00F04881B0F5486F40F0B4
:101E10000C8101A90020FFF72BFEDFE0802800F2F3
:101E2000DD802428C0F0DA8024385C2800F2D680D7
:101E300001A353F820F000BF7320000873200008AE
:101E4000732000087320000873200008DD1F0008BD
:101E500069200008DD1F000801200008912000080B
:101E6000DD1F0008DD1F0008DD1F0008DD1F000862
:101E7000DD1F0008DD1F0008DD1F0008DD1F000852
:101E8000DD1F0008DD1F0008DD1F0008DD1F000842
:101E9000DD1F0008DD1F0008DD1F00088720000887
:101EA000C11F0008DD1F0008DD1F0008DD1F00083E
:101EB000DD1F0008DD1F0008DD1F0008DD1F000812
:101EC000DD1F0008DD1F0008DD1F0008DD1F000802
:101ED000DD1F0008DD1F0008DD1F0008732000085B
:101EE000DD1F0008DD1F0008DD1F0008212000089D
:101EF000DD1F0008DD1F0008A520000831200008B4
:101F0000F11F00089B200008DD1F0008DD1F0008EE
:101F1000DD1F0008DD1F0008DD1F0008131E00087C
:101F2000DD1F0008DD1F0008DD1F0008DD1F0008A1
:101F3000DD1F0008DD1F0008DD1F0008DD1F000891
:101F4000DD1F0008DD1F0008DD1F0008DD1F000881
:101F5000DD1F0008DD1F0008DD1F0008DD1F000871
:101F6000DD1F0008DD1F0008DD1F0008DD1F000861
:101F7000DD1F0008DD1F0008DD1F0008DD1F000851
:101F8000DD1F0008DD1F0008DD1F0008DD1F000841
:101F9000DD1F0008DD1F0008DD1F0008DD1F000831
:101FA000DD1F0008DD1F00083B200008B0F5B06F02
:101FB0005AD00AD9B0F5D06F6AD0B0F5E06F1CD115
:101FC00001A90020FFF700FE08E0B0F5607F04D112
:101FD00001A90020FFF70CFC00E003D2019803B038
:101FE0005DF804FBB0F5806F43D0B0F5A06FF5D17C
:101FF00001A90020FFF7B0FCF0E7B0F5C06FEDD10C
:1020000001A90020FFF7DCFCE8E7B0F5086F04D178
:1020100001A90020FFF724FEE0E7B0F5106FDDD145
:1020200001A90020FFF7A4FDD8E7B0F5286FD5D1AE
:1020300001A90020FFF74EFDD0E71D4B1B6F03F0F9
:102040000703013B032BC9D8DFE803F00B020508A7
:1020500005230193C2E703230193BFE708230193FC
:10206000BCE702230193B9E701A90020FFF74AFC6E
:10207000B4E701A90020FFF7DFFBAFE701A90020CB
:102080001BF0E8FAAAE701A90020FFF7C3FDA5E7C6
:1020900001A90020FFF740FDA0E701A90020FFF7FC
:1020A000FFFB9BE701A90020FFF7B0FC96E700BF0C
:1020B00000800050044B4FF480125A66034B4FF4DB
:1020C00080329A62704700BF009000500050005A62
:1020D00010B504468020FFF77FFE032800F0AE8095
:1020E0005D4B4FF480125A665C4B45F60E02C3F806
:1020F000802003F580524FF0A061916203F50053F8
:102100004FF480329A62554B9B6D13F4803FFAD1A5
:10211000524B9B6D13F0804FFAD1226863681B0508
:1021200043EA0263227B43EA0243627B43EA0233CF
:10213000A27B43EA8213E27B1343484A136193690B
:1021400003F00043216943EA8163616943EA016363
:10215000217E43EA0143617E43EA0123A17E0B43D2
:102160009361136A23F00F03E269002A46D11146F6
:102170000B43E17E43EA81031A43384B1A62E36959
:10218000002B3DD1354A916A354B0B4094F8201015
:1021900043EA411394F8211043EA011394F8241000
:1021A00043EAC10343F4803393622C4B9A6D2D4B69
:1021B0009343FAD1294A02F580514FF080738B6224
:1021C000136923F47003A06843EA005313614FF0CE
:1021D00000438B6194F822301BB9234B4FF080727F
:1021E0009A6294F8233013BB1F4B4FF480329A62EB
:1021F0001A4B9B6D13F0804FFAD118E00821B7E716
:10220000022B1CD0154A916A154B0B4094F82010F4
:1022100043EA411394F8221043EA016394F824102E
:1022200043EAC10394F8231043EA0143936294F80C
:1022300025301BB1094B0D4AC3F8802010BD074B58
:1022400000221A619A614FF408524FF47F41084806
:102250001BF01EFAD6E700BF009000500040005A65
:10226000C7FFFEFE030001000060005AF1A7FFFF58
:102270003440005A70B5124B9E6A9B6D13F4803F38
:1022800003D0104B4FF480329A620D4D05F5805308
:102290004FF080719962AC69C4F3072432460A4852
:1022A0001BF0F6F9AB6D13F4803F01D1204670BDF1
:1022B00032464FF4803104481BF0EAF9F6E700BFDC
:1022C0000040005A0050005A2840005A014B187034
:1022D000704700BF64670020014B93F9000070470E
:1022E0006467002070B51D4B9E6AFF2834D80446F1
:1022F0009B6D13F4803F03D0194B4FF480329A62E8
:10230000174B4FF080729A62FFF7E6FF001903D473
:10231000FF2802DDFF2000E00020104DAB6923F410
:102320007F0323F47F4343EA00432402A4B2234300
:10233000AB6132464FF080710A481BF0A9F9A86DD5
:1023400010F4803000D170BD32464FF48031054822
:102350001BF09EF90020F6E72120F4E70040005A28
:102360000050005A2840005A08B5164B9A6A03F5E7
:1023700080534FF480319962124B9B6D03F003033D
:10238000032BF9D1104B4FF0807199620D4B996D71
:102390000E4B8B43FAD10C4B01211965094B9B6DF8
:1023A00013F0020FFAD1074B9B6D13F0020FFAD016
:1023B000044B9B6D13F0020FFAD0054905481BF042
:1023C00067F908BD0040005A0050005A03000100A0
:1023D000000001012840005A10B443784F2B28BF59
:1023E0004F231A461C4B4FF40001596603F5B833CE
:1023F0004FF4D151596203F5805102244C6003F52A
:10240000005301215960154B1B6913F4803FFAD129
:10241000037842EA0323114A5361416883681B0130
:1024200043EA0123017B43EA4103417B0B43936071
:10243000817BC37B1B0143EA4113017C43EA4103D7
:10244000417C0B435360837C1BB113466FF4D15224
:102450005A625DF8044B7047009000500000025033
:10246000014B1880704700BF52670020014B188055
:10247000704700BF50670020B0F5207F5DD02DD899
:10248000B0F5007F4ED061D810B1B0F5C07F24D137
:1024900010B54C1E1BF00AF91BF0DFFAFFF7A0F98C
:1024A0002B4A136F23F4704343EA04331367FEF798
:1024B0005BFD284BD3F8843013F0100FF9D1254B76
:1024C000D3F88410C1F38111C1F102011BF0BAFAF3
:1024D00000F044F8FFF770FC10BD7047B0F5607F66
:1024E0001FD11D4BD3F8FC2012F0807206D0184685
:1024F000D3F8FC3023F08073C0F8FC300139144865
:10250000D0F8803023F0300343EA0113C0F8803064
:10251000E2B1114AD2F8FC3043F08073C2F8FC30CB
:102520007047704701390A4AD2F8903023F0F853C7
:1025300043EA0163C2F8903070470139044A136FCF
:1025400023F4806343EA812313677047704700BF19
:10255000008000500040005000ED00E008B54FF44E
:10256000C0701BF0AAF8054B984205D902214FF420
:102570002070FFF781FF08BD0121F8E780F0FA0223
:1025800010B50446FEF7F0FC0C4BD3F8843013F082
:10259000100FF9D1094BD3F88410C1F38111C1F1A7
:1025A00002011BF04FFA0121002000F0ADF814B930
:1025B000FFF702FC10BDFFF7D1FFF9E70040005024
:1025C000044A536F23F44073417843EA012353676D
:1025D000704700BF0040005010B504460D4A136913
:1025E00043F0040313610DF09BFD1BF049FA0A4B05
:1025F0005B6E13F0806F03D0084B094AC3F82024A8
:1026000030BF1BF03EFA0DF0C7FD04B110BDFEF760
:10261000ABFCFBE700ED00E00080005000E0035061
:102620000000FF0F10B504460B4A136943F0040382
:1026300013610A4B5B6E13F0806F03D0084B094A9D
:10264000C3F820240DF06CFD30BF0DF0A5FD04B1E2
:1026500010BDFEF789FCFBE700ED00E000800050B4
:1026600000E003500000FF0F034AD36E23F0300355
:1026700001790B43D366704700400050F8B504461B
:10268000204BD3F8843013F0100FF9D11D4BD3F841
:102690008430C3F381139C422DD0FEF74BFC0646D9
:1026A000012C11D01AF025FF0546164F07F50053EF
:1026B0004FF000725A6620461BF0E8F9621E4FF494
:1026C000806393403B6706E001211BF0BBF9E9E71B
:1026D0000C4BD3F884300B4B5B6E13F0007F05D1AD
:1026E000084BD3F8843013F0200FF1D028461AF0AD
:1026F00004FF022C00D0F8BD002130461BF0A2F9E7
:10270000F9E700BF0040005010B50C46034650B139
:10271000094A127812B1094A934208D92146022087
:10272000FFF7ACFF10BDFEF705FC0346F0E72146BE
:102730000120FFF7A3FFF5E760170020005A6202AF
:1027400008B50278034B1A7001210020FFF7DCFF67
:1027500008BD00BF6017002038B52F4B4FF0004276
:102760005A6603F50B235C6C04F001044AF6CD3283
:102770001A64E8B9294B5B6B13F00103FAD1274ABD
:10278000556815F0010539D002F50052012151605C
:102790001A462249096B11F0010F04D120498A42DF
:1027A00001D80132F5E71E498A422FD81D4625E09F
:1027B00000231A4A126B12F0080F04D0184A9342F1
:1027C00001D80133F5E7164A934221D8134B03F59C
:1027D00000522021916203F5805301225A600023A8
:1027E00000E001330D4A926A12F0200F02D10C4A28
:1027F0009342F6D90A4A93420CD8002514B1074BEC
:10280000084A1A641DF0F9FA284638BD0725F5E78D
:102810000725F3E70725F1E7009000500040095035
:102820003F420F003254FFFFF8B51D4BDC6E24F021
:10283000030444F00204DD6E45F003054AF6E85255
:102840001A661AF056FE06461BF00EF9154F3B6F3E
:1028500023F0070343F001033B670120FFF790FEDD
:102860000020FFF779FF1BF00FF91BF00EF97B6ECC
:1028700013F0806F03D00C4B0C4AC3F820240023C4
:1028800003E0074AD466D5660133032BF9DD044B18
:10289000DC6603F510239B6A30461AF02EFEF8BD65
:1028A000004000500080005000E003500000FF0F87
:1028B00010B51A4B4FF000425A6603F50B235C6CBF
:1028C00004F001044AF6CD321A6443785B0043F009
:1028D0000103134AD363134B5B6B13F00B0FFAD155
:1028E000104A536823F4F873817843EA0113536064
:1028F000C178437943EA012393600179837943EAFC
:10290000012313610078FFF727FF14B1054B064A36
:102910001A641DF072FA012010BD00BF0090005033
:1029200000400050004009503254FFFF10B50F28FE
:1029300000D90F20124B5C6E03F580534FF000421C
:102940005A6603F50B235A6C02F001024AF6CD31A8
:1029500019640C4B5B6B13F0800FFAD109490B6AB9
:1029600023F00F0303430B620AB1074A0A64002CE9
:1029700003DB064B4FF000425A661DF03EFA10BDD5
:1029800000800050004009503254FFFF00A000506A
:1029900010B5134B5C6E03F580534FF000425A663E
:1029A00003F50B235A6C02F001024AF6CD3119648B
:1029B0000C4B5B6B13F0800FFAD10A490B6A23F4BE
:1029C000F85343EA00230B620AB1074A0A64002C59
:1029D00003DB064B4FF000425A661DF00EFA10BDA5
:1029E00000800050004009503254FFFF00A000500A
:1029F000054B984206D0054B984201D00020704705
:102A000057207047562070470000015B00000A50B5
:102A100010B504461BF03BF8042307E004F580538F
:102A200004221A6104F500531A610B46591E002B4B
:102A3000F4D1202323610023E360A36041F202026A
:102A40006261A361A3654FF4A0226262E361236225
:102A5000A362E3626363236504F500520149D16414
:102A6000236310BDFF3F0D03F8B504461546084625
:102A7000E1B1A36813F0010F34D06668B0FBF5F044
:102A8000451E16F001062BD0636D13F0280FFBD105
:102A9000A36C13F0030F0FD1A36C13F0010F1BD124
:102AA000A36C13F0020F19D1002706E02046FFF7B0
:102AB0009FFF1AF002FEDCE7052720461AF0E7FF29
:102AC000236923F07F4343EA056323616EB33946EC
:102AD00020461AF0FBFF28E00927EEE70627ECE77F
:102AE0000027EDE76368A36D13F0010F00D06D00C0
:102AF000A36803F0E003402B1DD017D9602B1ED034
:102B0000802B12D10123400105FB03F3B0FBF3F04E
:102B100020380C4A02EAC002636D13F0010FFBD1AA
:102B20002263636D13F0010FFBD1F8BD2BB1202B95
:102B3000FBD10823E7E70623E5E71023E3E70423B7
:102B4000E1E700BFF8FF7F00F8B504460D461746E1
:102B50001E46436823B1616DC1F30B010029FAD110
:102B60002046FFF755FF636923F44C5323F00F030E
:102B70006A7B1343EA8913432A8A13436361A36878
:102B800023F0804323F0E2032A7B13432A7E13437E
:102B90006A691343A360AB681BB9A36843F00043A1
:102BA000A360EB69002B69D0A2687B4911401A7AB7
:102BB00041EA82519A7A41EA42419A8802F4C0423B
:102BC00011435A7841EA82015A7B41EAC2019A7B59
:102BD00041EA02119B7841EA8321A160E2686F4BD0
:102BE0001340EA6911690B4351690B43917943EA38
:102BF0008123D27943EA4223E360EB691B78012BFE
:102C000001D0032B03D1E36843F00403E360EB69D5
:102C10001B78023BDBB2012B67D9614B9C427CD015
:102C2000604B9C4277D04FF0FF335B0103F1A04330
:102C300003F5703342F2944202219950EB695A7ABB
:102C400004F580539A62EB695B7A1BB1E36843F445
:102C50000063E360EB69DB7A4BB1E36843F4004364
:102C6000E3604F4B9C425AD04E4B9C425ED0636A0D
:102C700023F00303EA69D27B134363623FB197F801
:102C80002030002B5AD004F5805301221A62DEB1A5
:102C90002B7E23B104F580534FF400429A65404BDC
:102CA0009C425CD03F4B9C4257D0A36D23F4F95318
:102CB00023F01E0396F821201343728C1343A3655F
:102CC00004F5805301229A65052120461AF0FEFE84
:102CD000AA68002A5BD1297820461AF0F7FEA36C77
:102CE000DB4313F4405FFAD1F8BD2D4B9C4210D06A
:102CF0002C4B9C420BD04FF0FF335B0103F1A04300
:102D000003F5703341F294420221995096E7012372
:102D1000F3E70023F1E7012387E7002385E7EB6969
:102D20001B7B03F00F03204A53679DE7EB691B7B76
:102D300003F00F031C4AC2F8803098E7E36923F0E0
:102D4000090397F82220134397F82120134343F0F7
:102D5000010304F58052D36199E7012300E00023C9
:102D600096F82120102A0AD8104A0121D154728CD9
:102D7000B2F5006F07D80E4A0121D15495E70B4AEE
:102D80000221D154F3E70A4A0221D1548DE7696840
:102D90002046FFF769FE9EE7E39BBDFFFFF9F08742
:102DA0000000015B00000A500090035068170020EB
:102DB000641700202DE9F8430D4614461E469DF881
:102DC00020809DF82470072A29D8930000FA03F286
:102DD0000321994021481AF0B0FE4FF00009072C5A
:102DE00029D8A10005F003028A40032303FA01F168
:102DF0001B481AF0A2FE5EB31A4A0123A3401360D7
:102E0000B8F1000F26D0184A13600122A2401749DA
:102E1000C1F8202407B3164A1360BDE8F883A2F175
:102E200008094FEA890300FA03F203219940114887
:102E30001AF083FED3E74FEA890905F0030202FA8C
:102E400009F2032101FA09F10B481AF076FED2E7E4
:102E50000A4AD2E70A4AD7E70A4ADDE700C4035024
:102E600008C4035010D4035014D4035000E003509E
:102E700024D4035004C403500CC4035010E4035082
:102E800014E4035024E40350F8B504460D461E46EE
:102E900017463AB1FBB101228A4000EB400109011B
:102EA0001D4B5A50072D1ED8A90004EB44031B01EB
:102EB00007FA01F20F2000FA01F1184818441AF03D
:102EC0003CFE3FB9FEB10122AA4004EB44042401B8
:102ED000114B1A51F8BD01228A4000EB4001090153
:102EE0000F4B5A50DEE7A5F108039B0004EB440C9E
:102EF0004FEA0C1C07FA03F20F219940094860447D
:102F00001AF01BFEDDE70122AA4004EB4404240171
:102F1000034B1A51DEE700BF40D0035034C00350CA
:102F200040E003503CC0035010B515201BF058FF83
:102F3000074B00245C65FF229A625C6021462020DA
:102F4000FEF71CFF21462120FEF718FF10BD00BF31
:102F50000000045029B9044A012303FA00F010606C
:102F60007047024AF8E700BF401004504020045068
:102F700010B5044601212020FEF700FF0121212089
:102F8000FEF7FCFE114B01225A60227812069A606D
:102F90006178A27842EA01429A61FF229A62002295
:102FA0009A631A644FF000425A6503F500534FF0DC
:102FB000FF321A6515200CF0E5F8E17815201BF0BA
:102FC00017FF15201BF010FF10BD00BF00000450BC
:102FD00070B50C46C3B201259D40234901F500534D
:102FE0001D65830003F1A04303F5882326685E6016
:102FF000637B00EB400C01EB0C1CCCF8603094F8C8
:103000000AE0E37A1B0543EA0E4394F80CE043EA36
:103010004E53CCF85C3022F00302CCF870201AF04A
:103020006FFA124B5D65237A1BB10F4A136C2B4369
:103030001364637A1BB10C4A936B2B43936323791C
:10304000A27942EA0342084B03F500518A6194F8E1
:1030500005C0E27942EA0C4203F58054A2614D6357
:103060009D641AF053FA70BD000004500010045023
:1030700010B5C0B2012484401AF042FA044B5A6DD4
:1030800022EA04025A659C621AF040FA10BD00BFA1
:103090000000045010B5C0B2012484401AF030FA88
:1030A000084BDB6A234205D1064B5B6B9C4306D081
:1030B000002400E000241AF029FA204610BD012463
:1030C000F9E700BF0000045041B90630084B53F83F
:1030D000200020F0F8004004400C70471630044BEC
:1030E00053F8200020F0F8004004400C704700BF67
:1030F0000080035070B50446C2F3062602F00702B2
:1031000041B942EA062242F440220634094B43F810
:10311000242070BD114630461AF04EFD054630465B
:103120001AF01AFD45EA00251634024B43F82450E4
:10313000EFE700BF0080035010B40C4681B90E4980
:1031400042EA034241F8202064B90C49D1F8B03575
:10315000012282401343C1F8B0355DF8044B70473B
:103160000749EDE70549D1F8B0351030012282401A
:103170001343C1F8B035F0E7B4C5035000C00350A5
:10318000F4C50350054B1868B0F1FF3F04D1044B60
:10319000D3F89400014B1860704700BFC461002051
:1031A00000400050074B4FF480325A6603F5E62387
:1031B0009B69C3F38512827003F03F0242701B0BC0
:1031C0000370704700900050074B9B6813F0020F8C
:1031D000FAD1054B5B6813F0020FF5D1024BDB69A6
:1031E000002BF1D1704700BF00800A50064B5B688E
:1031F00013F0010F03D0044BDB69002BF6D1024B17
:1032000002221A61704700BF00800A5008B5FFF71C
:10321000DBFF034B03F5805101224A601A6108BDB0
:1032200000800A5008B5054B5B68012B00D008BD33
:10323000FFF7DCFF024B01225A60F8E700800A50DA
:1032400000A00A5010B50446FFF7BEFF084B5B68AC
:10325000012B05D0237843B10122054BDA6010BD64
:10326000FFF7E0FFFFF7B0FFF4E70022F5E700BF4C
:1032700000800A50D8B90B78D3B101234A6812B143
:10328000127843EAC2034A78A2B1022213438A6841
:1032900012B1127843EA82138A786AB10422134386
:1032A000CA6812B1127843EA4223044A9364704711
:1032B0000023E3E70022E9E70022F0E700800A505C
:1032C00008B9014B5964704700900A5008B9014B86
:1032D0005964704700A00A5008B9014B196470473F
:1032E00000A00A5010B9024B186C704700207047BC
:1032F00000800A5048B911B1012903D07047044B2E
:10330000D86C7047024B186D70470020704700BFA3
:1033100000800A5040B911B1012903D07047034B16
:10332000DA647047014B1A65704700BF00800A508D
:1033300010B9024B586D70470020704700800A504A
:1033400038B50546054C20461AF03CFEA5702146CE
:10335000034B18681CF0FBFC38BD00BF6C17002045
:10336000B835002038B504468368196801200AF092
:103370001FFA00B938BDA368E26853F822301D680F
:10338000E8B2FFF7DDFFA3682A46024918680DF08E
:10339000EDFCEFE7ECA6020810B504461AF0A9F818
:1033A000084B1B7853B9B4F5A05F09D8054B01222F
:1033B0001A70054C1AF0A1F8204610BD0024F9E758
:1033C0000024F7E71261002074170020184B1B68D7
:1033D0000BB10120704710B5044641F27430FFF77D
:1033E000DBFF0346124A1060C8B100F1680100F526
:1033F0008052C2F8EC120021C2F8F01200F594508D
:103400000830C2F8F4020120C2F8F802C2F8FC1237
:10341000C2F8881203F59453C2F89C3210BDA36819
:10342000044A862118680DF0F9FC0020F6E700BF79
:10343000742B0020F8A602080C2A0AD80C2A60D89F
:10344000DFE802F014175F1B20255F5F2A30363C4F
:103450004100FF2A08D1002302283AD0032849D08E
:10346000002840D00120704701207047294B1B687D
:10347000F2E7284B1B684C33EEE7264B1B6803F63C
:103480006803E9E7234B1B6803F50763E4E7214B77
:103490001B6803F50863DFE71E4B1B6803F59553B4
:1034A0000C33D9E71B4B1B6803F598530433D3E760
:1034B000184B1B6803F598530933CDE7154B1B6870
:1034C00003F59B53C8E7134B1B6803F59B530C3361
:1034D000C2E7B1F5007F16D20E4A12681A3142F8DF
:1034E00021300020704712290FD80A4A126842F88A
:1034F0002130704759B9074A1268C2F8683800206D
:10350000704701207047012070470120704701205B
:10351000704700BF742B002038B504461CF0C3FA76
:10352000012802D00225284638BD002006F028FDDB
:1035300005460028F7D120461CF04FFC084B1968BF
:10354000084A01F597510C3120460EF0EFFB00229E
:10355000054B1A60032120461CF0A9FAE3E700BFDF
:10356000742B00203FD401089C46002000B50C2895
:103570006FD8DFE800F00712181E252C333A6E4290
:103580004A525900354800684FF04C0E01EB020CCE
:10359000F44560D80144104653E0304800684C3090
:1035A0004FF01A0EF2E72D48006868304FF4006EB5
:1035B000ECE72A48006800F668004FF0080EE5E7DF
:1035C0002648006800F507604FF0100EDEE723483C
:1035D000006800F508604FF4206ED7E71F480068C8
:1035E00000F594504FF0080ED0E71C48006800F535
:1035F000945008304FF0240EC8E71848006800F5D2
:10360000985004304FF0050EC0E71448006800F5EC
:10361000985009304FF0560EB8E71048006800F592
:103620009B504FF00C0EB1E70C48006800F59B5022
:103630000C304FF0050EA9E713F8012B01F8012B10
:10364000604600F1FF3C5FFA8CFC0028F4D15DF885
:1036500004FB0120FBE70120F9E700BF742B0020E9
:10366000F0B585B004468268C368023352F823304F
:103670001D78FFF7ABFE002839D06368E6689B1B16
:10368000EA1C93420BD10A2D10D8A36853F82620C8
:103690001078721C53F82230198800231BE0A368AD
:1036A000174A802118680DF0B9FB20E0A368154A7D
:1036B000812118680DF0B2FB19E0DA1C3244A768CA
:1036C00057F8222092F800C003F110026A4402F871
:1036D0000CCC0133DBB2AB42EFD301AB2A46FFF790
:1036E00045FF30B9A368084918680DF03FFB05B0E5
:1036F000F0BDA368054A822118680DF08FFBF6E73C
:1037000018A702084CA7020898A702087CA702087D
:1037100010B50446FFF75AFE50B16268E368D21A4A
:10372000032A06D0A368114A832118680DF076FB9E
:1037300010BDA26852F82300591C52F82110023320
:1037400052F823301A7809880078FFF775FE28B9F7
:10375000A368074918680DF009FBE9E7A368054A63
:10376000842118680DF05AFBE2E700BFB0A70208F9
:1037700098A70208D0A7020810B50446FFF726FE56
:1037800000B910BD084B1868FFF7C6FE28B9A3683A
:10379000064918680DF0EAFAF3E7A368044A8521A0
:1037A00018680DF03BFBECE7B835002098A702083D
:1037B000ECA70208F0B599B00446836819680120A7
:1037C00009F0F6FF002800F089800DF1440C574DF8
:1037D0000FCDACE80F0095E807008CE80700002546
:1037E000069501238DF81C304FF42873ADF81E3078
:1037F00002238DF820308DF821308DF822308DF89D
:1038000023300DF1240C0DF1440EBEE80F00ACE89E
:103810000F009EE807008CE807000B238DF840306E
:103820008DF841508DF842508DF84350A768E568F7
:1038300057F8256004223E4930461DF004FF002859
:1038400039D101238DF820308DF82230A16801355F
:1038500051F825301B880B930993E3689A1C51F8A3
:10386000222012880C920A3A0A92DA1C51F822207D
:103870001288ADF81E206268D21A042A0ADD0433C9
:1038800051F823301B78003B18BF0123294A1370DD
:103890008DF84330082006F073FBC8B906A9264B03
:1038A00018680EF0DDFC0146D0B1A368234A186801
:1038B0000DF0B4FA12E00222214930461DF0C3FE99
:1038C0000028C3D01F4A202138680DF0A7FA05E070
:1038D000A3681D4A222118680DF0A0FA19B0F0BDA6
:1038E000154B1A68194B1A60A3681D689DF82200D1
:1038F00009F0BAFE04469DF8200009F0B5FE0B9BC6
:103900000C9ABDF81E109DF8436066B1104E0496E7
:10391000039102920193009023460E4A0E492846D5
:103920000DF024FADAE70D4EF1E700BFD4AE02083D
:103930002CA8020813610020B835002074A80208E2
:10394000D422020834A8020854A80208F82D002046
:103950001CA80208A4A80208ACA8020824A802080F
:1039600010B5836818680DF09FF9002408E0094B32
:1039700053F83420214608480DF018FA0134E4B217
:10398000072CF4D9034B53F83420214602480DF09C
:1039900029FA10BD8CAE020824A9020838B50446E5
:1039A00083681968012009F003FF00B938BD0820B9
:1039B00006F0E6FA0246002836D16368E1685B1A31
:1039C000002B07DDA06850F821201278012B01DDC3
:1039D000012A30D8012B08DDA0684D1C50F82500C5
:1039E000007810B142F00202D2B2022B08DDA368C7
:1039F000023153F821301B7813B142F00402D2B2E5
:103A0000082A1ED8174B03EBC2035B68CBB1164ADA
:103A1000106898470546D8B1A3681868FDB1134AE5
:103A200013490DF0A3F9C1E7A368124A22211868CF
:103A30000DF0F4F9BAE7104A222100680DF0EEF912
:103A4000B4E7A3680D4A012118680DF0E7F9ADE766
:103A50000B4B01221A700B2008F006F8DCE7094A2C
:103A6000DEE700BF8CAE0208B83500202CA90208A2
:103A70009CA9020854A8020838A902087CA90208D7
:103A800065670020A4A8020838B504468368196851
:103A9000012009F08DFE00B938BD082006F070FA4B
:103AA00068B9154B18681CF0C1FD054670B1A368D4
:103AB0001868FDB1114A12490DF058F9ECE7A368F6
:103AC000104A222118680DF0A9F9E5E70E4B0222F1
:103AD0001A70802007F0C8FF0C4B1B88102BE6D112
:103AE0000B4B1B780F2BE2D1094B18221A70702256
:103AF0005A70DCE7074ADEE7B83500202CA9020837
:103B00009CA9020854A80208656700205467002099
:103B100048620020A4A8020838B5044683681968E2
:103B2000012009F045FE00B938BD082006F028FA4A
:103B300068B9154B18681CF07BFD054670B1A36889
:103B40001868FDB1114A12490DF010F9ECE7A368AD
:103B5000104A222118680DF061F9E5E70E4B0222A8
:103B60001A70E02007F080FF0C4B1B88102BE6D169
:103B70000B4B1B780F2BE2D1094B18221A707022C5
:103B80005A70DCE7074ADEE7B83500202CA90208A6
:103B90009CA9020854A80208656700205467002009
:103BA00048620020A4A802082DE9F04385B004462D
:103BB0008268C36852F823100D78591C52F82110FE
:103BC00091F80080991C52F821100F78D91C52F8F6
:103BD00021100E784168C91A04293ADD043352F8DD
:103BE000233093F80090B9F1000918BF4FF0010994
:103BF000002D31D12946B8F1000F01D041F0040168
:103C00000FB141F002010EB141F00101B9F1000F15
:103C100001D041F020011A4B18681CF063FDE8B98F
:103C2000A36818680DB3174AB8F1000F1FD0154BE1
:103C3000FFB11449FEB1134CB9F1000F1DD0114D65
:103C400002950194009110490DF090F805B0BDE87F
:103C5000F0834FF00009CBE70821CCE7A3680B4ABB
:103C6000232118680DF0DAF8F0E7094ADCE7084B81
:103C7000DEE70749DEE7064CDEE7054DE0E700BF7B
:103C8000B8350020A4A80208D0A90208A8A90208F3
:103C90002CA9020838B504468368C26853F822305C
:103CA0001D682946094B18681CF0D1FC30B1A36887
:103CB000074A242118680DF0B1F838BDA3682A46D8
:103CC000044918680DF052F8F7E700BFB835002036
:103CD00020AA020848AA020838B504468368C268C8
:103CE00053F822301D78291E18BF01210A4B18688D
:103CF0001CF0D8FC38B9A36818685DB1074A0849B8
:103D00000DF034F838BDA368064A242118680DF078
:103D100085F8F7E7044AF2E7B8350020A4A80208BE
:103D200080AA02085CAA02082CA9020838B5044639
:103D30008368C26853F822301D78291E18BF0121FC
:103D40000A4B18681CF0A0FC38B9A36818685DB16C
:103D5000074A08490DF00AF838BDA368064A24212D
:103D600018680DF05BF8F7E7044AF2E7B835002071
:103D7000A4A80208B8AA020894AA02082CA902085A
:103D800010B504468068E36850F823201188626803
:103D9000D21A012A11DD013350F823301A78084B6A
:103DA00018681CF05FFCA3681C6803F099FB0246CE
:103DB000044920460CF0DAFF10BD0022EFE700BFF7
:103DC000B8350020CCAA020810B504468068E36824
:103DD00050F8232011886268D21A012A11DD0133BC
:103DE00050F823301A78084B18681CF041FCA3687F
:103DF0001C6803F075FB0246044920460CF0B6FF30
:103E000010BD0022EFE700BFB8350020E0AA02088D
:103E100010B582B0044600230BE0A168E2681A44A2
:103E200051F82220117803F108026A4402F8081CB4
:103E30000133072BF1DD6368E2689B1A082B14DD60
:103E4000A368083253F822301A786946084B18687C
:103E50001CF014FCA3681C6803F042FB02460549F1
:103E600020460CF083FF02B010BD0022EDE700BF3A
:103E7000B8350020F8AA02082DE9F0418AB00446BE
:103E800001AD474E0FCE0FC50FCE0FC533682B6067
:103E900000273E4638E0A06873180022114650F80B
:103EA000230018F0EDFC83B23DE0A0680B44002233
:103EB000114650F8230018F0E3FC83B247E0A068F5
:103EC0000B440022114650F8230018F0D9FC80461C
:103ED0008E4652E0EB00C3F1200CA3F1200028FA3B
:103EE00003F20EFA0CFC42EA0C022EFA00F0024336
:103EF00028336B440B4403F8182C01310729E9DD02
:103F00000336F6B20137FFB2022F38D83246636863
:103F1000E1685B1A9E4232DA012EBCD8A3680A44DB
:103F200053F822301B883D460AAA02EB470222F8CA
:103F3000243C731CDBB26268E168521A93421EDAB9
:103F4000012BB2D8A2680B4452F823301B880AAA6E
:103F500002EB450222F81E3CB31CDBB26268E1684A
:103F6000521A93420BDA012BA9D8A2680B4452F8DB
:103F70002330B3F800804FF0000E0021BEE701A906
:103F8000084B18681CF06CFBA3681C6803F0A8FAC7
:103F90000246054920460CF0E9FE0AB0BDE8F08172
:103FA000F0AE0208B835002010AB020808B58368EF
:103FB000C26853F82220126803490A60034918684E
:103FC0000CF0D4FE08BD00BFFC2D002028AB020879
:103FD00030B583B004468368C26853F822301D6848
:103FE0002A464FF0FF31154B18681CF069FBB8B931
:103FF00005F00201C5F34003114A1370A368186865
:1040000015F0010F13D00F4A99B10E4B15F0040FA4
:1040100011D00C4900910C490CF0A8FE03B030BD42
:10402000A3680A4A1F2118680CF0F8FEF6E7084A50
:10403000EAE7074BEAE70649ECE700BFB83500209E
:10404000146100201CA8020850AB02083CAB020817
:1040500024A8020830B583B004468368C26853F8C8
:1040600022301D682A464FF0FF31164B18681CF0AD
:1040700037FBB8B915F001031BD00221124A1170A9
:10408000A2681068BBB1114A15F0020F15D00F4B92
:1040900015F0040F13D00D4900910D490CF066FE88
:1040A00003B030BDA3680B4A1F2118680CF0B6FEA0
:1040B000F6E70121E2E7084AE6E7074BE8E70649A9
:1040C000EAE700BFB8350020656700201CA8020899
:1040D000A0AB02088CAB020824A80208F8B504467D
:1040E0008268C36852F823100E78013352F82330E7
:1040F0001D782F1E18BF0127311E18BF01210F4B3D
:1041000018681CF0FDFA10B95EB10D4E00E00D4EBE
:1041100039460A4B18681CF001FB20B95DB1084B09
:1041200002E0094EF4E7074BA068324607490068F1
:104130000CF01CFEF8BD044BF6E700BFB8350020BC
:10414000A4A8020808E502082CA90208D8AB0208B6
:1041500038B504468068E36850F8232011780529B3
:104160001CD80025AC4661B16268D21A022A1CDD57
:104170005A1C50F822201578023350F8233093F857
:1041800000C0C1B94A4B1B88013303F07F030122F1
:10419000002A00F087804FF0000C78E00B46454A7B
:1041A0001F2100680CF03AFE7BE0434A1F210068A3
:1041B0000CF034FE75E001290BD03D4B1A88043A0F
:1041C000C2F30A028B1E032B4ED8DFE803F01F2E2A
:1041D0003849B5F1000E18BF4FF0010EBCF10002D6
:1041E00018BF012285B10221314B1B88023B11FA15
:1041F00083F3C3F30A03D20242EA0E32134393FA63
:10420000A3F31B0C0222C3E70421EDE705F01F0511
:104210000CF0030CD20142EAC54242EACC03052964
:1042200024D093FAA3F30422B2E7003D18BF01257E
:104230000CF003035B0343EAC5331343EFE7B5F127
:10424000000E18BF4FF0010EBCF1000C18BF4FF06C
:10425000010C4FEACC2C4CEA0E3C42EA0C03DEE7A0
:10426000120602F0FE43DAE70023DAE704228FE7C2
:104270004FEACC0EFF2101FA0EF1194021FA0EF19E
:104280000E4800F80C100CF1010C5FFA8CFC624532
:10429000EED8A0680A4900680CF068FD204604F0DA
:1042A000C7F938BD074A1F2100680CF0B7FDF8E7D1
:1042B00054670020F0AB020808AC020848620020F6
:1042C00024AC020838AC020808B5C36843608368B0
:1042D000024A1F2118680CF0A1FD08BD4CAC020871
:1042E00008B5C36843608368024A1F2118680CF050
:1042F00095FD08BD4CAC02082DE9F04F9BB004467B
:10430000BA4B1868002874D1B94B1E78002E00F003
:104310004882B84B1F780BA920461BF0AAFFBDF8B6
:104320002E30BA1C934267D3192B0BD91923ADF841
:104330002E30BDF83030182B04D91923ADF83030A9
:1043400000230E930BA910A819F087FC7B1CDBB28D
:1043500007F168026A4412F8285C2A4605F0070152
:1043600005294ED00237FFB268336B4413F8283C5E
:1043700045EA0325019505F44050AB0A03F03803E4
:104380006A0A02F006021343C5F3801213439A4AE5
:1043900032F813104FF6FF73994269D0B0F5005F01
:1043A0006BD07B1CDBB207F168020DEB020717F83C
:1043B00028ACB0F5005F67D0080B00F0E88101F091
:1043C0000F02C1F303152A44C1F303210A4453FA2F
:1043D00082F3DBB21844BDF82E20904200F3DC815A
:1043E00068336B4413F8283CAA2B14BF0023012325
:1043F000E5E11CF002F887E7804A936A0133936293
:10440000E1E115F0080F31D00237FFB268336B4499
:1044100013F8282C45EA0222930903F40273D10908
:1044200001F010010B43510A01F020010B439108E8
:1044300001F4A0710B43910101F440610B4312029E
:1044400002F44042134343F4005545F0050513F4CC
:104450004C438FD0B3F5084F8CD0B3F50C4F89D0B7
:10446000B3F5484F86D085F0400583E71F46D3E774
:10447000624A936A01339362A5E115F4807F90D07C
:104480003B464FF0000A94E75D4AB2F84020ADF891
:10449000082000228DF80A2001F00F098DF80890FD
:1044A000184609EB0302BDF82EC062451BDCB9F1CA
:1044B000000F0FD05A1C6830684410F8280C8DF893
:1044C00009000233DBB21AA850FA82F212F8282C43
:1044D0008DF80A20C1F303128DF814201A44944574
:1044E00006DB012216E0454A936A013393626AE1D2
:1044F000424A936A0133936265E1581C68336B4406
:1045000013F8287C02F168036B4403F8547C0132F1
:10451000D2B2C3B29DF814709742EED2C1F3032B0E
:104520008DF80CB018460BEB030294451ADBBBF177
:10453000000F0FD05A1C6830684410F8280C8DF812
:104540000D000233DBB21AA850FA82F212F8282CBE
:104550008DF80E20090B8DF8201019448C4506DBD0
:10456000012216E0254A936A013393622BE1234A24
:10457000936A0133936226E1591C68336B4413F844
:10458000280C02F168036B4403F8480C0132D2B2E4
:10459000CBB29DF820809045EED210AB0493194B1E
:1045A0001B78BBB905F4A072019B1B0903F440639F
:1045B0001A432B0103F440431A4342F4005343F0DF
:1045C0000203B8F1000F1FD09DF82110AA2907D0CF
:1045D00000261AE0002204A920461BF006FEE1E7AF
:1045E00042F4005343F012030FE000BFFC2D002003
:1045F000146100206567002008AD0208180800203B
:10460000D4AE02081561002000267E4A117801F11F
:10461000010C5FFA8CFC049A53548A1CD2B24FEA04
:10462000132E049800F80CE015F4807F04D10331B8
:10463000049800F802A0CAB2990A01F03801580A99
:1046400000F006000143C3F380130B436E4931F8B9
:1046500013C04FF6FF739C452AD01CF00F0F0ED0ED
:10466000BBF1000F29D0531CDBB29DF80D0004995B
:1046700088540232D2B29DF80E000499C8541CF03E
:10468000F00F3DD11CF4706F48D0B9F1000F39D153
:10469000BBF1000F58D0531CDBB29DF80D000499FC
:1046A00088540232D2B29DF80E000499C85435E005
:1046B000564A936A0133936285E0B9F1000F0CD03A
:1046C000531CDBB29DF80900049988540232D2B21F
:1046D0009DF80A000499C854D1E74C4A936A013303
:1046E000936270E0511C03F16800684410F8485C64
:1046F000049885540133DBB2CAB29845F2D2C1E7BF
:104700000123FAE7531CDBB29DF809000499885491
:104710000232D2B29DF80A000499C854BCF5805FF9
:1047200017D2384B1B78022B22D0531C04990B70E4
:10473000049920461CF005F818BB002E43D0334ADC
:10474000136A013313623EE0304A936A0133936285
:1047500039E001239F42E4D3511C03F1680068440F
:1047600010F8545C049885540133DBB2CAB2F1E707
:10477000049B1821197092FAA2F3CB4004994B7054
:10478000D6E706B3214A536A013353621BE01F4A3E
:10479000936A0133936216E01C4A936A0133936271
:1047A00011E017A920461BF0C9FF78B99DF86430C5
:1047B000032B10D09DF85C30AA2B12D00023144A92
:1047C00012789A420FD11BB0BDE8F08F0F4A936A5E
:1047D00001339362F7E79DF85C30AA2BEAD10123FD
:1047E000EDE70123EBE720461BF0A6FF20B9074ABF
:1047F000136A01331362E6E7044A536A01335362D2
:10480000E1E700BF6567002008AD02081808002036
:104810001361002038B504468368C26853F822301B
:104820001D782946084B18681BF0B8FF30B9A368FB
:104830002A46064918680CF099FA38BDA36804495D
:1048400018680CF093FAF8E7B83500208CAC020831
:1048500098AC020838B504468368C26853F8223021
:1048600019780D1E18BF0125194B18681BF0F6FEAC
:10487000D0B1174B18681BF0D4FE84280DD82946F8
:10488000134B18681BF086FF034698B92946104B56
:1048900018681BF081FF03460CE000210C4B1868E0
:1048A0001BF078FF032305E00021094B18681BF07B
:1048B00071FF0323A26810682BB1032B01D0054AB6
:1048C00002E0054A00E0054A05490CF04FFA38BD00
:1048D000B8350020B0AC0208C0AC0208B8AC020881
:1048E000D0AC020810B584B00446002301930293B3
:1048F0000393134A01924FF42072ADF808200CE0A4
:10490000A168E2681A4451F82220118804AA02EB37
:10491000430222F8061C0133DBB2012BF0D901A9B6
:10492000084B18681BF03CFFA3681B6830B9064AA7
:10493000064918460CF01AFA04B010BD044AF7E70D
:10494000782B0020B83500201CA8020830B30208DC
:1049500024A8020810B582B004468368C26853F8E0
:1049600022301B68019301A9094B18681BF07AF9E2
:1049700038B9A368019A074918680CF0F7F902B032
:1049800010BD0146A368044A18680CF047FAF6E720
:10499000B8350020DCAC0208ECAC0208F8B50546DE
:1049A0007AB9002303700BE0325D084928460CF009
:1049B0007FFE05440134A742F6DC002305F8013CE4
:1049C000F8BD0E4617460024F5E700BF18AF0208F1
:1049D00010B50446074B18681BF0D5FCA3681B688C
:1049E00028B1054A054918460CF0C0F910BD044A23
:1049F000F8E700BFB8350020A4A8020820AF0208DD
:104A00002CA9020810B504468368C26853F8223006
:104A10001968003918BF0121044B18681BF0AFFC5E
:104A2000E36863602046FFF7D3FF10BDB835002070
:104A30002DE9F04184B083681D4918680CF04CF9E9
:104A4000002425E01B4A03921B4A02921B4A019252
:104A500000912A46214616480CF066F90135032DCF
:104A600015DC4FEA840805EB8401154F3E19B27836
:104A7000144B03EBC1011148FFF790FF3B5DB17888
:104A8000114A4244525D002ADCD0104ADBE701346F
:104A9000012C0ADC0A4B23449A780D4901EBC4012E
:104AA0000548FFF77BFF0025D9E704B0BDE8F0819A
:104AB00034AF02082CA90208002E0020302E00205E
:104AC000602E0020702E0020682E0020A4A802086E
:104AD000C861002070B504464022002128481CF01F
:104AE000DCFD284B00221A605A60274B4FF0FF3242
:104AF0001A605A609A60DA60A668E56856F8253050
:104B00001A68224B5A606068401B042802DC013896
:104B100000230FE00420FBE75A1C2A4456F8222009
:104B200003EBD37192F800C0184A02EB610282F8DD
:104B300002C0013383420FDA13F0010FECD15A1C8B
:104B40002A4456F8221003EBD372521091F800C099
:104B50000E4901F802C0ECE70C490D4B18681BF038
:104B600010FC28B9E36863602046FFF761FF70BD61
:104B7000A368084A302118680CF050F9F7E700BF25
:104B8000702E0020682E0020C8610020602E0020BA
:104B9000B835002078AF020870B582B08668C16869
:104BA00056F821301D78012D0AD8044643685B1A57
:104BB000092B0BDC4FF0FF3300930193002215E02B
:104BC0001B4A312130680CF029F928E0194A3221BA
:104BD00030680CF023F922E0531CC81856F8200066
:104BE000007808326A4402F8080C1A4663685B1AB7
:104BF000013B9342F0DC6A4629460F4B18681BF0D4
:104C0000B2FB70B90D4B03EBC50302AA12E9030016
:104C100083E80300E36863602046FFF709FF02B002
:104C200070BDA368064A332118680CF0F7F8F6E760
:104C3000A4AF0208C0AF0208B8350020C861002048
:104C4000E0AF020870B584B004468668C06856F8C4
:104C500020301978431C56F823301A7802EB81056E
:104C600001290AD8032A08D863681B1A0A2B0BDC0F
:104C70000023029303939C461AE0204A31213068B6
:104C80000CF0CCF804B070BD1D4A322130680CF035
:104C9000C5F8F7E70CF10203034456F8233093F804
:104CA00000E00CF110036B4403F808EC0CF1010C6C
:104CB00063681B1A023B6345ECDC124B03EB810378
:104CC0009B5C009302AB104800681BF04EFB68B978
:104CD0000E4B03EBC50304AA12E9030083E80300AB
:104CE000E36863602046FFF7A3FECBE7A368084AAA
:104CF000332118680CF092F8C4E700BF00B0020836
:104D0000C0AF0208682E0020B8350020702E0020A9
:104D1000E0AF0208F0B585B004468268C36852F877
:104D200023100E78591C52F821100F78023352F8D4
:104D300023301D78003D18BF01253B4632462946E9
:104D4000124800681BF019FBB8B9114B03EB86033E
:104D5000DD55A36818680F4B9A5D33449B789DB16D
:104D60000D4903910D490291019300923B46324651
:104D70000B490BF0FBFF05B0F0BDA368094A3421D5
:104D800018680CF04BF8F6E70749EAE7B835002059
:104D9000682E0020602E0020A4A80208302E0020DB
:104DA0004CB0020828B002082CA9020870B58CB0DB
:104DB00004460120384B1870A368196808F0F8FC05
:104DC00000283FD0A668E36856F8235004223349F0
:104DD00028461CF038FC002836D12F4B01221A71CE
:104DE0009A710023059306930793089309930A93F6
:104DF0000B93A268E368591C52F8211009880791A7
:104E00000591023352F823301B8808930A2B01D9ED
:104E10000A3B0693A268E368033352F823301B88E9
:104E20001D4E73801E4D05A928680CF0B3FD314658
:104E300028681BF0C4F90146B8B1A368194A18687C
:104E40000BF0ECFF0CB070BD0222174928461CF095
:104E5000FAFB20B9104B02221A719A71C1E7134A6A
:104E6000202130680BF0DAFFECE7A3681E680A4DDA
:104E7000287908F0F9FB0446A87908F0F5FB034609
:104E80006A880292089A0192079A0092224608497B
:104E900030460BF06BFFD5E7B02E00202CA802089F
:104EA000B835002088B00208D422020834A80208CD
:104EB000B8B00208F0B583B00646104F38681BF052
:104EC0008CF9054638681BF0A0F9044638681BF0D9
:104ED000A0F90146B368186855B1094A54B1094BA5
:104EE00051B10849009108490BF040FF03B0F0BDF3
:104EF000064AF3E7064BF3E70549F3E7B835002028
:104F0000A4A802080CB1020820B102082CA90208CA
:104F100014B1020810B584B00446104B1B88ADF8DC
:104F20000C3000228DF80420ADF80620ADF80830D2
:104F3000ADF80A3001A90A4B18681BF040F930B9E6
:104F4000E36863602046FFF7B5FF04B010BD01467B
:104F5000A368044A18680BF061FFF1E798B10208F2
:104F6000B835002054B1020870B504468268C368A1
:104F700052F823100978013352F823301E78094D76
:104F8000003918BF012128681BF03DF9311E18BFF8
:104F9000012128681BF03BF9E36863602046FFF7B6
:104FA00089FF70BDB835002008B58168C36851F825
:104FB00023201278013351F823301B78003A18BFB0
:104FC00001220A480270003B18BF01230848037001
:104FD000086832B1074A33B1064B07490BF0C6FEE9
:104FE00008BD064AF7E7054BF7E700BF336100202D
:104FF000326100201CA802086CB1020824A8020833
:1050000008B58268C36852F823301B78003B18BF8C
:10501000012305490B70106823B1044A04490BF0C1
:10502000A5FE08BD034AF9E715610020A4A80208FF
:1050300088B102082CA9020810B50446074B18686D
:105040001BF0D1FBA3681B6828B1054A0549184627
:105050000BF08CFE10BD044AF8E700BFB835002005
:10506000A4A802089CB102082CA9020810B50446A5
:105070008368C26853F822301B787BB1032004F0A8
:105080007FFF20B90A4B18681BF09BFB0AE0A3685E
:10509000084A222118680BF0C1FE08E0044B18688A
:1050A0001BF09FFBE36863602046FFF7C5FF10BD60
:1050B000B835002054A8020810B504464368C268F9
:1050C0009B1A012B04D1836853F822301B786BB9EB
:1050D000094B18680DF034F9A3681C6802F000FA57
:1050E0000246064920460BF041FE10BD024B1868EF
:1050F0000DF020F9F0E700BFB8350020A4B1020898
:1051000010B504464368C2689B1A012B04D183681A
:1051100053F822301B786BB9094B18680DF01CF955
:10512000A3681C6802F0DCF90246064920460BF031
:105130001DFE10BD024B18680DF008F9F0E700BF26
:10514000B8350020A4B1020810B504460F4B18680A
:105150001BF049FB90B1A368E26853F8223019783C
:105160000A4B18681BF044FBA3681C6802F0B8F9EE
:105170000246074920460BF0F9FD10BDA368054A19
:10518000312118680BF04AFEF7E700BFB835002060
:10519000A4B10208B0B1020810B504460C4B18685F
:1051A0001BF021FB68B10A4B18681BF027FBA368B2
:1051B0001C6802F095F90246064920460BF0D6FD20
:1051C00010BDA368044A312118680BF027FEF7E7E9
:1051D000B8350020A4B10208B0B102082DE9F041B1
:1051E00082B004462D4B18681BF0FDFAB8B1616817
:1051F000E068091A002919DDA36853F820301D78EA
:10520000012915DDA368421C53F822301E680229CB
:1052100010DDA368821C53F822301F680BE0A368DE
:105220001F4A312118680BF0F9FD2BE02525E7E72F
:105230001C4EECE71C4F03290BDDA368033053F829
:10524000203093F80080B8F1000818BF4FF0010833
:1052500001E04FF00008CDF800802B463246394679
:105260000E4800681BF0EEFA88B9A36818682A4651
:10527000B8F1000F09D00D4B0193009733460C494C
:105280000BF074FD02B0BDE8F0810A4BF4E7A368AF
:10529000094A322118680BF0C1FDF3E7B835002048
:1052A000B0B10208D6BE898E555555002CA902080A
:1052B000C8B10208A4A8020810B2020870B582B0F2
:1052C00004468368C26853F822301D782B4B186857
:1052D0001BF089FA002830D0A5F12503DBB2022BA0
:1052E00032D8002300932B46254A264923480068DC
:1052F0001BF0A8FA00282ED1252D33D0262D35D02D
:10530000272D37D0A3682A461F4918680BF02EFDB9
:105310001E4E1F4D0FCD30607160B260F36007CD3F
:1053200030617161B2611B4B1C221A80E3686360BB
:10533000204603F07DF902B070BDA368164A312102
:1053400018680BF06BFDF6E7A368144A3021186863
:105350000BF064FDEFE7A368114A322118680BF0E7
:105360005DFDE8E7002006F07FFBCBE70C2006F0B0
:105370007BFBC7E7272006F077FBC3E7B8350020A3
:10538000D6BE898E5555550050B20208486200209D
:1053900068B2020854670020B0B1020834B20208B3
:1053A00010B2020810B58368C26853F822301B7827
:1053B000003B18BF0123404A5370002B71D00021DD
:1053C000D17091804FF47A7494603C4CD4603C4C22
:1053D00014614FF0250CA2F806C09170117041685D
:1053E000C268891A012909DD846802F1010C54F8A8
:1053F0002C4094F800C0304C84F803C0022906DD2C
:105400008168941C51F824100C682B498C60416809
:10541000891A032906DD8168D41C51F824100C88F0
:1054200025498C804168891A042906DD8168141D8C
:1054300051F824100C882049CC804168891A05292C
:1054400006DD8168053251F8222011681A4A11617F
:105450004268C168521A062A06DD8268063152F88F
:1054600021201168144AD1604268C168521A072A83
:105470000EDD846801F1070C54F82C4094F800C04C
:10548000BCF1000C18BF4FF0010C0B4C84F802C0AB
:10549000082A06DD8268083152F821201178064A70
:1054A000117033B1074A8368074918680BF05EFC36
:1054B00010BD064AF7E700BFB82E0020555555002D
:1054C000D6BE898EA4A8020888B202082CA90208B8
:1054D00070B504468368C26853F822301D782E1ECA
:1054E00018BF0126154B18681BF07DF968B12946D5
:1054F000124B18681BF0C1F9034660B931460F4BD7
:1055000018681BF0BCF9034605E000210B4B186836
:105510001BF0B3F90323A26810683BB1032B0AD038
:10552000012B01D0064A02E0064A00E0064A07497C
:105530000BF01CFC70BD064AF9E700BFB83500202F
:10554000B0AC02089CB20208B8AC0208D0AC0208A9
:10555000C0AC020870B582B00446836819680120A7
:1055600008F026F9002870D03A4B1A683A4B1A60B6
:105570006268E3689A4201D0002322E0A368374AB8
:10558000122118680BF04AFC5FE0354A162130689A
:105590000BF044FC59E005EB8501324800EB81003B
:1055A000CCF80400A068E168013A114450F82120C9
:1055B00011682D4A02EB051291600021117301332D
:1055C000DBB26268E168501A1D4603F1010C4FEA34
:1055D0008C02B0EB8C0F26DBA66801EB830156F83A
:1055E00021100868B0F5803FCFD21F4E290106EB8D
:1055F000051C7052A068E168D61E314450F8211095
:1056000009688CF8021001F07F010529C3D0A06859
:10561000E168961E314450F821100868124901EBE8
:1056200005114860BEE70C4EB37131460F4B186848
:105630001AF0C7FE0246A368186833683AB90C4AE4
:1056400000922A460B490BF091FB02B070BD0A4A4A
:10565000F6E700BF48660020D8610020B0B202081B
:10566000F0B20208002F0020782F0020B83500206B
:105670001CA8020810B3020824A8020830B583B0A1
:10568000044683681968012008F092F828B3A068DE
:10569000E36850F823201278052A20D8013350F807
:1056A00023301B78114901EB021191F90E504B7315
:1056B0006168E068091A022909DDA168023051F821
:1056C000201091F90050094901EB02118D73A16876
:1056D0000868009506490BF049FB03B030BD06236E
:1056E000044A162100680BF099FBF6E7782F00209A
:1056F00050B302083CB30208F0B585B00446836895
:105700001968012008F054F8002830D0A068E36838
:1057100050F823201278052A2BD8013350F8233073
:105720001B68174802EB820500EB850140F8253025
:10573000A568E068023055F8200005684D60A6684D
:10574000E068033056F8200006688E60E068043098
:10575000A76857F820000768CF6000200861A1689B
:10576000086802970196009506490BF0FFFA05B00C
:10577000F0BD0623044A172100680BF04FFBF6E743
:10578000002F002078B302083CB3020810B504468D
:1057900083681968012008F00BF8F0B1A068E3688D
:1057A00050F823201178003918BF01216268D21AFD
:1057B000012A13DD013350F823301A78003A18BF5C
:1057C0000122084B18681AF0FEFDA3681B6838B95F
:1057D000054A064918460BF0C9FA10BD0022F0E749
:1057E000034AF6E7B83500201CA8020830B30208C7
:1057F00024A8020810B584B004468368C26853F830
:1058000022301978114B18681AF0DFFD10F5007F6F
:1058100014D007EE900AF8EEE77A0222B5EE000AFD
:1058200027EE800A0A2101A80BF030FBA36801AA29
:10583000074918680BF09AFA04B010BDA368054A2E
:10584000082118680BF0EAFAF6E700BFB835002027
:1058500068B50208C0B302082DE9F0478CB00446D1
:1058600083681968012007F0A3FF002869D000238E
:10587000089309930A930B936168E368C91AA068B7
:1058800050F823201268D5B202F07F0CBCF1050F4E
:105890005AD0032652B2002A58DB8E4258D85E1CDA
:1058A00050F8266036680896BCF1050F56D04FF0C8
:1058B000020E0EF1010703EB0E0850F82880D8F80D
:1058C0000080002A5BDB6FF07F0E4FF000098F42F3
:1058D00074D131463E4A1660099B53600A9B93601F
:1058E0000B9BD360002313610493059306930793E6
:1058F0008DF81050BCF1050F66D00591CDF81880D9
:105900008DF81D908DF81EE0324BC3F8008004A97D
:10591000314B18681AF05BFD0346A2681068002B33
:1059200054D12E4A9DF81D309DF91E10039102930B
:10593000069B0193059B00939DF8103028490BF0BE
:1059400015FA0CB0BDE8F0870626A3E70136A4E7F8
:10595000244A122100680BF061FAF2E79F1C50F80C
:1059600027703F680997DF1C50F827703F680A9737
:105970001F1D50F827703F680B97E64699E70EF118
:10598000020A1F4450F8272012685FFA82F912F0C9
:10599000040F0FD0514507D90EF10307534450F8B7
:1059A000233093F900E092E70F4A132100680BF0CF
:1059B00035FAC6E757466FF07F0E88E70B4A142189
:1059C00000680BF02BFABCE7114696E7084AA9E7F6
:1059D000002F0020FC2E0020B83500201CA8020853
:1059E000A0B4020808B4020834B4020868B402087B
:1059F00024A8020810B588B0044600230493059338
:105A00000693079304A90E4B18681AF0E5FC0346A9
:105A1000A26810688BB90B4A9DF81D309DF91E10C5
:105A200003910293069B0193059B00939DF8103010
:105A300005490BF09BF908B010BD044AECE700BF24
:105A4000B83500201CA80208A0B4020824A8020847
:105A500010B5044683681968012007F0A9FE28B331
:105A60000023144A1370144A1370A068E36850F8B6
:105A700023201178003918BF01216268D21A012A47
:105A800008DD013350F823301B78003B18BF012399
:105A9000084A1370094B18681AF09BFCA3681B682E
:105AA00028B9074A074918460BF060F910BD064AA5
:105AB000F8E700BF1661002023610020B835002000
:105AC0001CA8020830B3020824A8020810B5044636
:105AD00017F00FFD44B1054B1B682360044B1C7885
