:020000040800F2
:1000000000100020891B00086D94000855C30208E9
:1000100055C30208759400087D94000855C3020872
:1000200055C3020855C3020855C3020855C3020848
:100030008194000855C3020855C3020855C302083D
:1000400055C3020855C3020855C3020855C3020828
:1000500055C3020855C3020855C3020855C3020818
:1000600055C3020855C3020855C30208811200088F
:100070007BBD020855C3020855C3020855C30208D8
:1000800055C3020855C3020855C3020855C30208E8
:1000900055C30208C125000855C3020855C302080C
:1000A00055C30208CD210008AD21000855C3020840
:1000B00055C30208A5AB010851B6010881390308F0
:1000C0007D390308E1AD0108973903088539030834
:1000D00021B601088939030891B60108F9B601086B
:1000E00055C3020855C3020855C3020855C3020888
:1000F00083E5020855C3020855C3020855C3020828
:1001000055C3020855C3020855C3020855C3020867
:1001100055C3020855C3020855C3020855C3020857
:1001200055C3020855C3020855C3020855C3020847
:1001300055C3020855C3020855C3020855C3020837
:1001400055C3020855C3020855C30208A78A03080D
:10015000F599010855C302086D390308733903087E
:1001600055C3020855C3020855C3020855C3020807
:10017000F0B5114A114C124E00F00105E3695F071A
:1001800013D40DB9334213D103EA00078F4207D1CC
:100190000B4A1A40002A0CBF00206FF00100F0BD8E
:1001A000013AEBD16FF00200F9E74FF0FF30F6E7CC
:1001B0006FF00100F3E700BF809698000000035045
:1001C000020001000B4B70B5D96911F480310DD1DB
:1001D00001244FF48072084E084DF46020462C64D0
:1001E0001A61FFF7C5FF3464EC6070BD6FF0010069
:1001F000FBE700BF00000350001003500020035035
:100200004FF4803238B50E4B0E4C9A66E56941F6D4
:10021000713315400122E3630B4B0021DA600223A6
:10022000606121202361FFF7A3FF10B92120FFF7B0
:100230009FFF0122054BDA600DB10023E36338BD57
:1002400000900050000003500010035000200350A5
:1002500070B5134C6061E3695B071ED40E4656F817
:10026000043B8D18A361AE420BD104230021212051
:100270002361FFF77DFF58B9BDE870402120FFF7EB
:1002800077BF08210846FFF773FF10B104232361ED
:1002900070BD56F8043BA361E5E74FF0FF30F7E788
:1002A000000003502DE9F84315464FF48032184BF7
:1002B00089469A6603F51C33DF690646174041F606
:1002C0007132DA63012203F58053DFF84C80DA6083
:1002D00055B9284601220F4BDA601FB10022A3F561
:1002E0000053DA63BDE8F88306F5005404EA080415
:1002F000A41BAC4228BF2C46494622463046FFF795
:10030000A7FF0028E6D12644A1442D1BE0E700BF4B
:0C031000009000500020035000E0FFFFB0
:1003200007B52EF0E7FE00F0BBFE08A3D3E90023DB
:10033000CDE900230449086832F0FDFE2EF0DCFE12
:1003400036F000FCFAE700BF54330020000D0054E3
:1003500026000200000000002DE9F04F93B0CDE927
:100360000A32DDE91C530E9353EC102BCDE9080142
:10037000104619468DED060B1E9E2BF0B9F880B184
:10038000DDE906014FF0FF32C54B2BF0D9F840B93B
:10039000DDE906014FF0FF326FF480132BF0B2F865
:1003A00070B1DDE908019DED060B0E9B1E96CDE9AF
:1003B0001C53DDE90A3213B0BDE8F04F00F088B9F4
:1003C0000022DDE9060100232BF09CF8002800F054
:1003D0003381DDE906A303F1004BCBF30A5016F499
:1003E0008063A0F2FF3008BF06250F932AF0AEFD10
:1003F0009BA3D3E900232AF013FE9BA3D3E9002398
:100400002AF058FCCBF31304894644F07F51804610
:100410000022A44B504641F440112AF049FC94A319
:10042000D3E900232AF0FCFD02460B46404649462C
:100430002AF040FC2BF08EF804462AF087FD8EA3AC
:10044000D3E90023804689462AF0EAFD0022964B34
:100450002AF030FC2BF07EF889A3D3E9002307466D
:10046000494640462AF0DCFD8046384689462AF057
:100470006DFD85A3D3E900232AF0D2FD02460B4689
:10048000404649462AF014FC02460B46CDE90C23AF
:100490002AF0C6FDDDE90C23804689461046194640
:1004A0002AF008FC0022CDE91001804B4046494665
:1004B0002AF0E0FE00227E4B2AF0FCFB02460B46AF
:1004C000404649462AF0D6FE00227A4B2AF0F2FB3B
:1004D00002460B46404649462AF0CCFEDDE90C2395
:1004E0008046894600204FF080412AF0E1FB024619
:1004F0000B46404649462AF0DDFB02460B46DDE945
:1005000010012AF0B7FE07F2FF3700226A4B2AF0EB
:10051000D1FB00223B052AF083FD52465B46804614
:1005200089462BF00DF8002840F08980CDE90C8930
:1005300004F16303C72B34BF0427052731051BD5FE
:1005400053A3D3E90023504659462AF0EFFF002871
:100550007FD051A3D3E90023504659462AF0D2FF59
:10056000002876D00027A542C6BF2C1B04F1FF351A
:1005700000253C4646F480660E9B9F422CBF4FF000
:100580000008A3EB070816F0020903D0002F18BFDC
:100590004FF000083CB1DDE90C23504659462AF0E3
:1005A00069FE82468B46DDE90601002200232AF01F
:1005B000A9FF10B10BF100439B46DDE9080126F4C9
:1005C0000063CDE90183DDE90A324BEC10AB009505
:1005D00000F07EF802465FB3DDE9091316F0200F44
:1005E00000F10105089E0CBF65204520B047DDE9FC
:1005F00008010523002205930A23002CCDE90232CD
:1006000007F1FF374FEAD473B8BF64422A4601931B
:1006100004970A9B009432F00DFC0246B9F1000FDA
:1006200006D00B9BC41A0B9B1A190E9BA34245D8EC
:10063000104613B0BDE8F08FDDE906ABCDE6002231
:10064000404649461A4B2AF015FE013CCDE90C0103
:100650006EE7002D90D00F9B002B8DD0013D8BE7D6
:10066000FB799F501344D33FB3C8608B288AC63FA1
:1006700061436F63A787D23F71A379094F930A4003
:100680001655B5BBB16B0240EF39FAFE422EE63F7C
:100690002D431CEBE2361A3F0000000080842E41FF
:1006A000FFFFEF7F0000F83F0000E03F00002C401C
:1006B00000002440000018400000F03F2020DDE949
:1006C0000913089DA8470134ADE700BF00000000F2
:1006D0002DE9F04F5BEC10AB97B0CDE90501DDE9FA
:1006E0002057CDE90723504652465B465946229E85
:1006F0002AF0FEFE70B90323CDE902760193B04BD8
:100700000093DDE90501DDE9072332F0B3FA17B004
:10071000BDE8F08F4FF0FF326FF48013504659461A
:100720002AF0F0FE28B10423CDE902760193A54B0F
:10073000E6E74FF0FF3250465946A34B2AF000FF40
:1007400068B1A24A06F00403002B08BF0322A04BA5
:100750001CBF13460422CDE902760192D0E7504631
:1007600093A3D3E9002359462AF0EAFE38B992A3AD
:10077000D3E90023504659462AF0C4FE68B1DDE9AA
:100780000723DDE905014BEC10ABCDE9217620957F
:1007900017B0BDE8F04FFFF7DFBD00220023504641
:1007A00059462AF0AFFE002800F09A805B46524678
:1007B000002000212AF07CFA012382468B4609930F
:1007C00016F4806400F08E80092D40F28E800024A3
:1007D00030210EABA5F109020134202C03F8011BD6
:1007E000A5EB040901D09442F6D1594650462AF0AF
:1007F000B1FE784B054603EBC90393ED007B8DED0D
:100800000A7B2AF0A3FB02460B46504659462AF0C3
:100810004FFADDE90A232AF003FC02460B46CDE934
:100820000C232AF0BFFE80462AF080FB02460B46CE
:10083000DDE90C012AF03CFA02460B46CDE90C2317
:100840000022654B2AF07CFE002851D008F10108F7
:1008500040462AF06BFB02460B46DDE90A012AF00E
:100860005BFE10B14FF000080135B9F1000F50D117
:1008700028462AF06BFB02460B46504659462AF0A2
:1008800017FA0022544B804689462AF03BFE30B1CD
:10089000002240464946504B2AF052FE10B1E8076C
:1008A00000D501350A210EAB1A19202C0AD095FB70
:1008B000F1F001FB1055303502F8015B01340546BB
:1008C0000028F2D106F00302012A57D1002F55D09B
:1008D000099A12B916F00C0F00D0013F302245E002
:1008E00009906DE74FF006097FE7A94600247CE7F1
:1008F0000022DDE90C01384B2AF004FE0028B4D1B7
:10090000B8F1000F02D018F0010FAED008F10108C5
:10091000ABE70A210EAB2344202C0ED0B8FBF1F03C
:1009200001FB1082B8F1090F02F1300209F1FF3921
:1009300004F1010403F8012B11D83021A1440EAABF
:10094000202CAFD0A14504F101030AD11C4609F1C6
:1009500058030DEB03092E2309F8203CA2E780463B
:10096000DAE7A1541C46EBE71A550134A74205D932
:10097000202CF9D1CDE902760194C1E6202CF9D0E2
:10098000099A3AB12D2104F158026A4402F8201C58
:100990000134EFE7710704D504F158022B216A44B2
:1009A000F4E73207E6D504F1580220216A44EDE766
:1009B0000000000065CDCD410000000065CDCDC137
:1009C0007D5F0408815F0408FFFFEF7F745F040808
:1009D000795F0408885F04080000E03F0000000021
:1009E00070B58EB02C22002103A835F08AFD642357
:1009F0004FF002320893CDE905230B2301218DF836
:100A000034305B4B8DF810101D880D4040F0A980EC
:100A1000084636F0CDFE0A22564B574C1A704FF45A
:100A20002873ADF812304FF0FF332360534B544915
:100A30001B8820460B82534B534A1B68CD828B6127
:100A4000524B0D621B884B82514B1B68CB611AF0D5
:100A500011FF20B140F267214E4835F07FFF05219C
:100A6000206832F0ECFA20B14FF41E71494835F09D
:100A700075FF206800F010FC474B2068196832F0C1
:100A8000A7FB0C2537F0FCFA6843099037F0F8FA19
:100A900068430DEB05010790206814F075FF20B145
:100AA0004FF424713B4835F059FF25681DF010FCC8
:100AB00000220146284632F005FC20B140F2922186
:100AC000344835F04BFF40F20353344D344E2B8005
:100AD000052396F90000AB707F2801D11BF02EF89A
:100AE0003378EB7037F0CCFA00EB80008000A88000
:100AF00037F0C6FA0023C0004FF0FF31E880AB604A
:100B00004FF0FF3018A3D3E9002336F0A3FF2549A7
:100B1000206832F08EFB206802A932F0B3FF20B1CA
:100B200040F2CB211B4835F019FF042220680DEB61
:100B3000020132F022FB042804D040F2D2211548F1
:100B400035F00CFF01A9012031F009F908F0D2FCC1
:100B500001201BF09DFC2CF0F3FB1BF0D1FC1AF0E4
:100B600085FF0EB070BD00BF0A0020FF42030000E9
:100B70000A3A00206A43002054330020E65F04084C
:100B8000E8480020EC5F0408D9770308E45F040814
:100B9000E85F0408AC9F04084C470020483300205D
:100BA0004C4C00204D7803080348044B834202D08C
:100BB000034B03B1184770477C4C00207C4C00204D
:100BC00000000000064B0749C91A891048BF0131CF
:100BD000491003D0044B0BB101481847704700BFC0
:100BE0007C4C00207C4C00200000000010B5064C1E
:100BF000237843B9FFF7D8FF044B13B10448AFF390
:100C000000800123237010BDF83A0020000000008E
:100C10009CA3040808B5054B1BB105490548AFF373
:100C20000080BDE80840FFF7CDBF00BF0000000016
:100C3000A81200209CA30408A3F5803A704700BFC7
:100C4000174B002B08BF134B9D46FFF7F5FF002104
:100C50008B460F461348144A121A35F052FC0E4BBD
:100C6000002B00D098470D4B002B00D09847002058
:100C7000002104000D000D48002802D00C48AFF3FD
:100C800000802BF001F820002900FFF749FB2AF033
:100C900039FE00BF00000800000000000000000056
:100CA0000010002000100020DC43002000000000A5
:100CB0000000000007B501200CF000FB01210090AE
:100CC000034B0420034A0BF069FE03B05DF804FBFC
:100CD00045930308888D030830B585B00FF0F0FA0E
:100CE00002280446214D27D110F040FE0346012082
:100CF0002D7818717DB9224606211D4B10F0B6FDE6
:100D00002FF056FF012100901A4B04201A4A0BF0D5
:100D100045FE05B030BD012DF2D130F07EFB002242
:100D20001423C0B20193009008212846CDE9022285
:100D3000124B10F09BFDE3E72B78012B12D12EF024
:100D400044FF0F4B0F4A01210190009204200E4AEC
:100D50000BF024FEFF210D482EF00AFB01220C4B64
:100D60001A70D6E70DF04CFA0A4BEBE7F93A00207F
:100D70000BE10308BD8D0308D98D0308B88D030866
:100D8000A98D030845930308CE8D0308E0120020C7
:100D9000FA3A0020B38D030808B50E4B1B789BB1BF
:100DA0000FF08EFA02280AD00B482BF017FCBDE892
:100DB00008404FF47A62FF2108482EF0D0BA064866
:100DC000BDE808402BF004BC0FF07AFA0228F6D0F8
:100DD00008BD00BFFA3A0020E0E00308E01200205E
:100DE00013B5FF2409490A480BF026FB23460021CE
:100DF000084A094800940BF09BFA23460021074A51
:100E0000074800940BF094FA02B010BDD90C00080A
:100E100000130020990D0008E0120020B50C000816
:100E2000C0120020162802D104482BF0D4BB15288C
:100E300002D102482BF0CCBB704700BFE0E00308B2
:100E400013B504460B4B01900093012104200A4B7B
:100E50000A4A0BF0A3FD24B10022094B1A7002B01C
:100E600010BD40F6B832FF21064802B0BDE8104080
:100E70002EF075BA8A580408B38D0308CE8D030886
:100E8000FA3A0020C0120020002307B50193084B56
:100E9000012100930420074B074A0BF07FFD40F629
:100EA000B832FF21054803B05DF804EB2EF057BAC5
:100EB0008A580408A98D0308CE8D0308C0120020AB
:100EC00007B50121064B04200093064A064B019109
:100ED0000BF064FD0022054B1A7003B05DF804FBB3
:100EE0008A580408CE8D0308A98D0308FA3A002019
:100EF00007B5064B009001210420054A0BF04EFD7A
:100F00000022044B1A7003B05DF804FB8A580408F1
:100F1000888D0308FA3A00200D4A08B5116881420D
:100F20000AD12BF080FA88B90A4B1870FF21BDE86E
:100F3000084009482EF01CBA5268824206D12BF0B4
:100F400072FA18B90122034B1A70EFE708BD00BF0F
:100F5000E4460020F93A002000130020024602492E
:100F600000202DF052BB00BFE28D0308024602496B
:100F700000202DF04ABB00BFF58D030838B5D0E93D
:100F8000023253F8221003EB82035B680D781C6871
:100F90002A462346164900202DF037FB032D26D87C
:100FA000DFE805F00208121C12490020BDE83840B5
:100FB0002DF02BBB142C05D861B20020BDE83840C1
:100FC0001AF082BF0C49F0E7A4F10B030F2BF9D8FC
:100FD000E1B20020BDE838401AF0A2BF04F1550389
:100FE000282BEFD860B2BDE838401AF0C9BF38BD31
:100FF0002E8E0308418E03084D8E030808B5D0E9F4
:10100000023253F822301B78032B1ED8DFE803F09E
:10101000020C1218002037F023F802460B4900207A
:10102000BDE808402DF0F1BA00201AF05BFF084936
:101030000246F4E700201AF061FF06490246EEE797
:101040001BF050FA04490246E9E708BD558E030833
:10105000688E03087A8E0308908E030808B5D0E9DD
:10106000023253F822100948094A0A4B09781BF04A
:101070007DFB024628B1BDE80840002006492DF05E
:10108000C4BA0649BDE808402DF0BFBA00F8FF0712
:101090005D0F00086D0F0008A08E0308C78E0308BF
:1010A0002DE9F34200240E4B0E4E1B680E4FDFF865
:1010B00040900193019BA34202D802B0BDE8F082A8
:1010C00056F8045B394628462DF068F8494628460C
:1010D0002DF064F8284605492DF060F80134E9E761
:1010E000C0DC0308C4DC03087C4600203446002032
:1010F000584600201FB5094B094A1868094B01A939
:101100001860094B1360094A0192094A1268CDE937
:1011100002232CF0A1FE05B05DF804FBAC460020D4
:10112000082100200C210020A0460020A9DC030893
:10113000DC150020014B18682CF0A2BEAC46002044
:1011400038B507F001F90446064D2B68D3F8B00214
:1011500007F0EEF828682CF0A6FE2046BDE83840DF
:1011600007F0E6B8AC460020064B1B681A7A022A44
:1011700004D812B11B68044A13607047032AF9D0DF
:10118000704700BFB0460020DC150020F0B5A3B0CA
:101190001C2200210CA835F0B4F9204B00240B933D
:1011A00002238DF839301E4B4FF4E1370F9305239E
:1011B0008DF8423006238DF844304FF47023CDE98A
:1011C00002440494019313AD01AE0FCE0FC5154B2D
:1011D000CDE907442B60144B0994069318AD06AE75
:1011E0000FCE0FC5114B20222B60114B0D971D9375
:1011F00040F20113CDE91E230E4B0BAA219313A934
:101200000D4B0E48209407F037F905462146384625
:101210002BF092F8284623B0F0BD00BF980A0408CE
:10122000880A04083C00015B01000F004400015BD8
:10123000FB3A0020C4460020E01500209C16002048
:1012400029B9074B186803684BB107F041BD012964
:1012500005D1034B186803680BB12DF0B6BB70477E
:10126000D846002008B50449044808F0D9F9BDE87B
:101270000840FFF78BBF00BFDC460020C4160020EB
:1012800001482DF0F0B900BF9C160020014B5A6AAE
:10129000186810479C16002008B514F0A3FB002224
:1012A000014B1A7008BD00BF1B3B002010B504F0B5
:1012B00009FCBDE8104002460B46002001492DF014
:1012C000A4B900BF3DDD03082DE9F0410024B4B00E
:1012D00025490020254E2DF098F900948023032104
:1012E000306814AA31F0AFFF0746DFF8908014ADE4
:1012F000A3B29F4230D81E4900202DF086F909AADA
:101300000321306831F093FF0EAA0146306831F0B6
:1013100094FF9DF84A30BDF84C2006939DF8493063
:10132000144905939DF84430002004930E9B0393C9
:101330009DF8483002939DF8453001939DF8473061
:1013400000939DF946302DF060F90B4900202DF0F7
:101350005CF934B0BDE8F0814146002015F8012B5E
:101360002DF053F90134C3E74DDD03085433002059
:1013700026DF030855DD03087FE00308A53B0408CA
:1013800070B500200D492DF040F900240C4D0D4E94
:101390002A681378013BA34208DC31F07DFFBDE8E9
:1013A00070400246084900202DF02FB9125D3146E9
:1013B00000202DF02AF90134EAE700BF4DDD0308D3
:1013C00094480020A53B0408C3DD030838B5431E3C
:1013D00004460D462C2B18D8DFE803F0232D363DAC
:1013E000414B525C636C73171717171717171717B2
:1013F000171717171717171717171717858E959C95
:10140000A3AAB1B8BFC6CDD4DB00A0F10A03DBB2FA
:101410001E2B04D8624A42FA03F3DB075ED5002094
:1014200038BDFFF743FF31F037FF02465D4900202A
:101430002DF0EBF84EE05C4900202DF0E6F8FFF7C8
:1014400035FFFFF741FFEAE7FFF730FF574900207C
:101450002DF0DBF8F5E7FFF729FF5549F7E7FFF730
:1014600025FF31F019FF0246524900202DF0CDF83A
:1014700034E0FFF71BFF31F00FFF4F490246D6E77C
:10148000FFF714FF31F008FF02464C4900202DF011
:10149000BCF8C4E7FFF70AFF31F0FEFE48490246F8
:1014A000E3E7FFF703FF474900202DF0AEF8FFF711
:1014B0000BFF13E0FFF7FAFE31F0EEFE4249024661
:1014C000D3E731F0E9FE4149024600202DF09DF8B6
:1014D000FFF7ECFEA4F12A03022BA0D829462046F0
:1014E00037F04AF99BE7FFF7E1FE394900202DF07C
:1014F0008CF8FFF745FFF1E7FFF7D8FE31F0CCFE9F
:1015000034490246B1E7FFF7D1FE31F0C5FE32495A
:101510000246BBE7FFF7CAFE31F0BEFE2F49024686
:1015200085E7FFF7C3FE31F0B7FE2D490246ADE770
:10153000FFF7BCFE31F0B0FE2A49024677E7FFF71D
:10154000B5FE31F0A9FE284902469FE7FFF7AEFE3F
:1015500031F0A2FE2549024687E7FFF7A7FE31F0EA
:101560009BFE2349024680E7FFF7A0FE31F094FE80
:10157000204902465BE7FFF799FE31F08DFE1E49D8
:10158000024672E7FFF792FE31F086FE1B490246E3
:101590004DE7FFF78BFE31F07FFE1949024675E7F4
:1015A000FEFF7FBED3DD0308F4DD030809DE030878
:1015B0001EDE030834DE030854DE030879DE030868
:1015C0009EDE0308C0DE0308D2DE0308F1DE030856
:1015D00011DF030828DF03084CDF03086EDF030870
:1015E00090DF0308B1DF0308D2DF0308F3DF03084D
:1015F00018E003083EE0030864E0030883E0030802
:10160000A2E0030801482AF009BF00BFC8E00308B0
:1016100001482AF0DABF00BFE0E003081FB508491F
:1016200003460868097902AA02908DF80C1000920E
:101630000521002201200AF011F805B05DF804FB35
:10164000F8E003081FB50A4A0346106802A9029091
:1016500090889279ADF80C008DF80E20009144220C
:101660004FF44071012009F0F9FF05B05DF804FB6B
:10167000FEE003081FB5084903460868097902AA75
:1016800002908DF80C10009205214222012009F0F1
:10169000E5FF05B05DF804FB06E103081FB5084946
:1016A00003460868097902AA02908DF80C1000928E
:1016B00005214022012009F0D1FF05B05DF804FBAF
:1016C000F8E003081FB5074A0346039203AA0092F5
:1016D0004FF440714122012009F0C0FF05B05DF8D0
:1016E00004FB00BF010221211FB509490346086818
:1016F000097902AA02908DF80C1000924FF4407103
:101700004022012009F0AAFF05B05DF804FB00BFEC
:101710000CE103081FB5094903460868097902AAC4
:1017200002908DF80C1000924FF44071432201207A
:1017300009F094FF05B05DF804FB00BF0CE103085D
:101740001FB5094903460868097902AA02908DF875
:101750000C1000924FF440714222012009F07EFFEC
:1017600005B05DF804FB00BF00E103081FB5064AA1
:101770000346039203AA009201220821104609F0B1
:101780006DFF05B05DF804FB010121211FB5074A7B
:101790000346039203AA00924FF4407108220120ED
:1017A00009F05CFF05B05DF804FB00BF12122121B7
:1017B0001FB5094A0346106892880290ADF80C20C4
:1017C00002AA00924FF440714B22012009F046FF1B
:1017D00005B05DF804FB00BF12E103081FB5074A1E
:1017E0000346039203AA009201224FF4407110466F
:1017F00009F034FF05B05DF804FB00BF01012121B1
:101800001FB5074A0346039203AA00924FF44071A2
:101810000422012009F022FF05B05DF804FB00BF9F
:10182000010121211FB5094903460868097902AA67
:1018300002908DF80C1000924FF4407107220120A5
:1018400009F00CFF05B05DF804FB00BF13E10308CD
:101850001FB5074A0346039203AA00924FF4407152
:101860000A22012009F0FAFE05B05DF804FB00BF72
:10187000020221211FB5094903460868097902AA15
:1018800002908DF80C1000924FF44071002201205C
:1018900009F0E4FE05B05DF804FB00BF19E10308A0
:1018A0001FB5094903460868097902AA02908DF814
:1018B0000C1000924FF440710622012009F0CEFE78
:1018C00005B05DF804FB00BF19E103081FB5064A27
:1018D0000346039203AA009208210022012009F086
:1018E000BDFE05B05DF804FB010221211FB5074ACA
:1018F0000346039203AA00924FF440710322012091
:1019000009F0ACFE05B05DF804FB00BF0102212127
:101910001FB5094903460888897803AAADF80C0069
:101920008DF80E10009206214222012009F096FE49
:1019300005B05DF804FB00BF1FE103081FB503AA53
:10194000009205220749034608888978ADF80C0003
:101950008DF80E100120114609F080FE05B05DF8EB
:1019600004FB00BF23E103081FB5084903460868CC
:10197000097902AA02908DF80C1000920821022227
:10198000012009F06BFE05B05DF804FB19E10308C6
:101990001FB5094903460868097902AA02908DF823
:1019A0000C1000924FF440710922012009F056FEFC
:1019B00005B05DF804FB00BF27E103081FB50A4A24
:1019C0000346106802A9029090889279ADF80C0045
:1019D0008DF80E2000914C224FF44071012009F047
:1019E0003DFE05B05DF804FB2DE103081FB5094974
:1019F00003460868097902AA02908DF80C1000923B
:101A00004FF440710222012009F028FE05B05DF874
:101A100004FB00BF35E103081FB509490346086808
:101A2000097902AA02908DF80C1000924FF44071CF
:101A30000522012009F012FE05B05DF804FB00BF8D
:101A400035E103081FB5094903460888897803AAC8
:101A5000ADF80C008DF80E1000920821062201202E
:101A600009F0FCFD05B05DF804FB00BF3BE1030895
:101A70000A4601492AF00BBB750104080A460149D0
:101A80002AF005BB700104080A4601492AF0FFBA92
:101A90006B0104080A4601492AF0F9BA64010408F6
:101AA0000A4601492AF0F3BA5D0104080A460149D1
:101AB0002AF0EDBA560104080A4601492AF0E7BAAD
:101AC0004F0104080A4601492AF0E1BA4801040816
:101AD0000A4601492AF0DBBA410104080A460149D5
:101AE0002AF0D5BA340104080A4601492AF0CFBACF
:101AF000270104080A4601492AF0C9BA240104084A
:101B00000A4601492AF0C3BA1D0104080A460149E0
:101B10002AF0BDBA140104080A4601492AF0B7BAEE
:101B20000B01040808B5034836F0B3FEBDE80840D1
:101B30002AF0D0B8840A0408014836F0AABE00BFD3
:101B4000840A040807B508202AF0D0FC0222064BBC
:101B50006846CDE900232AF0B3FB082003B05DF806
:101B600004EB2AF0CEBC00BF006A18100348044AF8
:101B70000449121A92102AF0EEBB00BF700100084F
:101B80001C0300087C44002008B5154B83F30A8829
:101B900000F030F8FFF7EAFF124B13498B4212D3E3
:101BA0000020124B12498B4218D3FFF749F81868EE
:101BB00050F82240586840F822400132986882422A
:101BC000F5D30C33EAE70022F8E71C6844F822005A
:101BD00001325C68A242F8D30833E4E70022F8E758
:101BE00000000020A4A30408B0A30408B0A30408C4
:101BF000B0A304084FF48041124B134A70B59A60A9
:101C0000D3F88820114D42F47002C3F88820104A9E
:101C100005F5005491664FF0FF3222660D4A626668
:101C20000222C3F8D020BFF34F8FBFF36F8F4FF462
:101C30004036002006F06EFB0020E66006F04EFB0A
:101C40002E6170BD00ED00E000000008008000443F
:101C500000900050F7FF3700014B1860704700BF3D
:101C600008470020054B1860054B1B6F03F0070366
:101C7000032B01D134F0AABC704700BF10470020ED
:101C800000800050BFF34F8F0549064BCA6802F42D
:101C9000E0621343CB60BFF34F8F00BFFDE700BF8F
:101CA00000ED00E00400FA0570B5D0B1C9B10E4EE8
:101CB000431E013913F8014F2046325D02F0030242
:101CC000012A11F8012F08BF04F12000B55C05F0CE
:101CD0000305012D08BF2032801A01D1002CE9D163
:101CE00070BD0120FCE700BF9BA2040830B5056869
:101CF00087B0AB8804461848ADF80C3036F0C9FD03
:101D00000022012103A800F0FDF80DF10B0103A84A
:101D10002AF02FFC9DF80B3083F001032B70AB7978
:101D2000022B15D14FF0FF330022CDE9043304A973
:101D30000A4B009403A800F0E7F9049B00940133D8
:101D40000CBF04220122054B05A903A800F05CF991
:101D5000002007B030BD00BF840A040831C4020867
:101D6000002307B52948019336F093FD4FF44073E3
:101D7000012204216846ADF8003000F0C3F80122CA
:101D8000234B0520C3F8442401A936F07DFD00282B
:101D900039D1204BD3F8F02042F00102C3F8F020F3
:101DA000D3F8FC2042F08072C3F8FC201A4AA3F555
:101DB0005D431A60019B194A03F5D52303F2FC43E6
:101DC000B3FBF2F3164A013B13610223C2F8F03071
:101DD0004FF48073C2F804334FF06043114AC3F8E4
:101DE000B02F114AC3F8802ED3F8002E42F480722F
:101DF000C3F8002EFF2283F82020D3F8002E22F40F
:101E00008072C3F8002E03B05DF804FB840A040856
:101E100000D0035000ED00E0FF030040F8590D0032
:101E2000000004E055CEACC5090001004FF060434E
:101E3000D3F8802E30B5D20715D501240B4D844040
:101E4000D5F8FC2042F08072C5F8FC20D3F8002EB3
:101E50002243C3F8002E53F82020002AF0D003F8C4
:101E60002010002030BD1120FCE700BF00ED00E095
:101E70002DE9F04104460C254FF00108124E0CB339
:101E800014F001000BD0002024F0010405FB0062D7
:101E90005768002FF3D09168C0B2B847EFE72246E9
:101EA000013020284FEA520201D0D307F8D508FAB2
:101EB00000F20F2824EA0204E8D9103805FB00627A
:101EC000B432E5E7BDE8F081CC16002008B50C4837
:101ED00036F0DFFC192006F00FFA28B1192006F0C1
:101EE00019FA192006F0FAF91A2006F005FA28B1B5
:101EF0001A2006F00FFA1A2006F0F0F9002008BDAB
:101F0000840A04082DE9F0410E469046054618B3B0
:101F10000F2923D80378E3B1012B03D0022B18D06B
:101F2000032B1BD13F236A78D340DB0716D50D4B1B
:101F3000D3F81043A4B936F039FC07464246284688
:101F4000314603F0F5FD384636F02BFC2046BDE85F
:101F5000F08140F2FF33E6E72224F7E72124F5E79A
:101F60000224F3E700C0035010B50446E8B103783B
:101F7000C3B1012B03D0022B14D0032B17D13F2365
:101F80006278D340DB0712D536F010FC012263786B
:101F900021789A4030235943064B5A5036F001FCC1
:101FA000002010BD40F2FF33EAE72220F9E72120AC
:101FB000F7E700BF40D0035010B50446E8B10378FE
:101FC000C3B1012B03D0022B14D0032B17D13F2315
:101FD0006278D340DB0712D536F0E8FB0122637844
:101FE00021789A4030235943064B5A5036F0D9FB9A
:101FF000002010BD40F2FF33EAE72220F9E721205C
:10200000F7E700BF40E003502DE9F0410D461646CA
:1020100098460446002851D000294FD002784AB192
:10202000012A42D0022A05D0032A3ED0FF2A07D037
:10203000212041E040F2FF336278D340DA07F7D540
:10204000022E01D9042EF3D136F0B0FB23780746D7
:10205000FF2B05D032462046296803F0AFFD2860EB
:102060002B68013309D12378FF2B06D1144B6078FC
:10207000D3F824142BF013F9286029684B1C17D0CF
:102080000C23104A03FB0122069BC2F804809360D4
:102090002378FF2B04D001230B4A8B40C2F8243451
:1020A000384636F07EFB002006E03F236278C4E726
:1020B000384636F076FB2D20BDE8F0812220FBE784
:1020C00000C00350CC16002000D003500F2810B5DC
:1020D000044613D836F06AFB0123094AA340C2F82C
:1020E0002034C2F824340C22064B02FB04330024B3
:1020F000C3E9014436F055FB204610BD2120FCE722
:1021000000E00350CC1600202DE9F0410D4690462A
:102110001F460446002842D0002940D0017849B12A
:10212000012933D0022905D003292FD0FF2907D058
:10213000212032E040F2FF336278D340DA07F7D54E
:1021400036F034FB23780646FF2B05D04246204666
:10215000296803F0B9FD28602A68531C19D00C23A4
:10216000104903FB0211069BC1F8B870C1F8BC30DE
:102170002378FF2B05D00123103293400A4AC2F87E
:102180002434304636F00DFB002006E03F23627811
:10219000D3E7304636F005FB2D20BDE8F081222044
:1021A000FBE700BFCC16002000D0035008B503F0B9
:1021B000A5FC054B00F0553020F05020C3F820045A
:1021C000BDE80840FFF754BE00E0035008B503F037
:1021D00095FC054B00F0AA3020F0A020C3F82004A5
:1021E000BDE80840FFF744BE00E0035013B50446C5
:1021F0000A4836F04EFBA2780421B2FA82F2237824
:1022000052098DF8043063780DEB01008DF805302C
:10221000FFF778FE002002B010BD00BF840A04085A
:102220002DE9F04F9A46564B85B01B7806460F466F
:102230001546DDF83C909DF844B0DDF85080002B49
:1022400000F09780072A00F296800E9B002B00F08A
:102250009280B9F1000F00F08E80129BB3F5006FF1
:1022600000F38980012803D1109B002B00F08380AC
:10227000444B03EB05131B7B002B7ED0424C1022FA
:102280000021684634F03DF904EB45141022A7BB49
:102290003946204634F035F943F210036380BBF130
:1022A000000F03D1E37843F00303E370364A0E9B3B
:1022B00002EB451CCCE90193129B6901581E9DF865
:1022C0004C30C0F30A0003F003039B0643EA001EF0
:1022D00053582E48012E00EA03004EEA0003CDF8C1
:1022E00000A0535017D0B8F1000F2ED19CF8023047
:1022F00068F304138CF8023027E00021204634F004
:1023000000F94FF444736380BBF1000FCED1E37842
:1023100043F03003C9E713230CF1100ECCF80C3056
:102320009CE80F008EE80F006FF00301DCF81C2022
:10233000109B61F39F02012FCCF81C20CCF81430C5
:1023400003D1CCF81890CCF8043000270D4A2901AD
:1023500002EB051342F80180159A28465A60694637
:1023600022469F605E7303F0B7FA384605B0BDE8B9
:10237000F08F0748FAE70748F8E70748F6E700BF95
:102380001C3B002034190020341800200F80FFF37C
:10239000028000F0018000F0078000F038B5124B99
:1023A00005461B78DBB1E0B136F000FA0F4A002396
:1023B0001146147B54B92B6001251A0101EB03135C
:1023C0001D738C5036F0EDF9204638BD0133082BD3
:1023D00002F11002EDD136F0E4F90548F5E70548C1
:1023E000F3E70548F1E700BF1C3B0020341900204B
:1023F000048000F0028000F0018000F038B536F073
:10240000D5F9002305460B4A147B6CB90133082B20
:1024100002F11002F8D103F00BFA074B28461C70AA
:1024200036F0BFF9204603E0284636F0BAF90348F3
:1024300038BD00BF341900201C3B0020058000F08F
:102440000D4B10B51B78044693B1072812D836F00F
:10245000ADF90A4B03EB04131A7B2AB100241C7359
:1024600036F09FF9204610BD36F09BF90448FAE794
:102470000448F8E70448F6E71C3B00203419002024
:10248000068000F0028000F0018000F0154B13B5CB
:102490001868002301908DF8043036F087F9124B4C
:1024A0001C7824B136F07DF9104802B010BD01222D
:1024B0001A7036F076F90E4B01A81C731C7783F85E
:1024C0002C4083F83C4083F84C4083F85C4083F810
:1024D0006C4083F87C4008238DF8073003F0CCF97A
:1024E0002046E2E77A0104081C3B0020038000F04C
:1024F00034190020F8B50D4D2D7885B1072810DC72
:102500000B4D060105EB0014277B67B1AB5100258D
:10251000069BA560636003F0DFF92846F8BD054817
:10252000FCE70548FAE70548F8E700BF1C3B002038
:1025300034190020028000F0018000F0078000F0D4
:102540000A4A08B512785AB107280BD8084A02EB94
:1025500000131B7B43B1002103F080F9002008BD6C
:102560000448FCE70448FAE70448F8E71C3B00206D
:1025700034190020028000F0018000F0078000F094
:102580000A4A08B512785AB107280BD8084A02EB54
:1025900000131B7B43B1012103F060F9002008BD4B
:1025A0000448FCE70448FAE70448F8E71C3B00202D
:1025B00034190020028000F0018000F0078000F054
:1025C000184B2DE9F0411F6D5B6D1F4000D5FEE7F4
:1025D00001260025144CDFF85880374218D02368B4
:1025E000C8F85060A3B1A168284601316268A160B3
:1025F0009847637B012B0BD150B90C4B03EB451370
:102600001A7B60F341021A731A7F60F341021A7752
:102610000135082D4FEA460604F11004DDD1BDE86E
:10262000F08100BF0000045034190020341800204D
:10263000002004502DE9F04F144606460D469B46F7
:10264000C36B87B001225B6902A960689847F36B8E
:1026500001225B6903A92846984702A82AF012FCC8
:10266000074648B10023A37563754FF0FF33A3609D
:10267000002007B0BDE8F08F03A82AF010FC01236A
:10268000A375237E04EBC303DD611F846368AB4243
:102690000ED1206003A82AF024FC4FF0FF332075F0
:1026A000A360237D043B022B26D80023A375DFE71C
:1026B00023681A1A53425341A37503A82AF011FC48
:1026C000237D834218BFA77503A82AF0ECFB0746B9
:1026D00002A82AF0E8FB874218BF002303A818BF0E
:1026E000A3752AF0E8FB074602A82AF0E4FB87421C
:1026F0001CBF0023A375D4E703A82AF0D4FB80B144
:10270000F36B022228465B6904A9984704A82AF0C3
:10271000D9FB0346207D032839D8DFE800F038389C
:10272000040903A8F3E7CC22237E04EBC3031A8435
:1027300001F084FC109B187003A8277E2AF0A7FBE9
:1027400004EBC70787F82200237E03A804EBC3032A
:10275000B3F8209093F822702AF0A5FB804603A8D6
:102760002AF0A9FB8246B8F1000F15D0F36B0222C4
:1027700028465B6904A9984704A82AF068FB60759D
:10278000637D6BB90023A3754FF0000838E0227E0B
:1027900004EBC2021384CBE703A82AF043FBEEE765
:1027A00094F81680B8F1000FEED0B9F1000F09D1FE
:1027B000DFB10123627EE375002A44D19F4218D124
:1027C000677614E0736C05EB0A02594285EA020051
:1027D00008421CBF0021A175591E0A409B1A994549
:1027E000D0D8A37D002BE3D1CEE7E37D43B94FF0F2
:1027F00000084B465246294630462AF085F8A0602C
:10280000A27D12B123694B4423611449237E0978C8
:1028100099421ED901332376BBF1000F1BD0D2B1F0
:10282000E37DC3B1B8F1000F15D1032F13D0A16818
:102830004B1C10D0109B2246009330460123FFF71B
:10284000F9FEA07507E0012FDAD0032F08BFA376A9
:10285000CDE70023A375A07D0BE700BFA00104080E
:102860002DE9F04F0E46984600238BB004464FF0FA
:10287000FF31104617468DF8133001F0C9FBB6F54D
:10288000801F3BD3B21C53D1E56A6B1C57D1204645
:10289000616A29F07FFF0546B31C18BF0123DFF8EA
:1028A00010910193636A626C0293236805A902FB8D
:1028B000053AE36B05225B695046984705A82AF064
:1028C0007CFB2AF09FFB50462AF0A7FB4FF0000B41
:1028D000824601464B1C05D0636C81EA0A025B42CA
:1028E000134232D02946204629F054FF029BAB42C6
:1028F0004DD0BBF1000F4DD10546D3E7314605AAB7
:1029000004F108002AF010FA0146481C10D038469D
:1029100001F07EFB0122394620460DF113032AF017
:1029200045F828B19DF8133088F80030002003E006
:10293000237C002BA8D12D200BB0BDE8F08F23689D
:10294000ED1A636CB5FBF3F5A6E7484601F060FBB2
:102950000DF1130349462046019A2AF027F8034651
:1029600090B1B21C03D0D9F80020B2420CD19DF82E
:10297000132003930D4B88F8002049461A68384607
:1029800033F0E3FD039B9B46D9F80810A2E7BBF1A7
:10299000000FD0D0B6F5801FC8D2314698F800306D
:1029A0007A6804F1080001F061FABFE79C010408AD
:1029B000282000202DE9F3410446174698460E468C
:1029C000194D816AE36A8B422AD04B1C18E02846D5
:1029D00001F01EFB0122294620460DF1070329F0D4
:1029E000E5FF30B14346294620469DF80720B84709
:1029F000B0B1A9684A1C05D0012E0AD0E36A9942F9
:102A0000E5D10DE06968204629F051FF012E01460D
:102A1000D8D16B6881EA0302636C5B421A42D1D061
:102A200002B0BDE8F08100BFFC1F00202DE9F0419D
:102A3000036B9046826B07689A4288BF8363426C3F
:102A4000436A90B002FB0377C36B0E46052201A9CF
:102A50005B6904463846984701A82AF0AEFA012877
:102A60000146307057D0656CE26B2368606AD2F81B
:102A700014C005FB0030052206A9E04706A82AF08D
:102A80009CFA01284FF0000523D0D4E90A32012135
:102A90009342CDE90B458DF834800E958DF83C10AE
:102AA0002AD11946204629F002FF236B626C1433A9
:102AB0009B1AE06223630C9B53B99DF83C303BB1F9
:102AC000626A616C2368E06B01FB02312AF02DFA27
:102AD0000C9DE36B05225B6901A93846984701A864
:102AE0002AF06BFA30702846236BA26B9A4288BF9B
:102AF000A36310B0BDE8F081237C33B91C490BAA55
:102B000004F1080001F000FAD5E72046194A0BABA2
:102B1000FFF750FFCFE7237C23BB2246164904F181
:102B2000080001F0F1F9616A204629F054FE616A5B
:102B3000421C204629F01DFE054620B9236B626C1D
:102B40001344143B23632046A16A29F0B0FE236896
:102B5000A062C01A636CB0FBF3F06062204629F0FB
:102B6000E9FEB6E700232046044AFFF723FFDAE731
:102B7000013300087D32000835CA0208D1C90208B5
:102B800073B50D46D11E4A421C461B7E4A419A42ED
:102B900026D129682368994222D3636899421FD8B5
:102BA000114E0DF107033246FFF75AFEC0B97268A5
:102BB0006B689A4214D19DF80730DA1E5342534194
:102BC000227E93420CD1636901336361D4E903230C
:102BD000934205D22968A26842F823100133236189
:102BE000012002B070BD00BF542000202DE9F04F3D
:102BF0009A468BB09DF85030DFF850B10293DBF865
:102C00001030804653450D461646C0F09980D14697
:102C1000DBF804300193B9F1000F00F08D80D8F893
:102C20003C3001225B6907A90198984707A82AF060
:102C300036F9DBF80030984240F0858007A82AF08A
:102C40003AF90428074614D107A82AF03BF9019B5A
:102C5000029A04463B44002A3FD1864212D91446C8
:102C6000361A4046019929F022FEA9EB0409019089
:102C7000D1E7D8F83C3002225B69019808A998474F
:102C800008A8E2E7841B544528BF5446032C03EBF5
:102C90000607AAEB040A4FEA94021CD9D8F83C3084
:102CA000294638465B69984724F0030304F003067D
:102CB0001F441D44002ED4D0D8F83C3001225B695B
:102CC00008A9384698473246284608A9354433F0C3
:102CD0003CFC0026C5E72646ECE7074600F0030269
:102CE000039203442A1804920593049BDD1B059B61
:102CF000D81B039B9F420FD1002FB2D0D8F83C3095
:102D0000012208A95B6998473A46284608A933F08A
:102D1000CEFB78B93D44A4E7D8F83C30012208A99D
:102D20005B6998470422284608A933F0C0FB08B91C
:102D3000043FDAE74FF0360948460BB0BDE8F08FA4
:102D40004FF06309F8E74FF06F09F5E780200020A6
:102D50002DE9F0410F4616469846044688B060B308
:102D600090F83450FDB1012129F0D9FC00210E9BCF
:102D7000CDE90511CDE902379DF83C30CDF804804E
:102D80008DF81C30237C04968BB90D4901AA04F1FF
:102D9000080001F0B9F8DDE90553E06B002E08BF2B
:102DA0001D4629F055FE284608B0BDE8F0812046B2
:102DB000044A01ABFFF7FEFDEDE70546F3E700BF70
:102DC000FFC90208812B00087FB590F842600446D5
:102DD00001920DF10B030A463046124929F040FEDC
:102DE000012E0546E36B19D132465B6903A998476A
:102DF0009DF80B10039B019A59B19BB243EA024321
:102E0000012228460393E36B03A99B69984704B00A
:102E100070BD1B0C1B0492B21343F1E701229B69A6
:102E200001A9F3E7802000202DE9F04F99B00F466B
:102E300009920A69416C0E931439D31DB3FBF1F367
:102E4000013302EBC302036B04469342C0F0B3812B
:102E50000023DFF824940D93E36A4846194607934C
:102E600001F0D6F8D7E9033604930E9B022B4ED11E
:102E7000CC2E40F08A81099B002B42D03946204657
:102E800029F044FE656C079A6B1E13401490ED1AEE
:102E9000E36B01225B6916A97868984716A82AF0A7
:102EA00002F800280CBF04230823782E06933DD98E
:102EB000012300254FF0080A05933B6805990E98F9
:102EC000C9F80030C9F810602AF00FF84FEA9A03E9
:102ED00010930023DDF81CB089F814000B930F93B6
:102EE00008930C93616C4A1E0BEA02028B1A002EA7
:102EF00038D05544AB4240D8236B5B1A134423634C
:102F0000ABE0049B1B68149308230693D0E7656C21
:102F1000079A6B1E1340782EA5EB030516D8FB7D90
:102F20007BB9099B002BB3D104230693331DAB421D
:102F300010D9A6B1082DBBD804250023AA460593B5
:102F4000BBE7099B002BA3D10823EEE7099B002BCD
:102F50009ED1D9E7002505954FF0040AADE7042579
:102F60000596F9E75345C7D3B0460BEB0A03039325
:102F7000089B002B18BF032313E0A3EB0A039E4218
:102F8000B0460BEB0A0228BF98469E420392EFD947
:102F90000123D9F8102089F81730964271D1C9F869
:102FA00004B0089399F81730002B6CD099F81820CA
:102FB0000899D31C09EBC3030132C3F804B0A3F88A
:102FC0000880997289F81820B8F1000F14D00E9B70
:102FD000022B5BD10B9B7BB90F9B4344032B0BD97B
:102FE000E36B01229B69039814A9984705460028C2
:102FF00040F0E38001230B93089B16A80193059BE7
:10300000009399F814204346396800F0B7FFE36B4A
:1030100058469B69109A16A99847051E0D9B18BF24
:103020005B4652460D9359464346204629F06CFCB8
:10303000236B08F10302A3EB0A0322F003029B1A9D
:10304000C9F808002363002D40F0B7800F9BDDF81E
:103050000CB04344A6EB08060F935946204629F0CE
:1030600026FC00258346002E7FF43CAF824A396857
:10307000936804F10800E36252680E9B00F0F6FECC
:1030800084E002238DE7C9F804B09DE7099B002B7B
:1030900030D1049BB8F1030F43440A9327D9DDE9EB
:1030A0000301E36B4FEA98029B69984705460028A5
:1030B00065D118F003025FD0049B28F003052B4470
:1030C0000493039B1D444FF0FF33049915A81593F7
:1030D00033F03BFAE36B28469B69012215A9984718
:1030E00005460A9B0493002D86D0039B99E7424630
:1030F000039DE8E7039B0A9307F120031193FB7DEF
:1031000078689BB100233D7E0C9AD9B28D4211D9CB
:10311000119903F1010C31F83310914226D9069927
:1031200007EBC303D8690A44104403E00C9B069ADA
:1031300013441844E36B01225B6915A99847159B5A
:10314000012213930C9B0A9804330C93E36B13A98D
:103150009B699847039B0A9A43449B1A042B054694
:1031600007D978B9134604330A93C8E76346521A5D
:10317000CBE70A9B0393B6E70A9B04933CE70A9BC1
:103180000493B2E70A9B0393AFE77026304619B069
:10319000BDE8F08F4FF0000A4FE03A69616CD31D33
:1031A0001439B3FBF1F3013302EBC302236B9342F7
:1031B000BFF452AE5DE01C26E8E73D2D59D104F185
:1031C000080303932368079A606CA2EB030ABAFB17
:1031D000F0FA00FB0A3029F020FFE16A8046204621
:1031E00029F065FBA26A8242D7D0626CD9F8083018
:1031F000511E0B40216B2668891A0B4423630D9BDB
:10320000E0629E1BB6FBF2F6B245C3D1079BB3EB5F
:10321000080A12D0E36B4FEA9A0241469B6998472D
:103220008346E36A079A5344E362236B03989B1A2D
:103230004344236329F049FDDA462368616CE06B5F
:1032400001FB063129F05EFE204629F073FA204684
:1032500029F070FB2063BAF1000F9ED03A69616CCF
:10326000D31D1439B3FBF1F3013302EBC3029042D7
:10327000A8D22E468AE700BF28200020032A2DE985
:10328000F34106460D4617461C4606D1237A012B0C
:1032900023D0012002B0BDE8F081DFF8608009682A
:1032A00042460DF10703FFF7DBFA60600028EDD11D
:1032B0009DF80720237A032AE8D0D8F804106A681A
:1032C0009142E3D1012B2969D4F80CC007D172696E
:1032D0000CEB0103934202D92074207CDAE7083119
:1032E0006144E1603B46012229463046FFF79CFDE0
:1032F00060600028CAD00020CCE700BF5420002026
:103300002DE9F341089C032A1746266806D1237A43
:10331000012B24D0012002B0BDE8F081DFF89080BD
:10332000304642460DF10703FFF79AFA6060002825
:10333000EDD12568D8F80400A96AD5F844C0484002
:10334000CCF100031840227AE1D1012A09D1E268C8
:10335000D8F8103013447269934202D92074207C4B
:10336000D9E72868EB6A1B1A081AB3FBFCF3B0FB19
:10337000FCF083420BD1706CF36A421E1340326B37
:10338000121A13442846336329F091FAE862D8F8F8
:103390001020E36808321344E36001223B460449ED
:1033A0002068FFF741FD60600028B0D00020B2E740
:1033B000542000202DE9F04F4FF0FF334FF6FF72FD
:1033C0000025044600F10806C0E909238BB0C3625A
:1033D0000562056330460F4629F077FC204629F048
:1033E000A9F920BB2046394629F024FA204629F0C5
:1033F000A1F920BB5E200BB0BDE8F08FE26B236823
:10340000606CD2F814C000FB0530052205A9E04726
:1034100005A829F0D2FD012828D12946204629F007
:10342000DAF9421C2946204629F0A3F90135E3695F
:103430009D42E3D3204629F07DF90028D2D0002513
:103440004FF0FF394FF6FF73CA46A846C4E9085348
:10345000E369984514D3A5EB0905012D36D84FF63D
:10346000FF72636A934246D16720C4E729F0CFFD1B
:103470000028DBD02946204629F0ADF90246D1E7E5
:103480002368E26B606C576900FB0830052205A9D0
:10349000B84705A829F091FD834605A829F064FDE9
:1034A0000746584629F0AEFD68B1574538BFC4F805
:1034B0002480B94528BFB946BD4238BF3D46BA460B
:1034C000236A0133236208F10108C1E74FF6FF7355
:1034D00000256362E3699D42C1D2676C2068E36B9B
:1034E000052207FB05005B6905A9984705A829F097
:1034F0003BFD0135EEE7E26B676C2068694607FB30
:10350000030055690522A847684629F02DFD626A27
:103510002368606C504D00FB023029F07EFD4FF0B7
:10352000FF33A062E3622A466FF00101204605AB3B
:10353000FFF796F900284FD1AD6829462046E5628D
:1035400029F0D4F8206320B92046E16A29F0AFF9C8
:10355000E0622946204629F0AAF90546A36A9D4261
:103560003CD16569626CE91C143AB1FBF2F14FF091
:10357000000805EBC1050335B5FBF2F5C146023580
:10358000E36999453CD3A8455AD22046616A29F09F
:1035900001F90027064604F1400AB84512D8626CCA
:1035A0002368694602FB0639E36B05225B694846DE
:1035B0009847684629F0D8FC534602464946E06BD6
:1035C00029F02DFD3146204629F0E4F80137AF42BD
:1035D0000646E2D364200EE7A56AAEE729462046F8
:1035E00029F084F8236B29460344074623632046C9
:1035F00029F05DF90546002FB0D1C4E90B07ADE70E
:10360000636C2768052203FB0977E36B05A95B69F7
:103610003846984705A829F0D0FC29F0F3FC60B1A2
:10362000384629F0FAFC0146204629F05FF8636C21
:10363000143B984208BF08F1010809F101099FE70E
:10364000304629F042FB002320461946034AFFF783
:10365000B1F90020CFE600BF542000209BC902082A
:103660002DE9F0410025634B0E46D3F80080044657
:103670001D6018B921252846BDE8F08190F8347006
:1036800007B30A6803689A4240F0AA804A68436810
:103690009A4240F0A5808A6883689A4240F0A080F0
:1036A000CA68C3689A4240F09B800A6943699A429B
:1036B00040F096808A69C36B9A4240F091804B69D2
:1036C0008361D8E768223946856B32F01AFFD6E964
:1036D0000212336804F1080023607368A563636015
:1036E000336963617369A36129F001FBB36904F174
:1036F0004000E3639B68984720B9676C17B1636823
:10370000B3FBF7F794F84330E761002BB2D0002306
:10371000656C2366002D6BD0002F69D02368B3FB46
:10372000F5F205FB1233002B5CD16768B7FBF5F6A9
:1037300005FB1676002E55D1204628F0C7FFA36959
:10374000043303449F424FD340F634726369CC3B49
:1037500093424BD8B5F5805F4AD30321204628F029
:10376000DEFFD4E90001E36B1B6898470546E36B75
:103770000220DB6898472DB184F83460E06B29F0B3
:1037800067F978E741462046FFF714FE64280546AE
:1037900004D141462046FFF70DFE0546636C143BFD
:1037A000D5B9226A204602FB03F628F08FFFA369F1
:1037B000043303449E4203D284F834505A25DDE793
:1037C0000123D4E900010C4A84F834301368013332
:1037D000136029F026FBD1E7002384F83430CDE7CD
:1037E0005D2548E7592546E75A2544E75F2542E726
:1037F0005B2540E7B8190020B41900202DE9FF41EE
:103800000C4616461F46054680B390F834307BB30D
:10381000B1F5801F2ED2DFF86080012128F07FFFF4
:103820002146424628460DF10F03FFF719F80446DA
:1038300070B99DF80F30012B11D1D8F81030BB4270
:1038400012D10246009031462846FFF7CFF90446D0
:10385000E86B29F0FDF8204604B0BDE8F081022BAA
:1038600014BF2D246024F3E76324F1E72124F2E759
:103870001124F0E72924EEE7802000202DE9F04311
:1038800085B00C4617461E460546DDF8308098B3D5
:1038900090F8343093B3B1F5801F31D2DFF86490E3
:1038A000012128F03CFF21464A4628460DF10F032E
:1038B000FEF7D6FF044688B99DF80F30012B14D1CE
:1038C000D9F8102006EB08039A4213D30090434620
:1038D000324639462846FFF789F90446E86B29F055
:1038E000B7F8204605B0BDE8F083022B14BF2D24A5
:1038F0006024F3E76324F1E72124F2E71124F0E7E1
:103900002924EEE78020002073B50C4616460546B4
:1039100030B390F834302BB3B1F5801F24D201219D
:1039200028F0FDFE21462846104A0DF10703FEF758
:1039300097FF044680B99DF80730032B0CD0022B6B
:103940000CD12846094929F0E1F83060E86B29F0EC
:103950007FF8204602B070BD2D24F7E76124F5E71B
:103960002124F6E71124F4E72924F2E7802000203F
:103970002DE9F3411F4600230C46164605463B60E1
:1039800050B390F834304BB3B1F5801F28D2DFF834
:103990005480012128F0C3FE2146424628460DF1FD
:1039A0000703FEF75DFF0446A0B99DF80730032B1F
:1039B00010D0022B0AD10123336004233B60E86B53
:1039C00029F046F8204602B0BDE8F081D8F8103062
:1039D0003060F3E72D24F2E72124F3E71124F1E727
:1039E0002924EFE78020002073B50446056B28F0FA
:1039F0006DFE636E03449D428CBF0023012385420C
:103A000094BF00252D1A207C84F85030656584F819
:103A10005800A8B100230C4E1A46194620460096BD
:103A200029F041F9002305461A461946204600961A
:103A300029F042F9E3682844984294BF0020C01A54
:103A4000E06502B070BD00BFFFFF0F002DE9F34736
:103A50001E4643690446B342884617469DF828909F
:103A60004ED300258DF80750204628F02FFED4F8BD
:103A700030A082450AD2236AB5EB430F06D200225A
:103A800020460DF10701FEF7D1FFB8B39DF80730CE
:103A9000012B05D1002220460DF10701FEF7C6FFDC
:103AA000B9F1030F06D03146204628F0FAFD256B08
:103AB000854227D3144D4FF0FF31284600F0A8FA75
:103AC0004B46294600222046C5E90376C5F800800A
:103AD000FFF7AAF9236E054663B12046FFF784FF7E
:103AE00094F8503013B994F858301BB1236E04F198
:103AF00050009847284602B0BDE8F0870135B3E78B
:103B00006225F7E71C25F5E7542000202DE9FF4149
:103B10000F4690461E46054698B390F8343093B34E
:103B2000B1F5801F31D21A4C022128F0F8FD22464F
:103B3000394628460DF10F03FEF792FE024678B192
:103B4000012342460093394633462846FFF77EFF5D
:103B50000446E86B28F07CFF204604B0BDE8F08105
:103B60009DF80F30012BEBD12169B142E8D10093D0
:103B7000414633462846FFF739F804460028DFD18E
:103B8000E7E72124E8E71124E6E72924E4E700BF7A
:103B9000802000202DE9F04790F8426086B0012E89
:103BA00005460391A1EB020715D1B7F5807F28BF29
:103BB00003264FF0640800244FF6FF79DFF840A198
:103BC00095F84230012B14BF322364239C420AD360
:103BD0005FFA88F415E0B7F5803F34BF012602266E
:103BE0004FF03208E7E705AB22465146284628F059
:103BF0006BFF95F84230012B059B34D14B452DD1FD
:103C0000E4B295F84230012B0CBF64223222121B21
:103C1000B24217D3012E39D10022012B05978DF81E
:103C2000132027D1082205A90DF1130029F011FA5C
:103C30009DF81330059A42EA032221462846FFF7F1
:103C4000C3F840B102232E4900932846CC230968CB
:103C500003AAFFF7FBFE06B0BDE8F087DBB203B9AD
:103C600002340134ACE7591CCAD09BB2002BF8D106
:103C70000134F6E7102205A90DF1130029F0E9F946
:103C80009DF81330059A42EA0342D6E7039A012BC6
:103C9000059223D10823202205A90DF113008DF8E8
:103CA000133029F0D6F99DF8132012022146284638
:103CB000FFF78AF895F84230611C012BC9B21AD17E
:103CC0000028BFD12846BDF81420FFF77DF8002852
:103CD000B8D10234BDF81620E1B2AFE7102320229C
:103CE00005A90DF113008DF8133029F0B2F99DF8F4
:103CF00013201204DAE70028A4D1059A9EE700BF3A
:103D00008020002070B586B00E4605460392A0B311
:103D100090F834309BB3B1F5801F32D2022128F0E5
:103D2000FEFC31462846184A0DF11703FEF798FDB0
:103D3000044618B99DF81730032B0ED102233146E3
:103D400000932846CC2303AAFFF780FE0446E86BC5
:103D500028F07EFE204606B070BD022B0BD10A492A
:103D6000284628F0D3FE039902468142EFD0284628
:103D7000FFF710FFEAE76124E9E72124EAE71124CD
:103D8000E8E72924E6E700BF80200020F7B50C46CD
:103D90001646054668B390F8343063B3B1F5801F1A
:103DA0002BD2022128F0BBFC21462846144A0DF1F3
:103DB0000703FEF755FDC0B99DF80730032B14D05B
:103DC000022B14D10E49284628F0A0FE471C0246BB
:103DD00039462846FFF7DEFE044606B13760E86B39
:103DE00028F036FE204603B0F0BD2D24F7E761240D
:103DF000F5E72124F6E71124F4E72924F2E700BFD0
:103E00008020002030B50C46054685B028B390F8D8
:103E1000343023B3B1F5801F23D2022128F07FFC78
:103E20000DF10F03214628460F4AFEF719FD034600
:103E300088B99DF80F20032A0DD003222146009255
:103E400002462846FFF702FE0446E86B28F000FE13
:103E5000204605B030BD2D24F7E72124F8E71124D2
:103E6000F6E72924F4E700BF802000202DE9F04385
:103E7000466886B3056898464FF0000CA946AE46E2
:103E800055F83C400CF1010CC4F31307013401D088
:103E9000B94217D066450EF1080EF1D12F46002425
:103EA00003E0A64207F1080712D055F83430013478
:103EB0000133F6D1C1F3130141EA0851C7E90012F9
:103EC000BDE8F08341EA0851CEE90012BDE8F08375
:103ED000B8F1030F03D101230372BDE8F08300237F
:103EE00003E09E4209F10809F5D055F8334001334B
:103EF000C4F30754032CF4D1C1F3130343EA08536A
:103F0000C9E90032BDE8F0832DE9F041064640687A
:103F100082B0C0B10F4690460024336853F8345045
:103F200003EBC403C5F30752C5F31301013504F1D4
:103F3000010406D05B683046CDF80080B84710B168
:103F400070688442E9D302B0BDE8F081024B196881
:103F5000024B1868FFF784BB144700203447002049
:103F600008B534F016FC014B186008BDAC200020E9
:103F7000014B186834F008BCAC20002073B504462F
:103F80002248012A00EAC1119DF8185023F07C4014
:103F900007D9961E012E28D9073303F07F03194352
:103FA00008E09DF81C300A43DB0603F0C0531343BE
:103FB00043F060410023C4E900108DF80730B5B12B
:103FC000202221460DF1070029F043F81A220DF1B5
:103FD0000700211D29F03DF8082063689DF807209F
:103FE00043EA8263636002B070BD1143E2E71B22C3
:103FF0000DF10700214629F02CF823689DF80720D1
:10400000042043EAC2632360EDE700BF80FFFF079F
:1040100038B5094B0D461A680021044632F071FA92
:1040200000234FF0FF322383C4E900252361A260FF
:10403000E382A37638BD00BF9C0104080138C0B2FA
:1040400005289ABF014B185C01207047A1010408A4
:104050002DE9F0410746154600240E46596888B000
:10406000490A012922464FEA510104F10104F8D816
:10407000DC78997824031B88C90201F4006104F4F8
:1040800080540C43C3F30A035203234492B24FF00B
:1040900000089C18274B6FEA0444039325F07843EB
:1040A000ED4302A90DF107001B2202938DF8078052
:1040B00028F0CFFF9DF80720029B02A943EAC263C4
:1040C0000DF107001B2225F07845049302958DF829
:1040D000078028F0BEFF9DF80720029B6FEA14447A
:1040E00043EAC26305934FF0FF330794069307A991
:1040F000BB69012206F110009847BB6905A9044677
:10410000012206F108009847BB69404518BF0446E4
:1041100004A90122301D98470122404518BF0446DA
:10412000BB69304603A99847404508BF204608B000
:10413000BDE8F08101009AB2044BD3F88420D20686
:10414000FBD4D3F88400C0F38110704700400050C6
:1041500038B5174B0546D3F828310C4603F0070352
:10416000013B052B20D8DFE803F003131B0F0B17CF
:1041700032F006FA052305B1286004B1236038BD8A
:1041800032F0FEF90623F6E732F044FA0723F2E7AD
:1041900032F036FA0323EEE732F032FA0423EAE78C
:1041A00032F02AFA0223E6E700231846E3E700BFCD
:1041B00000800050002337B50193164B0546D3F815
:1041C00020320C4603F00703042B21D8DFE803F06C
:1041D000030B11161B0001230DB1019A2A6004B1D3
:1041E000236003B030BD002101A8FFF7B1FF122307
:1041F000F2E732F00FFA07230190EDE734F0BEFA50
:104200000A230190E8E732F04DFA09230190E3E731
:104210000023E1E70080005038B5104B0546D3F885
:1042200080300C4603F00303022B0BD0032B0DD080
:10423000012B0FD132F0AAF90E2305B1286004B189
:10424000236038BD32F0E6F90723F6E732F098F93B
:104250000623F2E700231846EFE700BF0080005076
:1042600038B5104B0546D3F800310C4603F0030374
:10427000022B0BD0032B0DD0012B0FD132F0C0F944
:10428000032305B1286004B1236038BD32F00AFA77
:104290000923F6E732F0BAF90823F2E701230020F8
:1042A000EFE700BF0080005038B5184B0546D3F843
:1042B00020010C4600F00700062823D8DFE800F0B4
:1042C000040A0E16121A1E00012305B1286004B15B
:1042D000236038BD32F054F90523F6E732F090F947
:1042E0000323F2E732F096F90723EEE732F084F980
:1042F0000223EAE732F044F90623E6E732F080F9D8
:104300000423E2E700231846DFE700BF00800050E7
:1043100038B5104B0546D3F840310C4603F0030383
:10432000022B0BD0032B0DD0012B0FD134F026FA2A
:104330000A2305B1286004B1236038BD32F0B2F918
:104340000923F6E734F01DFA0C23F2E701230020DD
:10435000EFE700BF00800050002337B50193164BF4
:104360000546D3F860320C4603F00703013B032BEC
:104370001FD8DFE803F0020E1914002101A8FFF78F
:1043800093FF10230DB1019A2A6004B1236003B09A
:1043900030BD002101A8FFF7BBFF1123F2E732F087
:1043A00039F907230190EDE732F026F90223019055
:1043B000E8E70023E6E700BF00800050002337B5A0
:1043C0000193164B0546D3F894320C4603F00703CD
:1043D000013B032B1FD8DFE803F0020E1914002164
:1043E00001A8FFF761FF10230DB1019A2A6004B103
:1043F000236003B030BD002101A8FFF789FF11231E
:10440000F2E732F007F907230190EDE732F0F4F814
:1044100002230190E8E70023E6E700BF0080005098
:1044200038B5104B0546D3F860310C4603F0030352
:10443000022B0BD0032B0DD0012B0FD134F09EF9A2
:104440000A2305B1286004B1236038BD32F02AF98F
:104450000923F6E734F095F90C23F2E70123002055
:10446000EFE700BF008000502E4B98424AD022D880
:104470002D4B984240D014D82C4B984239D00AD8B2
:104480002B4B984232D02B4B98422FD02A4B98423C
:104490002CD000207047294B9842FAD1284B186F36
:1044A0007047284B98422AD0274B9842F1D1244B91
:1044B000D3F880007047254B98422BD009D8244B65
:1044C000984223D0234B9842E3D11D4BD3F88C0064
:1044D0007047214B984221D003F5740303F5105324
:1044E0009842D6D1164BD3F898007047144B986D6C
:1044F0007047134B586E7047114B586F7047104BF5
:10450000986F70470E4BD3F8840070470C4BD3F86C
:10451000880070470A4BD3F890007047084BD3F8D7
:10452000940070470048E8010024F400C0CF6A00FE
:1045300080841E0000093D0040420F00405DC6001F
:104540000080E00FC0EA210180BA8C01007E560392
:1045500080D54302006CDC020090D00373B50D4699
:104560000021114B0191D3F88041064604F0030469
:10457000022C13D0032C0CD0012C13D101A8FFF76F
:1045800093FE10240EB1019B336005B12C6002B084
:1045900070BD32F03FF807240190F3E732F02CF8B9
:1045A0000190EFE70C46EDE70080005038B5104B66
:1045B0000546D3F840320C4603F00303022B0BD020
:1045C000032B0DD0012B0FD134F0D8F80A2305B1FD
:1045D000286004B1236038BD32F064F80923F6E79F
:1045E00034F0CFF80C23F2E701230020EFE700BFFF
:1045F0000080005038B5144B0546D3F800020C4635
:1046000000F0070004281BD8DFE800F003090D11B3
:104610001500012305B1286004B1236038BD34F0D2
:10462000ADF80A23F6E732F03DF80923F2E734F05B
:10463000A8F80C23EEE731F0C9FF0F23800AE9E761
:1046400000231846E6E700BF0080005038B5144B41
:104650000546D3F808020C4600F0070004281BD8D2
:10466000DFE800F003090D111500012305B12860F2
:1046700004B1236038BD34F081F80A23F6E732F044
:1046800011F80923F2E734F07CF80C23EEE731F05F
:104690009DFF0F23800AE9E700231846E6E700BFE5
:1046A00000800050B0F5207F1FD009D8B0F5007F02
:1046B00015D003D868B1B0F5C07F0AD000200CE057
:1046C000B0F5607FFAD10B4BD3F88000C0F3011036
:1046D00003E0084B186FC0F3033001307047054BFF
:1046E000D3F89000C0F30460F7E7024B186FC0F3F3
:1046F0008020F2E70080005002464FF48030104BDB
:1047000010B598660020FFF7CDFF504341F6713297
:104710000C4BDC69DA635A6804F4803422F44012EA
:1047200059B90949884294BF00200120000502437D
:104730005A600CB10022DA6310BD0449F2E700BFF1
:104740000090005000000350005A6202002D310119
:10475000430905D0012B0CD0022B084B18BF0023B6
:1047600000F01F0039B103F58053012282401A6026
:104770007047034BF4E703F50053F6E768800050F9
:10478000648000501FB50021B0F5807F0446CDE95C
:10479000001100F0D2803AD85E2833D85E2833D892
:1047A000DFE800F0453232323232323232323232E7
:1047B00032323232323232323232323232323232D9
:1047C0003232323245AC45ACBCBCBCBCBCACC64ED3
:1047D0006BDC4EACACAC3232323232323232ACAC58
:1047E000AC7EE6AC323232323232323232323232B5
:1047F00032BC454545E14E4EEB8D63C1323232321B
:10480000329E4500802870D0009804B010BDB0F5ED
:10481000D06F00F0A38035D8B0F5607F79D01AD87A
:10482000B0F5007F65D005D8B0F5C07FECD131F090
:10483000CDFE5CE0B0F5207F60D0B0F5407FE3D1E5
:1048400031F0C4FE02464FF42070FFF72BFFB2FB9D
:10485000F0F252085BE0B0F5B06F69D00AD8B0F55D
:10486000806F5BD0B0F5A06FCED100216846FFF716
:10487000A1FCC9E7B0F5C06FC6D100216846FFF7BB
:1048800047FDC1E7B0F5106F6DD00ED8B0F5086FD9
:1048900078D0B9D8B0F5E06F6AD0B0F5F06FB3D189
:1048A00000216846FFF7BCFDAEE7B0F5406F3AD097
:1048B00013D8B0F5206F60D0B0F5286FA4D10021D7
:1048C000324B0391D3F8703203F00303012B02D172
:1048D00003A8FFF71DFD039B39E0B0F5486F93D1A6
:1048E00000216846FFF76AFD8EE731F04FFE009029
:1048F0008AE731F04BFE0246204604E031F066FEC6
:1049000002464FF42070FFF7CDFEB2FBF0F20092AA
:104910007AE701A8FFF780FC019AEDE700216846DD
:10492000FFF7C2FC70E700216846FFF711FC6BE758
:1049300000216846FFF712FE66E74FF0E023029180
:104940001B695B0705D531F041FE0290029B009385
:104950005AE703A902A8FFF7DBFCF7E70021684646
:10496000FFF748FE50E700216846FFF76FFE4BE770
:1049700000216846FFF71AFE46E700216846FFF768
:10498000EBFC41E76846FFF76BFC3DE70080005019
:1049900008B58020FFF7F6FE034B98429EBF4FF408
:1049A0008032024B1A6708BD005A620200A0005014
:1049B0001FB503460020B3F5807F019000F0C5804D
:1049C00065D85D2B56D84C2B07D82D2B48D8232BD8
:1049D0002CD8019805B05DF804FB4D3B102BF8D89E
:1049E00001A252F823F000BF414B0008D349000850
:1049F000D3490008D3490008EF4A0008D34900080A
:104A0000D34900089B4B00080D4B0008B34A00082F
:104A1000914B0008D3490008D3490008D349000846
:104A2000D3490008D3490008A54B0008243B092BB3
:104A3000CFD801A252F823F0414B0008414B0008A7
:104A4000414B0008414B0008414B0008D349000886
:104A5000374B0008D3490008CF4A0008774B0008BD
:104A60003D2B00F083803E2BB3D1002001A9FFF73E
:104A70009DFDAEE7802BACD1504B1B6F03F00703BD
:104A8000013B032BA5D8DFE803F0544D5052B3F59A
:104A9000F06F6BD020D8B3F5B06F4CD00ED8B3F513
:104AA000607F71D095D3B3F5806F49D0B3F5A06F17
:104AB0008FD1002001A9FFF77DFB8AE7B3F5D06F06
:104AC00059D0B3F5E06FD0D0B3F5C06F81D10020DD
:104AD00001A9FFF71DFC7CE7B3F5206F5DD00BD873
:104AE000B3F5086F4CD0B3F5106F7FF472AF0020B0
:104AF00001A9FFF7ABFD6CE7B3F5406F48D0B3F504
:104B0000486F4FD0B3F5286F7FF463AF2B4BD3F8CA
:104B1000703203F00303012B49D0022B0CBF152385
:104B2000002300E00523019353E70323FBE7082359
:104B3000F9E70223F7E7002001A9FFF70FFD48E797
:104B4000002001A9FFF7B0FB43E74FF0E0230290FC
:104B50001B695B0705D531F039FD0D230393039BDA
:104B6000E1E703A902A8FFF7D3FBF8E7002001A9BA
:104B7000FFF756FC2DE7002001A9FFF73BFD28E7D2
:104B800001A9FFF76DFB24E701A9FFF745FB20E72B
:104B9000002001A9FFF7DCFA1BE7002001A9FFF7BD
:104BA000DBFB16E7002001A9FFF708FC11E7002155
:104BB00003A8FFF7ADFB1123B5E700BF008000504D
:104BC0004FF48032074B0849586E03F580535A66FC
:104BD0004B6A23F001034B62C3035CBF034B5A666D
:104BE000704700BF0080005000C0075000A0005078
:104BF00038B504468020FFF7DBFE032800F08380F1
:104C00004FF48012524B4FF0A0615A6645F60E02E7
:104C1000504BC3F88020504A91624FF4803102F526
:104C2000805291629A6DD203FCD4996D11F080414B
:104C3000FBD1D4E90002120542EA0062E07B0243A4
:104C4000207B42EA0042607B42EA0032A07B42EADB
:104C500080121A619869D4E90452120642EA856208
:104C600000F000400243A07EE57E0243207E42EA3F
:104C70000042607E42EA00229A611A6AE06922F0EC
:104C80000F0242EA8502354D00283DD11A6294F8A0
:104C90002420996A94F82000D200294042EA401268
:104CA0000A4394F8211042EA011242F480329A62D7
:104CB0002B49284A936D31EA0303FBD14FF08071F1
:104CC000254881621369A56823F4700343EA0553FC
:104CD00013614FF00043836194F822300BB9214BEC
:104CE000996294F823303BB94FF480321D4B9A629D
:104CF000184A936D5B00FCD494F825301BB1154B1A
:104D0000194AC3F8802038BD024342F00802022845
:104D10001A6208D119614FF40852996113484FF48F
:104D20007F4128F0B4F90B4994F822308A6A94F84C
:104D300020001B062A4043EA4013134394F8242022
:104D400043EAC20394F8232043EA02438B62D3E789
:104D5000009000500040005A0050005AC7FFFEFE6D
:104D6000030001000060005AF1A7FFFF3440005A21
:104D7000014B93F900007047F94B0020F0B5D0E9E2
:104D800001434FF400061A4A4178057856664FF4FD
:104D9000D156022702F5B8325662164E4F29776077
:104DA0004FF0010728BF4F2106F58056776016693E
:104DB000F603FCD441EA052151611B01417B43EA22
:104DC00004230B43017B43EA41039360C37B817B54
:104DD0001B0143EA4113417C0B43017C43EA41033D
:104DE0005360837C13B16FF4D1535362F0BD00BFA5
:104DF0000090005000100250014B1880704700BF17
:104E0000B24B0020014B1880704700BFB04B002010
:104E10004FF4800208B5184B5A660223174A5360B4
:104E2000936813F48033FBD1012822D131F0E8FBE1
:104E3000134B984215D003F5122303F5F8639842FB
:104E400013D0104B00EB8002400AB3FBF0F3520A80
:104E50000A49CA620B6301234B620022074B5A6066
:104E600008BD45F67A13084AF2E745F61A03074AE1
:104E7000EEE75362F1E700BF00900050004002509F
:104E800000F0490264666666D8B80500BBCF05002D
:104E9000B0F5207F10B50C465DD008D8B0F5007F86
:104EA0004ED003D8C0B1B0F5C07F15D010BDB0F55D
:104EB000607FFBD12C4B4C1ED3F8FC202B4912F009
:104EC000807F4FEA041427D1D1F8803023F03003DB
:104ED0002343C1F88030E9E728F0E8F828F0F4F837
:104EE0004FF48031224B214A1967136F013C23F4A0
:104EF000704343EA0433136731F068FB0446FFF75D
:104F00001BF9C0F10201204628F0D8F800F04AF859
:104F1000BDE81040FFF73CBDD3F8FC2022F08072C2
:104F2000C3F8FC20D1F8802022F030022243C1F8DF
:104F30008020D3F8FC2042F08072C3F8FC20B5E753
:104F40000A4A4C1ED2F8903023F0F85343EA046327
:104F5000C2F89030AAE7054A4C1E136F23F4806311
:104F600043EA84231367A1E700ED00E000800050CE
:104F70000090005008B50121022000F073F94FF4B1
:104F80002070FFF78FFB054B187028F08FF828F082
:104F90009BF84FF48032024B1A6708BD1D3B00207E
:104FA0000090005008B54FF4C070FFF7EBFBBDE870
:104FB00008400449884294BF012102214FF4207027
:104FC000FFF766BF80F0FA0238B5044631F0FEFA0A
:104FD0000546FFF7B1F8C0F10201284628F06EF847
:104FE0000121002000F07EF92CB1FFF7DBFFBDE8C6
:104FF0003840FFF7CDBC034B4FF420701978FFF712
:1050000047FFF4E71D3B00204FF4C02270B5054672
:10501000FFF72AFA314B04465A6603F598335A686B
:10502000012A04D12E494A605A689207FCD4802094
:10503000FFF7BEFC052807D128F038F828F044F81F
:105040004FF48032254B1A67264B24F040749D4262
:1050500030D0254B9D4230D031F092FA8542064641
:1050600003D90121284600F03DF9204BDA6812F0FF
:10507000060FFBD199689C609A68624012F4F81F91
:105080001ED12846FCF7E8FD8020FFF791FC05289B
:105090000DD131F09BFA0446FFF74EF8C0F1020142
:1050A000204628F00BF8FFF77DFFFFF771FCAE42BA
:1050B0000CD270BD44F00074CEE744F08074CBE7AE
:1050C00080209960FFF774FC052805D0BDE870408A
:1050D0000121002000F006B93546DAE700900050C3
:1050E00000E0015040420F0080841E00000001508B
:1050F000304B314A984251D020D8A3F5B703A3F5DD
:105100005863984246D00DD82C4B984231D02C4B46
:10511000984239D02B4B4FF4002198421DD00023E8
:10512000516622E0284B4FF400219842F7D1274BDB
:10513000D3F8BC30516623F0407316E0244B9842FC
:1051400030D0244B984231D0234B4FF40021984269
:10515000E5D11E4BD3F8C830ECE71C4BD3F8A03098
:10516000516623F0407343F000734FF0B4429360F4
:1051700070474FF40021154BD3F8A030516623F04F
:10518000407343F08073F0E7104BD3F8A0304FF436
:105190000021CFE70D4BD3F8B830F8E70B4BD3F82D
:1051A000C030F4E7094BD3F8CC30F0E7074BD3F825
:1051B000D030ECE7C0EA21010090005080841E004E
:1051C00000093D0040420F000024F4000080E00F81
:1051D0000048E801005A620280BA8C01024A536B0F
:1051E0000342FCD1704700BF00400950044A417897
:1051F000536F23F4407343EA01235367704700BFA2
:10520000004000500E4A10B51369044643F00403F1
:10521000136131F0BDFE27F05CFF0A4B5B6E5B0152
:1052200042BF094B094AC3F8202430BF27F052FF80
:1052300004F04AFB1CB9BDE8104031F0C7B910BDFD
:1052400000ED00E00080005000E003500000FF0F80
:10525000034A0179D36E23F030030B43D3667047C2
:1052600000400050F8B504461C4BD3F88420D1060A
:10527000FBD4D3F88430C3F381139C422CD031F09B
:1052800085F9012C064602D1214627F017FF33F09D
:1052900080FA4FF00072124B07465A66204627F0FC
:1052A0001CFF4FF480630D4D621E93402B676B6EA5
:1052B0009A0103D4D5F884309B060AD5384633F0DA
:1052C00063FA022C08D13046BDE8F840002127F0EF
:1052D000F5BED5F88430EAE7F8BD00BF00400050C5
:1052E0000060005010B50C4608B931F04FF9074B7B
:1052F00021461B783BB1064B984204D80120BDE8FB
:105300001040FFF7AFBF0220F9E700BF1E3B0020AF
:10531000005A62020278034B012100201A70FFF745
:10532000E1BF00BF1E3B00204FF0004238B5244BC8
:10533000244C5A664AF6CD33656C014605F00105EA
:10534000236428BB0120FFF749FF6368DB0715D5FD
:105350001D4B586008461D4B226BD2070CD4984257
:1053600008D1072415B1174B194A1A642DF0FCFE19
:10537000204638BD0130EFE79842F2D00024F1E733
:105380000132236B13F0080305D08A42F8D1E8E715
:1053900000220E49F5E78A42E3D020210A4A9162B1
:1053A0000121A2F5805251600649084A886A8006A8
:1053B00003D49342D5D00133F8E79342DDE700BF31
:1053C00000900050004009500060095040420F001A
:1053D0003254FFFF4FF00042104B70B55D6E03F585
:1053E00080535A664AF6CD3304460D4980204E6CF0
:1053F0000B64FFF7F3FE0B6A23F4F85343EA04232C
:105400000B62F30744BF074B0B64002DA2BF4FF0A4
:105410000042054B5A662DF0A7FE70BD008000507B
:10542000004009503254FFFF00A0005010B527F093
:105430005FFE042300F5805100F500520B611361FB
:105440000B6113610B6113610B611361202341F246
:10545000020103610023C360836041614FF4A02116
:105460008361836541620549C36103628362C362EC
:1054700043630365D164036310BD00BFFF3F0D03A9
:1054800070B505461446084641B9354B9D4218D0C3
:10549000344B9D4208BF5720FFF774F9AB6813F0F7
:1054A000010F6B6830D0B0FBF4F4D80704F1FF347F
:1054B0004FEA046407D42B6923F07F4323432B6115
:1054C00070BD5620E8E72821284627F00DFEAB6C7A
:1054D000990715D1AB6CDA0714D4AB6C13F0020F3B
:1054E00014BF06260026284627F002FE2B69314607
:1054F00023F07F4323432B61BDE8704027F02FBE8C
:105500000526F0E70926EEE7AB6DDB07AB6848BF81
:10551000640003F0E003402B1BD004D8DBB1202B48
:10552000CED1082304E0602B17D0802BC8D10123F3
:1055300063434101B1FBF3F20B4B203A284603EAE7
:10554000C202012127F0D0FD2A63BDE8704027F098
:10555000CBBD0623ECE71023EAE70423E8E700BF0E
:105560000000015B00000A50F8FF7F002DE9F843BE
:105570009846436804460E4617461BB140F6FF7135
:1055800027F0B2FD2046FFF751FFF189737B626976
:105590000B43318A22F44C520B4322F00F02134387
:1055A0006361A268317E337B22F0804222F0E20206
:1055B0000B4313437269D6F808901343A360B9F103
:1055C000000F03D1A36843F00043A360F0690028F3
:1055D00074D0857A037A6D04A26845EA83556D4BD1
:1055E00013401D43838803F4C0431D43437845EAB9
:1055F0008305437B45EAC305837B45EA031583782E
:1056000045EA8325A560D0E90432E5681343624A80
:105610002A401343827943EA8223C27943EA422330
:10562000E36003785D4A012B14D1E36843F004037F
:10563000E360944200F09280594B9C420CBF0123DE
:105640004FF0FF335B0103F1A04342F2944203F5B4
:10565000703314E0032B7BD1E36843F00403E36071
:10566000944279D04E4B9C420CBF01234FF0FF3344
:1056700041F294425B0103F1A04303F5703302252C
:105680009D50437A04F5805293621BB1E36843F462
:105690000063E360C37A5BB1E36843F40043E36013
:1056A0003E4B9C425CD1037B3E4A03F00F035367A1
:1056B000636AC27B23F00303134363623FB197F82D
:1056C000203004F58050002B54D001230362B8F140
:1056D000000F27D004F5805011B14FF400438365CB
:1056E0002E4BB8F822109C4298F821304FD02C4A0B
:1056F00094420DD10122112B34BF012702272A4DDC
:10570000B1F5006FAF5494BF01270227274DAF5466
:10571000A26D0B4322F4F95222F01E021343A3653B
:10572000012383650521204627F0FCFCB9F1000F19
:1057300003D04A467168FFF7A3FE2046317827F070
:105740000EFDA36CDB4313F4405FFAD1BDE8F88390
:10575000023B012B84D96CE7002389E7002371E722
:105760000F4B9C4201BF037B0E4A03F00F03C2F8AC
:1057700080309DE7E26997F8223097F8215022F0B7
:1057800009022B43134343F00103C3619FE7002247
:10579000B1E700BFE39BBDFFFFF9F0870000015BAD
:1057A00000000A5000900350213B00201F3B0020C6
:1057B0002DE9F04105460F461E4690464AB10123A9
:1057C0003022194C8B4002FB004436B304F582545E
:1057D00023600F21072F05EB450388BFA7F10804BD
:1057E0004FEA0313114895BFBC00A40004330C33E7
:1057F00008FA04F2A140184427F0C1FCB8F1000FE8
:1058000009D101233021084ABB4001FB05223EB1EA
:1058100002F582521360BDE8F08104F50154D7E728
:1058200002F50152F6E700BF00C0035030C003503C
:1058300010B5152002F040FD0024FF22064B214642
:105840005C6520209A625C60FEF782FF2146BDE81D
:1058500010402120FEF77CBF00000450044A054B95
:10586000002908BF1346012282401A60704700BF1A
:10587000401004504020045010B50121044620205F
:10588000FEF766FF01212120FEF762FF0122114B86
:1058900015205A60227812069A606178A27842EA4E
:1058A00001429A61FF229A6200229A631A644FF0C1
:1058B00000425A654FF0FF3203F500531A6502F0BB
:1058C00029FD1520E17828F060FEBDE81040152084
:1058D00002F004BD00000450F8B50125C3B2D1F8B0
:1058E00000C08F7A0E7B0C469D40CB7A1C491B056D
:1058F0000D65810001F1A04101F58821C1F804C0C6
:105900004FF0300C0CFB00F0617B00F1A04043EA4B
:10591000074300F5802043EA465322F00302016664
:10592000C365026732F042FF0E4B227A5D6502B119
:105930001D64627A02B19D632279A37943EA02432E
:10594000074A93616179E37943EA014305498B6131
:10595000054B55639D64BDE8F84032F022BF00BF9F
:1059600000200450001004500000045010B5012421
:10597000C0B2844032F01AFF044B5A6D22EA04028E
:105980005A659C62BDE8104032F00BBF0000045025
:1059900010B50124C0B2844032F008FF074BDA6A28
:1059A000224208D15B6B9C430CBF0124002432F0DF
:1059B000F8FE204610BD0024F9E700BF00000450A7
:1059C00070B5054632F0F2FE3022084B5E6B02FBEA
:1059D00005335C6E32F0E5FE0123EDB2AB4033429D
:1059E0000ABFC4F30A100020013070BD000004504B
:1059F0004FF48032054B9A6641F6713203F51C3341
:105A0000DA63012203F50053DA607047009000501A
:105A100041F671320121064BDA6303F50052D16081
:105A20000022DA634FF48032A3F518339A66704788
:105A300000000350013831289ABF024B185C002047
:105A4000704700BFA701040838B5C2F30625044615
:105A500002F0070241B942EA052242F4402206342C
:105A6000074B43F8242038BD1146284627F096FB03
:105A700002462846FFF7DEFF163442EA0022EFE72F
:105A800000800350044B1868421C02BF034AD2F83E
:105A900094001860704700BF384700200040005055
:105AA0004FF48032064B5A6603F5E6239B69C3F335
:105AB0008512827003F03F021B0B42700370704727
:105AC00000900050014B986CD96C70470080E00F3B
:105AD0000120034B9B680A3303F01F039840704773
