:020000040800F2
:1000000000100020A9110008811F030889020008C0
:1000100089020008891F0308911F0308890200084C
:100020008902000889020008890200088902000884
:10003000951F030889020008890200088902000848
:100040008902000889020008890200088902000864
:100050008902000889020008890200088902000854
:100060008902000889020008890200080D160008AC
:10007000A115000889020008890200088902000809
:100080008902000889020008890200088902000824
:10009000890200082104000889020008890200087A
:1000A000890200086503000841030008890200086E
:1000B0008902000819770308C58103087D9F03089A
:1000C000799F030855790308939F0308819F0308CC
:1000D00095810308859F0308058203086D82030844
:1000E00089020008890200088902000889020008C4
:1000F0009562010889020008890200088902000847
:1001000089020008890200088902000889020008A3
:100110008902000889020008890200088902000893
:100120008902000889020008890200088902000883
:100130008902000889020008890200088902000873
:1001400089020008890200088902000881AD0308BD
:100150006965030889020008699F03086F9F030807
:100160008902000889020008890200088902000843
:10017000F0B5114A114C124E00F00105E3695F071A
:1001800013D40DB9334213D103EA00078F4207D1CC
:100190000B4A1A40002A0CBF00206FF00100F0BD8E
:1001A000013AEBD16FF00200F9E74FF0FF30F6E7CC
:1001B0006FF00100F3E700BF809698000000035045
:1001C000020001002DE9F84F16464FF48032274B0C
:1001D000274D9A66EB69074603EA020841F6713338
:1001E0000122EB63234BDFF89490DA600EB93046BE
:1001F00029E007F5005404EA09046F61E41BEB6988
:10020000B44228BF34465B072DD48B465BF8043BD1
:1002100001EB040AAB61D3450ED104230021212058
:100220002B61FFF7A5FF70B92120FFF7A1FF50B99F
:1002300059462744361BD9E708210846FFF798FF9F
:1002400068B104232B6101220B4BDA60B8F1000F77
:1002500003D00022A3F50053DA63BDE8F88F5BF802
:10026000043BAB61D7E74FF0FF30ECE70090005064
:1002700000000350001003500020035000E0FFFF77
:100280007047704770477047FEE7036818787047FB
:1002900010B503681A78022A1ED09A79022A19D159
:1002A00059790F2916DCEFF31184302282F311887B
:1002B00001220A488A40C0F82024C0F824240C20D7
:1002C000074A00FB01220021C2E9011184F31188D1
:1002D000BFF36F8F02221A7010BD00BF00E0035001
:1002E000001000202DE9F04104460C264FF00108D3
:1002F000124D0CB314F001000BD0002024F00104C7
:1003000006FB00525768002FF3D09168C0B2B8477F
:10031000EFE72246013020284FEA520201D0D307EE
:10032000F8D508FA00F20F2824EA0204E8D91038B8
:1003300006FB0052B432E5E7BDE8F0810010002072
:10034000074BD3F82404D3F8202403F500531040BE
:1003500000F0553020F05020C3F82004C2E700BF61
:1003600000C00350074BD3F82404D3F8202403F52E
:100370000053104000F0AA3020F0A020C3F8200461
:10038000B0E700BF00C0035010B503784078C3B198
:10039000012B03D0022B14D0032B11D13F22C240DA
:1003A000D2070DD5EFF31184302282F31188012199
:1003B0005343054A8140D15084F31188BFF36F8FB6
:1003C00010BD40F2FF32EAE740F0035001460B78DF
:1003D00030B500204C7803B3012B03D0022B1CD086
:1003E000032B15D13F22E240D20711D5EFF311853F
:1003F000302282F31188534303F1A04303F5703395
:100400001B6CE34003F0010085F31188BFF36F8F8D
:100410008B780BB980F0010030BD40F2FF32E2E78B
:100420001A4B2DE9F0411F6D5B6D1F4000D5FEE7B3
:1004300001260025164CDFF8608037421CD0C8F832
:1004400050602368C3B1A168284601316268A16089
:100450009847637B012B0FD170B90E4B03EB45130B
:1004600093F8F42160F3410283F8F42193F8042215
:1004700060F3410283F804220135082D4FEA460655
:1004800004F11004D9D1BDE8F08100BF0000045090
:1004900068110020001000200020045010B5EFF378
:1004A0001184302383F3118800220E490B7B73B92A
:1004B0000D49026001EB02120121C2F8683182F895
:1004C000741184F31188BFF36F8F184610BD013289
:1004D000082A01F11001E9D184F31188BFF36F8F6D
:1004E0000248F3E76811002000100020048000F0AB
:1004F0004369406CDA1C1438B2FBF0F203EBC20320
:10050000CA1DB2FBF0F20333B3FBF0F30132023346
:1005100001EBC20100FB0310704738B50546446982
:100520002146FFF7E5FF6A6CE31D143AB3FBF2F3D3
:10053000013304EBC304204438BD73B506460D46B1
:100540000024F36B01225B6901A928199847019BDC
:10055000013309D1736C043462196A405B421A4258
:10056000EFD0204602B070BD0024FAE7D01E009BF9
:1005700042424241187E824211D11A688A420ED804
:100580005A688A420BD35A6901325A61D3E903028D
:1005900082423FBF986840F8221001321A61012060
:1005A000704700234FF0FF3230B544689C4202D1BF
:1005B0000023037230BD016801EBC30541F833200D
:1005C0006A600133F2E70023F0B545689D4210D020
:1005D0000468DF0054F8332004EBC306B2F1FF3F98
:1005E00008D0C2F31302914204D14FF0FF33E3511C
:1005F0007360F0BD0133E9E710B5032A029C07D10F
:10060000A26A5340626C5242134201D1FFF7DBFFF2
:10061000012010BD0023F0B545689D4202D14FF086
:10062000FF300EE00468DE0054F83340671C09D048
:10063000C4F31307B94205D1240D14700368334481
:100640005868F0BD0133E8E773B5164600F10804B9
:100650000D46204609680DF10702FFF7DBFF032E68
:1006600005D16B68834202D12046FFF7ACFF012021
:1006700002B070BD2DE9F043466886B30568984620
:100680004FF0000CA946AE4655F83C400CF1010C69
:10069000C4F31307013401D0B94217D066450EF1F7
:1006A000080EF1D12F46002403E0A64207F1080707
:1006B00012D055F8343001340133F6D1C1F31301AF
:1006C00041EA0851C7E90012BDE8F08341EA085148
:1006D000CEE90012BDE8F083B8F1030F03D1012386
:1006E0000372BDE8F083002303E09E4209F108098C
:1006F000F5D055F833400133C4F30754032CF4D13B
:10070000C1F3130343EA0853C9E90032BDE8F0839B
:1007100008B508301346D1E90012FFF7ABFF0120FE
:1007200008BD4FF48032064B00209A6641F67132C4
:1007300003F51C33DA63012203F50053DA607047D6
:100740000090005037B5054601F10C04436901A93A
:10075000012220469847BDF80430012200936946E3
:100760002046AB69984703B030BD164B10B5D3F89F
:100770002831044603F00703013B052B04D8DFE8CA
:1007800003F00A161E120E1A0023184604B1206048
:1007900001B10B6010BD0C4B18680523F6E70A4B3E
:1007A00018680623F2E739F029FD0723EEE7064B28
:1007B00058680323EAE7044B58680423E6E702235A
:1007C0000248E3E7008000500C500020002D31016A
:1007D000174B10B50446D3F8200100F00700062897
:1007E0001FD8DFE800F0040A0E2112161A000123B8
:1007F00004B1206001B10B6010BD0E4B18680523D9
:10080000F6E70C4B58680323F2E739F0F7FC0723AF
:10081000EEE7084B18680623EAE7064B58680423FE
:10082000E6E700231846E3E702230348E0E700BFBA
:10083000008000500C500020002D31010E4BD3F8E9
:10084000403103F00303022B0DD0032B0FD0012BFB
:100850000BBF0A2301234FF40042002200B10260C3
:1008600001B10B60704709234FF40042F6E70C23F7
:100870004FF47A72F2E700BF008000504FF48032EC
:100880002DE9F843204B4FF001089A6641F6713389
:100890001E4D0446EF69EB631D4B0021C3F80C802D
:1008A0000223686121202B6117403BF065FEDFF8D1
:1008B0006890064640B1C9F80C8007B1E96301367B
:1008C0000CD16E20BDE8F88321203BF055FEC9F81D
:1008D0000C8007B1EE63431CF3D008B17120F1E73F
:1008E0000C4B9A6801230A3202F01F02934023F056
:1008F000030323449C4201D10020E3E754F8042B76
:100900000132F7D03E20DDE7009000500000035098
:10091000001003500080E00F002003501FB507F0C7
:10092000D1FB022819D100900DF10E030022032102
:1009300001200AF04DFEBDF80E300D4853B1FFF70F
:1009400023FD4FF47A62FF210A4818F031FF05B009
:100950005DF804FB00F0E0FEF9E709F025FF064B27
:100960000090064A0020064908F04EFCEFE700BF61
:1009700014500020E8120020A557040888C5030879
:100980008DC5030810B507F09DFB02280ED1FF218D
:10099000074818F016FF012019F095FFBDE8104038
:1009A000034601210420034A1BF01CBD10BD00BFFB
:1009B00008130020A3C503080246024900202EF0B8
:1009C00047BB00BFC6C5030808B5D0E9023253F8DB
:1009D00022100948094A0A4B097811F04DF80246DD
:1009E00028B1BDE80840002006492EF031BB064979
:1009F000BDE808402EF02CBB00F8FF076913000883
:100A0000B9090008FFC5030826C6030808B5D0E9E0
:100A1000023253F822301B78032B29D8DFE803F089
:100A200002141F23134B4FF0FF31D3F8280339F082
:100A3000E0FA021EB8BF03320F4942F387020020DA
:100A4000BDE808402EF004BB0A4BD3F8280331F070
:100A5000DDFC0A2390FBF3F2084952B2EFE7084BA2
:100A60000849DA7AEBE710F06FFA07490246E6E741
:100A700008BD00BF001000203CC603084FC6030895
:100A80000C50002061C6030877C6030838B5D0E9CA
:100A9000023253F8221003EB82035B680D781C6866
:100AA0002A462346144900202EF0D2FA032D22D8DC
:100AB000DFE805F00208111A10490020BDE83840AF
:100AC0002EF0C6BA142C04D860B2BDE838402EF01F
:100AD00023B80B49F1E7A4F10B030F2BF9D8E0B2CF
:100AE000BDE838402DF09CBF04F15503282BF0D809
:100AF000044B83F82F4338BD87C603089AC6030802
:100B0000A6C603080010002038B5202204460D4672
:100B10000C30002139F019FB4FF0FF33C4E90035E8
:100B2000A36038BD10B5044644EA010313F0030383
:100B3000084609D1934201D1002010BD54F823107A
:100B400040F823100133F5E72146920039F005FB08
:100B5000F2E744F2021307B50246ADF80430002173
:100B6000042001AB2AF00EFB03B05DF804FB44F255
:100B7000021307B50246ADF804300521042001AB8D
:100B80002AF000FB03B05DF804FB07B5074B0246F3
:100B900018681B7900908DF8043000216B46052001
:100BA0002AF0F0FA03B05DF804FB00BFAEC60308FC
:100BB00007B5094B0246998818689B790090ADF8F3
:100BC00004108DF8063044216B464FF440702AF033
:100BD000D9FA03B05DF804FBB4C6030807B5074BA8
:100BE000024618681B7900908DF8043042216B464C
:100BF00005202AF0C7FA03B05DF804FBBCC6030861
:100C0000012307B502468DF804300221032001AB11
:100C10002AF0B8FA03B05DF804FB07B5074B0246AB
:100C200018681B7900908DF8043040216B46052030
:100C30002AF0A8FA03B05DF804FB00BFAEC60308B3
:100C400007B5064B0246019341214FF4407001ABBA
:100C50002AF098FA03B05DF804FB00BF01022121DD
:100C600007B5084B024618681B7900908DF80430D0
:100C700040216B464FF440702AF084FA03B05DF8CF
:100C800004FB00BFC2C6030807B5084B024618683C
:100C90001B7900908DF8043043216B464FF440706F
:100CA0002AF070FA03B05DF804FB00BFC2C6030867
:100CB00007B5084B024618681B7900908DF8043080
:100CC00042216B464FF440702AF05CFA03B05DF8A5
:100CD00004FB00BFB6C603084FF4817307B5024694
:100CE000ADF804304121052001AB2AF04BFA03B0E6
:100CF0005DF804FB42F2012307B50246ADF804306B
:100D00000221042001AB2AF03DFA03B05DF804FB98
:100D1000022307B502468DF804300621052001ABF9
:100D20002AF030FA03B05DF804FB022307B502464F
:100D30008DF804300021032001AB2AF023FA03B020
:100D40005DF804FB02460023012103202AF01ABAB1
:100D500007B5054B024601930121082001AB2AF09B
:100D600011FA03B05DF804FB0101212107B5064B20
:100D70000246019308214FF4407001AB2AF002FAB9
:100D800003B05DF804FB00BF1212212107B5084B28
:100D9000024618689B880090ADF804304B216B46E2
:100DA0004FF440702AF0EEF903B05DF804FB00BF89
:100DB000C8C6030807B5064B0246019301214FF44C
:100DC000407001AB2AF0DEF903B05DF804FB00BF10
:100DD0000101212107B5064B0246019304214FF47E
:100DE000407001AB2AF0CEF903B05DF804FB00BF00
:100DF0000101212107B5084B024618681B790090B4
:100E00008DF8043007216B464FF440702AF0BAF990
:100E100003B05DF804FB00BFC9C6030807B5064B65
:100E2000024601930A214FF4407001AB2AF0AAF95F
:100E300003B05DF804FB00BF0202212107B5084B97
:100E4000024618681B7900908DF8043000216B462B
:100E50004FF440702AF096F903B05DF804FB00BF30
:100E6000CFC6030807B5084B024618681B790090E7
:100E70008DF8043006216B464FF440702AF082F959
:100E800003B05DF804FB00BFCFC6030807B5054BF0
:100E9000024601930021082001AB2AF073F903B048
:100EA0005DF804FB0102212140F2012307B502464F
:100EB000ADF804300421082001AB2AF063F903B037
:100EC0005DF804FB07B5064B0246019303214FF47E
:100ED000407001AB2AF056F903B05DF804FB00BF87
:100EE0000102212140F2011307B50246ADF804309A
:100EF0000521082001AB2AF045F903B05DF804FB99
:100F000000230246194606202AF03CB940F201139C
:100F100007B50246ADF804304021062001AB2AF0A7
:100F200031F903B05DF804FB0246002301210620DD
:100F30002AF028B902460023412106202AF022B9CE
:100F400007B5084B024619889B78ADF804108DF858
:100F500006304221062001AB2AF014F903B05DF8F7
:100F600004FB00BFD5C6030807B5084B0246198825
:100F70009B78ADF8041005218DF80630084601ABCA
:100F80002AF000F903B05DF804FB00BFD9C60308DE
:100F900004210246002308462AF0F4B8022307B5CC
:100FA00002468DF804300321052001AB2AF0EAF84F
:100FB00003B05DF804FB022307B502468DF8043048
:100FC0000321042001AB2AF0DDF803B05DF804FB37
:100FD0004FF4817307B50246ADF8043002210520B5
:100FE00001AB2AF0CFF803B05DF804FB0023024602
:100FF000194618462AF0C6B807B5074B02461868C6
:101000001B7900908DF8043002216B4608202AF0ED
:10101000B9F803B05DF804FBCFC6030807B5084B69
:10102000024618681B7900908DF8043009216B4640
:101030004FF440702AF0A6F803B05DF804FB00BF3F
:10104000DDC6030807B5094B0246998818689B79E5
:101050000090ADF804108DF806304C216B464FF42B
:1010600040702AF08FF803B05DF804FBE3C6030874
:1010700007B5084B024618681B7900908DF80430BC
:1010800002216B464FF440702AF07CF803B05DF803
:1010900004FB00BFEBC6030807B5084B02461868FF
:1010A0001B7900908DF8043005216B464FF4407099
:1010B0002AF068F803B05DF804FB00BFEBC6030834
:1010C00007B5084B024619889B78ADF804108DF8D7
:1010D00006300621082001AB2AF054F803B05DF871
:1010E00004FB00BFF1C6030842F2211307B5024614
:1010F000ADF804300321082001AB2AF043F803B017
:101100005DF804FB42F2211307B50246ADF8043046
:1011100047214FF4407001AB2AF034F803B05DF87A
:1011200004FB02460023072108202AF02BB84FF4C5
:10113000817307B50246ADF804300421052001ABE8
:101140002AF020F803B05DF804FB024600230221D8
:1011500006202AF017B840F2011307B50246ADF891
:1011600004304021032001AB2AF00CF803B05DF8F5
:1011700004FB022307B502468DF804300121042048
:1011800001AB29F0FFFF03B05DF804FB4FF481735E
:1011900007B50246ADF804300121052001AB29F066
:1011A000F1FF03B05DF804FB08B52A4B83F30A880E
:1011B0004FF48041284B294A9A60D3F8882042F4A2
:1011C0007002C3F88820264A91664FF0FF31254A05
:1011D0001166254951660221C3F8D010BFF34F8F25
:1011E000BFF36F8F01214FF44034A3F54063C3F880
:1011F00080110020D46014F04FF81C4B1C481C6177
:101200001C4BC01A801029F0AFFF1B4B1B498B42AF
:1012100012D300201A4B1B498B4218D311F0FAFA53
:10122000186850F82240586840F822400132986807
:101230008242F5D30C33EAE70022F8E71C6844F851
:10124000220001325C68A242F8D30833E4E70022AE
:10125000F8E700BF0000002000ED00E000000008FB
:101260000090005000A00044F7FF370000800044C9
:101270008002000870010008682B0508742B05081F
:10128000742B0508742B050813B50468A388ADF802
:1012900004302378022B15D00DF1030101A830F0A2
:1012A00083F9A2799DF80330012A13D1618843EABA
:1012B00041034FF6E07163F03F039BB28B4203D1D1
:1012C0002270638002B010BD4FF6DF729342F8D1F6
:1012D0000022F5E7002AF5D183F001032370F1E73E
:1012E00037B50D680C46AB88ADF804302B78022B6F
:1012F00011D00DF1030101A830F056F99DF803302B
:1013000083F001032B7063692BB12046984710B915
:1013100002482DF06DFB03B030BD00BF0813002064
:101320001FB501230022009306210DF10F030AF0DF
:101330004FF928B99DF80F30044823B100F0ECF9BB
:1013400005B05DF804FB00F0F9F9F9E7145000204E
:10135000034B00209A6C0349DB6C2DF079BE00BF73
:101360000080E00FF5C6030870B504461D46FFF780
:10137000EFFF2B462246BDE87040002001492DF0CA
:1013800067BE00BF05C703082DE9F0410024B4B0D3
:1013900027490020274E2DF05BFE00948023032177
:1013A000D6F8280314AA38F04CFA0746DFF89480E0
:1013B00014ADA3B29F4232D81F4900202DF048FE41
:1013C00009AA0321D6F8280338F02FFA0EAA0146FD
:1013D000D6F8280338F02FFA9DF84A30BDF84C2093
:1013E00006939DF84930154905939DF84430002037
:1013F00004930E9B03939DF8483002939DF845306B
:1014000001939DF8473000939DF946302DF020FE62
:101410000B4900202DF01CFE34B0BDE8F0814146A0
:10142000002015F8012B2DF013FE0134C1E700BF99
:1014300018C703080010002029BF040820C70308AC
:1014400092C004089AB604082DE9F04F0023914693
:1014500087B0D0F808808689057D02910193029BB0
:101460001A789DF804309A4207D80020003818BF37
:101470000120C00107B0BDE8F08F029A08EB050714
:1014800002EB430393F801A093F802B01AF0400373
:101490000AF03F0404D02B19B3426EDC234615E05A
:1014A000042C07D864B1A31E022B0BD8DFE803F08D
:1014B000172634003E2C3CD03F2C4ED03D2C4FD034
:1014C0000320D3E7AE4257D901231C4622463946B2
:1014D00009EB0B00039338F040FE039B58E0AB1C74
:1014E000B3424ADC022332462946404606F0DAFD82
:1014F0000DF112070223ADF81200E7E7EB1CB3422F
:1015000038DC032332462946404606F0CBFD04244E
:101510000323059005AFD9E72B1DB3422DDC04232F
:1015200032462946404606F0BDFD05AF042305902E
:10153000CCE7731E9D421DDA0223324629464046FF
:1015400006F0B0FD4FF6FF7380B298420EBF022343
:10155000023083B25A1996420CDB49F80B7017E03F
:10156000AE4207D93B78FF2B0CBF01230133EA18A9
:10157000B242F2DD042400E001241AF0800F0CD006
:101580002246002109EB0B0038F0DFFD3546002331
:101590002B449DB2019B013360E7022066E7704750
:1015A000F8B5194BD3F83843D4F8A4301B68DA6C7B
:1015B000D20727D5012603F50052D6649B6C9B0603
:1015C00020D5EFF31187302383F3118894F89530F9
:1015D00003F0FF0593B9236E294620469B68984780
:1015E00084F89560EFF3108672B628463AF0B2FDA3
:1015F000022330463AF0BDFE84F8A13087F311880B
:10160000BFF36F8FF8BD00BF00100020C8E703468E
:1016100030B100201A5C02B9704701308142F9D123
:10162000704770B50C4E451E013915F8014F234621
:10163000325D02F00302012A11F8012F08BF04F104
:101640002003B05C00F00300012808BF2032981A84
:1016500001D1002CE9D170BD5D2A05084FF0FF30A3
:101660007047FEE700207047002070470020704759
:1016700010B508B30378E3B1012B03D0022B18D0C7
:10168000032B1BD13F234278D340DB0716D5EFF362
:101690001184302383F31188012201784078594363
:1016A000074B82405A5084F31188BFF36F8F00209C
:1016B00010BD40F2FF33E6E72220F9E72120F7E7EB
:1016C00040D0035010B508B30378E3B1012B03D029
:1016D000022B18D0032B1BD13F234278D340DB07CA
:1016E00016D5EFF31184302383F31188012201789A
:1016F00040785943074B82405A5084F31188BFF316
:101700006F8F002010BD40F2FF33E6E72220F9E79B
:101710002120F7E740E0035007B503788DF8043047
:1017200043788DF80530837801A823B9FFF7CAFF05
:1017300003B05DF804FBFFF79BFFF9E707B50378FB
:101740008DF8043043788DF80530837801A823B9EB
:10175000FFF78EFF03B05DF804FBFFF7B3FFF9E777
:101760000B4B93F8DD2A62B107280CD803EB00136A
:1017700093F874314BB10123064A8340136400206F
:10178000704705487047054870470548704700BFD7
:101790000010002000100450028000F0018000F0D2
:1017A000078000F00B4B93F8DD2A62B107280CD8B4
:1017B00003EB001393F874314BB10123064A8340C5
:1017C0001364002070470548704705487047054876
:1017D000704700BF0010002000200450028000F07D
:1017E000018000F0078000F0F8B5002932D11F49D0
:1017F000D1F83853002D37D030272C7D1C4E204691
:10180000FFF7AEFF07FB0463DB6E01F6DE218B42C0
:1018100013D1284613F04EFD98B1EFF3118187F3F1
:1018200011880123134AA3405365A2F580529362A5
:10183000536381F31188BFF36F8F2046BDE8F840F2
:10184000B0E7284613F054FD0028F6D10123A34049
:10185000B364F2E7012907D1044BD3F8380318B178
:10186000BDE8F84013F05EBDF8BD00BF00100020D9
:10187000000004500020045073B5054690F8426003
:101880001C4630460DF103032FF05BFDEB6B012E80
:101890005B690DD1324601A998479DF8033013B119
:1018A000BDF806300193BDF80430236002B070BD6E
:1018B0000122214602B0BDE87040184703460846A1
:1018C000EFF3108172B6034ADB6BC2F8E01ADB68F3
:1018D000184700BF001000202DE9F041064640687F
:1018E00082B0C0B10F4690460024336853F834509C
:1018F00003EBC403C5F30752C5F31301013504F12B
:10190000010406D05B683046CDF80080B84710B1BE
:1019100070688442E9D302B0BDE8F081036813F037
:101920007E0F03D1406820F07C40704713F07800B0
:101930001CBF03F07F03D81F7047202A0B681EBF0F
:101940004FF0FF3191408B43590801F055315B1A3C
:1019500003F033319B0803F033330B44017803EB7E
:1019600013130A444FF0013103F00F334B43A2EB42
:101970001362027070472DE9F04105460024486863
:10198000EB6B86B00E4601225B69029402A9083017
:101990009847A04695F84230012B40F08180632C97
:1019A00003D9029806B0BDE8F081612C08D805ABD8
:1019B000224631462846FFF75FFF9DF8143013B3E7
:1019C00005AB2246314628468DF81080FFF754FFBC
:1019D00095F84230059F012B52D14FF6FF739F427D
:1019E00000F09180082205A904A8FFF7A6FF9DF842
:1019F0001020C7F307239A4240F08580FFB2029B74
:101A00003B4402937FE095F84230012B2ED12246D1
:101A10003146284603ABFFF72FFF3146284604AB7B
:101A2000621CFFF729FF3146284605ABA21CFFF7D1
:101A300023FF102208230DEB02010DF107008DF8A2
:101A40000730FFF77AFF102205A9FFF776FF039B07
:101A5000DAB2002A50D19DF80720B2EB132F4BD1F8
:101A6000DDE9043203EB0243029345E0302C29D92F
:101A700042E09DF80720B2EB134F3DD1049BF3E702
:101A80007B1C40D0102205A90DEB0200FFF755FF8B
:101A90009DF81020C7F307439A4234D1BFB2AEE796
:101AA000312C3FF67EAF8BD005AB2246314628461F
:101AB000FFF7E2FEBDF81430002B81D195F84230DB
:101AC000012BA4D022463146284603ABFFF7D4FEB3
:101AD0003146284604AB621CFFF7CEFE10232022BD
:101AE0000DEB03010DF107008DF80730FFF725FF1F
:101AF000039B9AB2002ABCD095F84230012B14BF48
:101B0000012302231C44013444E737B50446002571
:101B10001B22011D0DF107008DF80750FFF70DFF87
:101B200063689DF80720B2EBD36F03D123F07840B0
:101B300003B030BD1B2204F108018DF80750FFF7F8
:101B4000FCFEA0689DF80730B3EBD06F0ABFC0431E
:101B50004FF0FF3020F07840EAE74BF29A2203681A
:101B600010B5B2EB134F044613D19BB2012B15D124
:101B7000FFF7CBFF013011D04FF6FF72E068B2EBF8
:101B8000104F4FEA10430BD180B2C01A18BF01208A
:101B900010BD013314BF04200320F9E70420F7E748
:101BA0000220F5E7F0B50546002687B0EC69013C58
:101BB000B44203D80C46204607B0F0BD01B14C1E1C
:101BC0006F6C2868EB6B05225B6901A907FB0400B9
:101BD000984701A8FFF7C1FF0128ECD9214601363B
:101BE000E4E70368F0B5CC1A436C0646B4FBF3F4A3
:101BF000002587B0F36937685A1E9542706C06D38A
:101C0000736C306803FB0400143007B0F0BD01347E
:101C1000B4FBF3F203FB1244F36B05225B6901A9E9
:101C200000FB0470984701A8FFF797FF0128E7D948
:101C30000135DFE710B423F0030422449B070A4474
:101C4000436C18BF04325B4282EA0104234202D093
:101C50005DF8044BC5E710465DF8044B70472DE96D
:101C6000F04F144607460E468BB00393C36B012218
:101C70005B6907A960689847FB6B01225B69304686
:101C800006A99847079B5D1C07D10022A360A27597
:101C9000627500200BB0BDE8F08F0122A275002212
:101CA000217E069D04EBC101CE610A846068C5F304
:101CB000D31CB04205F07F010CD14FF0FF33C4F8C4
:101CC00000C02175A360237D043B022B26D800238E
:101CD000A375DEE794F814E020688E4503D1A0EBED
:101CE0000C004242424103F07F0001288CBF0020DB
:101CF000012001298CBF00210121884218BF002248
:101D000015F07E0FA27503F07E0304D1002BDAD00C
:101D10000023A375D7E7002BD5D1F9E715F07E0F87
:101D20000FD1FB6B022230465B6908A9984708A8CF
:101D3000FFF7F4FD237D032B51D8DFE803F0150FE7
:101D4000045906A8F4E7CC22237E04EBC3031A84CB
:101D50000123634A134493F814310AE0237E04EB11
:101D6000C30318840023F4E7237E04EBC303188421
:101D70000123149A1370069A12F07E094FEAD26A70
:101D8000227E37D1FB6B04EBC2020AF003055B69CC
:101D9000B2F8208082F8225008A9022230469847E3
:101DA00020220DF117000DEB02018DF81790FFF7BF
:101DB000C4FD1A2209A9FFF7C0FD9DF81730099A42
:101DC0004FF0080BB3EB926F0CBF01230023637538
:101DD000637D33BB0023A3754FF0000950E0227EE2
:101DE000013BDBB204EBC202052B1084C0D8B0E784
:101DF0000223AEE7002504EBC202B2F8208082F88D
:101E0000225006A91B2208A88DF82050FFF795FD47
:101E10009DF820204FF0040BA2EB0A0253425341DD
:101E2000D5E794F81690B9F1000FD5D0B8F1000FAE
:101E300008D1D5B10123627EE37552BB9D4218D112
:101E4000657614E07B6C06EB0B02594286EA0200D1
:101E500008421CBF0021A175591E0A409B1A434528
:101E6000B8D3A37D002BE4D1B6E7E37D43B94FF0AF
:101E7000000943465A4631463846FFF7DBFEA0606C
:101E8000A27D237E5AB9012B27D801332376A07D6A
:101E900000E7012DF4D0032DE9D1A376E7E722690D
:101EA000012B4244226118D801332376039B002B77
:101EB000EDD0E37D002BEAD0B9F1000FE7D1032D7F
:101EC000E5D0A1684B1CE2D0149B22460093384613
:101ED0000123FFF7C4FEA075D9E70023A375D6E759
:101EE000D0EA030813B50C460021217600936168FF
:101EF00013462246FFF7B3FE18B1E37D03B1A07E7F
:101F0000A075A07D02B010BD2DE9F743044616462A
:101F10001F460D46DFF87480816AE36A8B421ED04B
:101F20004B1C1CD0DFF860904846FEF7EDFD012207
:101F3000494620460DF10703FFF7D4FF30B13B4679
:101F400020469DF807201049B04740B1D8F8EC1A58
:101F50004A1C07D0012D0DD0E36A9942E4D103B0A9
:101F6000BDE8F083D8F8E81A2046FFF73AFE012DC5
:101F70000146D2D1D8F8E83A81EA0302636C5B42A9
:101F80001A42ECD1C9E700BFE41A0020001000207B
:101F90002DE9F0410F4616469846044688B060B3D6
:101FA00090F83450FDB10121FFF788FC00210E9B11
:101FB000CDE90511CDE902379DF83C30CDF804801C
:101FC0008DF81C30237C04968BB90D4901AA04F1CD
:101FD0000800FFF781FCDDE90553E06B002E08BF28
:101FE0001D462FF013FB284608B0BDE8F0812046BF
:101FF000044A01ABFFF788FFEDE70546F3E700BFB2
:102000006D050008C52200082DE9F041D0E90A3627
:102010009E42044686B028D11422C369456802FB5B
:102020001355284606B0BDE8F0812068676C331A66
:10203000B3FBF7F3E26B07FB0300D2F8148001A9AE
:102040000522C04701A8FFF788FD012804D0636C72
:102050001D44013B3340ED1A31462046FFF7C1FDD8
:102060000646A36AB342E0D1DBE70025F9E72DE994
:10207000F04F0F469A46002389B004464FF0FF31D7
:10208000104690468DF80B30FEF73EFDB7F5801FE9
:1020900020D2394603AA04F10800FEF7BBFA451C1A
:1020A000014605D1237CBBB92D2009B0BDE8F08FD6
:1020B0004046FEF729FD0122414620460DF10B0363
:1020C000FFF710FF0028EDD09DF80B308AF80030A4
:1020D0000020EAE7B81CE5D1E66A711C2CD1204645
:1020E000616AFFF75FFD0646BB1C18BF0123DFF8DE
:1020F000C4B00093636A626C0193236803A902FB76
:102100000639E36B484605225B6909F114099847D3
:10211000002549464B1C05D0636C81EA09025B42ED
:1021200013420FD031462046FFF73CFD019BB342DE
:102130002FD085BB0646DDE72368F61A636CB6FB35
:10214000F3F6D1E71A48FEF7DFFC2046009A18495B
:102150000DF10B03FFF7C6FE8446B8B1BA1C03D0DD
:10216000DBF8103BBB4211D145469DF80B30DFF840
:1021700040E08AF80030BEE80F000FC5BEE80F004F
:102180000FC59EE8070085E807006546DBF8181BC9
:10219000C0E7002D88D0B7F5801F99D239469AF84C
:1021A0000030D8F8042004F10800FEF763FA8FE746
:1021B000101B0020001000202DE9F04385B00C46D4
:1021C00017461E460546DDF83080A0B390F834303F
:1021D0009BB3B1F5801F32D2DFF868900121FFF781
:1021E0006DFB214628460DF10F0309F63C32FFF73F
:1021F0003EFF044688B99DF80F30012B14D1D9F861
:102200004C2B06EB08039A4213D300904346324608
:10221000394628462CF01AFE0446E86B2FF0F6F9F2
:10222000204605B0BDE8F083022B14BF2D246024A6
:10223000F3E76324F1E72124F2E71124F0E72924EE
:10224000EEE700BF001000202DE9F3411F460023F8
:102250000C46164605463B6058B390F8343053B3ED
:10226000B1F5801F29D2DFF858800121FFF726FB46
:10227000214628460DF1070308F63C32FFF7F7FE2A
:102280000446A0B99DF80730032B10D0022B0AD1C9
:102290000123336004233B60E86B2FF0B7F920463D
:1022A00002B0BDE8F0813060D8F84C3BF3E72D2454
:1022B000F2E72124F3E71124F1E72924EFE700BF37
:1022C0000010002073B50D46D11E4A421C461B7EED
:1022D0004A419A4228D129682368994224D36368E5
:1022E000994221D8124E0DF1070306F66832FFF726
:1022F000BEFEC8B9D6F86C2B6B689A4214D19DF813
:102300000730DA1E53425341227E93420CD1636957
:1023100001336361D4E90323934205D22968A2689B
:1023200042F8231001332361012002B070BD00BFC9
:102330000010002070B50025044686B00562E369F0
:10234000AB4202D8206A06B070BD666C2068E36BB1
:1023500005225B6906FB050001A9984701A8FFF764
:10236000FCFB012898BF236A05F101059CBF0133DE
:102370002362E4E72DE9F04F97B0CDE908230F463B
:102380000A69416CD31D1439B3FBF1F3013302EB3D
:10239000C302036B04469342C0F008820023DFF8B7
:1023A00080920C93E36A9C4819460693FEF7ACFBB7
:1023B000D7E903360393099B022B61D1CC2E40F061
:1023C000E081089B002B2DD039462046FFF7D3FA39
:1023D000656C069A6B1E13401290ED1AE36B012296
:1023E0005B69786814A99847149B13F07E0F14BF9B
:1023F00004230823782E059351D9012200234FF09E
:10240000080A04923A68C9F8206BC9F8102B099A97
:10241000032A62D0022A14D0049A002A14BF002290
:10242000072212E0039B01221B684FF0080A129357
:102430003B680492C9F8103B08230593089BC9F830
:10244000206B049AC2F10202D2B289F8242B4FEA1F
:102450009A020E92069A019200220A920D92079217
:102460000B92606C019A411E1140421A002E36D028
:1024700053449A423ED8236B1B1A0B44236359E101
:10248000656C069A6B1E1340782EA5EB030516D8D3
:10249000FB7D7BB9089B002BA0D104230593331D42
:1024A000AB4212D9B6B1082DA7D8042300229A4610
:1024B0000492A7E7089B002B90D10823EEE7089B26
:1024C000002B8BD10823059397E7002304934FF04B
:1024D000040A97E704230496F9E7099AB5E75245F9
:1024E000C9D3B046019B53440293079B002B18BFEE
:1024F000032314E0A2EB0A02019B9642B046534428
:1025000028BF904696420293EFD90123D9F8202B99
:1025100089F8273B964243D1019AC9F8142B0793B7
:1025200099F8273B002B3DD099F8282B0199D31C13
:1025300009EBC303C3F8141B07990132A3F8188BE6
:1025400083F81A1B89F8282BB8F1000F14D0099BC7
:10255000022B2BD10A9B7BB90D9B4344032B0BD938
:10256000E36B01229B69029812A99847054600284F
:1025700040F01E8101230A9399F8243B3D68274AC5
:10258000012B02EAC51528F07C4B40F290809A1E80
:10259000012A03D908F1070303F07F031D438CE0F0
:1025A0000223BCE7019BC9F8143BCDE7089B002B35
:1025B00038D1039BB8F1030F03EB080B28D9DDE9F1
:1025C0000201E36B4FEA98029B6998470546002891
:1025D00040F0D18018F0030266D0039B28F0030579
:1025E0002B440393029B1D444FF0FF33039913A820
:1025F000139337F0B2FDE36B284601229B6913A9C0
:1026000098470546CDF80CB0002DB5D0029B76E07A
:102610004246029DE8E700BF101B002080FFFF0735
:102620000010002007F12003DDF808B00F93FB7DB8
:1026300078689BB100233D7E0B9AD9B28D4211D9A7
:102640000F9903F1010C31F83310914226D9059905
:1026500007EBC303D8690A44104403E00B9B059AB7
:1026600013441844E36B01225B6913A99847139B39
:10267000012211930B9B584604330B93E36B11A972
:102680009B699847029B05464344A3EB0B03042B2D
:1026900007D9002872D10BF1040BC8E76346521A20
:1026A000CBE7CDF808B0AFE7CDF80CB064E7079AF8
:1026B00043EAC2632B4343F060454FF000038DF8BB
:1026C0004C30049BCDE9145B002B49D0202214A987
:1026D00013A8FFF732F91A2215A9FFF72EF99DF872
:1026E0004C304BEA83631593E36B0E9A9B69019818
:1026F00014A99847019A051E0C9B18BF1346524611
:102700000C93204643460199FFF794FA236B08F196
:102710000302A3EB0A0322F003029B1AC9F8180B69
:102720002363002D44D10D9BA6EB080643440D9373
:10273000029B019320460199FFF753FA0023019071
:10274000002E7FF48EAE494A3968D2F8183B04F166
:102750000800E362D2F8142B099BFDF78BFF11E010
:102760001B2214A913A8FFF7E8F89DF84C3045EA9E
:10277000C3651495B8E7CDF80CB047E7CDF808B0BD
:1027800044E77026304617B0BDE8F08F002650E0D1
:102790003A69616CD31D1439B3FBF1F3013302EBD9
:1027A000C302236B9342BFF4FDAD5DE01C26E9E755
:1027B0003D2D59D104F1080301932668069B20465C
:1027C000E16AD4F844A0A3EB060BFFF70AFAA26A69
:1027D000BBFBFAFB8242DBD0616CD9F8182B01F10C
:1027E000FF3C02EA0C0C226B0C9B521A62442263DF
:1027F0002268E0629A1AB2FBF1F8C345C6D10AFB1F
:102800000866069B06F1140BB3EB0B0611D0E36BC5
:10281000B20859469B6998478246E26A069B324451
:10282000E262226B0198D21A5A442263FDF7B9FE84
:1028300056462368616CE06B01FB0831FDF782FFAF
:102840002046FFF777FD2046FFF7DEFB2063002ED2
:102850009ED03A69616CD31D1439B3FBF1F3013397
:1028600002EBC3029042A8D22E468BE70010002054
:102870002DE9FF471E4643690446B3428846174682
:102880009DF83090C0F0828000258DF80F502046D2
:10289000FDF743FED4F830A082450AD2236AB5EB97
:1028A000430F06D220460DF10F012CF00DFA00283F
:1028B0006AD09DF80F30012B04D120460DF10F0195
:1028C0002CF002FAB9F1030F06D031462046FDF78D
:1028D0000FFE256B85425BD32E4D4FF0FF3105F681
:1028E0006830FEF711F94B460022204605F66831A4
:1028F000C5F8747BC5F8688BC5F8786BFFF73AFDAF
:10290000236E0746002B3BD02046FDF706FE636E84
:10291000256B03449D428CBF00230123854294BF55
:1029200000252D1A6565257C002684F8503084F832
:102930005850D5B1DFF860803346324631462046E4
:102940000196CDF80080FFF723FB01230546CDE972
:1029500000833246334631462046FFF719FBE368D1
:1029600005449D4294BF3546ED1A94F85030E56514
:1029700013B994F858301BB1236E04F150009847F6
:10298000384604B0BDE8F087013580E76227F7E7F5
:102990001C27F5E700100020FFFF0F002DE9FF4185
:1029A0000F4690461E460546A8B390F83430A3B3B0
:1029B000B1F5801F33D21B4C0221FEF77FFF04F6D6
:1029C0003C32394628460DF10F03FFF750FB024613
:1029D00078B1012342460093394633462846FFF733
:1029E00047FF0446E86B2EF011FE204604B0BDE818
:1029F000F0819DF80F30012BEBD1D4F84C1B8E42A7
:102A0000E7D100934146334628462CF01FFA04468E
:102A10000028DED1E6E72124E7E71124E5E72924B1
:102A2000E3E700BF0010002070B586B00E460546F3
:102A30000392A0B390F834309BB3B1F5801F32D22B
:102A40000221FEF73BFF31462846184A0DF11703D5
:102A5000FFF70DFB044618B99DF81730032B0ED174
:102A60000223314600932846CC2303AAFFF700FF38
:102A70000446E86B2EF0CAFD204606B070BD022B5E
:102A80000BD10A492846FEF776FF03990246814298
:102A9000EFD028462EF0BAFCEAE76124E9E72124CA
:102AA000EAE71124E8E72924E6E700BF3C1B002001
:102AB00030B50C46054685B028B390F8343023B3C2
:102AC000B1F5801F23D20221FEF7F8FE0DF10F03AE
:102AD000214628460F4AFFF7CAFA034688B99DF8EF
:102AE0000F20032A0DD003222146009202462846D9
:102AF000FFF7BEFE0446E86B2EF088FD204605B0C9
:102B000030BD2D24F7E72124F8E71124F6E7292426
:102B1000F4E700BF3C1B00202DE9F341089C032A89
:102B20001746266806D1237A012B25D0012002B052
:102B3000BDE8F081DFF8988030460DF1070308F614
:102B40006832FFF794FA60600028ECD12568D8F865
:102B50006C3BA96AD5F844C04B40CCF1000213404D
:102B6000207AE0D1012809D1E068D8F8782B024416
:102B70007069824202D92374207CD8E72868EB6A06
:102B80001B1A081AB3FBFCF3B0FBFCF083420BD119
:102B9000706CF36A421E1340326B121A13442846BB
:102BA0003363FFF71EF8E862D8F8782BE368083241
:102BB0001344E36001223B4604492068FFF7DAFB37
:102BC00060600028AFD00020B1E700BF681B002084
:102BD00000100020032A2DE9F34106460D46174652
:102BE0001C4606D1237A012B24D0012002B0BDE877
:102BF000F081DFF8608009680DF1070308F668329C
:102C0000FFF735FA60600028ECD19DF80720237AA1
:102C1000032AE7D0D8F86C1B6A689142E2D1012BF5
:102C20002969D4F80CC007D172690CEB01039342F7
:102C300002D92074207CD9E708316144E1603B4629
:102C4000012229463046FFF795FB60600028C9D075
:102C50000020CBE700100020F0B504460D46466C7E
:102C6000E36B006887B005225B6901A906FB0500DC
:102C7000984701A8FEF771FF012804D801A8FEF7C4
:102C800044FF07B0F0BD29462046FEF78BFF0646FD
:102C9000676C2068E36B05225B6901A907FB0600EE
:102CA000984701A8FEF731FF431CEAD0B54238BF70
:102CB0000130E6E72DE9F0430646994689B00369FD
:102CC00008460F46904698470446002867D1D9F831
:102CD00004305B0A012B22464FEA530304F101043E
:102CE000F8D899F8035099F802302D03DB0203F469
:102CF000006305F480551D43B9F800304FF000091A
:102D0000C3F30A0352032B4492B29D18294B0DF1D1
:102D100007001B2228F0784402A9039302948DF83F
:102D20000790FEF70AFE9DF807306FEA054544EA72
:102D3000C36404946FEA08041B2224F0784402A9B7
:102D400002948DF80790FEF7F8FD9DF807306FEAC2
:102D5000154544EAC3644FF0FF33012205940693FE
:102D600007A9B369079507F11000984701220446A7
:102D7000B36905A907F1080098470122484518BF23
:102D80000446B36904A9381D98470122484518BF75
:102D90000446B369384603A9984728B10446394622
:102DA0003046FDF7CFFC01E0002CF8D1204609B0F9
:102DB000BDE8F08301009AB238B50446456C00685E
:102DC00004F1400305FB0101E06BFFF773FF0546CB
:102DD0002046FFF7AFFA284638BD2DE9F04F4FF0F7
:102DE000FF334FF6FF720025044600F10808C0E9E2
:102DF00009238BB0C3620562056340468B46FDF72D
:102E0000D0FB2046FFF796FA50BB4FF6FF79676A72
:102E100000264F4514BF3D460025E3699E4248D336
:102E20002046FFF787FA18BB5E200BB0BDE8F08F95
:102E30002368E26B606C566900FB0530052205A92A
:102E4000B04705A8FEF789FE012828D1294620466B
:102E5000FFF702FF421C29462046FFF7ADFF013570
:102E6000E3699D42E4D32046FFF764FA0028CCD002
:102E700000254FF0FF394FF6FF734F462E46C4E949
:102E80000853E3699E423ED3A5EB0905012D5BD8AB
:102E90004FF6FF72636A934268D16720C5E7033833
:102EA000C0B20128DBD829462046FFF7D5FE0246EE
:102EB000D1E7E26B2368606CD2F814C000FB0530E8
:102EC000052205A9E04705A8FEF747FE022807D01E
:102ED0004F450DD10BF1010229462046FFF76CFF4B
:102EE000E3690135B5FBF3F2013603FB125594E7B4
:102EF00029462046FFF7B0FEB0F1FF3F14BF02465F
:102F00005A460132E8E7E26B2368606CD2F814C0DD
:102F100000FB0630052205A9E04705A8FEF71DFEC7
:102F200001280FD805A8FEF7F0FDB84238BF666249
:102F3000814528BF8146854238BF05460746236A3A
:102F40000133236201369CE74FF6FF73002563626D
:102F5000E3699D429CD2666C2068E36B06FB05002A
:102F600005225B6905A998470135F1E7E26B666CBC
:102F7000206855696946052206FB0300A847626A76
:102F8000616C23684E4D01FB02331433A3624FF092
:102F9000FF336FF00101E362204605AB05F66832AE
:102FA000FFF765F8002851D1D5F8705B2946204617
:102FB000E562FDF7C2FA206320B92046E16AFEF718
:102FC00010FEE06229462046FEF70BFE0546A36A86
:102FD0009D423DD16569626CE91C143AB1FBF2F186
:102FE000002705EBC1050335B5FBF2F53E4602357A
:102FF000E3699E423ED3AF4257D22046616AFEF754
:10300000D1FD4FF00008064604F1400A474512D8AA
:10301000626C2368694602FB0639E36B05225B6933
:10302000484698476846FEF770FD534602464946B3
:10303000E06BFFF73FFE31462046FEF7B3FD08F197
:103040000108A8450646E1D36420EEE6A56AADE78F
:1030500029462046FDF771FA236B294603440646AC
:1030600023632046FEF7BDFD0546002EAFD1C4E91F
:103070000B06ACE7626C236805A902FB0639E36B1B
:1030800005225B694846984705A8FEF766FD0128BA
:1030900009D8204609F11401FDF74FFA636C143B7F
:1030A000984208BF01370136A2E74046FDF779FA9A
:1030B000002320461946034AFEF726FF0020B4E607
:1030C00000100020110700082DE9F8430025DFF863
:1030D00090810E46D8F8949B0446C8F8945B18B9C2
:1030E00021252846BDE8F88390F8347007B30A68B4
:1030F00003689A4240F0A9804A6843689A4240F0C7
:10310000A4808A6883689A4240F09F80CA68C36836
:103110009A4240F09A800A6943699A4240F0958049
:103120008A69C36B9A4240F090804B698361D8E70B
:1031300068223946856B37F008F8336804F10800D7
:1031400023607368A5636360336963617369A36116
:10315000D6E90223C4E90223FDF723FAB36904F197
:103160004000E3639B68984720B9676C17B16368B8
:10317000B3FBF7F794F84330E761002BB0D000239E
:10318000656C2366002D68D0002F66D02368B3FBE2
:10319000F5F205FB1233002B59D16768B7FBF5F642
:1031A00005FB1676002E52D12046FDF7B6F9A3692D
:1031B000043303449F424CD340F634726369CC3BE2
:1031C000934248D8B5F5805F47D303212046FEF7E8
:1031D00075FBD4E90001E36B1B6898470546E36B78
:1031E0000220DB6898472DB184F83460E06B2EF044
:1031F0000DFA76E749462046FFF7EFFD64280546BD
:1032000004D149462046FFF7E8FD0546636C143BB0
:10321000BDB9226A204602FB03F6FDF77EF9A369D9
:10322000043303449E4223BF012384F83430D8F88A
:10323000983B84F834502ABF01335A25C8F8983B8C
:10324000D4E7002384F83430D0E75D2549E75925D9
:1032500047E75A2545E75F2543E75B2541E700BF80
:103260000010002030B40446EFF3108072B62568D9
:1032700085EA02030B406B40236030BC39F079B81B
:10328000F8B50D4620491646D1F810236A1E0E2ABD
:103290000746037844782CD985B3002201204FF0EB
:1032A000300CA0400CFB03112EB301F582510860D5
:1032B0000F21072C03EB430388BF083C4FEA03139D
:1032C000124895BFA400A40004330C33A240A140CF
:1032D0001844FFF7C7FF5DB9012230207B783978A9
:1032E0009A40094B00FB013356B103F582531A6033
:1032F000F8BD2A46D2E701F50151D8E72A46D7E7BB
:1033000003F50153F3E700BF00C0035030C0035082
:1033100038B510B30F2922D80378DBB1012B03D0C5
:10332000022B17D0032B1AD13F234478E340DB074D
:1033300015D50D4BD3F810439CB9EFF3118530230D
:1033400083F31188FFF79CFF85F31188BFF36F8F1C
:10335000204638BD40F2FF33E7E72224F8E7212476
:10336000F6E70224F4E700BF00C003507FB504680D
:103370000546A3885A48ADF8083039F0D4F8002241
:10338000012102A8FFF7C4FF0DF1070102A82EF0EA
:103390000BF99DF8073083F001032370A379022B0A
:1033A0006BD14FF0FF3303939DF8083053B1012BDD
:1033B00066D0022B06D0032B62D0FF2B09D02B4600
:1033C000042256E040F2FF339DF80920D340DB078A
:1033D000F5D5EFF31186302383F311889DF808406B
:1033E000FF2C78D03F4BD3F81033002C4CD19DF8F4
:1033F0000930052B6FD10122032102A8FFF740FFFE
:103400000123384A04F11000D2F83014834021EA35
:103410000301C2F83014D2F83014C2F83014D2F8D4
:103420002C141943C2F82C142F49CA6E02F0300232
:10343000202A1FBFCA6E22F0300242F01002CA6674
:103440002A4AC2F820340C22294B02FB0433294AB1
:10345000C3E92E259DF80830FF2B04D00123264A0E
:103460008340C2F8243486F31188BFF36F8F0122A2
:103470002B4603A902A82EF0ADFC002004B070BDBD
:103480003F239DF80920A1E7012C07D19DF80930C1
:10349000012B18D0032B1ED10424ACE7022C08D139
:1034A0009DF809308BB1052B11D0072B13D10824BF
:1034B000A1E7032C0FD19DF80930022B09D0052B71
:1034C00009D10A2497E7032495E7062493E7072404
:1034D00091E709248FE786F31188BFF36F8F6EE7BA
:1034E000ECEB030800C003500040005000E0035024
:1034F00000100020E112000800D0035003681A7881
:10350000022A02D100225A8030E7704713B50446E0
:103510000A4839F008F8A2780421B2FA82F2237836
:1035200052098DF8043063780DEB01008DF80530F9
:10353000FFF7EEFE002002B010BD00BFECEB030869
:10354000044BD3F88420D206FBD4D3F88400C0F314
:103550008110704700400050430905D0012B0CD06A
:10356000022B084B18BF002300F01F0039B103F5F0
:103570008053012282401A607047034BF4E703F541
:103580000053F6E768800050648000501FB50023A8
:10359000B0F5807F019300F03E816BD85E2862D841
:1035A0005E2863D8DFE810F07700620062006200F6
:1035B00062006200620062006200620062006200FB
:1035C00062006200620062006200620062006200EB
:1035D00062006200620062006200620062006200DB
:1035E00062006200620062007700F2007700F20081
:1035F00013011301130113011301F20025018000CF
:10360000AB0048018000F200F200F20062006200AC
:10361000620062006200620062006200F200F2007A
:10362000F200C1006701F200620062006200620005
:10363000620062006200620062006200620062007A
:103640006200130177007700770058018000800046
:103650007301D000960020016200620062006200E7
:103660006200DD007700802800F08180019805B0BD
:103670005DF804FBB0F5D06F00F0DE8044D8B0F503
:10368000607F00F08A801AD8B0F5007F73D005D82B
:10369000B0F5C07FEAD136F01DFE6AE0B0F5207FBC
:1036A00074D0B0F5407FE1D136F014FE924B1B6F21
:1036B000C3F380230133B0FBF3F0400859E0B0F5C9
:1036C000B06F00F0968017D8B0F5806F7FD0B0F55E
:1036D000A06FCBD10021884B0391D3F8203203F0A7
:1036E0000703042B06D8022B7AD8012B74D0022BA7
:1036F00000F0E380039B98E0B0F5C06FB6D10021E5
:1037000001A8FDF79BF8B1E7B0F5106F00F0A480B9
:103710000FD8B0F5086F00F0D980A7D8B0F5E06FEA
:1037200000F0A980B0F5F06FA0D1734BD3F86031F1
:10373000A4E0B0F5406F57D010D8B0F5206F00F07E
:10374000A680B0F5286F91D100216B4B0391D3F87F
:10375000703203F00303012BCCD1AAE0B0F5486F1F
:1037600084D100230393644BD3F8943294E036F071
:1037700093FD01907AE736F08FFD5F4BD3F89030E0
:10378000C3F304630133B0FBF3F0F2E736F0A2FDBC
:10379000594B1B6FC3F38023F4E75749D1F88020BE
:1037A00002F00302022A0AD0032A0BD0012A0CD10C
:1037B00036F072FDD1F88030C3F30113E2E736F042
:1037C0001DFDF7E74D4B1868F4E71846F2E70021B6
:1037D00001A8FCF7FDFF49E703A8FCF7C6FF89E74E
:1037E0004FF40043039385E7002101A8FCF7BDFFD8
:1037F0003CE70021404B0391D3F8803103F00303F1
:10380000022B5ED0032B58D0012B7FF473AF03A89B
:10381000FCF7DEFF6EE702934FF0E0231B695A07C7
:1038200005D536F057FD0290029B01931EE703A9D0
:1038300002A8FDF703F8F7E72F4BD3F8003203F0A7
:103840000700032812D05B070AD4013801288CBF77
:1038500000200120C0038CE7274BD3F80832EEE7A5
:10386000042806D136F036FD800A82E74FF47A70DC
:103870007FE700207DE7204BD3F8403203F00303BD
:10388000032B20D0003B18BF0123DB03CDE700232F
:103890000393194BD3F8603203F00703013B032B6A
:1038A0003FF628AFDFE803F002040D090021AEE780
:1038B000002103A8FCF7C2FF1CE736F09FFC039031
:1038C00018E70F4B8EE74FF47A73AEE70A4BD3F845
:1038D000003103F00303022B06D0032B07D0012B8A
:1038E00007D1064B5B68A0E74FF400439DE7054B0B
:1038F0009BE7002399E700BF008000500C50002098
:10390000002D310180D5430238B5174CFF28A26A3B
:1039100028D8A36D154D13F4803F18BF4FF48031A4
:10392000134B18BF99624FF080719962A36995F9A2
:10393000785023F47F03054423F47F4343EA0023B4
:1039400085F3080543EA0543A3610A48FFF78AFCAB
:10395000A36DDB0304D54FF480310648FFF782FCEA
:10396000002038BD2120FCE70040005A0C50002008
:103970000050005A2840005A38B50F4C0F48A26A30
:10398000A36D13F4803F18BF4FF480310C4B18BF68
:1039900099624FF080719962A569FFF763FCA36D8E
:1039A000C5F30725DB0304D54FF480310348FFF747
:1039B00059FC284638BD00BF0040005A2840005A34
:1039C0000050005A014B83F8780070470C500020DB
:1039D000014B93F9780070470C5000204FF480336E
:1039E00010481149826A8B62836D03F00303032B35
:1039F000FAD14FF080730D488B620A4B996D30EA13
:103A00000101FBD1012008490865996D8907FCD4A3
:103A1000044B996D8807FCD5996D8907FCD504493D
:103A200004481FE40040005A0050005A03000100FF
:103A3000000001012840005A08B58020FFF7A6FDCC
:103A4000034B98429EBF4FF48032024B1A6708BD69
:103A5000005A620200A000504FF48032104B10B5A3
:103A60009A66A3F580531B6FC3F3033303FB000077
:103A70000C4BDC69144041F67132DA635A6822F467
:103A8000401259B90849884294BF0020012000051E
:103A900002435A600CB10022DA6310BD0349F2E719
:103AA0000090005000000350005A6202002D3101C6
:103AB000024A536B0342FCD1704700BF00400950DB
:103AC0004FF000420F4B70B55D6E03F580535A66A0
:103AD0004AF6CD3304460C4980204E6C0B64FFF748
:103AE000E7FF0B6A23F4F85343EA04230B62F3075E
:103AF00044BF064B0B64002DA2BF4FF00042044BA5
:103B00005A6670BD00800050004009503254FFFFDB
:103B100000A000504368DA0715D58368DB0702D59B
:103B20000369D90708D50A238363436D13F0500F47
:103B3000FBD1836C9A07FCD1012200F500535A6037
:103B400043689B07FCD47047012200F580535A60FC
:103B500001F00F02436DC3F30B03002BFAD1826314
:103B6000436D13F0780FFBD101F001034A0748BF02
:103B700043F00203826C02F003029A42FAD17047CA
:103B80002DE9F04105460F461E4690464AB10123F5
:103B90003022194C8B4002FB004436B304F58254AA
:103BA00023600F21072F05EB450388BFA7F1080409
:103BB0004FEA0313114895BFBC00A40004330C3333
:103BC00008FA04F2A1401844FFF74CFBB8F1000FCB
:103BD00009D101233021084ABB4001FB05223EB137
:103BE00002F582521360BDE8F08104F50154D7E775
:103BF00002F50152F6E700BF00C0035030C0035089
:103C00000123F0B5C4B2214DA340D1F800C08F7A92
:103C1000CC7A0E7B2B65850005F1A04505F588253E
:103C2000C5F804C030256843240591F80DC044EA66
:103C3000074400F1A04000F5802044EA465422F0F9
:103C40000302C0F860C0C4650267EFF3118485F316
:103C500011880F4A087A536500B11364487A00B19D
:103C6000936308798A7942EA0042084882614D7973
:103C7000CA79074942EA05428A61064A4363936466
:103C800084F31188BFF36F8FF0BD00BF0020045094
:103C900000100450000004500123C0B28340EFF331
:103CA0001180302282F31188054A516D21EA030107
:103CB0005165936280F31188BFF36F8F704700BF27
:103CC000000004500123C0B28340EFF31181302281
:103CD00082F31188074AD06A184209D1526B934384
:103CE0000CBF0120002081F31188BFF36F8F704754
:103CF0000020F8E70000045070B594002246054605
:103D00000E4638F03DFC431C0AD058B922463146D5
:103D1000284636F00AFA002814BF3D20002070BD66
:103D20006E20FCE77120FAE741F671320121064B63
:103D3000DA6303F50052D1600022DA634FF4803277
:103D4000A3F518339A66704700000350ECE7021E93
:103D500030B54FF000000CBF1025042547F607745E
:103D6000074952B9831D51F82330234023B1013054
:103D70008542F6D14FF0FF3030BD00F11603F2E777
:103D80000080035010B5C2F3062402F0070241B9C7
:103D900042EA042242F440220630234B43F820201A
:103DA00010BD142C2ED008D8012C33D0122C23D0C7
:103DB000631E312B07D9002309E0242C04F1FF33C3
:103DC00009D8202C09D819490B4493F8203142EA2C
:103DD00003221630E1E7322CEAD1042AF3D8DFE8D7
:103DE00002F00305170709000022ECE70122EAE7C9
:103DF0000322E8E70422E6E7022A0DD0032A0DD0C9
:103E00001123E0E7022A0BD0032A0BD01323DAE7B1
:103E10000222D8E70023D6E70022F1E70122EFE7EC
:103E20000022F3E70122F1E700800350D0EA030803
:103E30000A4392B20021FFF7A5BF3AB122F0030274
:103E400002F1A04202F5603209B910607047000229
:103E5000FBE74FF48032074B5A6603F5E6239B6974
:103E6000C3F38512827003F03F021B0B4270037094
:103E7000704700BF0090005007B5014601A8FFF74A
:103E8000E8FF9DF8063001220B804FF4807300207C
:103E90004B80054B9B680A3303F01F0302FA03F3C0
:103EA0004B6003B05DF804FB0080E00F10B5036BBE
:103EB000DC0702D503695A06F9D4012200F5005344
:103EC0001A63036B9B07FCD40B794A881B0243EAF5
:103ED00082438A7A13434A7843EA8213CA7A43EACE
:103EE000C2130A7B43EA42134A7B43EA02138A7BEA
:103EF00043EAC203CA7B43EAC2238A7943EA024304
:103F0000CA7943EA42430122436000F580531A63B1
:103F10000A780AB90223C360002343624B790C7A02
:103F20001B01497A43EA84030B4383600AB10123EE
:103F3000C36010BD012200F580531A630223C360E1
:103F400000231F4900F500528360836151614FF6E1
:103F5000FF710362C1614CF6806143624366836610
:103F60000367C0F88430C0F88830C0F89030C0F8DB
:103F7000A430C0F8A830C0F8B030C0F8FC10C0F8C9
:103F8000EC30C0F8F0301F23C0F8F830036BD907CD
:103F900002D503695B06F9D401231363036B13F0A5
:103FA0000203FBD143600366C0F88030C0F8A03044
:103FB000C0F8E030C0F8E830C0F8E430704700BF27
:103FC000770077072DE9F04FABB02BF01BFB0120FA
:103FD00035F013FC2EF040FC0220C74BC74CCDE956
:103FE00018034FF00073CDE91A430723C44C0DF1B9
:103FF000600B59464FF0FF301C9335F046FCD4F867
:10400000FC311020C3F307430E931AF003FA10F0AB
:10401000800F4FF0000000F07E871AF0FBF90106D8
:104020000CD50E9B802B40F06B87236A13F0020F98
:1040300000F08587E3699F0740F18187B14DB24861
:1040400035F0B6FAB14805F17C01FFF73DF80646B8
:1040500048B3D5E91F01D5F8943000241B68984770
:10406000D5F8943058469B689847D5F8943002208C
:10407000DB6898471998D5F88030E1B2B3FBF0F3CC
:104080008B42D5F8942004F1010400F25D87D368D7
:1040900000209847D5F894305B6898479C499B4826
:1040A000FFF712F806464FF000099A4C974F04F5B7
:1040B000CC7304F1CC0A0793FEB9974B19F803307F
:1040C000002B00F09687D4F80080384641460FABAD
:1040D00013AAFEF7B9F82D2807D070B9139B012B4E
:1040E0000BD041463846FEF7E3FCDAF80030414693
:1040F00038461A68FEF798FC0646079B09F1010945
:104100000133B9F1330F04F104040AF1040A0793EF
:10411000D2D1B6FA86F3814C5B0984F8083C94F856
:10412000B03B1BB1DB217E4836F07CF9002E40F01D
:10413000068708237F214BF234607A4A2DF006FE71
:1041400001233746C4F8FC39774BC4F8F86984F882
:10415000106A0136082E5F609F8043F8087FF8D10F
:1041600048220021714835F0F0FF4FF6FE73A4F8A5
:10417000783A6FF48033802200216D48C4F86C3A9D
:1041800035F0E3FF6B4B84F8547AC4F8B03AC4F8C6
:10419000587AC4F85C7A84F8607AC4F8647AC4F80F
:1041A000B47A84F8B87A11F055FDFF23002184F821
:1041B0008C0C2C2258464FF0023684F88D3C35F09A
:1041C000C4FF64230121CDE91A631D930B23B4F8C6
:1041D000BA668DF864100E408DF8883040F00E817C
:1041E000084636F0F3FF0A2384F8E8364FF42873C4
:1041F000ADF866304FF0FF33C4F828334E4B4F4ACA
:104200001B884F49A5F8A8304E4B4F481B68A5F8AE
:10421000AE60C5F8B0304D4BC5F8B8601B88A5F846
:10422000AA304B4B1B68C5F8B43034F0DDF820B130
:1042300040F26721474836F0F5F80521D4F8280305
:1042400035F004FA20B14FF41E71424836F0EAF816
:10425000D4F828032EF080F93F49D4F8280335F02C
:10426000B5FA0C2636F098FF70431E9036F094FF96
:10427000704359461C90D4F828032EF03FF920B122
:104280004FF42471334836F0CDF800222549D4F894
:10429000280335F015FB20B140F292212D4836F06D
:1042A000C1F840F20353A4F82C33052384F82E33CD
:1042B0000CF04AFE84F82F0336F06EFF00EB80000E
:1042C0008000A4F8300336F067FF0023C0004FF0F1
:1042D000FF31A4F83203C4F834334FF0FF3004A3A5
:1042E000D3E9002336F02CFF38E000BFAFF30080A5
:1042F0000A0020FF42030000006A180000020600C6
:104300000080E00F0C500020690345ECA01B00204A
:104310008850002020ED0308EBEE03080010002079
:10432000D8C7030815180020101A0020681A0020AA
:104330000C1C00200000FFFF96EA040855B2030899
:10434000A45000209CEA04082813002094EA0408E2
:1043500098EA040849C8030884EF0308D949D4F847
:10436000280335F064FAD4F8280313A935F086FE43
:1043700020B140F2CB21D44836F054F80422D4F8CE
:1043800028030FA935F0F7F9042804D040F2D22110
:10439000CD4836F047F80FA82AF033FB11F048FC5F
:1043A000EFF31186302383F31188012385F8BC30A5
:1043B000B4F8BA36D80704D50021D4F8280335F06C
:1043C000ADFE86F31188BFF36F8FB4F8BA36D90704
:1043D00012D5002241F20D01BC48002336F0B0FE98
:1043E0000822D4F82803114635F0B0F920B140F680
:1043F0003171B54836F016F80CF022FD2AF09AFB20
:10440000B34819F01DFE0023A4F88E3CA4F8903C9C
:104410004FF4F053A4F8923CAE4BAF4A03F10C01B9
:1044200053F8040B8B4242F8040BF9D11B8800218E
:10443000138007233422584684F8D43C35F085FE97
:104440000B238DF860306FF4803319934FF6FE73B1
:10445000ADF8703003238DF87D30A04BA04A209337
:10446000A04B5168D4F81508DFF8DCA2DFF8DC9225
:10447000DFF8DC829C4E9D4F21931AABCDF894A0BF
:10448000CDF89890CDF89C802896299703C359467B
:1044900000202AF045FE594601202AF041FE042260
:1044A0005946002035F067F9042803D0D8219048F8
:1044B00035F0B8FF189811F0BBFB03202DF0B2F8CF
:1044C00020F072FC9022FF218A4835F03EFE8A4B94
:1044D0008A48C4F89C3D0023C4F8BC0D884889492B
:1044E000C4F8DC0D8848894AC4F8FC0D8848C4F833
:1044F000A03DC4F81C0E8748C4F8A83DC4F83C0E83
:104500008548C4F8C03DC4F85C0E8448C4F8C83D72
:10451000C4F8E03DC4F8E83DC4F8003EC4F8083EE5
:10452000C4F8203EC4F8283EC4F8403EC4F8483ED3
:10453000C4F8981DC4F8A42DC4F8B81DC4F8C42D3F
:10454000C4F8D81DC4F8E42DC4F8F81DC4F8042E2E
:10455000C4F8181EC4F8242EC4F8381EC4F8442E1B
:10456000C4F8581EC4F8603EC4F87C0E6C48C4F809
:104570007A3AC4F89C0E6B48C1F88630C4F8683E9D
:10458000C4F8803EC4F8883EC4F8A03EC4F8A83EF3
:10459000C4F85037C4F85837C4F8642EC4F8781EED
:1045A000C4F8842EC4F8981EC4F8A42EC4F8481782
:1045B000C4F85427C4F84C0711F04CFB84F8B80E2B
:1045C00011F048FB05224F4984F8B90E84F80D28F4
:1045D00070314822584635F0C0FD424B524A219373
:1045E00000232292514A18465946CDE92326CDE9A7
:1045F00027862997CDE925A930262AF091FD0127A4
:104600000023EFF3118086F31188D4F8F8190029FC
:1046100040F0F58480F31188BFF36F8F0023D4F846
:10462000FC79012F40F0FD84FF200026C4F8FC79BE
:1046300023F002FF1AF0CCFE23F04EFC1AF0BCFB74
:104640001EF042FB95F8E030FF2543F004033846A6
:10465000A4F8BC3E0B220223354984F8BA6E84F8D4
:10466000BB6E19F0A3FE1C222946324884F8C06EA6
:1046700084F8C15E35F069FD4FF6FD7384F8DE6E97
:10468000A4F8E03E84F8DF6E84F8E26E84F8E36E0E
:104690001AF076FF32223146274884F8E46E84F817
:1046A000E56E264F35F051FD254819F0C9FC254E21
:1046B00084F8185F84F8605F84F8A85F84F8F05F7E
:1046C00048E000BF4DAF030849C80308400D030090
:1046D000CC5000208AEF0308941C002061D9010807
:1046E000151800201DD80108DDD5010869D301087F
:1046F00063C80308D61C0020DFFE01087DF701080F
:1047000049020208F819002025A402083ACD03083E
:10471000C180020899250208D5E8000835910208F1
:10472000E1E1010821430208E3D5010811D900089D
:10473000BE1E0020C21E0020E61E00200020002019
:10474000F0500020F8200020BD080208DDD4010848
:1047500001240208DA4C87F838500CF03DF90CF0CF
:10476000A5F841F65831D74837F0DEF946F8784CCD
:104770001EF08EFCD44B063414222946A7F50D609A
:1047800046F8744C46F8703C35F0DFFC00240126F6
:10479000CE4DCF4BCF4FC5E9C043CF4B2822C5E903
:1047A000C843CE4BFF2105F6CC2805F53A70C5F875
:1047B000D06AC5F81033C5E9BB74C5E9C287C5F82E
:1047C000CC4AC5F8F842C5F8E882C5F8F442C5F805
:1047D0001843C5F8144314F0EBFF3346FF22C049D9
:1047E000C04829F099F93346FF22BF49BF4829F054
:1047F00093F93346FF22BE49BE4829F08DF933466E
:10480000FF22BD49BD4829F087F90223FF22B449A0
:10481000BB4829F081F90223FF22B349B94829F0A6
:104820007BF90223FF22B249B74829F075F9022328
:10483000FF22B149B54829F06FF90223FF22B4499C
:10484000B44829F069F9B44EDFF830933046494650
:10485000013426F0CDFD042C06F12006F6D1002609
:10486000D946AE4CAE4B0120C4E95363AD4BC4E90D
:104870004D87C4E95B63AC4BC4E95587C4E9636306
:10488000AA4BC4E95D87C4E96B63A94BC4E965879A
:10489000C4E96D87C4F84461C4F83C61C4F8406160
:1048A000C4F86461C4F85C61C4F86061C4F88461F0
:1048B000C4F87C61C4F88061C4F8A461C4F89C6148
:1048C000C4F8A061C4F8C461C4F8BC61C4E97363EE
:1048D000C4F8C06117F0C2F9964904F5EA7026F0F1
:1048E00087FD954BC4E97D879449954F04F5057084
:1048F000C4E98363C4F80462C4F8FC61C4F80062CC
:1049000026F076FD8F4904F50D7026F071FD3A888A
:10491000BB78DFF86CA2ADF8602004F515788BF851
:1049200002304046FF22514619F8013B013629F07A
:10493000F3F8032E08F12008F3D115F0A7FF15F0C6
:10494000AEFF00218048C4F8B412602241600181AA
:104950000C3035F0FAFBA0230120A4F8B63284F81D
:10496000200317F07BF9B4F8223378491A0AB3F51B
:10497000406F774B4FF0000038BF03EB820304F029
:1049800043FC744B744AC4F82433002319460133A2
:104990000A2B918042F8081BF9D1BB783A888DF830
:1049A0002E306E4B6E4E13934AF2E013ADF850303A
:1049B0006C4BADF82C2018936123ADF864306A4B32
:1049C000D8461A889B7800278DF8323096F8DC3468
:1049D000ADF830208DF8363096F8DF34B6F8DA24AA
:1049E0008DF83E300323ADF83420B6F8DD2484F88A
:1049F00078335E4BADF83C200BA80DF14C090CA9A7
:104A00000DAA0DF13C0E06F59C6A10F801CB01379A
:104A100083F800C039F802CB032FA3F802C038F89E
:104A200002CB03F1100323F80CCC11F801CB03F8EF
:104A30000ACC12F801CB0AEBCC0C43F808CC1EF8D8
:104A400001CB03F804CC4FF0010C03F803CCDCD10C
:104A50000223DFF8308184F8AC3384F8AD3388F872
:104A6000243105234FF00009522785F80D3841F213
:104A700002034946D5F82803A8F82631A8F828717A
:104A8000A8F82A7184F8AE9334F025FF384808F569
:104A900096712CF04BFC4946FF2006F06DF894F817
:104AA00078230121334835F050FB334BA4F80A74C6
:104AB00003F15802C4F80C2403F1600264E000BF63
:104AC00098EF03081051002029E60108001000208B
:104AD0001D09000833810108850900080DD501086A
:104AE00091BB01088C20002075BB0008AC20002081
:104AF00035990108CC20002083020008EC2000201A
:104B00000C2100202C2100204C2100206C210020B1
:104B1000850200088C210020AC210020F820002014
:104B2000019D0108599C0108BD9A0108D1A70108FF
:104B300075A7010855A8000805B40008217F0008E2
:104B400034CD0308F5A10008AC2300203DC90308BB
:104B500022EC0308A8EF030820240020040104012C
:104B6000D0EA030801010D0138CD030874240020A8
:104B7000F0130020A7240020B024002085BF0008E7
:104B80008D8500080C500020C4F8B433C4F81424F8
:104B9000A3F13C0794F878235FFA89F39A4200F274
:104BA0004582052300274FF001098DF8603020234E
:104BB00010222121CDE901B3F2208023CDE904792F
:104BC000CDF80C90009705F08BFEC149C14826F046
:104BD0000FFCDFF828A34FF00002BBB2184659467D
:104BE00007938DF8612003F095F89DF86100079B0D
:104BF00068B103F0DDFB20B19DF860200AB98AF8A6
:104C0000109001370E2F0AF1180AE4D13B46A4F8A0
:104C1000983503F0DFFB2CF0BBFD4FF6FF73A4F8D3
:104C20009A35A4F89C35A4F89E35D4F82433ABB15A
:104C3000002158461BF098F880B9D4F824331A782C
:104C40009DF860309A4209D0D91E032906D9D11E99
:104C5000012903D9012A4ED1022B4CD195F81037E6
:104C6000002B48D136F0C6FB0746002843D101236C
:104C7000594618460D2219F099FB9DF860303946C7
:104C800088F8383103230FA8A4F8A0351BF06CF87E
:104C900088BB13A81AF0E6FE139B5946BDF85200D4
:104CA0001A931AF037FE074628BB9DF83C001AF00D
:104CB0006CFD95F8B8365A1E012A00F2C4811AF02C
:104CC00097FF95F8B836033B012B01D81BF006F887
:104CD0001BF098F895F8B836033B012B0BD8B4F8C5
:104CE000A00510F0020700F0CA8100230522012070
:104CF00079491AF0E2FEB4F8223304201A0A06EBCE
:104D00008206D6F8F824D9B202EB81020092012182
:104D1000724A17F067FB0123B4F82223120A93406A
:104D200040F2A172134240F0B981012584F8A255E6
:104D300037F0FCFB6A496B4811F092FD2DF08CFDB9
:104D400084F8AC5537F0F2FB6749684811F088FDEC
:104D500000202BF0AFFE28462BF0ACFE13A809F084
:104D60009DFF022313A88DF84C300BF023F900B3FC
:104D70001A2328460822594619F018FB0DF16A0338
:104D80001E460FAD0DF17A072A4618685968083398
:104D900003C2BB421546F7D10FA913A80AF090FB36
:104DA0000546002800F0178394F8B935013384F8DC
:104DB000B93513A809F072FF052313A88DF84C30FC
:104DC0000BF0F8F80623054613A88DF84C300BF0CD
:104DD000F1F80646002D00F00F8328235A467F2164
:104DE0001E202CF059FC0FAD0DF165030DF1750778
:104DF0002A4618685968083303C2BB421546F7D1E2
:104E000005230FA913A88DF84C300AF059FB05466D
:104E1000002840F0238394F8BF350133DBB284F8D7
:104E2000BF35002E40F0F282002B40F0108313A813
:104E300009F034FF072300258DF84C300DF1820670
:104E400013A88DF84D500BF0B5F8E0B134235A4655
:104E5000294620202CF020FC0FAF0DF172033A46BA
:104E600018685968083303C2B3421746F7D10FA92F
:104E700013A80AF025FB002800F0178394F8BB352F
:104E8000013384F8BB350135052DD9D100245846AE
:104E900009F004FF21462346154A501F12F8015B12
:104EA0000133294410F8015BDBB22C44052B89B295
:104EB000A4B2F3D151EA040300F008830D480BF0CB
:104EC0008FFB21460C482BB0BDE8F04F0BF088BBA0
:104ED000E9A701081C25002000F8FF0755C90308B1
:104EE000485100209C26002050510020A826002078
:104EF000B5260020D5CC0308FCCC030840250020B3
:104F00000E9B812B1BD1D4F80C315A0017D5D4F845
:104F10000C31FFF790B819F07DFA03067FF58EA8E3
:104F20000E9B802B04D1236A13F0010FFFF780B88A
:104F30000E9B812B03D1D4F80C31002BE7DB4621EB
:104F4000B24835F06FFA21E4EE6F136901FB00609F
:104F50009847FFF78FB82268384699180FAB13AA05
:104F60000991FDF771F92D28099931D048B308F15D
:104F70000108089A5FFA88F39A42ECD8A44B19F812
:104F80000330002B3FF4B9A8DDF820805FFA88F3E6
:104F90007E2B3FF6B2A82168384641440FAB13AAD6
:104FA0000891FDF751F92D283FF4A7A83846089934
:104FB000FDF77EFD08F1010806460028E6D0FFF760
:104FC0009CB8139B7BB9079B1A780F9B9A42CED053
:104FD000079B38461B78DAF80020FDF7DFFC002835
:104FE000C5D00646CAE738460991FDF761FD099923
:104FF000EEE7884BB04619F803300893B9E70A6921
:10500000C4F8F8390F6180F31188BFF36F8F012A5C
:105010003FF404AB114612690B61012AFAD1FFF784
:10502000F0BA3A693B611746FFF7FBBA180104EB87
:10503000031393F88933DA0702D5384403F0EEFE00
:1050400009F10109A6E5033B012B05D838461AF002
:10505000A3FD00287FF433AE95F8B836053B012B4D
:105060003FF649AE1AF0C4FD1AF0CCFE95F8B836FA
:10507000052B0CBF0420052019F0E4F93BE60223C0
:105080000B220120644919F091F9B5F8BE3E5B0787
:105090007FF531AE384619F0B7F82CE65F4BD3E90F
:1050A0001205D3E90D210795550744BF0026B046E8
:1050B000D3F83CA05CBFD3F85080594E594B5DBF2C
:1050C0008A460790DFF88091DFF8809112F0080F90
:1050D000554A18BF1A46B6EB08071FBF6423079945
:1050E0007D0803FB015516BFB5FBF7F53D46ADB294
:1050F0004B464E490020CDE9016ACDF80080BFB291
:1051000029F0A6FF2B460020CDE90097BDF81C2012
:10511000474929F09DFF564501D3D04504D94A4659
:105120000020444929F094FF3C4DD5E9173018433D
:105130006B6E184349D1404929F08AFF00203F494E
:1051400029F086FF40F60522B4F82233934211D8A5
:10515000B3F5206F00F2848040F20252934200F0D7
:105160008C8040F20172934200F0918040F2015233
:1051700093427DD00025DFF8D8A0284EDFF8D480F8
:105180002F4FDFF8D4909AF80030002B3FF4CDADCC
:1051900052464146002056F8043B29F059FF9AF840
:1051A000002053460AF1010A002AF8D15B78002B4F
:1051B00000F00F8105F00303032B0CBF394649466D
:1051C000002029F045FF0135DDE700201D4929F0C9
:1051D0003FFFA84600274FF00109DFF880A0002616
:1051E000D8F85C2009FA06F3134204D05146002097
:1051F000BA1929F02DFF0136202EF1D12037602F6A
:1052000008F10408EBD100200C4995E7CAC803084F
:1052100051EF03081EEF0308BE1E0020504E002071
:1052200000100020C9C70308D0C7030876C90308C7
:10523000A8C90308E2C9030801CA030824C6030871
:1052400023C6030817CA0308C4C70308719C0408CF
:1052500052EC0308CBCC030824A30408907C040878
:10526000A3F60223032B19D8DFE803F0336094B1CF
:105270009849002029F0ECFE7CE79749002029F0AE
:10528000E7FE2A6C9549002029F0E2FE72E7944976
:10529000D5E92523002029F0DBFE6BE700209149AA
:1052A00029F0D6FE95F86C309F0703D500208E4973
:1052B00029F0CEFE95F86F305E0603D500208B49AD
:1052C00029F0C6FE95F96F30002BBFF653AF884921
:1052D000CFE70020874929F0BBFE95F86830980792
:1052E00004D000202A6C7D4929F0B2FE95F968307F
:1052F000002B04DA00206A6F7F4929F0A9FE0026FE
:105300000127DFF80082DFF80C92AA6E07FA06F395
:10531000134207D058F8262013781BB149460020C5
:1053200029F096FE0136082EEFD123E773490020BD
:1053300029F08EFE694900202A6C29F089FE95F833
:105340006930590703D500206D4929F081FE95F990
:105350006930002B04DA00206A6F674929F078FE73
:105360000826684FDFF8AC81AB6EF340DA0707D54B
:1053700057F8262013781BB14146002029F068FE1B
:105380000136102EF0D195F8680000287FF4F2AEB7
:105390005D496FE75D49002029F05AFE00202A6C24
:1053A0004E4929F055FE1026564FDFF86881AB6E46
:1053B000F340DB0707D557F8262013781BB1414689
:1053C000002029F045FE01361A2EF0D1D2E65049D0
:1053D00054E73946F4E61022FF21304634F0B5FE9A
:1053E0001A2308225946284618F0E0FF94F8BE35E3
:1053F000013384F8BE35DCE400283FF418AD2823DF
:105400005A467F211E202CF047F901250DF1750326
:105410001E460FAF0DF1850C3A46186859680833DF
:1054200003C263451746F7D106230FA913A88DF8C9
:105430004C300AF045F820B394F8BA35013384F8BB
:10544000BA3594F8BF35002B3FF4F1AC95B9102272
:10545000FF210DF1650034F078FE0BE094F8BA35C9
:10546000013384F8BA35002ED0D194F8BF35002B23
:105470003FF4DDAC28235A467F211E202BF096FEF8
:10548000D5E494F8BF350133DBB284F8BF35002B87
:105490003FF4CDAC2DB91022FF210DF1650034F0A1
:1054A00054FE1022FF213046D5E71022FF21584636
:1054B00034F04BFE34235A46294620202BF076FE4A
:1054C00094F8C035013384F8C035DCE42BB0BDE876
:1054D000F08F00BF47CA030885CA0308B6CA03088D
:1054E000D1CA0308EDCA030806CB030841CB030861
:1054F00075CB0308B2CB0308D8CB0308FFCB030856
:1055000017CC0308F8EF03085ECC03088FCC030820
:10551000A9CC0308F6CB03082DE9F04F00254FF482
:10552000702BABB0CDE909550B95CDF820B01BAC75
:1055300008AE0FCECDE904550FC4CD4B06950393AD
:1055400003AEDFF8A8A3DFF8A8930FCE20ACC94EB6
:105550000FC40FCE13ACCDF830A0CDF81C900FC403
:1055600096E80F0084E80F000DABC34C29461822C3
:10557000184634F0EAFD012704F2C458294645468E
:10558000BE4EBF4B1A90C6F84C31BE4B9022C6F8A7
:105590005031BD4B04F5BB60C6F85431BB4B8DF8A0
:1055A0003A70C6F8583134F0D0FDCDF86CB0CDF873
:1055B0007CA00DF16C0CBCE80F000FC5AC4BC5F81E
:1055C00000A02093CDF8909004F5C5650DF1800CF6
:1055D000BCE80F000FC5202004F5D063C4F80C36DA
:1055E000C4F81436C4F8603606F5A673C5F8009002
:1055F000C4F82436A64DA74BC4F8100684F85D768F
:1056000084F8647684F8187684F85C76C5F8388374
:10561000C5F83C33A04BC5F84033A04BC5F8443324
:105620009F4BC5F84C339F4BC5F850339E4BC5F884
:105630004833EFF31183302282F3118895F8DD9A15
:10564000B9F1000F24D083F31188BFF36F8F95F861
:10565000DD3A83B102A8FAF721FF60B9029B02A8E4
:1056600084F8D835FAF71AFF014600284DD094F88F
:10567000D8052BF07FFF102501224FF4E13313A84A
:10568000CDE9132329F0ECFF28462BB0BDE8F08FBD
:1056900085F8DD7A83F31188BFF36F8F394685F87B
:1056A000749185F8849185F8949185F8A49185F892
:1056B000B49185F8C49185F8D49185F8E491FDF70B
:1056C0004BFF2120FDF748FFFF22784B08215F6048
:1056D000C3F80890C3F818909A624FF00042C3F8DC
:1056E0003890C3F840905A654FF0FF3203F50053ED
:1056F0001A654FF400126E4B1520C3F880210FF08D
:10570000A9FD15200FF0C8FDA1E70127029B84F831
:105710005A0684F83C36674B6748C5F85C33674BDC
:1057200084F86576C5F85433654B84F85976C5F826
:10573000583310F0C9FF96F95D5128460FF09EFDD1
:1057400028460FF0A9FD94F8D805FCF709F80028C1
:1057500091D1CDF80480D4F810360093D4F8D43524
:10576000D4F80C26D4F8C41594F8D80527F088FB93
:10577000054600287FF47FAF302294F8D8354FF4E7
:105780008011534342F2640203F1A04303F58023E6
:10579000995096F95C6130460FF070FD30460FF07D
:1057A0007BFD4848C4F854562BF025FF42480FF0C3
:1057B000B9FD94F8D805FBF7F5FF054600287FF4FE
:1057C0005AAF414E414BC4F87406C4F87036A6F285
:1057D0009440331DC4F86836C4F86C6636F0A3FEF6
:1057E0003B46042205212846FEF7CAF93B46022221
:1057F00006212846FEF7C4F9304684F8785636F07C
:1058000092FE13A9324827F0A3FB142194F87826BE
:1058100042F0040384F878362E4BC3F894144FF406
:10582000A021C3F8AC144FF4C021C3F8A414D107CD
:1058300008D5022203F58053C3F89C54C3F894247E
:10584000C3F8A054D4F8A0361BB92349234811F05B
:1058500007F8D4F8A036224AC4F87C36214B05213B
:10586000C4F8A036204B1A48DA64FEF76DF903E756
:1058700001000F0060F00308F82000200C50002009
:105880004F2901083D29010865290108FD68010823
:1058900000100020256701087F2D010861540108D0
:1058A0008F29010895290108F969010800000450B1
:1058B00000E100E0A12C0108BC260020C966010817
:1058C0009B2901083813002080F00308000500061A
:1058D0000000015B00C003506C5100209C27002099
:1058E000FF3F0D03742700200020015B3C00015B9B
:1058F0004400015B4FF6FF732DE9F047BC4C0546B1
:10590000A4F89A35A4F89C35A4F89E3540F61D43BA
:10591000984290B00AD8B0F5416F65D2182800F2CD
:105920008780152800F2DE8000F09A802B46002048
:10593000B04AB14903F068FC94F8AF36002B40F050
:105940002B8109A809F0AAF9022309A88DF82430AF
:105950000AF030FB002840F00781A84909A80AF0A6
:1059600035FB002800F00081152D40F0EA8010F092
:1059700071F947F23153B0FBF3F2FF2102FB13023E
:1059800002F51C5210329E4892B213F011FF02F041
:10599000D3F902F01FFDB4F8B03613F4007640F0EE
:1059A000AB8113F08F0540F08F8105A825F03AF800
:1059B000059BDA0740F1A08123F0010305A8CDE99A
:1059C00005350795ADF8205025F032F810237F21DA
:1059D0001D2009AA2BF060FE099B09A843F48073DF
:1059E000099325F025F887E1A0F541630D2B9DD89B
:1059F00001A252F823F000BF995A0008995A0008F2
:105A00002D5900082D5900082D5900082D5900085E
:105A10002D5900082D5900081F5B0008395B00084C
:105A20003B5A00083B5A00083B5A00083B5A000802
:105A300040F6064398427FF479AF0020714903F0A5
:105A4000E3FB19F00FFE00287FF470AF6E4B93F864
:105A500010371B0701D102F02DFA162D54D065E73F
:105A600002F040FB69490246002003F0CDFBB4F888
:105A7000AC36002B3FF45AAF0026B146DFF8CC819C
:105A800098F8027008F10408C7B9FF22604BA4F827
:105A9000AC7683F8682149E702F024FB5B490246B3
:105AA000002003F0B1FB5B4A5B4B5C49B5F5416FED
:105AB00018BF1A46002003F0A7FB37E738F804ACFC
:105AC000CDF8009032463B46B4F8AC1609A836F043
:105AD000CAFC3E443B460021504609AA2BF066FB17
